{
  "_format": "hh-sol-artifact-1",
  "contractName": "PSCICO",
  "sourceName": "contracts/VestedFunder.sol",
  "abi": [
    {
      "inputs": [
        {
          "internalType": "address",
          "name": "_PSC",
          "type": "address"
        }
      ],
      "stateMutability": "nonpayable",
      "type": "constructor"
    },
    {
      "inputs": [
        {
          "internalType": "address",
          "name": "owner",
          "type": "address"
        }
      ],
      "name": "OwnableInvalidOwner",
      "type": "error"
    },
    {
      "inputs": [
        {
          "internalType": "address",
          "name": "account",
          "type": "address"
        }
      ],
      "name": "OwnableUnauthorizedAccount",
      "type": "error"
    },
    {
      "anonymous": false,
      "inputs": [
        {
          "indexed": true,
          "internalType": "address",
          "name": "user",
          "type": "address"
        },
        {
          "indexed": false,
          "internalType": "uint256",
          "name": "amount",
          "type": "uint256"
        },
        {
          "indexed": false,
          "internalType": "uint256",
          "name": "timestamp",
          "type": "uint256"
        }
      ],
      "name": "ETHWithdrawn",
      "type": "event"
    },
    {
      "anonymous": false,
      "inputs": [
        {
          "indexed": true,
          "internalType": "address",
          "name": "owner",
          "type": "address"
        },
        {
          "indexed": false,
          "internalType": "uint256",
          "name": "tokenId",
          "type": "uint256"
        },
        {
          "indexed": false,
          "internalType": "uint256",
          "name": "amount0",
          "type": "uint256"
        },
        {
          "indexed": false,
          "internalType": "uint256",
          "name": "amount1",
          "type": "uint256"
        }
      ],
      "name": "FeesCollected",
      "type": "event"
    },
    {
      "anonymous": false,
      "inputs": [
        {
          "indexed": true,
          "internalType": "address",
          "name": "endedBy",
          "type": "address"
        },
        {
          "indexed": false,
          "internalType": "uint256",
          "name": "timestamp",
          "type": "uint256"
        }
      ],
      "name": "ICOEnded",
      "type": "event"
    },
    {
      "anonymous": false,
      "inputs": [
        {
          "indexed": true,
          "internalType": "address",
          "name": "owner",
          "type": "address"
        },
        {
          "indexed": false,
          "internalType": "uint256",
          "name": "poolPSC",
          "type": "uint256"
        },
        {
          "indexed": false,
          "internalType": "uint256",
          "name": "timestamp",
          "type": "uint256"
        }
      ],
      "name": "ICOLaunched",
      "type": "event"
    },
    {
      "anonymous": false,
      "inputs": [
        {
          "indexed": false,
          "internalType": "address",
          "name": "pool",
          "type": "address"
        },
        {
          "indexed": false,
          "internalType": "uint256",
          "name": "timestamp",
          "type": "uint256"
        }
      ],
      "name": "LiquidityPoolCreated",
      "type": "event"
    },
    {
      "anonymous": false,
      "inputs": [
        {
          "indexed": false,
          "internalType": "uint256",
          "name": "tokenId",
          "type": "uint256"
        },
        {
          "indexed": false,
          "internalType": "uint128",
          "name": "liquidity",
          "type": "uint128"
        },
        {
          "indexed": false,
          "internalType": "uint256",
          "name": "amount0",
          "type": "uint256"
        },
        {
          "indexed": false,
          "internalType": "uint256",
          "name": "amount1",
          "type": "uint256"
        },
        {
          "indexed": false,
          "internalType": "uint256",
          "name": "timestamp",
          "type": "uint256"
        }
      ],
      "name": "LiquidityPositionMinted",
      "type": "event"
    },
    {
      "anonymous": false,
      "inputs": [
        {
          "indexed": true,
          "internalType": "address",
          "name": "previousOwner",
          "type": "address"
        },
        {
          "indexed": true,
          "internalType": "address",
          "name": "newOwner",
          "type": "address"
        }
      ],
      "name": "OwnershipTransferred",
      "type": "event"
    },
    {
      "anonymous": false,
      "inputs": [
        {
          "indexed": true,
          "internalType": "address",
          "name": "buyer",
          "type": "address"
        },
        {
          "indexed": true,
          "internalType": "address",
          "name": "referer",
          "type": "address"
        },
        {
          "indexed": false,
          "internalType": "uint256",
          "name": "ethAmount",
          "type": "uint256"
        },
        {
          "indexed": false,
          "internalType": "uint256",
          "name": "weightedContribution",
          "type": "uint256"
        }
      ],
      "name": "PSCBought",
      "type": "event"
    },
    {
      "anonymous": false,
      "inputs": [
        {
          "indexed": true,
          "internalType": "address",
          "name": "user",
          "type": "address"
        },
        {
          "indexed": false,
          "internalType": "uint256",
          "name": "amountWithdrawn",
          "type": "uint256"
        },
        {
          "indexed": false,
          "internalType": "uint256",
          "name": "timestamp",
          "type": "uint256"
        }
      ],
      "name": "PSCWithdrawn",
      "type": "event"
    },
    {
      "anonymous": false,
      "inputs": [
        {
          "indexed": true,
          "internalType": "address",
          "name": "referer",
          "type": "address"
        },
        {
          "indexed": true,
          "internalType": "address",
          "name": "addedBy",
          "type": "address"
        }
      ],
      "name": "RefererAdded",
      "type": "event"
    },
    {
      "inputs": [
        {
          "internalType": "address",
          "name": "referer",
          "type": "address"
        }
      ],
      "name": "addReferer",
      "outputs": [],
      "stateMutability": "nonpayable",
      "type": "function"
    },
    {
      "inputs": [
        {
          "internalType": "address",
          "name": "referer",
          "type": "address"
        }
      ],
      "name": "buyPSC",
      "outputs": [],
      "stateMutability": "payable",
      "type": "function"
    },
    {
      "inputs": [
        {
          "internalType": "uint256",
          "name": "amount0",
          "type": "uint256"
        },
        {
          "internalType": "uint256",
          "name": "amount1",
          "type": "uint256"
        }
      ],
      "name": "calculateSqrtPriceX96",
      "outputs": [
        {
          "internalType": "uint160",
          "name": "",
          "type": "uint160"
        }
      ],
      "stateMutability": "pure",
      "type": "function"
    },
    {
      "inputs": [],
      "name": "claimETH",
      "outputs": [],
      "stateMutability": "nonpayable",
      "type": "function"
    },
    {
      "inputs": [],
      "name": "claimPSC",
      "outputs": [],
      "stateMutability": "nonpayable",
      "type": "function"
    },
    {
      "inputs": [
        {
          "internalType": "uint256",
          "name": "tokenId",
          "type": "uint256"
        }
      ],
      "name": "collectAllFees",
      "outputs": [
        {
          "internalType": "uint256",
          "name": "amount0",
          "type": "uint256"
        },
        {
          "internalType": "uint256",
          "name": "amount1",
          "type": "uint256"
        }
      ],
      "stateMutability": "nonpayable",
      "type": "function"
    },
    {
      "inputs": [
        {
          "internalType": "address",
          "name": "",
          "type": "address"
        }
      ],
      "name": "contributors",
      "outputs": [
        {
          "internalType": "bool",
          "name": "isReferer",
          "type": "bool"
        },
        {
          "internalType": "uint256",
          "name": "ethReceived",
          "type": "uint256"
        },
        {
          "internalType": "uint256",
          "name": "contribution",
          "type": "uint256"
        },
        {
          "internalType": "uint256",
          "name": "weightedContribution",
          "type": "uint256"
        },
        {
          "internalType": "uint256",
          "name": "pscWithdrawn",
          "type": "uint256"
        }
      ],
      "stateMutability": "view",
      "type": "function"
    },
    {
      "inputs": [],
      "name": "deploymentTime",
      "outputs": [
        {
          "internalType": "uint256",
          "name": "",
          "type": "uint256"
        }
      ],
      "stateMutability": "view",
      "type": "function"
    },
    {
      "inputs": [],
      "name": "endICO",
      "outputs": [],
      "stateMutability": "nonpayable",
      "type": "function"
    },
    {
      "inputs": [],
      "name": "getMultiplier",
      "outputs": [
        {
          "internalType": "uint256",
          "name": "",
          "type": "uint256"
        }
      ],
      "stateMutability": "view",
      "type": "function"
    },
    {
      "inputs": [],
      "name": "getPool",
      "outputs": [
        {
          "internalType": "address",
          "name": "",
          "type": "address"
        }
      ],
      "stateMutability": "view",
      "type": "function"
    },
    {
      "inputs": [],
      "name": "goalAmount",
      "outputs": [
        {
          "internalType": "uint256",
          "name": "",
          "type": "uint256"
        }
      ],
      "stateMutability": "view",
      "type": "function"
    },
    {
      "inputs": [],
      "name": "isEnded",
      "outputs": [
        {
          "internalType": "bool",
          "name": "",
          "type": "bool"
        }
      ],
      "stateMutability": "view",
      "type": "function"
    },
    {
      "inputs": [],
      "name": "launchICO",
      "outputs": [],
      "stateMutability": "nonpayable",
      "type": "function"
    },
    {
      "inputs": [],
      "name": "liquidityETH",
      "outputs": [
        {
          "internalType": "uint256",
          "name": "",
          "type": "uint256"
        }
      ],
      "stateMutability": "view",
      "type": "function"
    },
    {
      "inputs": [],
      "name": "liquidityPSC",
      "outputs": [
        {
          "internalType": "uint256",
          "name": "",
          "type": "uint256"
        }
      ],
      "stateMutability": "view",
      "type": "function"
    },
    {
      "inputs": [],
      "name": "nonfungiblePositionManager",
      "outputs": [
        {
          "internalType": "contract INonfungiblePositionManager",
          "name": "",
          "type": "address"
        }
      ],
      "stateMutability": "view",
      "type": "function"
    },
    {
      "inputs": [],
      "name": "owner",
      "outputs": [
        {
          "internalType": "address",
          "name": "",
          "type": "address"
        }
      ],
      "stateMutability": "view",
      "type": "function"
    },
    {
      "inputs": [],
      "name": "poolETH",
      "outputs": [
        {
          "internalType": "uint256",
          "name": "",
          "type": "uint256"
        }
      ],
      "stateMutability": "view",
      "type": "function"
    },
    {
      "inputs": [],
      "name": "poolPSC",
      "outputs": [
        {
          "internalType": "uint256",
          "name": "",
          "type": "uint256"
        }
      ],
      "stateMutability": "view",
      "type": "function"
    },
    {
      "inputs": [],
      "name": "renounceOwnership",
      "outputs": [],
      "stateMutability": "nonpayable",
      "type": "function"
    },
    {
      "inputs": [],
      "name": "soldAmount",
      "outputs": [
        {
          "internalType": "uint256",
          "name": "",
          "type": "uint256"
        }
      ],
      "stateMutability": "view",
      "type": "function"
    },
    {
      "inputs": [],
      "name": "timeLimit",
      "outputs": [
        {
          "internalType": "uint256",
          "name": "",
          "type": "uint256"
        }
      ],
      "stateMutability": "view",
      "type": "function"
    },
    {
      "inputs": [
        {
          "internalType": "address",
          "name": "newOwner",
          "type": "address"
        }
      ],
      "name": "transferOwnership",
      "outputs": [],
      "stateMutability": "nonpayable",
      "type": "function"
    },
    {
      "inputs": [],
      "name": "weightedETHRaised",
      "outputs": [
        {
          "internalType": "uint256",
          "name": "",
          "type": "uint256"
        }
      ],
      "stateMutability": "view",
      "type": "function"
    },
    {
      "stateMutability": "payable",
      "type": "receive"
    }
  ],
  "bytecode": "0x60e060405273c36442b4a4522e871399cd717abdd847ab11fe88608081905260a05273c02aaa39b223fe8d0a0e5c4f27ead9083c756cc260c05262278d0060045560326009556103e8600a5560c8600b55600e805460ff191690556011805461ffff191690553480156200007257600080fd5b50604051620025f2380380620025f28339810160408190526200009591620001b5565b3380620000bc57604051631e4fbdf760e01b81526000600482015260240160405180910390fd5b620000c78162000165565b50600180546001600160a01b039092166001600160a01b0319928316178155426003908155600280549093163390811784556040805160a081018252848152600060208083018281528385018381526060850189815260808601858152978552600f909352949092209251835490151560ff1990911617835590519582019590955590519481019490945591519083015551600490910155620001e7565b600080546001600160a01b038381166001600160a01b0319831681178455604051919092169283917f8be0079c531659141344cd1fd0a4f28419497f9722a3daafe3b4186f6b6457e09190a35050565b600060208284031215620001c857600080fd5b81516001600160a01b0381168114620001e057600080fd5b9392505050565b60805160a05160c05161237962000279600039600081816114070152818161143701528181611541015281816116d301528181611707015281816118d30152611a790152600081816103ee01528181610813015281816115c9015281816117ae0152818161184601526119d8015260008181611ac101528181611bc701528181611c690152611d6f01526123796000f3fe60806040526004361061016a5760003560e01c80638da5cb5b116100d1578063b44a27221161008a578063ecda10f511610064578063ecda10f51461043c578063f2fde38b14610452578063fa1a5f5914610472578063feb952a31461048857600080fd5b8063b44a2722146103dc578063c08d1fe514610410578063e677afcc1461042657600080fd5b80638da5cb5b1461032e578063950970301461034c5780639d4cc0ea14610362578063a000bf4f14610377578063a4fd6f5614610397578063aacff1dd146103bc57600080fd5b8063498914a611610123578063498914a6146102b05780634f248409146102c65780635453f3fa146102db57806367272999146102ee578063715018a614610303578063738703ea1461031857600080fd5b8063026b1d5f146101765780631720b593146101b35780631f6d4942146101ca5780632636b9451461024257806340490a901461026657806346ce96dd1461027b57600080fd5b3661017157005b600080fd5b34801561018257600080fd5b506011546201000090046001600160a01b03165b6040516001600160a01b0390911681526020015b60405180910390f35b3480156101bf57600080fd5b506101c861049e565b005b3480156101d657600080fd5b506102186101e5366004611f3c565b600f602052600090815260409020805460018201546002830154600384015460049094015460ff90931693919290919085565b6040805195151586526020860194909452928401919091526060830152608082015260a0016101aa565b34801561024e57600080fd5b5061025860065481565b6040519081526020016101aa565b34801561027257600080fd5b506102586106e7565b34801561028757600080fd5b5061029b610296366004611f59565b61073a565b604080519283526020830191909152016101aa565b3480156102bc57600080fd5b5061025860055481565b3480156102d257600080fd5b506101c86108cd565b6101c86102e9366004611f3c565b610b09565b3480156102fa57600080fd5b506101c8610dcd565b34801561030f57600080fd5b506101c8610ec7565b34801561032457600080fd5b50610258600d5481565b34801561033a57600080fd5b506000546001600160a01b0316610196565b34801561035857600080fd5b5061025860085481565b34801561036e57600080fd5b506101c8610edb565b34801561038357600080fd5b50610196610392366004611f72565b6111ee565b3480156103a357600080fd5b506103ac611239565b60405190151581526020016101aa565b3480156103c857600080fd5b506101c86103d7366004611f3c565b611252565b3480156103e857600080fd5b506101967f000000000000000000000000000000000000000000000000000000000000000081565b34801561041c57600080fd5b5061025860045481565b34801561043257600080fd5b5061025860075481565b34801561044857600080fd5b5061025860035481565b34801561045e57600080fd5b506101c861046d366004611f3c565b6113b1565b34801561047e57600080fd5b5061025860105481565b34801561049457600080fd5b50610258600c5481565b6000546001600160a01b031633146104fd5760405162461bcd60e51b815260206004820152601960248201527f4f6e6c79206f776e65722063616e206c61756e63682049434f0000000000000060448201526064015b60405180910390fd5b60115460ff16156105475760405162461bcd60e51b81526020600482015260146024820152731250d3c8185b1c9958591e481b185d5b98da195960621b60448201526064016104f4565b6011805460ff19166001908117909155546040805163313ce56760e01b815290516001600160a01b0390921691600091839163313ce567916004808201926020929091908290030181865afa1580156105a4573d6000803e3d6000fd5b505050506040513d601f19601f820116820180604052508101906105c89190611f94565b6105d390600a6120a7565b90506105e3816301c9c3806120b3565b60058190556040516323b872dd60e01b815233600482015230602482015260448101919091526001600160a01b038316906323b872dd906064016020604051808303816000875af115801561063c573d6000803e3d6000fd5b505050506040513d601f19601f8201168201806040525081019061066091906120ca565b6106a55760405162461bcd60e51b8152602060048201526016602482015275151c985b9cd9995c881d1bc81250d3c819985a5b195960521b60448201526064016104f4565b6005546040805191825242602083015233917f682c5186130f86e9f84f109bccf334a7b72843485c4abd72e2295b8e8d69705d91015b60405180910390a25050565b600080600354426106f891906120ec565b90506000600454826103e861070d91906120b3565b6107179190612115565b610723906107d06120ec565b90506103e881101561073457506103e85b92915050565b60008061074f6000546001600160a01b031690565b6001600160a01b0316336001600160a01b0316146107af5760405162461bcd60e51b815260206004820152601b60248201527f4f6e6c79206f776e65722063616e20636f6c6c6563742066656573000000000060448201526064016104f4565b6040805160808101825284815233602082019081526001600160801b0382840181815260608401828152945163fc6f786560e01b81528451600482015292516001600160a01b039081166024850152905182166044840152935116606482015290917f0000000000000000000000000000000000000000000000000000000000000000169063fc6f78659060840160408051808303816000875af115801561085b573d6000803e3d6000fd5b505050506040513d601f19601f8201168201806040525081019061087f9190612129565b6040805187815260208101849052908101829052919450925033907facf5781f729863816d01e6d77635b13f2998b176b9a3550306ac6363f601bc2b9060600160405180910390a250915091565b60115460ff166109125760405162461bcd60e51b815260206004820152601060248201526f1250d3c81b9bdd081b185d5b98da195960821b60448201526064016104f4565b61091a611239565b6109365760405162461bcd60e51b81526004016104f49061214d565b601154610100900460ff16156109825760405162461bcd60e51b81526020600482015260116024820152701250d3c8185b1c9958591e48195b991959607a1b60448201526064016104f4565b6011805461ff0019166101001790556001546001600160a01b03166109a56113ef565b506109ae6116b9565b50505050806001600160a01b03166397d93935826001600160a01b0316638da5cb5b6040518163ffffffff1660e01b8152600401602060405180830381865afa1580156109ff573d6000803e3d6000fd5b505050506040513d601f19601f82011682018060405250810190610a23919061217a565b6040516001600160e01b031960e084901b1681526001600160a01b039091166004820152602401600060405180830381600087803b158015610a6457600080fd5b505af1158015610a78573d6000803e3d6000fd5b505050506000600a54600b54600c54610a9191906120b3565b610a9b9190612115565b6002546040519192506001600160a01b03169082156108fc029083906000818181858888f19350505050158015610ad6573d6000803e3d6000fd5b5060405142815233907faf7ceceb1d24b8d84e8a3ddb34e1e634558983a6785f43817275dee72ad0f70c906020016106db565b60115460ff16610b4e5760405162461bcd60e51b815260206004820152601060248201526f1250d3c81b9bdd081b185d5b98da195960821b60448201526064016104f4565b60003411610b9e5760405162461bcd60e51b815260206004820152601c60248201527f56616c7565206d7573742062652067726561746572207468616e20300000000060448201526064016104f4565b610ba6611239565b15610be25760405162461bcd60e51b815260206004820152600c60248201526b1250d3c81a5cc8195b99195960a21b60448201526064016104f4565b6001600160a01b03811615610c57576001600160a01b0381166000908152600f602052604090205460ff161515600114610c525760405162461bcd60e51b8152602060048201526011602482015270149959995c995c881b9bdd08199bdd5b99607a1b60448201526064016104f4565b610c65565b506002546001600160a01b03165b6000610c6f6106e7565b336000908152600f6020526040812060020180549293503492909190610c96908490612197565b9091555050600a54600090610cab83346120b3565b610cb59190612115565b336000908152600f6020526040812060030180549293508392909190610cdc908490612197565b9091555050600a54600954610cf190346120b3565b610cfb9190612115565b6001600160a01b0384166000908152600f602052604081206001018054909190610d26908490612197565b9250508190555034600c6000828254610d3f9190612197565b9091555050600a54610d5183346120b3565b610d5b9190612115565b600d6000828254610d6c9190612197565b9091555050336000818152600f6020908152604091829020600301548251348152918201526001600160a01b03861692917fc7bcd4498f0589428c9288505f6d25be813429ec3ff8277e1741318a7d28fd92910160405180910390a3505050565b336000908152600f6020526040902060010154610e1e5760405162461bcd60e51b815260206004820152600f60248201526e4e6f2045544820746f20636c61696d60881b60448201526064016104f4565b601154610100900460ff16610e455760405162461bcd60e51b81526004016104f49061214d565b336000818152600f6020526040808220600101805490839055905190929183156108fc02918491818181858888f19350505050158015610e89573d6000803e3d6000fd5b506040805182815242602082015233917fd3605746397fcbe273096353855da8c40c332aa45d2d97a5e19130a238e9e3bc910160405180910390a250565b610ecf611e51565b610ed96000611e7e565b565b336000908152600f6020526040902060020154610f2c5760405162461bcd60e51b815260206004820152600f60248201526e4e6f2050534320746f20636c61696d60881b60448201526064016104f4565b601154610100900460ff16610f535760405162461bcd60e51b81526004016104f49061214d565b336000908152600f602052604081206002810154600a546003909201549091610f7b916120b3565b610f859190612115565b90506000600a5482600454610f9a91906120b3565b610fa49190612115565b90508060035442610fb591906120ec565b11610ffa5760405162461bcd60e51b815260206004820152601560248201527421b634b333103832b934b7b2103737ba1037bb32b960591b60448201526064016104f4565b600154600d54336000908152600f60205260408120600301546005546001600160a01b039094169391929161102f91906120b3565b6110399190612115565b336000908152600f6020526040902060040154909150811161109d5760405162461bcd60e51b815260206004820152601760248201527f416c726561647920636c61696d656420616c6c2050534300000000000000000060448201526064016104f4565b6000836003546110ad9190612197565b6110b790426120ec565b90506000600a54866004546110cc91906120b3565b6110d69190612115565b9050808211156110e4578091505b6000816110f184866120b3565b6110fb9190612115565b336000908152600f602052604081206004015491925061111b82846120ec565b336000818152600f6020526040908190206004908101879055905163a9059cbb60e01b815290810191909152602481018290529091506001600160a01b0388169063a9059cbb906044016020604051808303816000875af1158015611184573d6000803e3d6000fd5b505050506040513d601f19601f820116820180604052508101906111a891906120ca565b506040805182815242602082015233917f94f984ebd5c936a60642af6e2dc9843a51cdd10a75e94743020b41ae5cefebed910160405180910390a2505050505050505050565b6000633b9aca0061121a8461120b85670de0b6b3a76400006120b3565b6112159190612115565b611ece565b61122890600160601b6120b3565b6112329190612115565b9392505050565b600060045460035461124b9190612197565b4211905090565b6002546001600160a01b031633146112ac5760405162461bcd60e51b815260206004820152601860248201527f4f6e6c79206465762063616e206164642072656665726572000000000000000060448201526064016104f4565b6001600160a01b0381166113025760405162461bcd60e51b815260206004820152601b60248201527f526566657265722063616e6e6f7420626520302061646472657373000000000060448201526064016104f4565b6001600160a01b0381166000908152600f602052604090205460ff16156113635760405162461bcd60e51b8152602060048201526015602482015274149959995c995c88185b1c9958591e481859191959605a1b60448201526064016104f4565b6001600160a01b0381166000818152600f6020526040808220805460ff19166001179055513392917f3614112c726085bae6239dd3b2a720c351c7e51beac5058535e2475aa78f8e7c91a350565b6113b9611e51565b6001600160a01b0381166113e357604051631e4fbdf760e01b8152600060048201526024016104f4565b6113ec81611e7e565b50565b600154600090610bb8906001600160a01b03908116907f00000000000000000000000000000000000000000000000000000000000000009081168211156114615750506001547f0000000000000000000000000000000000000000000000000000000000000000906001600160a01b03165b600a54600954600b5461147490836120ec565b61147e91906120ec565b61148890476120b3565b6114929190612115565b6008819055600d5460055490916114a8916120b3565b6114b29190612115565b60078190556001546040516340c10f1960e01b815230600482015260248101929092526001600160a01b03169081906340c10f19906044016020604051808303816000875af1158015611509573d6000803e3d6000fd5b505050506040513d601f19601f8201168201806040525081019061152d9190611f94565b506001546000906001600160a01b039081167f0000000000000000000000000000000000000000000000000000000000000000909116101561157e576115776008546007546111ee565b905061158f565b61158c6007546008546111ee565b90505b6040516309f56ab160e11b81526001600160a01b038581166004830152848116602483015262ffffff8716604483015282811660648301527f000000000000000000000000000000000000000000000000000000000000000016906313ead562906084016020604051808303816000875af1158015611612573d6000803e3d6000fd5b505050506040513d601f19601f82011682018060405250810190611636919061217a565b6011805462010000600160b01b031916620100006001600160a01b0393841681029190911791829055604080519190920490921682524260208301527f7d8a82854e233f0a9eebcf831c1c7165d0a24090f0abfefe183e60aa8d23e6e7910160405180910390a150506011546201000090046001600160a01b0316949350505050565b6001546000908190819081906001600160a01b03908116907f0000000000000000000000000000000000000000000000000000000000000000908290829081168211156117315750506001547f0000000000000000000000000000000000000000000000000000000000000000906001600160a01b03165b6000610bb890506000600754905060006008549050856001600160a01b031663d0e30db0826040518263ffffffff1660e01b81526004016000604051808303818588803b15801561178157600080fd5b505af1158015611795573d6000803e3d6000fd5b505060405163095ea7b360e01b81526001600160a01b037f000000000000000000000000000000000000000000000000000000000000000081166004830152602482018790528b16935063095ea7b3925060440190506020604051808303816000875af115801561180a573d6000803e3d6000fd5b505050506040513d601f19601f8201168201806040525081019061182e91906120ca565b5060405163095ea7b360e01b81526001600160a01b037f0000000000000000000000000000000000000000000000000000000000000000811660048301526024820183905287169063095ea7b3906044016020604051808303816000875af115801561189e573d6000803e3d6000fd5b505050506040513d601f19601f820116820180604052508101906118c291906120ca565b506001546001600160a01b039081167f00000000000000000000000000000000000000000000000000000000000000009091161015611902576007549091505b6000604051806101600160405280876001600160a01b03168152602001866001600160a01b031681526020018562ffffff16815260200160328661194691906121aa565b611952620d89e86121cc565b61195c91906121ee565b611968620d89e86121cc565b6119729190612210565b60020b81526020016119856032876121aa565b61199290620d89e86121ee565b61199f90620d89e8612210565b60020b81526020018481526020018381526020016000815260200160008152602001306001600160a01b031681526020014281525090507f00000000000000000000000000000000000000000000000000000000000000006001600160a01b03166388316456826040518263ffffffff1660e01b8152600401611a229190612235565b6080604051808303816000875af1158015611a41573d6000803e3d6000fd5b505050506040513d601f19601f82011682018060405250810190611a6591906122f9565b929e50909c509a5098506001600160a01b037f0000000000000000000000000000000000000000000000000000000000000000811690861603611c4a5781891015611ba85760405163095ea7b360e01b81526001600160a01b037f0000000000000000000000000000000000000000000000000000000000000000811660048301526000602483015288169063095ea7b3906044016020604051808303816000875af1158015611b19573d6000803e3d6000fd5b505050506040513d601f19601f82011682018060405250810190611b3d91906120ca565b506001600160a01b038716632e1a7d4d611b578b856120ec565b6040518263ffffffff1660e01b8152600401611b7591815260200190565b600060405180830381600087803b158015611b8f57600080fd5b505af1158015611ba3573d6000803e3d6000fd5b505050505b828a1015611c455760405163095ea7b360e01b81526001600160a01b037f0000000000000000000000000000000000000000000000000000000000000000811660048301526000602483015289169063095ea7b3906044016020604051808303816000875af1158015611c1f573d6000803e3d6000fd5b505050506040513d601f19601f82011682018060405250810190611c4391906120ca565b505b611ded565b828a1015611d505760405163095ea7b360e01b81526001600160a01b037f0000000000000000000000000000000000000000000000000000000000000000811660048301526000602483015288169063095ea7b3906044016020604051808303816000875af1158015611cc1573d6000803e3d6000fd5b505050506040513d601f19601f82011682018060405250810190611ce591906120ca565b506001600160a01b038716632e1a7d4d611cff8c866120ec565b6040518263ffffffff1660e01b8152600401611d1d91815260200190565b600060405180830381600087803b158015611d3757600080fd5b505af1158015611d4b573d6000803e3d6000fd5b505050505b81891015611ded5760405163095ea7b360e01b81526001600160a01b037f0000000000000000000000000000000000000000000000000000000000000000811660048301526000602483015289169063095ea7b3906044016020604051808303816000875af1158015611dc7573d6000803e3d6000fd5b505050506040513d601f19601f82011682018060405250810190611deb91906120ca565b505b604080518d81526001600160801b038d1660208201529081018b9052606081018a90524260808201527f1937c4a40ba1176b66fd7fc569286057a049d1f0b5e423b0fa1ac7537751140c9060a00160405180910390a1505050505050505090919293565b6000546001600160a01b03163314610ed95760405163118cdaa760e01b81523360048201526024016104f4565b600080546001600160a01b038381166001600160a01b0319831681178455604051919092169283917f8be0079c531659141344cd1fd0a4f28419497f9722a3daafe3b4186f6b6457e09190a35050565b6000806002611ede846001612197565b611ee89190612115565b90508291505b81811015611f2157905080600281611f068186612115565b611f109190612197565b611f1a9190612115565b9050611eee565b50919050565b6001600160a01b03811681146113ec57600080fd5b600060208284031215611f4e57600080fd5b813561123281611f27565b600060208284031215611f6b57600080fd5b5035919050565b60008060408385031215611f8557600080fd5b50508035926020909101359150565b600060208284031215611fa657600080fd5b5051919050565b634e487b7160e01b600052601160045260246000fd5b600181815b80851115611ffe578160001904821115611fe457611fe4611fad565b80851615611ff157918102915b93841c9390800290611fc8565b509250929050565b60008261201557506001610734565b8161202257506000610734565b816001811461203857600281146120425761205e565b6001915050610734565b60ff84111561205357612053611fad565b50506001821b610734565b5060208310610133831016604e8410600b8410161715612081575081810a610734565b61208b8383611fc3565b806000190482111561209f5761209f611fad565b029392505050565b60006112328383612006565b808202811582820484141761073457610734611fad565b6000602082840312156120dc57600080fd5b8151801515811461123257600080fd5b8181038181111561073457610734611fad565b634e487b7160e01b600052601260045260246000fd5b600082612124576121246120ff565b500490565b6000806040838503121561213c57600080fd5b505080516020909101519092909150565b60208082526013908201527249434f206973207374696c6c2061637469766560681b604082015260600190565b60006020828403121561218c57600080fd5b815161123281611f27565b8082018082111561073457610734611fad565b600062ffffff808416806121c0576121c06120ff565b92169190910492915050565b60008160020b627fffff1981036121e5576121e5611fad565b60000392915050565b60008260020b80612201576122016120ff565b808360020b0791505092915050565b600282810b9082900b03627fffff198112627fffff8213171561073457610734611fad565b81516001600160a01b031681526101608101602083015161226160208401826001600160a01b03169052565b506040830151612278604084018262ffffff169052565b50606083015161228d606084018260020b9052565b5060808301516122a2608084018260020b9052565b5060a083015160a083015260c083015160c083015260e083015160e0830152610100808401518184015250610120808401516122e8828501826001600160a01b03169052565b505061014092830151919092015290565b6000806000806080858703121561230f57600080fd5b8451935060208501516001600160801b038116811461232d57600080fd5b604086015160609096015194979096509250505056fea264697066735822122074f3ffcacef5e33b067445f5321190b1434b90967d131eae22e76408a059676a64736f6c63430008180033",
  "linkReferences": {},
  "deployedLinkReferences": {}
}