{
  "_format": "hh-sol-artifact-1",
  "contractName": "SwapHelper",
  "sourceName": "contracts/SwapHelper.sol",
  "abi": [
    {
      "inputs": [],
      "name": "WETH",
      "outputs": [
        {
          "internalType": "address",
          "name": "",
          "type": "address"
        }
      ],
      "stateMutability": "view",
      "type": "function"
    },
    {
      "inputs": [],
      "name": "getAmountOut",
      "outputs": [
        {
          "internalType": "uint256",
          "name": "",
          "type": "uint256"
        }
      ],
      "stateMutability": "view",
      "type": "function"
    },
    {
      "inputs": [
        {
          "internalType": "address",
          "name": "tokenAddress",
          "type": "address"
        },
        {
          "internalType": "uint256",
          "name": "amountIn",
          "type": "uint256"
        }
      ],
      "name": "swapExactInputSingleForEth",
      "outputs": [
        {
          "internalType": "uint256",
          "name": "",
          "type": "uint256"
        }
      ],
      "stateMutability": "payable",
      "type": "function"
    },
    {
      "inputs": [
        {
          "internalType": "address",
          "name": "tokenAddress",
          "type": "address"
        }
      ],
      "name": "swapExactInputSingleForToken",
      "outputs": [
        {
          "internalType": "uint256",
          "name": "",
          "type": "uint256"
        }
      ],
      "stateMutability": "payable",
      "type": "function"
    },
    {
      "inputs": [
        {
          "internalType": "uint256",
          "name": "amountOut",
          "type": "uint256"
        },
        {
          "internalType": "address",
          "name": "tokenAddress",
          "type": "address"
        }
      ],
      "name": "swapExactOutputSingleForToken",
      "outputs": [
        {
          "internalType": "uint256",
          "name": "amountIn",
          "type": "uint256"
        }
      ],
      "stateMutability": "payable",
      "type": "function"
    },
    {
      "inputs": [],
      "name": "swapRouter",
      "outputs": [
        {
          "internalType": "contract ISwapRouter",
          "name": "",
          "type": "address"
        }
      ],
      "stateMutability": "view",
      "type": "function"
    },
    {
      "inputs": [],
      "name": "swapRouterAddress",
      "outputs": [
        {
          "internalType": "address",
          "name": "",
          "type": "address"
        }
      ],
      "stateMutability": "view",
      "type": "function"
    },
    {
      "stateMutability": "payable",
      "type": "receive"
    }
  ],
  "bytecode": "0x60e060405273e592427a0aece92de3edee1f18e0157c05861564608081905260a05273c02aaa39b223fe8d0a0e5c4f27ead9083c756cc260c05234801561004557600080fd5b5060805160a05160c051610b446100cf60003960008181610128015281816102bc015281816103b00152818161045f0152818161057e015281816107a901526108c701526000818161015c0152818161031d015281816105e1015261092c01526000818160dc01528181610225015281816104e80152818161067a01526108320152610b446000f3fe6080604052600436106100745760003560e01c806390fcdb361161004e57806390fcdb36146100ca578063ad5c464814610116578063c31c9c071461014a578063f2ac58381461017e57600080fd5b806357b2351d1461008057806365d6c0f5146100a45780636f7655f8146100b757600080fd5b3661007b57005b600080fd5b34801561008c57600080fd5b506000545b6040519081526020015b60405180910390f35b6100916100b23660046109d0565b610191565b6100916100c53660046109fa565b610455565b3480156100d657600080fd5b506100fe7f000000000000000000000000000000000000000000000000000000000000000081565b6040516001600160a01b03909116815260200161009b565b34801561012257600080fd5b506100fe7f000000000000000000000000000000000000000000000000000000000000000081565b34801561015657600080fd5b506100fe7f000000000000000000000000000000000000000000000000000000000000000081565b61009161018c366004610a26565b6107a4565b6040516323b872dd60e01b81523360048201523060248201526044810182905260009083906001600160a01b038216906323b872dd906064016020604051808303816000875af11580156101e9573d6000803e3d6000fd5b505050506040513d601f19601f8201168201806040525081019061020d9190610a48565b5060405163095ea7b360e01b81526001600160a01b037f0000000000000000000000000000000000000000000000000000000000000000811660048301526024820185905282169063095ea7b3906044016020604051808303816000875af115801561027d573d6000803e3d6000fd5b505050506040513d601f19601f820116820180604052508101906102a19190610a48565b5060408051610100810182526001600160a01b0380871682527f000000000000000000000000000000000000000000000000000000000000000081166020830152610bb88284015230606083015242608083015260a08201869052600060c0830181905260e08301819052925163414bf38960e01b81529192917f00000000000000000000000000000000000000000000000000000000000000009091169063414bf38990610354908590600401610a6a565b6020604051808303816000875af1158015610373573d6000803e3d6000fd5b505050506040513d601f19601f820116820180604052508101906103979190610ad4565b604051632e1a7d4d60e01b8152600481018290529091507f0000000000000000000000000000000000000000000000000000000000000000906001600160a01b03821690632e1a7d4d90602401600060405180830381600087803b1580156103fe57600080fd5b505af1158015610412573d6000803e3d6000fd5b505060405133925084156108fc02915084906000818181858888f19350505050158015610443573d6000803e3d6000fd5b50506000819055925050505b92915050565b60008034905060007f00000000000000000000000000000000000000000000000000000000000000009050806001600160a01b031663d0e30db0836040518263ffffffff1660e01b81526004016000604051808303818588803b1580156104bb57600080fd5b505af11580156104cf573d6000803e3d6000fd5b505060405163095ea7b360e01b81526001600160a01b037f000000000000000000000000000000000000000000000000000000000000000081166004830152602482018790528516935063095ea7b3925060440190506020604051808303816000875af1158015610544573d6000803e3d6000fd5b505050506040513d601f19601f820116820180604052508101906105689190610a48565b5060408051610100810182526001600160a01b037f0000000000000000000000000000000000000000000000000000000000000000811682528681166020830152610bb88284015233606083015242608083015260a0820188905260c08201859052600060e08301529151631b67c43360e31b815290917f0000000000000000000000000000000000000000000000000000000000000000169063db3e219890610616908490600401610a6a565b6020604051808303816000875af1158015610635573d6000803e3d6000fd5b505050506040513d601f19601f820116820180604052508101906106599190610ad4565b93508284101561079b5760405163095ea7b360e01b81526001600160a01b037f0000000000000000000000000000000000000000000000000000000000000000811660048301526000602483015283169063095ea7b3906044016020604051808303816000875af11580156106d2573d6000803e3d6000fd5b505050506040513d601f19601f820116820180604052508101906106f69190610a48565b506001600160a01b038216632e1a7d4d6107108686610aed565b6040518263ffffffff1660e01b815260040161072e91815260200190565b600060405180830381600087803b15801561074857600080fd5b505af115801561075c573d6000803e3d6000fd5b503392506108fc915061077190508686610aed565b6040518115909202916000818181858888f19350505050158015610799573d6000803e3d6000fd5b505b50505092915050565b6000807f00000000000000000000000000000000000000000000000000000000000000009050806001600160a01b031663d0e30db0346040518263ffffffff1660e01b81526004016000604051808303818588803b15801561080557600080fd5b505af1158015610819573d6000803e3d6000fd5b505060405163095ea7b360e01b81526001600160a01b037f0000000000000000000000000000000000000000000000000000000000000000811660048301523460248301528516935063095ea7b3925060440190506020604051808303816000875af115801561088d573d6000803e3d6000fd5b505050506040513d601f19601f820116820180604052508101906108b19190610a48565b5060408051610100810182526001600160a01b037f0000000000000000000000000000000000000000000000000000000000000000811682528581166020830152610bb8828401523360608301524260808301523460a0830152600060c0830181905260e08301819052925163414bf38960e01b81529192917f00000000000000000000000000000000000000000000000000000000000000009091169063414bf38990610963908590600401610a6a565b6020604051808303816000875af1158015610982573d6000803e3d6000fd5b505050506040513d601f19601f820116820180604052508101906109a69190610ad4565b600081905595945050505050565b80356001600160a01b03811681146109cb57600080fd5b919050565b600080604083850312156109e357600080fd5b6109ec836109b4565b946020939093013593505050565b60008060408385031215610a0d57600080fd5b82359150610a1d602084016109b4565b90509250929050565b600060208284031215610a3857600080fd5b610a41826109b4565b9392505050565b600060208284031215610a5a57600080fd5b81518015158114610a4157600080fd5b610100810161044f828480516001600160a01b03908116835260208083015182169084015260408083015162ffffff16908401526060808301518216908401526080808301519084015260a0828101519084015260c0808301519084015260e09182015116910152565b600060208284031215610ae657600080fd5b5051919050565b8181038181111561044f57634e487b7160e01b600052601160045260246000fdfea26469706673582212206fe4a3913962b0e8134abc9f422d268e31549a3f7d0762db99c7d3dfbeac09d564736f6c63430008180033",
  "linkReferences": {},
  "deployedLinkReferences": {}
}