{
  "_format": "hh-sol-artifact-1",
  "contractName": "PSC",
  "sourceName": "contracts/PSC.sol",
  "abi": [
    {
      "inputs": [],
      "stateMutability": "nonpayable",
      "type": "constructor"
    },
    {
      "inputs": [],
      "name": "CheckpointUnorderedInsertion",
      "type": "error"
    },
    {
      "inputs": [],
      "name": "ECDSAInvalidSignature",
      "type": "error"
    },
    {
      "inputs": [
        {
          "internalType": "uint256",
          "name": "length",
          "type": "uint256"
        }
      ],
      "name": "ECDSAInvalidSignatureLength",
      "type": "error"
    },
    {
      "inputs": [
        {
          "internalType": "bytes32",
          "name": "s",
          "type": "bytes32"
        }
      ],
      "name": "ECDSAInvalidSignatureS",
      "type": "error"
    },
    {
      "inputs": [
        {
          "internalType": "uint256",
          "name": "increasedSupply",
          "type": "uint256"
        },
        {
          "internalType": "uint256",
          "name": "cap",
          "type": "uint256"
        }
      ],
      "name": "ERC20ExceededSafeSupply",
      "type": "error"
    },
    {
      "inputs": [
        {
          "internalType": "address",
          "name": "spender",
          "type": "address"
        },
        {
          "internalType": "uint256",
          "name": "allowance",
          "type": "uint256"
        },
        {
          "internalType": "uint256",
          "name": "needed",
          "type": "uint256"
        }
      ],
      "name": "ERC20InsufficientAllowance",
      "type": "error"
    },
    {
      "inputs": [
        {
          "internalType": "address",
          "name": "sender",
          "type": "address"
        },
        {
          "internalType": "uint256",
          "name": "balance",
          "type": "uint256"
        },
        {
          "internalType": "uint256",
          "name": "needed",
          "type": "uint256"
        }
      ],
      "name": "ERC20InsufficientBalance",
      "type": "error"
    },
    {
      "inputs": [
        {
          "internalType": "address",
          "name": "approver",
          "type": "address"
        }
      ],
      "name": "ERC20InvalidApprover",
      "type": "error"
    },
    {
      "inputs": [
        {
          "internalType": "address",
          "name": "receiver",
          "type": "address"
        }
      ],
      "name": "ERC20InvalidReceiver",
      "type": "error"
    },
    {
      "inputs": [
        {
          "internalType": "address",
          "name": "sender",
          "type": "address"
        }
      ],
      "name": "ERC20InvalidSender",
      "type": "error"
    },
    {
      "inputs": [
        {
          "internalType": "address",
          "name": "spender",
          "type": "address"
        }
      ],
      "name": "ERC20InvalidSpender",
      "type": "error"
    },
    {
      "inputs": [
        {
          "internalType": "uint256",
          "name": "deadline",
          "type": "uint256"
        }
      ],
      "name": "ERC2612ExpiredSignature",
      "type": "error"
    },
    {
      "inputs": [
        {
          "internalType": "address",
          "name": "signer",
          "type": "address"
        },
        {
          "internalType": "address",
          "name": "owner",
          "type": "address"
        }
      ],
      "name": "ERC2612InvalidSigner",
      "type": "error"
    },
    {
      "inputs": [
        {
          "internalType": "uint256",
          "name": "timepoint",
          "type": "uint256"
        },
        {
          "internalType": "uint48",
          "name": "clock",
          "type": "uint48"
        }
      ],
      "name": "ERC5805FutureLookup",
      "type": "error"
    },
    {
      "inputs": [],
      "name": "ERC6372InconsistentClock",
      "type": "error"
    },
    {
      "inputs": [
        {
          "internalType": "address",
          "name": "account",
          "type": "address"
        },
        {
          "internalType": "uint256",
          "name": "currentNonce",
          "type": "uint256"
        }
      ],
      "name": "InvalidAccountNonce",
      "type": "error"
    },
    {
      "inputs": [],
      "name": "InvalidShortString",
      "type": "error"
    },
    {
      "inputs": [
        {
          "internalType": "address",
          "name": "owner",
          "type": "address"
        }
      ],
      "name": "OwnableInvalidOwner",
      "type": "error"
    },
    {
      "inputs": [
        {
          "internalType": "address",
          "name": "account",
          "type": "address"
        }
      ],
      "name": "OwnableUnauthorizedAccount",
      "type": "error"
    },
    {
      "inputs": [
        {
          "internalType": "uint8",
          "name": "bits",
          "type": "uint8"
        },
        {
          "internalType": "uint256",
          "name": "value",
          "type": "uint256"
        }
      ],
      "name": "SafeCastOverflowedUintDowncast",
      "type": "error"
    },
    {
      "inputs": [
        {
          "internalType": "string",
          "name": "str",
          "type": "string"
        }
      ],
      "name": "StringTooLong",
      "type": "error"
    },
    {
      "inputs": [
        {
          "internalType": "uint256",
          "name": "expiry",
          "type": "uint256"
        }
      ],
      "name": "VotesExpiredSignature",
      "type": "error"
    },
    {
      "anonymous": false,
      "inputs": [
        {
          "indexed": true,
          "internalType": "address",
          "name": "owner",
          "type": "address"
        },
        {
          "indexed": true,
          "internalType": "address",
          "name": "spender",
          "type": "address"
        },
        {
          "indexed": false,
          "internalType": "uint256",
          "name": "value",
          "type": "uint256"
        }
      ],
      "name": "Approval",
      "type": "event"
    },
    {
      "anonymous": false,
      "inputs": [
        {
          "indexed": true,
          "internalType": "address",
          "name": "delegator",
          "type": "address"
        },
        {
          "indexed": true,
          "internalType": "address",
          "name": "fromDelegate",
          "type": "address"
        },
        {
          "indexed": true,
          "internalType": "address",
          "name": "toDelegate",
          "type": "address"
        }
      ],
      "name": "DelegateChanged",
      "type": "event"
    },
    {
      "anonymous": false,
      "inputs": [
        {
          "indexed": true,
          "internalType": "address",
          "name": "delegate",
          "type": "address"
        },
        {
          "indexed": false,
          "internalType": "uint256",
          "name": "previousVotes",
          "type": "uint256"
        },
        {
          "indexed": false,
          "internalType": "uint256",
          "name": "newVotes",
          "type": "uint256"
        }
      ],
      "name": "DelegateVotesChanged",
      "type": "event"
    },
    {
      "anonymous": false,
      "inputs": [],
      "name": "EIP712DomainChanged",
      "type": "event"
    },
    {
      "anonymous": false,
      "inputs": [
        {
          "indexed": true,
          "internalType": "address",
          "name": "previousOwner",
          "type": "address"
        },
        {
          "indexed": true,
          "internalType": "address",
          "name": "newOwner",
          "type": "address"
        }
      ],
      "name": "OwnershipTransferred",
      "type": "event"
    },
    {
      "anonymous": false,
      "inputs": [
        {
          "indexed": true,
          "internalType": "address",
          "name": "from",
          "type": "address"
        },
        {
          "indexed": true,
          "internalType": "address",
          "name": "to",
          "type": "address"
        },
        {
          "indexed": false,
          "internalType": "uint256",
          "name": "value",
          "type": "uint256"
        }
      ],
      "name": "Transfer",
      "type": "event"
    },
    {
      "anonymous": false,
      "inputs": [
        {
          "indexed": true,
          "internalType": "address",
          "name": "user",
          "type": "address"
        },
        {
          "indexed": false,
          "internalType": "uint256",
          "name": "amount",
          "type": "uint256"
        }
      ],
      "name": "Withdraw",
      "type": "event"
    },
    {
      "inputs": [],
      "name": "CLOCK_MODE",
      "outputs": [
        {
          "internalType": "string",
          "name": "",
          "type": "string"
        }
      ],
      "stateMutability": "view",
      "type": "function"
    },
    {
      "inputs": [],
      "name": "DOMAIN_SEPARATOR",
      "outputs": [
        {
          "internalType": "bytes32",
          "name": "",
          "type": "bytes32"
        }
      ],
      "stateMutability": "view",
      "type": "function"
    },
    {
      "inputs": [],
      "name": "MAX_SUPPLY",
      "outputs": [
        {
          "internalType": "uint256",
          "name": "",
          "type": "uint256"
        }
      ],
      "stateMutability": "view",
      "type": "function"
    },
    {
      "inputs": [
        {
          "internalType": "address",
          "name": "owner",
          "type": "address"
        },
        {
          "internalType": "address",
          "name": "spender",
          "type": "address"
        }
      ],
      "name": "allowance",
      "outputs": [
        {
          "internalType": "uint256",
          "name": "",
          "type": "uint256"
        }
      ],
      "stateMutability": "view",
      "type": "function"
    },
    {
      "inputs": [
        {
          "internalType": "address",
          "name": "spender",
          "type": "address"
        },
        {
          "internalType": "uint256",
          "name": "value",
          "type": "uint256"
        }
      ],
      "name": "approve",
      "outputs": [
        {
          "internalType": "bool",
          "name": "",
          "type": "bool"
        }
      ],
      "stateMutability": "nonpayable",
      "type": "function"
    },
    {
      "inputs": [
        {
          "internalType": "address",
          "name": "account",
          "type": "address"
        }
      ],
      "name": "balanceOf",
      "outputs": [
        {
          "internalType": "uint256",
          "name": "",
          "type": "uint256"
        }
      ],
      "stateMutability": "view",
      "type": "function"
    },
    {
      "inputs": [
        {
          "internalType": "address",
          "name": "_contractAddress",
          "type": "address"
        }
      ],
      "name": "changePaysec",
      "outputs": [],
      "stateMutability": "nonpayable",
      "type": "function"
    },
    {
      "inputs": [
        {
          "internalType": "address",
          "name": "account",
          "type": "address"
        },
        {
          "internalType": "uint32",
          "name": "pos",
          "type": "uint32"
        }
      ],
      "name": "checkpoints",
      "outputs": [
        {
          "components": [
            {
              "internalType": "uint48",
              "name": "_key",
              "type": "uint48"
            },
            {
              "internalType": "uint208",
              "name": "_value",
              "type": "uint208"
            }
          ],
          "internalType": "struct Checkpoints.Checkpoint208",
          "name": "",
          "type": "tuple"
        }
      ],
      "stateMutability": "view",
      "type": "function"
    },
    {
      "inputs": [],
      "name": "clock",
      "outputs": [
        {
          "internalType": "uint48",
          "name": "",
          "type": "uint48"
        }
      ],
      "stateMutability": "view",
      "type": "function"
    },
    {
      "inputs": [],
      "name": "decimals",
      "outputs": [
        {
          "internalType": "uint8",
          "name": "",
          "type": "uint8"
        }
      ],
      "stateMutability": "view",
      "type": "function"
    },
    {
      "inputs": [
        {
          "internalType": "address",
          "name": "delegatee",
          "type": "address"
        }
      ],
      "name": "delegate",
      "outputs": [],
      "stateMutability": "nonpayable",
      "type": "function"
    },
    {
      "inputs": [
        {
          "internalType": "address",
          "name": "delegatee",
          "type": "address"
        },
        {
          "internalType": "uint256",
          "name": "nonce",
          "type": "uint256"
        },
        {
          "internalType": "uint256",
          "name": "expiry",
          "type": "uint256"
        },
        {
          "internalType": "uint8",
          "name": "v",
          "type": "uint8"
        },
        {
          "internalType": "bytes32",
          "name": "r",
          "type": "bytes32"
        },
        {
          "internalType": "bytes32",
          "name": "s",
          "type": "bytes32"
        }
      ],
      "name": "delegateBySig",
      "outputs": [],
      "stateMutability": "nonpayable",
      "type": "function"
    },
    {
      "inputs": [
        {
          "internalType": "address",
          "name": "account",
          "type": "address"
        }
      ],
      "name": "delegates",
      "outputs": [
        {
          "internalType": "address",
          "name": "",
          "type": "address"
        }
      ],
      "stateMutability": "view",
      "type": "function"
    },
    {
      "inputs": [],
      "name": "eip712Domain",
      "outputs": [
        {
          "internalType": "bytes1",
          "name": "fields",
          "type": "bytes1"
        },
        {
          "internalType": "string",
          "name": "name",
          "type": "string"
        },
        {
          "internalType": "string",
          "name": "version",
          "type": "string"
        },
        {
          "internalType": "uint256",
          "name": "chainId",
          "type": "uint256"
        },
        {
          "internalType": "address",
          "name": "verifyingContract",
          "type": "address"
        },
        {
          "internalType": "bytes32",
          "name": "salt",
          "type": "bytes32"
        },
        {
          "internalType": "uint256[]",
          "name": "extensions",
          "type": "uint256[]"
        }
      ],
      "stateMutability": "view",
      "type": "function"
    },
    {
      "inputs": [
        {
          "internalType": "uint256",
          "name": "timepoint",
          "type": "uint256"
        }
      ],
      "name": "getPastTotalSupply",
      "outputs": [
        {
          "internalType": "uint256",
          "name": "",
          "type": "uint256"
        }
      ],
      "stateMutability": "view",
      "type": "function"
    },
    {
      "inputs": [
        {
          "internalType": "address",
          "name": "account",
          "type": "address"
        },
        {
          "internalType": "uint256",
          "name": "timepoint",
          "type": "uint256"
        }
      ],
      "name": "getPastVotes",
      "outputs": [
        {
          "internalType": "uint256",
          "name": "",
          "type": "uint256"
        }
      ],
      "stateMutability": "view",
      "type": "function"
    },
    {
      "inputs": [
        {
          "internalType": "address",
          "name": "account",
          "type": "address"
        }
      ],
      "name": "getVotes",
      "outputs": [
        {
          "internalType": "uint256",
          "name": "",
          "type": "uint256"
        }
      ],
      "stateMutability": "view",
      "type": "function"
    },
    {
      "inputs": [
        {
          "internalType": "address",
          "name": "account",
          "type": "address"
        },
        {
          "internalType": "uint256",
          "name": "amount",
          "type": "uint256"
        }
      ],
      "name": "mint",
      "outputs": [],
      "stateMutability": "nonpayable",
      "type": "function"
    },
    {
      "inputs": [],
      "name": "name",
      "outputs": [
        {
          "internalType": "string",
          "name": "",
          "type": "string"
        }
      ],
      "stateMutability": "view",
      "type": "function"
    },
    {
      "inputs": [
        {
          "internalType": "address",
          "name": "_owner",
          "type": "address"
        }
      ],
      "name": "nonces",
      "outputs": [
        {
          "internalType": "uint256",
          "name": "",
          "type": "uint256"
        }
      ],
      "stateMutability": "view",
      "type": "function"
    },
    {
      "inputs": [
        {
          "internalType": "address",
          "name": "account",
          "type": "address"
        }
      ],
      "name": "numCheckpoints",
      "outputs": [
        {
          "internalType": "uint32",
          "name": "",
          "type": "uint32"
        }
      ],
      "stateMutability": "view",
      "type": "function"
    },
    {
      "inputs": [],
      "name": "owner",
      "outputs": [
        {
          "internalType": "address",
          "name": "",
          "type": "address"
        }
      ],
      "stateMutability": "view",
      "type": "function"
    },
    {
      "inputs": [],
      "name": "paysecAddress",
      "outputs": [
        {
          "internalType": "address",
          "name": "",
          "type": "address"
        }
      ],
      "stateMutability": "view",
      "type": "function"
    },
    {
      "inputs": [
        {
          "internalType": "address",
          "name": "owner",
          "type": "address"
        },
        {
          "internalType": "address",
          "name": "spender",
          "type": "address"
        },
        {
          "internalType": "uint256",
          "name": "value",
          "type": "uint256"
        },
        {
          "internalType": "uint256",
          "name": "deadline",
          "type": "uint256"
        },
        {
          "internalType": "uint8",
          "name": "v",
          "type": "uint8"
        },
        {
          "internalType": "bytes32",
          "name": "r",
          "type": "bytes32"
        },
        {
          "internalType": "bytes32",
          "name": "s",
          "type": "bytes32"
        }
      ],
      "name": "permit",
      "outputs": [],
      "stateMutability": "nonpayable",
      "type": "function"
    },
    {
      "inputs": [],
      "name": "renounceOwnership",
      "outputs": [],
      "stateMutability": "nonpayable",
      "type": "function"
    },
    {
      "inputs": [],
      "name": "rewardsPool",
      "outputs": [
        {
          "internalType": "address",
          "name": "",
          "type": "address"
        }
      ],
      "stateMutability": "view",
      "type": "function"
    },
    {
      "inputs": [
        {
          "internalType": "address",
          "name": "_rewardsPool",
          "type": "address"
        }
      ],
      "name": "setRewardsPool",
      "outputs": [],
      "stateMutability": "nonpayable",
      "type": "function"
    },
    {
      "inputs": [
        {
          "internalType": "address",
          "name": "_vendor",
          "type": "address"
        }
      ],
      "name": "setVendor",
      "outputs": [],
      "stateMutability": "nonpayable",
      "type": "function"
    },
    {
      "inputs": [],
      "name": "symbol",
      "outputs": [
        {
          "internalType": "string",
          "name": "",
          "type": "string"
        }
      ],
      "stateMutability": "view",
      "type": "function"
    },
    {
      "inputs": [],
      "name": "totalSupply",
      "outputs": [
        {
          "internalType": "uint256",
          "name": "",
          "type": "uint256"
        }
      ],
      "stateMutability": "view",
      "type": "function"
    },
    {
      "inputs": [
        {
          "internalType": "address",
          "name": "to",
          "type": "address"
        },
        {
          "internalType": "uint256",
          "name": "value",
          "type": "uint256"
        }
      ],
      "name": "transfer",
      "outputs": [
        {
          "internalType": "bool",
          "name": "",
          "type": "bool"
        }
      ],
      "stateMutability": "nonpayable",
      "type": "function"
    },
    {
      "inputs": [
        {
          "internalType": "address",
          "name": "from",
          "type": "address"
        },
        {
          "internalType": "address",
          "name": "to",
          "type": "address"
        },
        {
          "internalType": "uint256",
          "name": "value",
          "type": "uint256"
        }
      ],
      "name": "transferFrom",
      "outputs": [
        {
          "internalType": "bool",
          "name": "",
          "type": "bool"
        }
      ],
      "stateMutability": "nonpayable",
      "type": "function"
    },
    {
      "inputs": [
        {
          "internalType": "address",
          "name": "newOwner",
          "type": "address"
        }
      ],
      "name": "transferOwnership",
      "outputs": [],
      "stateMutability": "nonpayable",
      "type": "function"
    },
    {
      "inputs": [
        {
          "internalType": "address",
          "name": "",
          "type": "address"
        }
      ],
      "name": "users",
      "outputs": [
        {
          "internalType": "uint256",
          "name": "dividendPerTokenWithdrawn",
          "type": "uint256"
        },
        {
          "internalType": "uint256",
          "name": "withdrawalCredit",
          "type": "uint256"
        }
      ],
      "stateMutability": "view",
      "type": "function"
    },
    {
      "inputs": [],
      "name": "vendor",
      "outputs": [
        {
          "internalType": "address",
          "name": "",
          "type": "address"
        }
      ],
      "stateMutability": "view",
      "type": "function"
    },
    {
      "stateMutability": "payable",
      "type": "receive"
    }
  ],
  "bytecode": "0x6101606040523480156200001257600080fd5b506040518060400160405280600681526020016550617953656360d01b81525080604051806040016040528060018152602001603160f81b815250336040518060400160405280600681526020016550617953656360d01b8152506040518060400160405280600381526020016250534360e81b81525081600390816200009a919062000a9f565b506004620000a9828262000a9f565b5050506001600160a01b038116620000dc57604051631e4fbdf760e01b8152600060048201526024015b60405180910390fd5b620000e781620001f6565b50620000f582600662000248565b610120526200010681600762000248565b61014052815160208084019190912060e052815190820120610100524660a0526200019460e05161010051604080517f8b73c3c69bb8fe3d512ecc4cf759cc79239f7b179b0ffacaa9a75d522b39400f60208201529081019290925260608201524660808201523060a082015260009060c00160405160208183030381529060405280519060200120905090565b60805250503060c05250600c8054336001600160a01b03199182168117909255600e805490911682179055620001f090620001cd601290565b620001da90600a62000c7e565b620001ea906302faf08062000c8f565b62000281565b62000d98565b600580546001600160a01b038381166001600160a01b0319831681179093556040519116919082907f8be0079c531659141344cd1fd0a4f28419497f9722a3daafe3b4186f6b6457e090600090a35050565b600060208351101562000268576200026083620002bf565b90506200027b565b8162000275848262000a9f565b5060ff90505b92915050565b6001600160a01b038216620002ad5760405163ec442f0560e01b815260006004820152602401620000d3565b620002bb6000838362000302565b5050565b600080829050601f81511115620002ed578260405163305a27a960e01b8152600401620000d3919062000ca9565b8051620002fa8262000cfa565b179392505050565b6200030f8383836200037a565b6a52b7d2dcc80cd2e40000006200032560025490565b1115620003755760405162461bcd60e51b815260206004820152601560248201527f546f74616c20737570706c7920657863656564656400000000000000000000006044820152606401620000d3565b505050565b62000387838383620003e9565b6001600160a01b038316620003dc576000620003a260025490565b90506001600160d01b0380821115620003d957604051630e58ae9360e11b81526004810183905260248101829052604401620000d3565b50505b620003758383836200051c565b6001600160a01b038316620004185780600260008282546200040c919062000d1f565b909155506200048c9050565b6001600160a01b038316600090815260208190526040902054818110156200046d5760405163391434e360e21b81526001600160a01b03851660048201526024810182905260448101839052606401620000d3565b6001600160a01b03841660009081526020819052604090209082900390555b6001600160a01b038216620004aa57600280548290039055620004c9565b6001600160a01b03821660009081526020819052604090208054820190555b816001600160a01b0316836001600160a01b03167fddf252ad1be2c89b69c2b068fc378daa952ba7f163c4a11628f55a4df523b3ef836040516200050f91815260200190565b60405180910390a3505050565b6001600160a01b03831662000551576200054e600b62000f41620005b460201b176200054884620005c9565b62000603565b50505b6001600160a01b03821662000580576200057d600b62000f4d6200064060201b176200054884620005c9565b50505b6001600160a01b0383811660009081526009602052604080822054858416835291205462000375929182169116836200064e565b6000620005c2828462000d35565b9392505050565b60006001600160d01b03821115620005ff576040516306dfcc6560e41b815260d0600482015260248101839052604401620000d3565b5090565b6000806200063362000614620007b5565b6200062a6200062388620007c6565b868860201c565b87919062000815565b915091505b935093915050565b6000620005c2828462000d5f565b816001600160a01b0316836001600160a01b031614158015620006715750600081115b1562000375576001600160a01b0383161562000714576001600160a01b0383166000908152600a6020908152604082208291620006bf919062000640901b62000f4d176200054886620005c9565b6001600160d01b031691506001600160d01b03169150846001600160a01b0316600080516020620033ae833981519152838360405162000709929190918252602082015260400190565b60405180910390a250505b6001600160a01b0382161562000375576001600160a01b0382166000908152600a60209081526040822082916200075c9190620005b4901b62000f41176200054886620005c9565b6001600160d01b031691506001600160d01b03169150836001600160a01b0316600080516020620033ae8339815191528383604051620007a6929190918252602082015260400190565b60405180910390a25050505050565b6000620007c162000825565b905090565b805460009080156200080c57620007f283620007e460018462000d82565b600091825260209091200190565b54660100000000000090046001600160d01b0316620005c2565b60009392505050565b6000806200063385858562000832565b6000620007c143620009c4565b825460009081908015620009655760006200085487620007e460018562000d82565b60408051808201909152905465ffffffffffff80821680845266010000000000009092046001600160d01b031660208401529192509087161015620008ac57604051632520601d60e01b815260040160405180910390fd5b805165ffffffffffff808816911603620009005784620008d388620007e460018662000d82565b80546001600160d01b039290921666010000000000000265ffffffffffff90921691909117905562000954565b6040805180820190915265ffffffffffff80881682526001600160d01b0380881660208085019182528b54600181018d5560008d815291909120945191519092166601000000000000029216919091179101555b602001519250839150620006389050565b50506040805180820190915265ffffffffffff80851682526001600160d01b0380851660208085019182528854600181018a5560008a815291822095519251909316660100000000000002919093161792019190915590508162000638565b600065ffffffffffff821115620005ff576040516306dfcc6560e41b81526030600482015260248101839052604401620000d3565b634e487b7160e01b600052604160045260246000fd5b600181811c9082168062000a2457607f821691505b60208210810362000a4557634e487b7160e01b600052602260045260246000fd5b50919050565b601f82111562000375576000816000526020600020601f850160051c8101602086101562000a765750805b601f850160051c820191505b8181101562000a975782815560010162000a82565b505050505050565b81516001600160401b0381111562000abb5762000abb620009f9565b62000ad38162000acc845462000a0f565b8462000a4b565b602080601f83116001811462000b0b576000841562000af25750858301515b600019600386901b1c1916600185901b17855562000a97565b600085815260208120601f198616915b8281101562000b3c5788860151825594840194600190910190840162000b1b565b508582101562000b5b5787850151600019600388901b60f8161c191681555b5050505050600190811b01905550565b634e487b7160e01b600052601160045260246000fd5b600181815b8085111562000bc257816000190482111562000ba65762000ba662000b6b565b8085161562000bb457918102915b93841c939080029062000b86565b509250929050565b60008262000bdb575060016200027b565b8162000bea575060006200027b565b816001811462000c03576002811462000c0e5762000c2e565b60019150506200027b565b60ff84111562000c225762000c2262000b6b565b50506001821b6200027b565b5060208310610133831016604e8410600b841016171562000c53575081810a6200027b565b62000c5f838362000b81565b806000190482111562000c765762000c7662000b6b565b029392505050565b6000620005c260ff84168362000bca565b80820281158282048414176200027b576200027b62000b6b565b60006020808352835180602085015260005b8181101562000cd95785810183015185820160400152820162000cbb565b506000604082860101526040601f19601f8301168501019250505092915050565b8051602080830151919081101562000a455760001960209190910360031b1b16919050565b808201808211156200027b576200027b62000b6b565b6001600160d01b0381811683821601908082111562000d585762000d5862000b6b565b5092915050565b6001600160d01b0382811682821603908082111562000d585762000d5862000b6b565b818103818111156200027b576200027b62000b6b565b60805160a05160c05160e0516101005161012051610140516125bb62000df36000396000611406015260006113d901526000611122015260006110fa015260006110550152600061107f015260006110a901526125bb6000f3fe6080604052600436106102085760003560e01c80637c00029311610118578063a87430ba116100a0578063c3cda5201161006f578063c3cda52014610652578063d505accf14610672578063dd62ed3e14610692578063f1127ed8146106d8578063f2fde38b1461072457600080fd5b8063a87430ba146105a9578063a9059cbb146105f2578063b50dfbbe14610612578063c36a4c121461063257600080fd5b80638e539e8c116100e75780638e539e8c1461050857806391ddadf41461052857806395d89b411461055457806397d93935146105695780639ab24eb01461058957600080fd5b80637c000293146104825780637ecebe00146104a257806384b0196e146104c25780638da5cb5b146104ea57600080fd5b80633644e5151161019b578063587cde1e1161016a578063587cde1e146103a95780635c19a95c146103e25780636fcfff451461040257806370a0823114610437578063715018a61461046d57600080fd5b80633644e5151461033d5780633a46b1a81461035257806340c10f19146103725780634bf5d7e91461039457600080fd5b806318160ddd116101d757806318160ddd146102c357806323b872dd146102e2578063313ce5671461030257806332cb6b0c1461031e57600080fd5b80630359fea91461021457806306fdde0314610251578063095ea7b3146102735780631385a6f2146102a357600080fd5b3661020f57005b600080fd5b34801561022057600080fd5b50600d54610234906001600160a01b031681565b6040516001600160a01b0390911681526020015b60405180910390f35b34801561025d57600080fd5b50610266610744565b604051610248919061219a565b34801561027f57600080fd5b5061029361028e3660046121c9565b6107d6565b6040519015158152602001610248565b3480156102af57600080fd5b50600c54610234906001600160a01b031681565b3480156102cf57600080fd5b506002545b604051908152602001610248565b3480156102ee57600080fd5b506102936102fd3660046121f3565b6107f0565b34801561030e57600080fd5b5060405160128152602001610248565b34801561032a57600080fd5b506102d46a52b7d2dcc80cd2e400000081565b34801561034957600080fd5b506102d4610814565b34801561035e57600080fd5b506102d461036d3660046121c9565b610823565b34801561037e57600080fd5b5061039261038d3660046121c9565b6108a9565b005b3480156103a057600080fd5b506102666109cf565b3480156103b557600080fd5b506102346103c436600461222f565b6001600160a01b039081166000908152600960205260409020541690565b3480156103ee57600080fd5b506103926103fd36600461222f565b610a47565b34801561040e57600080fd5b5061042261041d36600461222f565b610a52565b60405163ffffffff9091168152602001610248565b34801561044357600080fd5b506102d461045236600461222f565b6001600160a01b031660009081526020819052604090205490565b34801561047957600080fd5b50610392610a5d565b34801561048e57600080fd5b5061039261049d36600461222f565b610a71565b3480156104ae57600080fd5b506102d46104bd36600461222f565b610aff565b3480156104ce57600080fd5b506104d7610b0a565b604051610248979695949392919061224a565b3480156104f657600080fd5b506005546001600160a01b0316610234565b34801561051457600080fd5b506102d46105233660046122e3565b610b50565b34801561053457600080fd5b5061053d610bba565b60405165ffffffffffff9091168152602001610248565b34801561056057600080fd5b50610266610bc4565b34801561057557600080fd5b5061039261058436600461222f565b610bd3565b34801561059557600080fd5b506102d46105a436600461222f565b610c70565b3480156105b557600080fd5b506105dd6105c436600461222f565b600f602052600090815260409020805460019091015482565b60408051928352602083019190915201610248565b3480156105fe57600080fd5b5061029361060d3660046121c9565b610ca0565b34801561061e57600080fd5b5061039261062d36600461222f565b610cae565b34801561063e57600080fd5b50601054610234906001600160a01b031681565b34801561065e57600080fd5b5061039261066d36600461230d565b610ce7565b34801561067e57600080fd5b5061039261068d366004612365565b610da4565b34801561069e57600080fd5b506102d46106ad3660046123cf565b6001600160a01b03918216600090815260016020908152604080832093909416825291909152205490565b3480156106e457600080fd5b506106f86106f3366004612402565b610ede565b60408051825165ffffffffffff1681526020928301516001600160d01b03169281019290925201610248565b34801561073057600080fd5b5061039261073f36600461222f565b610f03565b60606003805461075390612442565b80601f016020809104026020016040519081016040528092919081815260200182805461077f90612442565b80156107cc5780601f106107a1576101008083540402835291602001916107cc565b820191906000526020600020905b8154815290600101906020018083116107af57829003601f168201915b5050505050905090565b6000336107e4818585610f59565b60019150505b92915050565b6000336107fe858285610f6b565b610809858585610fe9565b506001949350505050565b600061081e611048565b905090565b60008061082e610bba565b90508065ffffffffffff16831061086e57604051637669fc0f60e11b81526004810184905265ffffffffffff821660248201526044015b60405180910390fd5b61089861087a84611173565b6001600160a01b0386166000908152600a60205260409020906111aa565b6001600160d01b0316949350505050565b6005546001600160a01b0316331480610929575060105460405163f3a434e360e01b81523360048201526001600160a01b039091169063f3a434e390602401602060405180830381865afa158015610905573d6000803e3d6000fd5b505050506040513d601f19601f82011682018060405250810190610929919061247c565b8061093e5750600c546001600160a01b031633145b6109c15760405162461bcd60e51b815260206004820152604860248201527f4f6e6c7920696d706c656d656e746174696f6e73206f72206f776e657273206f60448201527f722076656e646f72732061726520616c6c6f77656420746f206d696e74206e656064820152677720746f6b656e7360c01b608482015260a401610865565b6109cb8282611260565b5050565b60606109d9611296565b65ffffffffffff166109e9610bba565b65ffffffffffff1614610a0f576040516301bfc1c560e61b815260040160405180910390fd5b5060408051808201909152601d81527f6d6f64653d626c6f636b6e756d6265722666726f6d3d64656661756c74000000602082015290565b336109cb81836112a1565b60006107ea82611313565b610a65611335565b610a6f6000611362565b565b6005546001600160a01b03163314610add5760405162461bcd60e51b815260206004820152602960248201527f4f6e6c79206f776e6572206f722076656e646f722063616e2073657420726577604482015268185c991cc81c1bdbdb60ba1b6064820152608401610865565b600d80546001600160a01b0319166001600160a01b0392909216919091179055565b60006107ea826113b4565b600060608060008060006060610b1e6113d2565b610b266113ff565b60408051600080825260208201909252600f60f81b9b939a50919850469750309650945092509050565b600080610b5b610bba565b90508065ffffffffffff168310610b9657604051637669fc0f60e11b81526004810184905265ffffffffffff82166024820152604401610865565b610baa610ba284611173565b600b906111aa565b6001600160d01b03169392505050565b600061081e611296565b60606004805461075390612442565b6005546001600160a01b0316331480610bf65750600c546001600160a01b031633145b610c4e5760405162461bcd60e51b815260206004820152602360248201527f4f6e6c79206f776e6572206f722076656e646f722063616e207365742076656e6044820152623237b960e91b6064820152608401610865565b600c80546001600160a01b0319166001600160a01b0392909216919091179055565b6001600160a01b0381166000908152600a60205260408120610c919061142c565b6001600160d01b031692915050565b6000336107e4818585610fe9565b6005546001600160a01b03163314610cc557600080fd5b601080546001600160a01b0319166001600160a01b0392909216919091179055565b83421115610d0b57604051632341d78760e11b815260048101859052602401610865565b604080517fe48329057bfd03d55e49b547132e39cffd9c1820ad7b9d4c5307691425d15adf60208201526001600160a01b038816918101919091526060810186905260808101859052600090610d8590610d7d9060a00160405160208183030381529060405280519060200120611465565b858585611492565b9050610d9181876114c0565b610d9b81886112a1565b50505050505050565b83421115610dc85760405163313c898160e11b815260048101859052602401610865565b60007f6e71edae12b1b97f4d1f60370fef10105fa2faae0126114a169c64845d6126c9888888610e158c6001600160a01b0316600090815260086020526040902080546001810190915590565b6040805160208101969096526001600160a01b0394851690860152929091166060840152608083015260a082015260c0810186905260e0016040516020818303038152906040528051906020012090506000610e7082611465565b90506000610e8082878787611492565b9050896001600160a01b0316816001600160a01b031614610ec7576040516325c0072360e11b81526001600160a01b0380831660048301528b166024820152604401610865565b610ed28a8a8a610f59565b50505050505050505050565b6040805180820190915260008082526020820152610efc8383611513565b9392505050565b610f0b611335565b6001600160a01b038116610f3557604051631e4fbdf760e01b815260006004820152602401610865565b610f3e81611362565b50565b6000610efc82846124b4565b6000610efc82846124db565b610f668383836001611549565b505050565b6001600160a01b038381166000908152600160209081526040808320938616835292905220546000198114610fe35781811015610fd457604051637dc7a0d960e11b81526001600160a01b03841660048201526024810182905260448101839052606401610865565b610fe384848484036000611549565b50505050565b6001600160a01b03831661101357604051634b637e8f60e11b815260006004820152602401610865565b6001600160a01b03821661103d5760405163ec442f0560e01b815260006004820152602401610865565b610f6683838361161e565b6000306001600160a01b037f0000000000000000000000000000000000000000000000000000000000000000161480156110a157507f000000000000000000000000000000000000000000000000000000000000000046145b156110cb57507f000000000000000000000000000000000000000000000000000000000000000090565b61081e604080517f8b73c3c69bb8fe3d512ecc4cf759cc79239f7b179b0ffacaa9a75d522b39400f60208201527f0000000000000000000000000000000000000000000000000000000000000000918101919091527f000000000000000000000000000000000000000000000000000000000000000060608201524660808201523060a082015260009060c00160405160208183030381529060405280519060200120905090565b600065ffffffffffff8211156111a6576040516306dfcc6560e41b81526030600482015260248101839052604401610865565b5090565b8154600090818160058111156112095760006111c584611684565b6111cf90856124fb565b60008881526020902090915081015465ffffffffffff90811690871610156111f957809150611207565b61120481600161250e565b92505b505b60006112178787858561176c565b905080156112525761123c8761122e6001846124fb565b600091825260209091200190565b54600160301b90046001600160d01b0316611255565b60005b979650505050505050565b6001600160a01b03821661128a5760405163ec442f0560e01b815260006004820152602401610865565b6109cb6000838361161e565b600061081e43611173565b6001600160a01b0382811660008181526009602052604080822080548686166001600160a01b0319821681179092559151919094169392849290917f3134e8a2e6d97e929a7e54011ea5485d7d196dd5f0ba4d4ef95803e8e3fc257f9190a4610f66818361130e866117ce565b6117ec565b6001600160a01b0381166000908152600a60205260408120546107ea90611958565b6005546001600160a01b03163314610a6f5760405163118cdaa760e01b8152336004820152602401610865565b600580546001600160a01b038381166001600160a01b0319831681179093556040519116919082907f8be0079c531659141344cd1fd0a4f28419497f9722a3daafe3b4186f6b6457e090600090a35050565b6001600160a01b0381166000908152600860205260408120546107ea565b606061081e7f00000000000000000000000000000000000000000000000000000000000000006006611989565b606061081e7f00000000000000000000000000000000000000000000000000000000000000006007611989565b8054600090801561145c576114468361122e6001846124fb565b54600160301b90046001600160d01b0316610efc565b60009392505050565b60006107ea611472611048565b8360405161190160f01b8152600281019290925260228201526042902090565b6000806000806114a488888888611a34565b9250925092506114b48282611b03565b50909695505050505050565b6001600160a01b0382166000908152600860205260409020805460018101909155818114610f66576040516301d4b62360e61b81526001600160a01b038416600482015260248101829052604401610865565b60408051808201909152600080825260208201526001600160a01b0383166000908152600a60205260409020610efc9083611bbc565b6001600160a01b0384166115735760405163e602df0560e01b815260006004820152602401610865565b6001600160a01b03831661159d57604051634a1406b160e11b815260006004820152602401610865565b6001600160a01b0380851660009081526001602090815260408083209387168352929052208290558015610fe357826001600160a01b0316846001600160a01b03167f8c5be1e5ebec7d5bd14f71427d1e84f3dd0314c0f7b2291e5b200ac8c7c3b9258460405161161091815260200190565b60405180910390a350505050565b611629838383611c2c565b6a52b7d2dcc80cd2e400000061163e60025490565b1115610f665760405162461bcd60e51b8152602060048201526015602482015274151bdd185b081cdd5c1c1b1e48195e18d959591959605a1b6044820152606401610865565b60008160000361169657506000919050565b600060016116a384611c93565b901c6001901b905060018184816116bc576116bc612521565b048201901c905060018184816116d4576116d4612521565b048201901c905060018184816116ec576116ec612521565b048201901c9050600181848161170457611704612521565b048201901c9050600181848161171c5761171c612521565b048201901c9050600181848161173457611734612521565b048201901c9050600181848161174c5761174c612521565b048201901c9050610efc8182858161176657611766612521565b04611d27565b60005b818310156117c65760006117838484611d3d565b60008781526020902090915065ffffffffffff86169082015465ffffffffffff1611156117b2578092506117c0565b6117bd81600161250e565b93505b5061176f565b509392505050565b6001600160a01b0381166000908152602081905260408120546107ea565b816001600160a01b0316836001600160a01b03161415801561180e5750600081115b15610f66576001600160a01b038316156118b6576001600160a01b0383166000908152600a60205260408120819061185190610f4d61184c86611d58565b611d8c565b6001600160d01b031691506001600160d01b03169150846001600160a01b03167fdec2bacdd2f05b59de34da9b523dff8be42e5e38e818c82fdb0bae774387a72483836040516118ab929190918252602082015260400190565b60405180910390a250505b6001600160a01b03821615610f66576001600160a01b0382166000908152600a6020526040812081906118ef90610f4161184c86611d58565b6001600160d01b031691506001600160d01b03169150836001600160a01b03167fdec2bacdd2f05b59de34da9b523dff8be42e5e38e818c82fdb0bae774387a7248383604051611949929190918252602082015260400190565b60405180910390a25050505050565b600063ffffffff8211156111a6576040516306dfcc6560e41b81526020600482015260248101839052604401610865565b606060ff83146119a35761199c83611dc5565b90506107ea565b8180546119af90612442565b80601f01602080910402602001604051908101604052809291908181526020018280546119db90612442565b8015611a285780601f106119fd57610100808354040283529160200191611a28565b820191906000526020600020905b815481529060010190602001808311611a0b57829003601f168201915b505050505090506107ea565b600080807f7fffffffffffffffffffffffffffffff5d576e7357a4501ddfe92f46681b20a0841115611a6f5750600091506003905082611af9565b604080516000808252602082018084528a905260ff891692820192909252606081018790526080810186905260019060a0016020604051602081039080840390855afa158015611ac3573d6000803e3d6000fd5b5050604051601f1901519150506001600160a01b038116611aef57506000925060019150829050611af9565b9250600091508190505b9450945094915050565b6000826003811115611b1757611b17612537565b03611b20575050565b6001826003811115611b3457611b34612537565b03611b525760405163f645eedf60e01b815260040160405180910390fd5b6002826003811115611b6657611b66612537565b03611b875760405163fce698f760e01b815260048101829052602401610865565b6003826003811115611b9b57611b9b612537565b036109cb576040516335e2f38360e21b815260048101829052602401610865565b6040805180820190915260008082526020820152826000018263ffffffff1681548110611beb57611beb61254d565b60009182526020918290206040805180820190915291015465ffffffffffff81168252600160301b90046001600160d01b0316918101919091529392505050565b611c37838383611e04565b6001600160a01b038316611c88576000611c5060025490565b90506001600160d01b0380821115611c8557604051630e58ae9360e11b81526004810183905260248101829052604401610865565b50505b610f66838383611f2e565b600080608083901c15611ca857608092831c92015b604083901c15611cba57604092831c92015b602083901c15611ccc57602092831c92015b601083901c15611cde57601092831c92015b600883901c15611cf057600892831c92015b600483901c15611d0257600492831c92015b600283901c15611d1457600292831c92015b600183901c156107ea5760010192915050565b6000818310611d365781610efc565b5090919050565b6000611d4c6002848418612563565b610efc9084841661250e565b60006001600160d01b038211156111a6576040516306dfcc6560e41b815260d0600482015260248101839052604401610865565b600080611db8611d9a610bba565b611db0611da68861142c565b868863ffffffff16565b879190611fa4565b915091505b935093915050565b60606000611dd283611fb2565b604080516020808252818301909252919250600091906020820181803683375050509182525060208101929092525090565b6001600160a01b038316611e2f578060026000828254611e24919061250e565b90915550611ea19050565b6001600160a01b03831660009081526020819052604090205481811015611e825760405163391434e360e21b81526001600160a01b03851660048201526024810182905260448101839052606401610865565b6001600160a01b03841660009081526020819052604090209082900390555b6001600160a01b038216611ebd57600280548290039055611edc565b6001600160a01b03821660009081526020819052604090208054820190555b816001600160a01b0316836001600160a01b03167fddf252ad1be2c89b69c2b068fc378daa952ba7f163c4a11628f55a4df523b3ef83604051611f2191815260200190565b60405180910390a3505050565b6001600160a01b038316611f5057611f4d600b610f4161184c84611d58565b50505b6001600160a01b038216611f7257611f6f600b610f4d61184c84611d58565b50505b6001600160a01b03838116600090815260096020526040808220548584168352912054610f66929182169116836117ec565b600080611db8858585611fda565b600060ff8216601f8111156107ea57604051632cd44ac360e21b815260040160405180910390fd5b8254600090819080156120f9576000611ff88761122e6001856124fb565b60408051808201909152905465ffffffffffff808216808452600160301b9092046001600160d01b03166020840152919250908716101561204c57604051632520601d60e01b815260040160405180910390fd5b805165ffffffffffff808816911603612098578461206f8861122e6001866124fb565b80546001600160d01b0392909216600160301b0265ffffffffffff9092169190911790556120e9565b6040805180820190915265ffffffffffff80881682526001600160d01b0380881660208085019182528b54600181018d5560008d81529190912094519151909216600160301b029216919091179101555b602001519250839150611dbd9050565b50506040805180820190915265ffffffffffff80851682526001600160d01b0380851660208085019182528854600181018a5560008a815291822095519251909316600160301b029190931617920191909155905081611dbd565b6000815180845260005b8181101561217a5760208185018101518683018201520161215e565b506000602082860101526020601f19601f83011685010191505092915050565b602081526000610efc6020830184612154565b80356001600160a01b03811681146121c457600080fd5b919050565b600080604083850312156121dc57600080fd5b6121e5836121ad565b946020939093013593505050565b60008060006060848603121561220857600080fd5b612211846121ad565b925061221f602085016121ad565b9150604084013590509250925092565b60006020828403121561224157600080fd5b610efc826121ad565b60ff60f81b881681526000602060e0602084015261226b60e084018a612154565b838103604085015261227d818a612154565b606085018990526001600160a01b038816608086015260a0850187905284810360c08601528551808252602080880193509091019060005b818110156122d1578351835292840192918401916001016122b5565b50909c9b505050505050505050505050565b6000602082840312156122f557600080fd5b5035919050565b803560ff811681146121c457600080fd5b60008060008060008060c0878903121561232657600080fd5b61232f876121ad565b9550602087013594506040870135935061234b606088016122fc565b92506080870135915060a087013590509295509295509295565b600080600080600080600060e0888a03121561238057600080fd5b612389886121ad565b9650612397602089016121ad565b955060408801359450606088013593506123b3608089016122fc565b925060a0880135915060c0880135905092959891949750929550565b600080604083850312156123e257600080fd5b6123eb836121ad565b91506123f9602084016121ad565b90509250929050565b6000806040838503121561241557600080fd5b61241e836121ad565b9150602083013563ffffffff8116811461243757600080fd5b809150509250929050565b600181811c9082168061245657607f821691505b60208210810361247657634e487b7160e01b600052602260045260246000fd5b50919050565b60006020828403121561248e57600080fd5b81518015158114610efc57600080fd5b634e487b7160e01b600052601160045260246000fd5b6001600160d01b038181168382160190808211156124d4576124d461249e565b5092915050565b6001600160d01b038281168282160390808211156124d4576124d461249e565b818103818111156107ea576107ea61249e565b808201808211156107ea576107ea61249e565b634e487b7160e01b600052601260045260246000fd5b634e487b7160e01b600052602160045260246000fd5b634e487b7160e01b600052603260045260246000fd5b60008261258057634e487b7160e01b600052601260045260246000fd5b50049056fea264697066735822122044638a26e445e6026a9c7ba95f02c2da16185c51cd45f5100d20d8172d6322bd64736f6c63430008180033dec2bacdd2f05b59de34da9b523dff8be42e5e38e818c82fdb0bae774387a724",
  "linkReferences": {},
  "deployedLinkReferences": {}
}