{
  "_format": "hh-sol-artifact-1",
  "contractName": "PaysecClone",
  "sourceName": "contracts/PaysecClone.sol",
  "abi": [
    {
      "inputs": [],
      "name": "InvalidInitialization",
      "type": "error"
    },
    {
      "inputs": [],
      "name": "NotInitializing",
      "type": "error"
    },
    {
      "anonymous": false,
      "inputs": [
        {
          "indexed": true,
          "internalType": "address",
          "name": "to",
          "type": "address"
        },
        {
          "indexed": false,
          "internalType": "uint256",
          "name": "commisionFee",
          "type": "uint256"
        },
        {
          "indexed": false,
          "internalType": "uint256",
          "name": "protocolFee",
          "type": "uint256"
        },
        {
          "indexed": false,
          "internalType": "uint256",
          "name": "amountOut",
          "type": "uint256"
        },
        {
          "indexed": false,
          "internalType": "address",
          "name": "tokenAddress",
          "type": "address"
        }
      ],
      "name": "CommissionCollected",
      "type": "event"
    },
    {
      "anonymous": false,
      "inputs": [
        {
          "indexed": true,
          "internalType": "address",
          "name": "buyer",
          "type": "address"
        },
        {
          "indexed": true,
          "internalType": "address",
          "name": "seller",
          "type": "address"
        },
        {
          "indexed": false,
          "internalType": "address",
          "name": "psc",
          "type": "address"
        },
        {
          "indexed": false,
          "internalType": "address",
          "name": "rewardsPool",
          "type": "address"
        },
        {
          "indexed": false,
          "internalType": "address",
          "name": "paysec",
          "type": "address"
        },
        {
          "indexed": false,
          "internalType": "address",
          "name": "timelock",
          "type": "address"
        }
      ],
      "name": "Initialised",
      "type": "event"
    },
    {
      "anonymous": false,
      "inputs": [
        {
          "indexed": false,
          "internalType": "uint64",
          "name": "version",
          "type": "uint64"
        }
      ],
      "name": "Initialized",
      "type": "event"
    },
    {
      "anonymous": false,
      "inputs": [
        {
          "indexed": true,
          "internalType": "address",
          "name": "buyer",
          "type": "address"
        }
      ],
      "name": "PurchaseAborted",
      "type": "event"
    },
    {
      "anonymous": false,
      "inputs": [
        {
          "indexed": true,
          "internalType": "address",
          "name": "seller",
          "type": "address"
        },
        {
          "indexed": false,
          "internalType": "uint256",
          "name": "commision",
          "type": "uint256"
        },
        {
          "indexed": false,
          "internalType": "uint256",
          "name": "protocolFee",
          "type": "uint256"
        },
        {
          "indexed": false,
          "internalType": "uint256",
          "name": "totalFees",
          "type": "uint256"
        }
      ],
      "name": "PurchaseConfirmed",
      "type": "event"
    },
    {
      "anonymous": false,
      "inputs": [
        {
          "indexed": true,
          "internalType": "address",
          "name": "buyer",
          "type": "address"
        },
        {
          "indexed": true,
          "internalType": "address",
          "name": "seller",
          "type": "address"
        },
        {
          "indexed": false,
          "internalType": "uint256",
          "name": "price",
          "type": "uint256"
        },
        {
          "indexed": false,
          "internalType": "uint256",
          "name": "collateral",
          "type": "uint256"
        },
        {
          "indexed": false,
          "internalType": "address",
          "name": "tokenAddress",
          "type": "address"
        }
      ],
      "name": "PurchaseCreated",
      "type": "event"
    },
    {
      "anonymous": false,
      "inputs": [
        {
          "indexed": true,
          "internalType": "address",
          "name": "buyer",
          "type": "address"
        },
        {
          "indexed": true,
          "internalType": "address",
          "name": "seller",
          "type": "address"
        },
        {
          "indexed": false,
          "internalType": "uint256",
          "name": "price",
          "type": "uint256"
        },
        {
          "indexed": false,
          "internalType": "uint256",
          "name": "collateral",
          "type": "uint256"
        },
        {
          "indexed": false,
          "internalType": "uint256",
          "name": "commisionTaken",
          "type": "uint256"
        },
        {
          "indexed": false,
          "internalType": "uint256",
          "name": "mintedAmount",
          "type": "uint256"
        }
      ],
      "name": "PurchaseReleased",
      "type": "event"
    },
    {
      "inputs": [],
      "name": "abortPurchase",
      "outputs": [],
      "stateMutability": "nonpayable",
      "type": "function"
    },
    {
      "inputs": [],
      "name": "collateral",
      "outputs": [
        {
          "internalType": "uint256",
          "name": "",
          "type": "uint256"
        }
      ],
      "stateMutability": "view",
      "type": "function"
    },
    {
      "inputs": [],
      "name": "confirmPurchase",
      "outputs": [],
      "stateMutability": "payable",
      "type": "function"
    },
    {
      "inputs": [
        {
          "internalType": "address",
          "name": "_seller",
          "type": "address"
        },
        {
          "internalType": "uint256",
          "name": "_price",
          "type": "uint256"
        },
        {
          "internalType": "uint256",
          "name": "_collateral",
          "type": "uint256"
        },
        {
          "internalType": "address",
          "name": "_tokenAddress",
          "type": "address"
        }
      ],
      "name": "createPurchase",
      "outputs": [],
      "stateMutability": "payable",
      "type": "function"
    },
    {
      "inputs": [
        {
          "internalType": "address",
          "name": "_timelock",
          "type": "address"
        },
        {
          "internalType": "address",
          "name": "_rewardsPoolAddress",
          "type": "address"
        },
        {
          "internalType": "address",
          "name": "_pscAddress",
          "type": "address"
        },
        {
          "internalType": "address",
          "name": "_paysecAddress",
          "type": "address"
        },
        {
          "internalType": "address",
          "name": "_buyer",
          "type": "address"
        }
      ],
      "name": "initialise",
      "outputs": [],
      "stateMutability": "nonpayable",
      "type": "function"
    },
    {
      "inputs": [],
      "name": "paysecAddress",
      "outputs": [
        {
          "internalType": "address",
          "name": "",
          "type": "address"
        }
      ],
      "stateMutability": "view",
      "type": "function"
    },
    {
      "inputs": [],
      "name": "price",
      "outputs": [
        {
          "internalType": "uint256",
          "name": "",
          "type": "uint256"
        }
      ],
      "stateMutability": "view",
      "type": "function"
    },
    {
      "inputs": [],
      "name": "pscAddress",
      "outputs": [
        {
          "internalType": "address",
          "name": "",
          "type": "address"
        }
      ],
      "stateMutability": "view",
      "type": "function"
    },
    {
      "inputs": [],
      "name": "releasePurchase",
      "outputs": [],
      "stateMutability": "nonpayable",
      "type": "function"
    },
    {
      "inputs": [],
      "name": "returnSender",
      "outputs": [
        {
          "internalType": "address",
          "name": "",
          "type": "address"
        }
      ],
      "stateMutability": "view",
      "type": "function"
    },
    {
      "inputs": [],
      "name": "rewardsPool",
      "outputs": [
        {
          "internalType": "contract IRewardsPool",
          "name": "",
          "type": "address"
        }
      ],
      "stateMutability": "view",
      "type": "function"
    },
    {
      "inputs": [],
      "name": "rewardsPoolAddress",
      "outputs": [
        {
          "internalType": "address",
          "name": "",
          "type": "address"
        }
      ],
      "stateMutability": "view",
      "type": "function"
    },
    {
      "inputs": [],
      "name": "timelock",
      "outputs": [
        {
          "internalType": "address",
          "name": "",
          "type": "address"
        }
      ],
      "stateMutability": "view",
      "type": "function"
    },
    {
      "inputs": [],
      "name": "tokenAddress",
      "outputs": [
        {
          "internalType": "address",
          "name": "",
          "type": "address"
        }
      ],
      "stateMutability": "view",
      "type": "function"
    },
    {
      "stateMutability": "payable",
      "type": "receive"
    }
  ],
  "bytecode": "0x608060405234801561001057600080fd5b50611e34806100206000396000f3fe6080604052600436106100e15760003560e01c8063a035b1fe1161007f578063cce8505511610059578063cce8505514610225578063d33219b414610245578063d696069714610265578063d8dfeb451461026d57600080fd5b8063a035b1fe146101c1578063a869e098146101e5578063c36a4c121461020557600080fd5b80635170a9d0116100bb5780635170a9d01461015f5780637380b4a7146101725780637c4408e9146101875780639d76ea581461019c57600080fd5b80630359bf95146100ed5780630359fea91461012a5780633c65c1d81461014a57600080fd5b366100e857005b600080fd5b3480156100f957600080fd5b5060095461010d906001600160a01b031681565b6040516001600160a01b0390911681526020015b60405180910390f35b34801561013657600080fd5b5060025461010d906001600160a01b031681565b61015d610158366004611be9565b610283565b005b34801561016b57600080fd5b503361010d565b34801561017e57600080fd5b5061015d6106dc565b34801561019357600080fd5b5061015d6108f2565b3480156101a857600080fd5b5060075461010d9061010090046001600160a01b031681565b3480156101cd57600080fd5b506101d760055481565b604051908152602001610121565b3480156101f157600080fd5b5061015d610200366004611c2f565b610f8e565b34801561021157600080fd5b50600c5461010d906001600160a01b031681565b34801561023157600080fd5b50600a5461010d906001600160a01b031681565b34801561025157600080fd5b50600b5461010d906001600160a01b031681565b61015d611162565b34801561027957600080fd5b506101d760065481565b6003546001600160a01b031633146102e25760405162461bcd60e51b815260206004820152601e60248201527f4f6e6c792062757965722063616e20637265617465207075726368617365000060448201526064015b60405180910390fd5b600060075460ff1660038111156102fb576102fb611c94565b146103485760405162461bcd60e51b815260206004820152601960248201527f5075726368617365206d75737420626520696e6163746976650000000000000060448201526064016102d9565b6001600160a01b03841633036103995760405162461bcd60e51b8152602060048201526016602482015275213abcb2b91031b0b73737ba1031329029b2b63632b960511b60448201526064016102d9565b600083116103e95760405162461bcd60e51b815260206004820152601d60248201527f5072696365206d7573742062652067726561746572207468616e20302e00000060448201526064016102d9565b600082116104445760405162461bcd60e51b815260206004820152602260248201527f436f6c6c61746572616c206d7573742062652067726561746572207468616e20604482015261181760f11b60648201526084016102d9565b6001600160a01b0381166104a85761045c8284611cc0565b34146104a35760405162461bcd60e51b815260206004820152601660248201527524b731b7b93932b1ba1030b6b7bab73a1039b2b73a1760511b60448201526064016102d9565b6105b1565b6001600160a01b0381166323b872dd33306104c38688611cc0565b6040516001600160e01b031960e086901b1681526001600160a01b03938416600482015292909116602483015260448201526064016020604051808303816000875af1158015610517573d6000803e3d6000fd5b505050506040513d601f19601f8201168201806040525081019061053b9190611cd3565b6105575760405162461bcd60e51b81526004016102d990611cfc565b34156105b15760405162461bcd60e51b8152602060048201526024808201527f455448206e6f7420726571756972656420666f7220746f6b656e20707572636860448201526330b9b29760e11b60648201526084016102d9565b60078054600480546001600160a01b038881166001600160a01b031990921682178355600588905560068790558581166101009081026001600160a81b0319909516949094176001179485905560005460405163033f271760e51b815233948101949094526024840192909252604483018890526064830187905292909304821660848201529116906367e4e2e09060a401600060405180830381600087803b15801561065d57600080fd5b505af1158015610671573d6000803e3d6000fd5b50506004546005546006546007546040805193845260208401929092526001600160a01b036101009091048116838301529051921693503392507fade9f34478d4ae1182c9a876a0f91ccf8b589f5ac03b5ed4085190dc2c3440e5919081900360600190a350505050565b6003546001600160a01b031633146107365760405162461bcd60e51b815260206004820152601d60248201527f4f6e6c792062757965722063616e2061626f727420707572636861736500000060448201526064016102d9565b600160075460ff16600381111561074f5761074f611c94565b1461076c5760405162461bcd60e51b81526004016102d990611d3f565b6007805460ff1916600317908190556001600160a01b03610100909104166107d957336001600160a01b03166108fc6005546006546107ab9190611cc0565b6040518115909202916000818181858888f193505050501580156107d3573d6000803e3d6000fd5b50610868565b6007546006546005546101009092046001600160a01b031691829163a9059cbb91339161080591611cc0565b6040518363ffffffff1660e01b8152600401610822929190611d80565b6020604051808303816000875af1158015610841573d6000803e3d6000fd5b505050506040513d601f19601f820116820180604052508101906108659190611cd3565b50505b600054604051637bbd769960e01b81523360048201526001600160a01b0390911690637bbd769990602401600060405180830381600087803b1580156108ad57600080fd5b505af11580156108c1573d6000803e3d6000fd5b50506040513392507f9422a198d91e2cd4c9cfed0b15e0306055e33c309ffd004ba860a1112d119ded9150600090a2565b6003546001600160a01b0316331461094c5760405162461bcd60e51b815260206004820152601f60248201527f4f6e6c792062757965722063616e2072656c656173652070757263686173650060448201526064016102d9565b600260075460ff16600381111561096557610965611c94565b146109be5760405162461bcd60e51b815260206004820152602360248201527f5075726368617365206973206e6f7420696e20636f6e6669726d6564207374616044820152623a329760e91b60648201526084016102d9565b6007805460ff191690556005546000906109d790611538565b6109e2600554611557565b6109ec9190611cc0565b60075490915061010090046001600160a01b031615610b23576007546004546006546005546001600160a01b03610100909404841693849363a9059cbb939116918691610a3891611cc0565b610a429190611d99565b6040518363ffffffff1660e01b8152600401610a5f929190611d80565b6020604051808303816000875af1158015610a7e573d6000803e3d6000fd5b505050506040513d601f19601f82011682018060405250810190610aa29190611cd3565b5060035460065460405163a9059cbb60e01b81526001600160a01b038481169363a9059cbb93610ad9939290911691600401611d80565b6020604051808303816000875af1158015610af8573d6000803e3d6000fd5b505050506040513d601f19601f82011682018060405250810190610b1c9190611cd3565b5050610bb9565b6004546006546005546001600160a01b03909216916108fc918491610b489190611cc0565b610b529190611d99565b6040518115909202916000818181858888f19350505050158015610b7a573d6000803e3d6000fd5b506003546006546040516001600160a01b039092169181156108fc0291906000818181858888f19350505050158015610bb7573d6000803e3d6000fd5b505b60006064612710600854610bcd9190611dac565b610bd79190611dc3565b905060008060009054906101000a90046001600160a01b03166001600160a01b031663a0e7164a6040518163ffffffff1660e01b81526004016020604051808303816000875af1158015610c2f573d6000803e3d6000fd5b505050506040513d601f19601f82011682018060405250810190610c539190611de5565b90506000600160009054906101000a90046001600160a01b03166001600160a01b03166318160ddd6040518163ffffffff1660e01b8152600401602060405180830381865afa158015610caa573d6000803e3d6000fd5b505050506040513d601f19601f82011682018060405250810190610cce9190611de5565b90506000610ce568270801d946c940000084611cc0565b60048584600160009054906101000a90046001600160a01b03166001600160a01b03166332cb6b0c6040518163ffffffff1660e01b8152600401602060405180830381865afa158015610d3c573d6000803e3d6000fd5b505050506040513d601f19601f82011682018060405250810190610d609190611de5565b610d6a9190611d99565b610d749190611dac565b610d7e9190611dc3565b610d889190611dc3565b6001546040516340c10f1960e01b81529192506001600160a01b0316906340c10f1990610dbb9033908590600401611d80565b600060405180830381600087803b158015610dd557600080fd5b505af1158015610de9573d6000803e3d6000fd5b5050600154600480546040516340c10f1960e01b81526001600160a01b0393841695506340c10f199450610e239390911691869101611d80565b600060405180830381600087803b158015610e3d57600080fd5b505af1158015610e51573d6000803e3d6000fd5b505060005460048054604051639b1b31bd60e01b81526001600160a01b039384169550639b1b31bd9450610e8b9390911691899101611d80565b600060405180830381600087803b158015610ea557600080fd5b505af1158015610eb9573d6000803e3d6000fd5b5050600054600354604051630a52b3eb60e11b81526001600160a01b0392831694506314a567d69350610ef492909116908890600401611d80565b600060405180830381600087803b158015610f0e57600080fd5b505af1158015610f22573d6000803e3d6000fd5b505060045460055460065460085460408051938452602084019290925290820152606081018590526001600160a01b0390911692503391507fa184a0090ebab55427c2e1099539f12abb4f3d7e36445b7af6212172d8c326d59060800160405180910390a35050505050565b7ff0c57e16840df040f15088dc2f81fe391c3923bec73e23a9662efc9c229c6a008054600160401b810460ff16159067ffffffffffffffff16600081158015610fd45750825b905060008267ffffffffffffffff166001148015610ff15750303b155b905081158015610fff575080155b1561101d5760405163f92ee8a960e01b815260040160405180910390fd5b845467ffffffffffffffff19166001178555831561104757845460ff60401b1916600160401b1785555b600b80546001600160a01b03808d166001600160a01b03199283168117909355600a80548d8316908416811790915560028054841682179055600980548d84169085168117909155600c80548d85169086168117909155600380548d861690871681179091556000805487168317905560018054909616831790955560045460408051938452602084019490945292820152606081019490945216917f0ecf1f280b44cae7fa9772b0ec14c2d00f08c35b98126b28e54f8cc83e5add609060800160405180910390a3831561115657845460ff60401b19168555604051600181527fc7f505b2f371ae2175ee4913f4499e1f2633a7b5936321eed1cdaeb6115181d29060200160405180910390a15b50505050505050505050565b6004546001600160a01b031633146111c65760405162461bcd60e51b815260206004820152602160248201527f4f6e6c792073656c6c65722063616e20636f6e6669726d2070757263686173656044820152601760f91b60648201526084016102d9565b600160075460ff1660038111156111df576111df611c94565b146111fc5760405162461bcd60e51b81526004016102d990611d3f565b60075461010090046001600160a01b031661126057600654341461125b5760405162461bcd60e51b815260206004820152601660248201527524b731b7b93932b1ba1030b6b7bab73a1039b2b73a1760511b60448201526064016102d9565b6112ff565b6007546006546040516323b872dd60e01b815233600482015230602482015260448101919091526101009091046001600160a01b0316906323b872dd906064016020604051808303816000875af11580156112bf573d6000803e3d6000fd5b505050506040513d601f19601f820116820180604052508101906112e39190611cd3565b6112ff5760405162461bcd60e51b81526004016102d990611cfc565b600061130c600554611557565b9050600061131b600554611538565b905060006113298383611567565b90506000611338816064611cc0565b61134461271084611dac565b61134e9190611dc3565b60005460405163c6fd671b60e01b8152600481018390529192506001600160a01b03169063c6fd671b90602401600060405180830381600087803b15801561139557600080fd5b505af11580156113a9573d6000803e3d6000fd5b5050600254604051631483834360e31b8152600481018890526001600160a01b03909116925063a41c1a189150602401600060405180830381600087803b1580156113f357600080fd5b505af1158015611407573d6000803e3d6000fd5b5050506008859055506007805460ff19166002179055600054600480546040516301ef51ad60e21b81526001600160a01b03938416936307bd46b493611454939190911691869101611d80565b600060405180830381600087803b15801561146e57600080fd5b505af1158015611482573d6000803e3d6000fd5b5050600054600354604051633911e18f60e21b81526001600160a01b03928316945063e447863c93506114bd92909116908590600401611d80565b600060405180830381600087803b1580156114d757600080fd5b505af11580156114eb573d6000803e3d6000fd5b505060408051878152602081018790529081018590523392507f2b240ac51df574a810f01292e2969507ac8bae1d1919651aa4759f758628642c915060600160405180910390a250505050565b60006127106115478284611dac565b6115519190611dc3565b92915050565b6000612710611547606484611dac565b60075460009061010090046001600160a01b03166116d457600a546040516000916001600160a01b03169085908381818185875af1925050503d80600081146115cc576040519150601f19603f3d011682016040523d82523d6000602084013e6115d1565b606091505b50509050806116225760405162461bcd60e51b815260206004820152601f60248201527f5472616e7366657220746f207265776172647320706f6f6c206661696c65640060448201526064016102d9565b821561166457600b546040516001600160a01b039091169084156108fc029085906000818181858888f19350505050158015611662573d6000803e3d6000fd5b505b600a546001600160a01b03167f0273af2678f9438b617ce9c55887d4015673235f6a33ee4719006a674a7edc7e858561169d8183611cc0565b604080519384526020840192909252908201526000606082015260800160405180910390a26116cc8385611cc0565b915050611551565b60075473c02aaa39b223fe8d0a0e5c4f27ead9083c756cc29061010090046001600160a01b03168114611a6457600754610bb89061010090046001600160a01b03168063095ea7b373e592427a0aece92de3edee1f18e0157c0586156461173b888a611cc0565b6040518363ffffffff1660e01b8152600401611758929190611d80565b6020604051808303816000875af1158015611777573d6000803e3d6000fd5b505050506040513d601f19601f8201168201806040525081019061179b9190611cd3565b50604080516101008082018352600754046001600160a01b0316815273c02aaa39b223fe8d0a0e5c4f27ead9083c756cc2602082015262ffffff84169181019190915230606082015242608082015260009060a081016117fb888a611cc0565b8152600060208083018290526040928301829052825163414bf38960e01b815284516001600160a01b03908116600483015291850151821660248201529284015162ffffff1660448401526060840151811660648401526080840151608484015260a084015160a484015260c084015160c484015260e08401511660e483015291925073e592427a0aece92de3edee1f18e0157c058615649063414bf38990610104016020604051808303816000875af11580156118bd573d6000803e3d6000fd5b505050506040513d601f19601f820116820180604052508101906118e19190611de5565b604051632e1a7d4d60e01b8152600481018290529091506001600160a01b03861690632e1a7d4d90602401600060405180830381600087803b15801561192657600080fd5b505af115801561193a573d6000803e3d6000fd5b5050600a546001600160a01b031691506108fc905061195b60646000611cc0565b611966606485611dac565b6119709190611dc3565b6040518115909202916000818181858888f19350505050158015611998573d6000803e3d6000fd5b5086156119f957600b546001600160a01b03166108fc6119ba60646000611cc0565b6119c5600085611dac565b6119cf9190611dc3565b6040518115909202916000818181858888f193505050501580156119f7573d6000803e3d6000fd5b505b600a54600754604080518b8152602081018b90529081018490526001600160a01b03610100909204821660608201529116907f0273af2678f9438b617ce9c55887d4015673235f6a33ee4719006a674a7edc7e9060800160405180910390a294506115519350505050565b6001600160a01b038116632e1a7d4d611a7d8587611cc0565b6040518263ffffffff1660e01b8152600401611a9b91815260200190565b600060405180830381600087803b158015611ab557600080fd5b505af1158015611ac9573d6000803e3d6000fd5b5050600a546040516001600160a01b03909116925086156108fc02915086906000818181858888f19350505050158015611b07573d6000803e3d6000fd5b508215611b4a57600b546040516001600160a01b039091169084156108fc029085906000818181858888f19350505050158015611b48573d6000803e3d6000fd5b505b600a546001600160a01b03167f0273af2678f9438b617ce9c55887d4015673235f6a33ee4719006a674a7edc7e8585611b838183611cc0565b6040805193845260208401929092529082015273c02aaa39b223fe8d0a0e5c4f27ead9083c756cc2606082015260800160405180910390a2611bc58385611cc0565b949350505050565b80356001600160a01b0381168114611be457600080fd5b919050565b60008060008060808587031215611bff57600080fd5b611c0885611bcd565b93506020850135925060408501359150611c2460608601611bcd565b905092959194509250565b600080600080600060a08688031215611c4757600080fd5b611c5086611bcd565b9450611c5e60208701611bcd565b9350611c6c60408701611bcd565b9250611c7a60608701611bcd565b9150611c8860808701611bcd565b90509295509295909350565b634e487b7160e01b600052602160045260246000fd5b634e487b7160e01b600052601160045260246000fd5b8082018082111561155157611551611caa565b600060208284031215611ce557600080fd5b81518015158114611cf557600080fd5b9392505050565b60208082526023908201527f496e73756666696369656e742066756e6473206f72206e6f7420617070726f7660408201526232b21760e91b606082015260800190565b60208082526021908201527f5075726368617365206973206e6f7420696e20637265617465642073746174656040820152601760f91b606082015260800190565b6001600160a01b03929092168252602082015260400190565b8181038181111561155157611551611caa565b808202811582820484141761155157611551611caa565b600082611de057634e487b7160e01b600052601260045260246000fd5b500490565b600060208284031215611df757600080fd5b505191905056fea2646970667358221220bbd90d94f56d00764ae9c1c5936d2e3b66c6a0d59bc5b4d094dd9e5ca37a41c164736f6c63430008180033",
  "linkReferences": {},
  "deployedLinkReferences": {}
}