{
  "_format": "hh-sol-artifact-1",
  "contractName": "TestClone",
  "sourceName": "contracts/TestClone.sol",
  "abi": [
    {
      "inputs": [],
      "name": "returnAddress",
      "outputs": [
        {
          "internalType": "address",
          "name": "",
          "type": "address"
        }
      ],
      "stateMutability": "view",
      "type": "function"
    },
    {
      "inputs": [],
      "name": "testBool",
      "outputs": [
        {
          "internalType": "bool",
          "name": "",
          "type": "bool"
        }
      ],
      "stateMutability": "view",
      "type": "function"
    }
  ],
  "bytecode": "0x60806040526000805460ff19166001179055348015601c57600080fd5b50609b8061002b6000396000f3fe6080604052348015600f57600080fd5b506004361060325760003560e01c806336aacafa146037578063943640c3146058575b600080fd5b60005460439060ff1681565b60405190151581526020015b60405180910390f35b604051308152602001604f56fea26469706673582212204623d9a75f79e78f1b675a785f49385ac0939ab84a610968bdefa40c9ee958a864736f6c63430008180033",
  "linkReferences": {},
  "deployedLinkReferences": {}
}