{"contracts/PSC.sol":{"PSC":{"abi":[{"inputs":[],"stateMutability":"nonpayable","type":"constructor"},{"inputs":[],"name":"CheckpointUnorderedInsertion","type":"error"},{"inputs":[],"name":"ECDSAInvalidSignature","type":"error"},{"inputs":[{"internalType":"uint256","name":"length","type":"uint256"}],"name":"ECDSAInvalidSignatureLength","type":"error"},{"inputs":[{"internalType":"bytes32","name":"s","type":"bytes32"}],"name":"ECDSAInvalidSignatureS","type":"error"},{"inputs":[{"internalType":"uint256","name":"increasedSupply","type":"uint256"},{"internalType":"uint256","name":"cap","type":"uint256"}],"name":"ERC20ExceededSafeSupply","type":"error"},{"inputs":[{"internalType":"address","name":"spender","type":"address"},{"internalType":"uint256","name":"allowance","type":"uint256"},{"internalType":"uint256","name":"needed","type":"uint256"}],"name":"ERC20InsufficientAllowance","type":"error"},{"inputs":[{"internalType":"address","name":"sender","type":"address"},{"internalType":"uint256","name":"balance","type":"uint256"},{"internalType":"uint256","name":"needed","type":"uint256"}],"name":"ERC20InsufficientBalance","type":"error"},{"inputs":[{"internalType":"address","name":"approver","type":"address"}],"name":"ERC20InvalidApprover","type":"error"},{"inputs":[{"internalType":"address","name":"receiver","type":"address"}],"name":"ERC20InvalidReceiver","type":"error"},{"inputs":[{"internalType":"address","name":"sender","type":"address"}],"name":"ERC20InvalidSender","type":"error"},{"inputs":[{"internalType":"address","name":"spender","type":"address"}],"name":"ERC20InvalidSpender","type":"error"},{"inputs":[{"internalType":"uint256","name":"deadline","type":"uint256"}],"name":"ERC2612ExpiredSignature","type":"error"},{"inputs":[{"internalType":"address","name":"signer","type":"address"},{"internalType":"address","name":"owner","type":"address"}],"name":"ERC2612InvalidSigner","type":"error"},{"inputs":[{"internalType":"uint256","name":"timepoint","type":"uint256"},{"internalType":"uint48","name":"clock","type":"uint48"}],"name":"ERC5805FutureLookup","type":"error"},{"inputs":[],"name":"ERC6372InconsistentClock","type":"error"},{"inputs":[{"internalType":"address","name":"account","type":"address"},{"internalType":"uint256","name":"currentNonce","type":"uint256"}],"name":"InvalidAccountNonce","type":"error"},{"inputs":[],"name":"InvalidShortString","type":"error"},{"inputs":[{"internalType":"address","name":"owner","type":"address"}],"name":"OwnableInvalidOwner","type":"error"},{"inputs":[{"internalType":"address","name":"account","type":"address"}],"name":"OwnableUnauthorizedAccount","type":"error"},{"inputs":[{"internalType":"uint8","name":"bits","type":"uint8"},{"internalType":"uint256","name":"value","type":"uint256"}],"name":"SafeCastOverflowedUintDowncast","type":"error"},{"inputs":[{"internalType":"string","name":"str","type":"string"}],"name":"StringTooLong","type":"error"},{"inputs":[{"internalType":"uint256","name":"expiry","type":"uint256"}],"name":"VotesExpiredSignature","type":"error"},{"anonymous":false,"inputs":[{"indexed":true,"internalType":"address","name":"owner","type":"address"},{"indexed":true,"internalType":"address","name":"spender","type":"address"},{"indexed":false,"internalType":"uint256","name":"value","type":"uint256"}],"name":"Approval","type":"event"},{"anonymous":false,"inputs":[{"indexed":true,"internalType":"address","name":"delegator","type":"address"},{"indexed":true,"internalType":"address","name":"fromDelegate","type":"address"},{"indexed":true,"internalType":"address","name":"toDelegate","type":"address"}],"name":"DelegateChanged","type":"event"},{"anonymous":false,"inputs":[{"indexed":true,"internalType":"address","name":"delegate","type":"address"},{"indexed":false,"internalType":"uint256","name":"previousVotes","type":"uint256"},{"indexed":false,"internalType":"uint256","name":"newVotes","type":"uint256"}],"name":"DelegateVotesChanged","type":"event"},{"anonymous":false,"inputs":[],"name":"EIP712DomainChanged","type":"event"},{"anonymous":false,"inputs":[{"indexed":true,"internalType":"address","name":"previousOwner","type":"address"},{"indexed":true,"internalType":"address","name":"newOwner","type":"address"}],"name":"OwnershipTransferred","type":"event"},{"anonymous":false,"inputs":[{"indexed":true,"internalType":"address","name":"from","type":"address"},{"indexed":true,"internalType":"address","name":"to","type":"address"},{"indexed":false,"internalType":"uint256","name":"value","type":"uint256"}],"name":"Transfer","type":"event"},{"anonymous":false,"inputs":[{"indexed":true,"internalType":"address","name":"user","type":"address"},{"indexed":false,"internalType":"uint256","name":"amount","type":"uint256"}],"name":"Withdraw","type":"event"},{"inputs":[],"name":"CLOCK_MODE","outputs":[{"internalType":"string","name":"","type":"string"}],"stateMutability":"view","type":"function"},{"inputs":[],"name":"DOMAIN_SEPARATOR","outputs":[{"internalType":"bytes32","name":"","type":"bytes32"}],"stateMutability":"view","type":"function"},{"inputs":[],"name":"MAX_SUPPLY","outputs":[{"internalType":"uint256","name":"","type":"uint256"}],"stateMutability":"view","type":"function"},{"inputs":[{"internalType":"address","name":"owner","type":"address"},{"internalType":"address","name":"spender","type":"address"}],"name":"allowance","outputs":[{"internalType":"uint256","name":"","type":"uint256"}],"stateMutability":"view","type":"function"},{"inputs":[{"internalType":"address","name":"spender","type":"address"},{"internalType":"uint256","name":"value","type":"uint256"}],"name":"approve","outputs":[{"internalType":"bool","name":"","type":"bool"}],"stateMutability":"nonpayable","type":"function"},{"inputs":[{"internalType":"address","name":"account","type":"address"}],"name":"balanceOf","outputs":[{"internalType":"uint256","name":"","type":"uint256"}],"stateMutability":"view","type":"function"},{"inputs":[{"internalType":"address","name":"_contractAddress","type":"address"}],"name":"changePaysec","outputs":[],"stateMutability":"nonpayable","type":"function"},{"inputs":[{"internalType":"address","name":"account","type":"address"},{"internalType":"uint32","name":"pos","type":"uint32"}],"name":"checkpoints","outputs":[{"components":[{"internalType":"uint48","name":"_key","type":"uint48"},{"internalType":"uint208","name":"_value","type":"uint208"}],"internalType":"struct Checkpoints.Checkpoint208","name":"","type":"tuple"}],"stateMutability":"view","type":"function"},{"inputs":[],"name":"clock","outputs":[{"internalType":"uint48","name":"","type":"uint48"}],"stateMutability":"view","type":"function"},{"inputs":[],"name":"decimals","outputs":[{"internalType":"uint8","name":"","type":"uint8"}],"stateMutability":"view","type":"function"},{"inputs":[{"internalType":"address","name":"delegatee","type":"address"}],"name":"delegate","outputs":[],"stateMutability":"nonpayable","type":"function"},{"inputs":[{"internalType":"address","name":"delegatee","type":"address"},{"internalType":"uint256","name":"nonce","type":"uint256"},{"internalType":"uint256","name":"expiry","type":"uint256"},{"internalType":"uint8","name":"v","type":"uint8"},{"internalType":"bytes32","name":"r","type":"bytes32"},{"internalType":"bytes32","name":"s","type":"bytes32"}],"name":"delegateBySig","outputs":[],"stateMutability":"nonpayable","type":"function"},{"inputs":[{"internalType":"address","name":"account","type":"address"}],"name":"delegates","outputs":[{"internalType":"address","name":"","type":"address"}],"stateMutability":"view","type":"function"},{"inputs":[],"name":"eip712Domain","outputs":[{"internalType":"bytes1","name":"fields","type":"bytes1"},{"internalType":"string","name":"name","type":"string"},{"internalType":"string","name":"version","type":"string"},{"internalType":"uint256","name":"chainId","type":"uint256"},{"internalType":"address","name":"verifyingContract","type":"address"},{"internalType":"bytes32","name":"salt","type":"bytes32"},{"internalType":"uint256[]","name":"extensions","type":"uint256[]"}],"stateMutability":"view","type":"function"},{"inputs":[{"internalType":"uint256","name":"timepoint","type":"uint256"}],"name":"getPastTotalSupply","outputs":[{"internalType":"uint256","name":"","type":"uint256"}],"stateMutability":"view","type":"function"},{"inputs":[{"internalType":"address","name":"account","type":"address"},{"internalType":"uint256","name":"timepoint","type":"uint256"}],"name":"getPastVotes","outputs":[{"internalType":"uint256","name":"","type":"uint256"}],"stateMutability":"view","type":"function"},{"inputs":[{"internalType":"address","name":"account","type":"address"}],"name":"getVotes","outputs":[{"internalType":"uint256","name":"","type":"uint256"}],"stateMutability":"view","type":"function"},{"inputs":[{"internalType":"address","name":"account","type":"address"},{"internalType":"uint256","name":"amount","type":"uint256"}],"name":"mint","outputs":[],"stateMutability":"nonpayable","type":"function"},{"inputs":[],"name":"name","outputs":[{"internalType":"string","name":"","type":"string"}],"stateMutability":"view","type":"function"},{"inputs":[{"internalType":"address","name":"_owner","type":"address"}],"name":"nonces","outputs":[{"internalType":"uint256","name":"","type":"uint256"}],"stateMutability":"view","type":"function"},{"inputs":[{"internalType":"address","name":"account","type":"address"}],"name":"numCheckpoints","outputs":[{"internalType":"uint32","name":"","type":"uint32"}],"stateMutability":"view","type":"function"},{"inputs":[],"name":"owner","outputs":[{"internalType":"address","name":"","type":"address"}],"stateMutability":"view","type":"function"},{"inputs":[],"name":"paysecAddress","outputs":[{"internalType":"address","name":"","type":"address"}],"stateMutability":"view","type":"function"},{"inputs":[{"internalType":"address","name":"owner","type":"address"},{"internalType":"address","name":"spender","type":"address"},{"internalType":"uint256","name":"value","type":"uint256"},{"internalType":"uint256","name":"deadline","type":"uint256"},{"internalType":"uint8","name":"v","type":"uint8"},{"internalType":"bytes32","name":"r","type":"bytes32"},{"internalType":"bytes32","name":"s","type":"bytes32"}],"name":"permit","outputs":[],"stateMutability":"nonpayable","type":"function"},{"inputs":[],"name":"renounceOwnership","outputs":[],"stateMutability":"nonpayable","type":"function"},{"inputs":[],"name":"rewardsPool","outputs":[{"internalType":"address","name":"","type":"address"}],"stateMutability":"view","type":"function"},{"inputs":[{"internalType":"address","name":"_rewardsPool","type":"address"}],"name":"setRewardsPool","outputs":[],"stateMutability":"nonpayable","type":"function"},{"inputs":[{"internalType":"address","name":"_vendor","type":"address"}],"name":"setVendor","outputs":[],"stateMutability":"nonpayable","type":"function"},{"inputs":[],"name":"symbol","outputs":[{"internalType":"string","name":"","type":"string"}],"stateMutability":"view","type":"function"},{"inputs":[],"name":"totalSupply","outputs":[{"internalType":"uint256","name":"","type":"uint256"}],"stateMutability":"view","type":"function"},{"inputs":[{"internalType":"address","name":"to","type":"address"},{"internalType":"uint256","name":"value","type":"uint256"}],"name":"transfer","outputs":[{"internalType":"bool","name":"","type":"bool"}],"stateMutability":"nonpayable","type":"function"},{"inputs":[{"internalType":"address","name":"from","type":"address"},{"internalType":"address","name":"to","type":"address"},{"internalType":"uint256","name":"value","type":"uint256"}],"name":"transferFrom","outputs":[{"internalType":"bool","name":"","type":"bool"}],"stateMutability":"nonpayable","type":"function"},{"inputs":[{"internalType":"address","name":"newOwner","type":"address"}],"name":"transferOwnership","outputs":[],"stateMutability":"nonpayable","type":"function"},{"inputs":[{"internalType":"address","name":"","type":"address"}],"name":"users","outputs":[{"internalType":"uint256","name":"dividendPerTokenWithdrawn","type":"uint256"},{"internalType":"uint256","name":"withdrawalCredit","type":"uint256"}],"stateMutability":"view","type":"function"},{"inputs":[],"name":"vendor","outputs":[{"internalType":"address","name":"","type":"address"}],"stateMutability":"view","type":"function"},{"stateMutability":"payable","type":"receive"}],"evm":{"bytecode":{"linkReferences":{},"object":"6101606040523480156200001257600080fd5b506040518060400160405280600681526020016550617953656360d01b81525080604051806040016040528060018152602001603160f81b815250336040518060400160405280600681526020016550617953656360d01b8152506040518060400160405280600381526020016250534360e81b81525081600390816200009a919062000a9f565b506004620000a9828262000a9f565b5050506001600160a01b038116620000dc57604051631e4fbdf760e01b8152600060048201526024015b60405180910390fd5b620000e781620001f6565b50620000f582600662000248565b610120526200010681600762000248565b61014052815160208084019190912060e052815190820120610100524660a0526200019460e05161010051604080517f8b73c3c69bb8fe3d512ecc4cf759cc79239f7b179b0ffacaa9a75d522b39400f60208201529081019290925260608201524660808201523060a082015260009060c00160405160208183030381529060405280519060200120905090565b60805250503060c05250600c8054336001600160a01b03199182168117909255600e805490911682179055620001f090620001cd601290565b620001da90600a62000c7e565b620001ea906302faf08062000c8f565b62000281565b62000d98565b600580546001600160a01b038381166001600160a01b0319831681179093556040519116919082907f8be0079c531659141344cd1fd0a4f28419497f9722a3daafe3b4186f6b6457e090600090a35050565b600060208351101562000268576200026083620002bf565b90506200027b565b8162000275848262000a9f565b5060ff90505b92915050565b6001600160a01b038216620002ad5760405163ec442f0560e01b815260006004820152602401620000d3565b620002bb6000838362000302565b5050565b600080829050601f81511115620002ed578260405163305a27a960e01b8152600401620000d3919062000ca9565b8051620002fa8262000cfa565b179392505050565b6200030f8383836200037a565b6a52b7d2dcc80cd2e40000006200032560025490565b1115620003755760405162461bcd60e51b815260206004820152601560248201527f546f74616c20737570706c7920657863656564656400000000000000000000006044820152606401620000d3565b505050565b62000387838383620003e9565b6001600160a01b038316620003dc576000620003a260025490565b90506001600160d01b0380821115620003d957604051630e58ae9360e11b81526004810183905260248101829052604401620000d3565b50505b620003758383836200051c565b6001600160a01b038316620004185780600260008282546200040c919062000d1f565b909155506200048c9050565b6001600160a01b038316600090815260208190526040902054818110156200046d5760405163391434e360e21b81526001600160a01b03851660048201526024810182905260448101839052606401620000d3565b6001600160a01b03841660009081526020819052604090209082900390555b6001600160a01b038216620004aa57600280548290039055620004c9565b6001600160a01b03821660009081526020819052604090208054820190555b816001600160a01b0316836001600160a01b03167fddf252ad1be2c89b69c2b068fc378daa952ba7f163c4a11628f55a4df523b3ef836040516200050f91815260200190565b60405180910390a3505050565b6001600160a01b03831662000551576200054e600b62000f41620005b460201b176200054884620005c9565b62000603565b50505b6001600160a01b03821662000580576200057d600b62000f4d6200064060201b176200054884620005c9565b50505b6001600160a01b0383811660009081526009602052604080822054858416835291205462000375929182169116836200064e565b6000620005c2828462000d35565b9392505050565b60006001600160d01b03821115620005ff576040516306dfcc6560e41b815260d0600482015260248101839052604401620000d3565b5090565b6000806200063362000614620007b5565b6200062a6200062388620007c6565b868860201c565b87919062000815565b915091505b935093915050565b6000620005c2828462000d5f565b816001600160a01b0316836001600160a01b031614158015620006715750600081115b1562000375576001600160a01b0383161562000714576001600160a01b0383166000908152600a6020908152604082208291620006bf919062000640901b62000f4d176200054886620005c9565b6001600160d01b031691506001600160d01b03169150846001600160a01b0316600080516020620033ae833981519152838360405162000709929190918252602082015260400190565b60405180910390a250505b6001600160a01b0382161562000375576001600160a01b0382166000908152600a60209081526040822082916200075c9190620005b4901b62000f41176200054886620005c9565b6001600160d01b031691506001600160d01b03169150836001600160a01b0316600080516020620033ae8339815191528383604051620007a6929190918252602082015260400190565b60405180910390a25050505050565b6000620007c162000825565b905090565b805460009080156200080c57620007f283620007e460018462000d82565b600091825260209091200190565b54660100000000000090046001600160d01b0316620005c2565b60009392505050565b6000806200063385858562000832565b6000620007c143620009c4565b825460009081908015620009655760006200085487620007e460018562000d82565b60408051808201909152905465ffffffffffff80821680845266010000000000009092046001600160d01b031660208401529192509087161015620008ac57604051632520601d60e01b815260040160405180910390fd5b805165ffffffffffff808816911603620009005784620008d388620007e460018662000d82565b80546001600160d01b039290921666010000000000000265ffffffffffff90921691909117905562000954565b6040805180820190915265ffffffffffff80881682526001600160d01b0380881660208085019182528b54600181018d5560008d815291909120945191519092166601000000000000029216919091179101555b602001519250839150620006389050565b50506040805180820190915265ffffffffffff80851682526001600160d01b0380851660208085019182528854600181018a5560008a815291822095519251909316660100000000000002919093161792019190915590508162000638565b600065ffffffffffff821115620005ff576040516306dfcc6560e41b81526030600482015260248101839052604401620000d3565b634e487b7160e01b600052604160045260246000fd5b600181811c9082168062000a2457607f821691505b60208210810362000a4557634e487b7160e01b600052602260045260246000fd5b50919050565b601f82111562000375576000816000526020600020601f850160051c8101602086101562000a765750805b601f850160051c820191505b8181101562000a975782815560010162000a82565b505050505050565b81516001600160401b0381111562000abb5762000abb620009f9565b62000ad38162000acc845462000a0f565b8462000a4b565b602080601f83116001811462000b0b576000841562000af25750858301515b600019600386901b1c1916600185901b17855562000a97565b600085815260208120601f198616915b8281101562000b3c5788860151825594840194600190910190840162000b1b565b508582101562000b5b5787850151600019600388901b60f8161c191681555b5050505050600190811b01905550565b634e487b7160e01b600052601160045260246000fd5b600181815b8085111562000bc257816000190482111562000ba65762000ba662000b6b565b8085161562000bb457918102915b93841c939080029062000b86565b509250929050565b60008262000bdb575060016200027b565b8162000bea575060006200027b565b816001811462000c03576002811462000c0e5762000c2e565b60019150506200027b565b60ff84111562000c225762000c2262000b6b565b50506001821b6200027b565b5060208310610133831016604e8410600b841016171562000c53575081810a6200027b565b62000c5f838362000b81565b806000190482111562000c765762000c7662000b6b565b029392505050565b6000620005c260ff84168362000bca565b80820281158282048414176200027b576200027b62000b6b565b60006020808352835180602085015260005b8181101562000cd95785810183015185820160400152820162000cbb565b506000604082860101526040601f19601f8301168501019250505092915050565b8051602080830151919081101562000a455760001960209190910360031b1b16919050565b808201808211156200027b576200027b62000b6b565b6001600160d01b0381811683821601908082111562000d585762000d5862000b6b565b5092915050565b6001600160d01b0382811682821603908082111562000d585762000d5862000b6b565b818103818111156200027b576200027b62000b6b565b60805160a05160c05160e0516101005161012051610140516125bb62000df36000396000611406015260006113d901526000611122015260006110fa015260006110550152600061107f015260006110a901526125bb6000f3fe6080604052600436106102085760003560e01c80637c00029311610118578063a87430ba116100a0578063c3cda5201161006f578063c3cda52014610652578063d505accf14610672578063dd62ed3e14610692578063f1127ed8146106d8578063f2fde38b1461072457600080fd5b8063a87430ba146105a9578063a9059cbb146105f2578063b50dfbbe14610612578063c36a4c121461063257600080fd5b80638e539e8c116100e75780638e539e8c1461050857806391ddadf41461052857806395d89b411461055457806397d93935146105695780639ab24eb01461058957600080fd5b80637c000293146104825780637ecebe00146104a257806384b0196e146104c25780638da5cb5b146104ea57600080fd5b80633644e5151161019b578063587cde1e1161016a578063587cde1e146103a95780635c19a95c146103e25780636fcfff451461040257806370a0823114610437578063715018a61461046d57600080fd5b80633644e5151461033d5780633a46b1a81461035257806340c10f19146103725780634bf5d7e91461039457600080fd5b806318160ddd116101d757806318160ddd146102c357806323b872dd146102e2578063313ce5671461030257806332cb6b0c1461031e57600080fd5b80630359fea91461021457806306fdde0314610251578063095ea7b3146102735780631385a6f2146102a357600080fd5b3661020f57005b600080fd5b34801561022057600080fd5b50600d54610234906001600160a01b031681565b6040516001600160a01b0390911681526020015b60405180910390f35b34801561025d57600080fd5b50610266610744565b604051610248919061219a565b34801561027f57600080fd5b5061029361028e3660046121c9565b6107d6565b6040519015158152602001610248565b3480156102af57600080fd5b50600c54610234906001600160a01b031681565b3480156102cf57600080fd5b506002545b604051908152602001610248565b3480156102ee57600080fd5b506102936102fd3660046121f3565b6107f0565b34801561030e57600080fd5b5060405160128152602001610248565b34801561032a57600080fd5b506102d46a52b7d2dcc80cd2e400000081565b34801561034957600080fd5b506102d4610814565b34801561035e57600080fd5b506102d461036d3660046121c9565b610823565b34801561037e57600080fd5b5061039261038d3660046121c9565b6108a9565b005b3480156103a057600080fd5b506102666109cf565b3480156103b557600080fd5b506102346103c436600461222f565b6001600160a01b039081166000908152600960205260409020541690565b3480156103ee57600080fd5b506103926103fd36600461222f565b610a47565b34801561040e57600080fd5b5061042261041d36600461222f565b610a52565b60405163ffffffff9091168152602001610248565b34801561044357600080fd5b506102d461045236600461222f565b6001600160a01b031660009081526020819052604090205490565b34801561047957600080fd5b50610392610a5d565b34801561048e57600080fd5b5061039261049d36600461222f565b610a71565b3480156104ae57600080fd5b506102d46104bd36600461222f565b610aff565b3480156104ce57600080fd5b506104d7610b0a565b604051610248979695949392919061224a565b3480156104f657600080fd5b506005546001600160a01b0316610234565b34801561051457600080fd5b506102d46105233660046122e3565b610b50565b34801561053457600080fd5b5061053d610bba565b60405165ffffffffffff9091168152602001610248565b34801561056057600080fd5b50610266610bc4565b34801561057557600080fd5b5061039261058436600461222f565b610bd3565b34801561059557600080fd5b506102d46105a436600461222f565b610c70565b3480156105b557600080fd5b506105dd6105c436600461222f565b600f602052600090815260409020805460019091015482565b60408051928352602083019190915201610248565b3480156105fe57600080fd5b5061029361060d3660046121c9565b610ca0565b34801561061e57600080fd5b5061039261062d36600461222f565b610cae565b34801561063e57600080fd5b50601054610234906001600160a01b031681565b34801561065e57600080fd5b5061039261066d36600461230d565b610ce7565b34801561067e57600080fd5b5061039261068d366004612365565b610da4565b34801561069e57600080fd5b506102d46106ad3660046123cf565b6001600160a01b03918216600090815260016020908152604080832093909416825291909152205490565b3480156106e457600080fd5b506106f86106f3366004612402565b610ede565b60408051825165ffffffffffff1681526020928301516001600160d01b03169281019290925201610248565b34801561073057600080fd5b5061039261073f36600461222f565b610f03565b60606003805461075390612442565b80601f016020809104026020016040519081016040528092919081815260200182805461077f90612442565b80156107cc5780601f106107a1576101008083540402835291602001916107cc565b820191906000526020600020905b8154815290600101906020018083116107af57829003601f168201915b5050505050905090565b6000336107e4818585610f59565b60019150505b92915050565b6000336107fe858285610f6b565b610809858585610fe9565b506001949350505050565b600061081e611048565b905090565b60008061082e610bba565b90508065ffffffffffff16831061086e57604051637669fc0f60e11b81526004810184905265ffffffffffff821660248201526044015b60405180910390fd5b61089861087a84611173565b6001600160a01b0386166000908152600a60205260409020906111aa565b6001600160d01b0316949350505050565b6005546001600160a01b0316331480610929575060105460405163f3a434e360e01b81523360048201526001600160a01b039091169063f3a434e390602401602060405180830381865afa158015610905573d6000803e3d6000fd5b505050506040513d601f19601f82011682018060405250810190610929919061247c565b8061093e5750600c546001600160a01b031633145b6109c15760405162461bcd60e51b815260206004820152604860248201527f4f6e6c7920696d706c656d656e746174696f6e73206f72206f776e657273206f60448201527f722076656e646f72732061726520616c6c6f77656420746f206d696e74206e656064820152677720746f6b656e7360c01b608482015260a401610865565b6109cb8282611260565b5050565b60606109d9611296565b65ffffffffffff166109e9610bba565b65ffffffffffff1614610a0f576040516301bfc1c560e61b815260040160405180910390fd5b5060408051808201909152601d81527f6d6f64653d626c6f636b6e756d6265722666726f6d3d64656661756c74000000602082015290565b336109cb81836112a1565b60006107ea82611313565b610a65611335565b610a6f6000611362565b565b6005546001600160a01b03163314610add5760405162461bcd60e51b815260206004820152602960248201527f4f6e6c79206f776e6572206f722076656e646f722063616e2073657420726577604482015268185c991cc81c1bdbdb60ba1b6064820152608401610865565b600d80546001600160a01b0319166001600160a01b0392909216919091179055565b60006107ea826113b4565b600060608060008060006060610b1e6113d2565b610b266113ff565b60408051600080825260208201909252600f60f81b9b939a50919850469750309650945092509050565b600080610b5b610bba565b90508065ffffffffffff168310610b9657604051637669fc0f60e11b81526004810184905265ffffffffffff82166024820152604401610865565b610baa610ba284611173565b600b906111aa565b6001600160d01b03169392505050565b600061081e611296565b60606004805461075390612442565b6005546001600160a01b0316331480610bf65750600c546001600160a01b031633145b610c4e5760405162461bcd60e51b815260206004820152602360248201527f4f6e6c79206f776e6572206f722076656e646f722063616e207365742076656e6044820152623237b960e91b6064820152608401610865565b600c80546001600160a01b0319166001600160a01b0392909216919091179055565b6001600160a01b0381166000908152600a60205260408120610c919061142c565b6001600160d01b031692915050565b6000336107e4818585610fe9565b6005546001600160a01b03163314610cc557600080fd5b601080546001600160a01b0319166001600160a01b0392909216919091179055565b83421115610d0b57604051632341d78760e11b815260048101859052602401610865565b604080517fe48329057bfd03d55e49b547132e39cffd9c1820ad7b9d4c5307691425d15adf60208201526001600160a01b038816918101919091526060810186905260808101859052600090610d8590610d7d9060a00160405160208183030381529060405280519060200120611465565b858585611492565b9050610d9181876114c0565b610d9b81886112a1565b50505050505050565b83421115610dc85760405163313c898160e11b815260048101859052602401610865565b60007f6e71edae12b1b97f4d1f60370fef10105fa2faae0126114a169c64845d6126c9888888610e158c6001600160a01b0316600090815260086020526040902080546001810190915590565b6040805160208101969096526001600160a01b0394851690860152929091166060840152608083015260a082015260c0810186905260e0016040516020818303038152906040528051906020012090506000610e7082611465565b90506000610e8082878787611492565b9050896001600160a01b0316816001600160a01b031614610ec7576040516325c0072360e11b81526001600160a01b0380831660048301528b166024820152604401610865565b610ed28a8a8a610f59565b50505050505050505050565b6040805180820190915260008082526020820152610efc8383611513565b9392505050565b610f0b611335565b6001600160a01b038116610f3557604051631e4fbdf760e01b815260006004820152602401610865565b610f3e81611362565b50565b6000610efc82846124b4565b6000610efc82846124db565b610f668383836001611549565b505050565b6001600160a01b038381166000908152600160209081526040808320938616835292905220546000198114610fe35781811015610fd457604051637dc7a0d960e11b81526001600160a01b03841660048201526024810182905260448101839052606401610865565b610fe384848484036000611549565b50505050565b6001600160a01b03831661101357604051634b637e8f60e11b815260006004820152602401610865565b6001600160a01b03821661103d5760405163ec442f0560e01b815260006004820152602401610865565b610f6683838361161e565b6000306001600160a01b037f0000000000000000000000000000000000000000000000000000000000000000161480156110a157507f000000000000000000000000000000000000000000000000000000000000000046145b156110cb57507f000000000000000000000000000000000000000000000000000000000000000090565b61081e604080517f8b73c3c69bb8fe3d512ecc4cf759cc79239f7b179b0ffacaa9a75d522b39400f60208201527f0000000000000000000000000000000000000000000000000000000000000000918101919091527f000000000000000000000000000000000000000000000000000000000000000060608201524660808201523060a082015260009060c00160405160208183030381529060405280519060200120905090565b600065ffffffffffff8211156111a6576040516306dfcc6560e41b81526030600482015260248101839052604401610865565b5090565b8154600090818160058111156112095760006111c584611684565b6111cf90856124fb565b60008881526020902090915081015465ffffffffffff90811690871610156111f957809150611207565b61120481600161250e565b92505b505b60006112178787858561176c565b905080156112525761123c8761122e6001846124fb565b600091825260209091200190565b54600160301b90046001600160d01b0316611255565b60005b979650505050505050565b6001600160a01b03821661128a5760405163ec442f0560e01b815260006004820152602401610865565b6109cb6000838361161e565b600061081e43611173565b6001600160a01b0382811660008181526009602052604080822080548686166001600160a01b0319821681179092559151919094169392849290917f3134e8a2e6d97e929a7e54011ea5485d7d196dd5f0ba4d4ef95803e8e3fc257f9190a4610f66818361130e866117ce565b6117ec565b6001600160a01b0381166000908152600a60205260408120546107ea90611958565b6005546001600160a01b03163314610a6f5760405163118cdaa760e01b8152336004820152602401610865565b600580546001600160a01b038381166001600160a01b0319831681179093556040519116919082907f8be0079c531659141344cd1fd0a4f28419497f9722a3daafe3b4186f6b6457e090600090a35050565b6001600160a01b0381166000908152600860205260408120546107ea565b606061081e7f00000000000000000000000000000000000000000000000000000000000000006006611989565b606061081e7f00000000000000000000000000000000000000000000000000000000000000006007611989565b8054600090801561145c576114468361122e6001846124fb565b54600160301b90046001600160d01b0316610efc565b60009392505050565b60006107ea611472611048565b8360405161190160f01b8152600281019290925260228201526042902090565b6000806000806114a488888888611a34565b9250925092506114b48282611b03565b50909695505050505050565b6001600160a01b0382166000908152600860205260409020805460018101909155818114610f66576040516301d4b62360e61b81526001600160a01b038416600482015260248101829052604401610865565b60408051808201909152600080825260208201526001600160a01b0383166000908152600a60205260409020610efc9083611bbc565b6001600160a01b0384166115735760405163e602df0560e01b815260006004820152602401610865565b6001600160a01b03831661159d57604051634a1406b160e11b815260006004820152602401610865565b6001600160a01b0380851660009081526001602090815260408083209387168352929052208290558015610fe357826001600160a01b0316846001600160a01b03167f8c5be1e5ebec7d5bd14f71427d1e84f3dd0314c0f7b2291e5b200ac8c7c3b9258460405161161091815260200190565b60405180910390a350505050565b611629838383611c2c565b6a52b7d2dcc80cd2e400000061163e60025490565b1115610f665760405162461bcd60e51b8152602060048201526015602482015274151bdd185b081cdd5c1c1b1e48195e18d959591959605a1b6044820152606401610865565b60008160000361169657506000919050565b600060016116a384611c93565b901c6001901b905060018184816116bc576116bc612521565b048201901c905060018184816116d4576116d4612521565b048201901c905060018184816116ec576116ec612521565b048201901c9050600181848161170457611704612521565b048201901c9050600181848161171c5761171c612521565b048201901c9050600181848161173457611734612521565b048201901c9050600181848161174c5761174c612521565b048201901c9050610efc8182858161176657611766612521565b04611d27565b60005b818310156117c65760006117838484611d3d565b60008781526020902090915065ffffffffffff86169082015465ffffffffffff1611156117b2578092506117c0565b6117bd81600161250e565b93505b5061176f565b509392505050565b6001600160a01b0381166000908152602081905260408120546107ea565b816001600160a01b0316836001600160a01b03161415801561180e5750600081115b15610f66576001600160a01b038316156118b6576001600160a01b0383166000908152600a60205260408120819061185190610f4d61184c86611d58565b611d8c565b6001600160d01b031691506001600160d01b03169150846001600160a01b03167fdec2bacdd2f05b59de34da9b523dff8be42e5e38e818c82fdb0bae774387a72483836040516118ab929190918252602082015260400190565b60405180910390a250505b6001600160a01b03821615610f66576001600160a01b0382166000908152600a6020526040812081906118ef90610f4161184c86611d58565b6001600160d01b031691506001600160d01b03169150836001600160a01b03167fdec2bacdd2f05b59de34da9b523dff8be42e5e38e818c82fdb0bae774387a7248383604051611949929190918252602082015260400190565b60405180910390a25050505050565b600063ffffffff8211156111a6576040516306dfcc6560e41b81526020600482015260248101839052604401610865565b606060ff83146119a35761199c83611dc5565b90506107ea565b8180546119af90612442565b80601f01602080910402602001604051908101604052809291908181526020018280546119db90612442565b8015611a285780601f106119fd57610100808354040283529160200191611a28565b820191906000526020600020905b815481529060010190602001808311611a0b57829003601f168201915b505050505090506107ea565b600080807f7fffffffffffffffffffffffffffffff5d576e7357a4501ddfe92f46681b20a0841115611a6f5750600091506003905082611af9565b604080516000808252602082018084528a905260ff891692820192909252606081018790526080810186905260019060a0016020604051602081039080840390855afa158015611ac3573d6000803e3d6000fd5b5050604051601f1901519150506001600160a01b038116611aef57506000925060019150829050611af9565b9250600091508190505b9450945094915050565b6000826003811115611b1757611b17612537565b03611b20575050565b6001826003811115611b3457611b34612537565b03611b525760405163f645eedf60e01b815260040160405180910390fd5b6002826003811115611b6657611b66612537565b03611b875760405163fce698f760e01b815260048101829052602401610865565b6003826003811115611b9b57611b9b612537565b036109cb576040516335e2f38360e21b815260048101829052602401610865565b6040805180820190915260008082526020820152826000018263ffffffff1681548110611beb57611beb61254d565b60009182526020918290206040805180820190915291015465ffffffffffff81168252600160301b90046001600160d01b0316918101919091529392505050565b611c37838383611e04565b6001600160a01b038316611c88576000611c5060025490565b90506001600160d01b0380821115611c8557604051630e58ae9360e11b81526004810183905260248101829052604401610865565b50505b610f66838383611f2e565b600080608083901c15611ca857608092831c92015b604083901c15611cba57604092831c92015b602083901c15611ccc57602092831c92015b601083901c15611cde57601092831c92015b600883901c15611cf057600892831c92015b600483901c15611d0257600492831c92015b600283901c15611d1457600292831c92015b600183901c156107ea5760010192915050565b6000818310611d365781610efc565b5090919050565b6000611d4c6002848418612563565b610efc9084841661250e565b60006001600160d01b038211156111a6576040516306dfcc6560e41b815260d0600482015260248101839052604401610865565b600080611db8611d9a610bba565b611db0611da68861142c565b868863ffffffff16565b879190611fa4565b915091505b935093915050565b60606000611dd283611fb2565b604080516020808252818301909252919250600091906020820181803683375050509182525060208101929092525090565b6001600160a01b038316611e2f578060026000828254611e24919061250e565b90915550611ea19050565b6001600160a01b03831660009081526020819052604090205481811015611e825760405163391434e360e21b81526001600160a01b03851660048201526024810182905260448101839052606401610865565b6001600160a01b03841660009081526020819052604090209082900390555b6001600160a01b038216611ebd57600280548290039055611edc565b6001600160a01b03821660009081526020819052604090208054820190555b816001600160a01b0316836001600160a01b03167fddf252ad1be2c89b69c2b068fc378daa952ba7f163c4a11628f55a4df523b3ef83604051611f2191815260200190565b60405180910390a3505050565b6001600160a01b038316611f5057611f4d600b610f4161184c84611d58565b50505b6001600160a01b038216611f7257611f6f600b610f4d61184c84611d58565b50505b6001600160a01b03838116600090815260096020526040808220548584168352912054610f66929182169116836117ec565b600080611db8858585611fda565b600060ff8216601f8111156107ea57604051632cd44ac360e21b815260040160405180910390fd5b8254600090819080156120f9576000611ff88761122e6001856124fb565b60408051808201909152905465ffffffffffff808216808452600160301b9092046001600160d01b03166020840152919250908716101561204c57604051632520601d60e01b815260040160405180910390fd5b805165ffffffffffff808816911603612098578461206f8861122e6001866124fb565b80546001600160d01b0392909216600160301b0265ffffffffffff9092169190911790556120e9565b6040805180820190915265ffffffffffff80881682526001600160d01b0380881660208085019182528b54600181018d5560008d81529190912094519151909216600160301b029216919091179101555b602001519250839150611dbd9050565b50506040805180820190915265ffffffffffff80851682526001600160d01b0380851660208085019182528854600181018a5560008a815291822095519251909316600160301b029190931617920191909155905081611dbd565b6000815180845260005b8181101561217a5760208185018101518683018201520161215e565b506000602082860101526020601f19601f83011685010191505092915050565b602081526000610efc6020830184612154565b80356001600160a01b03811681146121c457600080fd5b919050565b600080604083850312156121dc57600080fd5b6121e5836121ad565b946020939093013593505050565b60008060006060848603121561220857600080fd5b612211846121ad565b925061221f602085016121ad565b9150604084013590509250925092565b60006020828403121561224157600080fd5b610efc826121ad565b60ff60f81b881681526000602060e0602084015261226b60e084018a612154565b838103604085015261227d818a612154565b606085018990526001600160a01b038816608086015260a0850187905284810360c08601528551808252602080880193509091019060005b818110156122d1578351835292840192918401916001016122b5565b50909c9b505050505050505050505050565b6000602082840312156122f557600080fd5b5035919050565b803560ff811681146121c457600080fd5b60008060008060008060c0878903121561232657600080fd5b61232f876121ad565b9550602087013594506040870135935061234b606088016122fc565b92506080870135915060a087013590509295509295509295565b600080600080600080600060e0888a03121561238057600080fd5b612389886121ad565b9650612397602089016121ad565b955060408801359450606088013593506123b3608089016122fc565b925060a0880135915060c0880135905092959891949750929550565b600080604083850312156123e257600080fd5b6123eb836121ad565b91506123f9602084016121ad565b90509250929050565b6000806040838503121561241557600080fd5b61241e836121ad565b9150602083013563ffffffff8116811461243757600080fd5b809150509250929050565b600181811c9082168061245657607f821691505b60208210810361247657634e487b7160e01b600052602260045260246000fd5b50919050565b60006020828403121561248e57600080fd5b81518015158114610efc57600080fd5b634e487b7160e01b600052601160045260246000fd5b6001600160d01b038181168382160190808211156124d4576124d461249e565b5092915050565b6001600160d01b038281168282160390808211156124d4576124d461249e565b818103818111156107ea576107ea61249e565b808201808211156107ea576107ea61249e565b634e487b7160e01b600052601260045260246000fd5b634e487b7160e01b600052602160045260246000fd5b634e487b7160e01b600052603260045260246000fd5b60008261258057634e487b7160e01b600052601260045260246000fd5b50049056fea264697066735822122044638a26e445e6026a9c7ba95f02c2da16185c51cd45f5100d20d8172d6322bd64736f6c63430008180033dec2bacdd2f05b59de34da9b523dff8be42e5e38e818c82fdb0bae774387a724","opcodes":"PUSH2 0x160 PUSH1 0x40 MSTORE CALLVALUE DUP1 ISZERO PUSH3 0x12 JUMPI PUSH1 0x0 DUP1 REVERT JUMPDEST POP PUSH1 0x40 MLOAD DUP1 PUSH1 0x40 ADD PUSH1 0x40 MSTORE DUP1 PUSH1 0x6 DUP2 MSTORE PUSH1 0x20 ADD PUSH6 0x506179536563 PUSH1 0xD0 SHL DUP2 MSTORE POP DUP1 PUSH1 0x40 MLOAD DUP1 PUSH1 0x40 ADD PUSH1 0x40 MSTORE DUP1 PUSH1 0x1 DUP2 MSTORE PUSH1 0x20 ADD PUSH1 0x31 PUSH1 0xF8 SHL DUP2 MSTORE POP CALLER PUSH1 0x40 MLOAD DUP1 PUSH1 0x40 ADD PUSH1 0x40 MSTORE DUP1 PUSH1 0x6 DUP2 MSTORE PUSH1 0x20 ADD PUSH6 0x506179536563 PUSH1 0xD0 SHL DUP2 MSTORE POP PUSH1 0x40 MLOAD DUP1 PUSH1 0x40 ADD PUSH1 0x40 MSTORE DUP1 PUSH1 0x3 DUP2 MSTORE PUSH1 0x20 ADD PUSH3 0x505343 PUSH1 0xE8 SHL DUP2 MSTORE POP DUP2 PUSH1 0x3 SWAP1 DUP2 PUSH3 0x9A SWAP2 SWAP1 PUSH3 0xA9F JUMP JUMPDEST POP PUSH1 0x4 PUSH3 0xA9 DUP3 DUP3 PUSH3 0xA9F JUMP JUMPDEST POP POP POP PUSH1 0x1 PUSH1 0x1 PUSH1 0xA0 SHL SUB DUP2 AND PUSH3 0xDC JUMPI PUSH1 0x40 MLOAD PUSH4 0x1E4FBDF7 PUSH1 0xE0 SHL DUP2 MSTORE PUSH1 0x0 PUSH1 0x4 DUP3 ADD MSTORE PUSH1 0x24 ADD JUMPDEST PUSH1 0x40 MLOAD DUP1 SWAP2 SUB SWAP1 REVERT JUMPDEST PUSH3 0xE7 DUP2 PUSH3 0x1F6 JUMP JUMPDEST POP PUSH3 0xF5 DUP3 PUSH1 0x6 PUSH3 0x248 JUMP JUMPDEST PUSH2 0x120 MSTORE PUSH3 0x106 DUP2 PUSH1 0x7 PUSH3 0x248 JUMP JUMPDEST PUSH2 0x140 MSTORE DUP2 MLOAD PUSH1 0x20 DUP1 DUP5 ADD SWAP2 SWAP1 SWAP2 KECCAK256 PUSH1 0xE0 MSTORE DUP2 MLOAD SWAP1 DUP3 ADD KECCAK256 PUSH2 0x100 MSTORE CHAINID PUSH1 0xA0 MSTORE PUSH3 0x194 PUSH1 0xE0 MLOAD PUSH2 0x100 MLOAD PUSH1 0x40 DUP1 MLOAD PUSH32 0x8B73C3C69BB8FE3D512ECC4CF759CC79239F7B179B0FFACAA9A75D522B39400F PUSH1 0x20 DUP3 ADD MSTORE SWAP1 DUP2 ADD SWAP3 SWAP1 SWAP3 MSTORE PUSH1 0x60 DUP3 ADD MSTORE CHAINID PUSH1 0x80 DUP3 ADD MSTORE ADDRESS PUSH1 0xA0 DUP3 ADD MSTORE PUSH1 0x0 SWAP1 PUSH1 0xC0 ADD PUSH1 0x40 MLOAD PUSH1 0x20 DUP2 DUP4 SUB SUB DUP2 MSTORE SWAP1 PUSH1 0x40 MSTORE DUP1 MLOAD SWAP1 PUSH1 0x20 ADD KECCAK256 SWAP1 POP SWAP1 JUMP JUMPDEST PUSH1 0x80 MSTORE POP POP ADDRESS PUSH1 0xC0 MSTORE POP PUSH1 0xC DUP1 SLOAD CALLER PUSH1 0x1 PUSH1 0x1 PUSH1 0xA0 SHL SUB NOT SWAP2 DUP3 AND DUP2 OR SWAP1 SWAP3 SSTORE PUSH1 0xE DUP1 SLOAD SWAP1 SWAP2 AND DUP3 OR SWAP1 SSTORE PUSH3 0x1F0 SWAP1 PUSH3 0x1CD PUSH1 0x12 SWAP1 JUMP JUMPDEST PUSH3 0x1DA SWAP1 PUSH1 0xA PUSH3 0xC7E JUMP JUMPDEST PUSH3 0x1EA SWAP1 PUSH4 0x2FAF080 PUSH3 0xC8F JUMP JUMPDEST PUSH3 0x281 JUMP JUMPDEST PUSH3 0xD98 JUMP JUMPDEST PUSH1 0x5 DUP1 SLOAD PUSH1 0x1 PUSH1 0x1 PUSH1 0xA0 SHL SUB DUP4 DUP2 AND PUSH1 0x1 PUSH1 0x1 PUSH1 0xA0 SHL SUB NOT DUP4 AND DUP2 OR SWAP1 SWAP4 SSTORE PUSH1 0x40 MLOAD SWAP2 AND SWAP2 SWAP1 DUP3 SWAP1 PUSH32 0x8BE0079C531659141344CD1FD0A4F28419497F9722A3DAAFE3B4186F6B6457E0 SWAP1 PUSH1 0x0 SWAP1 LOG3 POP POP JUMP JUMPDEST PUSH1 0x0 PUSH1 0x20 DUP4 MLOAD LT ISZERO PUSH3 0x268 JUMPI PUSH3 0x260 DUP4 PUSH3 0x2BF JUMP JUMPDEST SWAP1 POP PUSH3 0x27B JUMP JUMPDEST DUP2 PUSH3 0x275 DUP5 DUP3 PUSH3 0xA9F JUMP JUMPDEST POP PUSH1 0xFF SWAP1 POP JUMPDEST SWAP3 SWAP2 POP POP JUMP JUMPDEST PUSH1 0x1 PUSH1 0x1 PUSH1 0xA0 SHL SUB DUP3 AND PUSH3 0x2AD JUMPI PUSH1 0x40 MLOAD PUSH4 0xEC442F05 PUSH1 0xE0 SHL DUP2 MSTORE PUSH1 0x0 PUSH1 0x4 DUP3 ADD MSTORE PUSH1 0x24 ADD PUSH3 0xD3 JUMP JUMPDEST PUSH3 0x2BB PUSH1 0x0 DUP4 DUP4 PUSH3 0x302 JUMP JUMPDEST POP POP JUMP JUMPDEST PUSH1 0x0 DUP1 DUP3 SWAP1 POP PUSH1 0x1F DUP2 MLOAD GT ISZERO PUSH3 0x2ED JUMPI DUP3 PUSH1 0x40 MLOAD PUSH4 0x305A27A9 PUSH1 0xE0 SHL DUP2 MSTORE PUSH1 0x4 ADD PUSH3 0xD3 SWAP2 SWAP1 PUSH3 0xCA9 JUMP JUMPDEST DUP1 MLOAD PUSH3 0x2FA DUP3 PUSH3 0xCFA JUMP JUMPDEST OR SWAP4 SWAP3 POP POP POP JUMP JUMPDEST PUSH3 0x30F DUP4 DUP4 DUP4 PUSH3 0x37A JUMP JUMPDEST PUSH11 0x52B7D2DCC80CD2E4000000 PUSH3 0x325 PUSH1 0x2 SLOAD SWAP1 JUMP JUMPDEST GT ISZERO PUSH3 0x375 JUMPI PUSH1 0x40 MLOAD PUSH3 0x461BCD PUSH1 0xE5 SHL DUP2 MSTORE PUSH1 0x20 PUSH1 0x4 DUP3 ADD MSTORE PUSH1 0x15 PUSH1 0x24 DUP3 ADD MSTORE PUSH32 0x546F74616C20737570706C792065786365656465640000000000000000000000 PUSH1 0x44 DUP3 ADD MSTORE PUSH1 0x64 ADD PUSH3 0xD3 JUMP JUMPDEST POP POP POP JUMP JUMPDEST PUSH3 0x387 DUP4 DUP4 DUP4 PUSH3 0x3E9 JUMP JUMPDEST PUSH1 0x1 PUSH1 0x1 PUSH1 0xA0 SHL SUB DUP4 AND PUSH3 0x3DC JUMPI PUSH1 0x0 PUSH3 0x3A2 PUSH1 0x2 SLOAD SWAP1 JUMP JUMPDEST SWAP1 POP PUSH1 0x1 PUSH1 0x1 PUSH1 0xD0 SHL SUB DUP1 DUP3 GT ISZERO PUSH3 0x3D9 JUMPI PUSH1 0x40 MLOAD PUSH4 0xE58AE93 PUSH1 0xE1 SHL DUP2 MSTORE PUSH1 0x4 DUP2 ADD DUP4 SWAP1 MSTORE PUSH1 0x24 DUP2 ADD DUP3 SWAP1 MSTORE PUSH1 0x44 ADD PUSH3 0xD3 JUMP JUMPDEST POP POP JUMPDEST PUSH3 0x375 DUP4 DUP4 DUP4 PUSH3 0x51C JUMP JUMPDEST PUSH1 0x1 PUSH1 0x1 PUSH1 0xA0 SHL SUB DUP4 AND PUSH3 0x418 JUMPI DUP1 PUSH1 0x2 PUSH1 0x0 DUP3 DUP3 SLOAD PUSH3 0x40C SWAP2 SWAP1 PUSH3 0xD1F JUMP JUMPDEST SWAP1 SWAP2 SSTORE POP PUSH3 0x48C SWAP1 POP JUMP JUMPDEST PUSH1 0x1 PUSH1 0x1 PUSH1 0xA0 SHL SUB DUP4 AND PUSH1 0x0 SWAP1 DUP2 MSTORE PUSH1 0x20 DUP2 SWAP1 MSTORE PUSH1 0x40 SWAP1 KECCAK256 SLOAD DUP2 DUP2 LT ISZERO PUSH3 0x46D JUMPI PUSH1 0x40 MLOAD PUSH4 0x391434E3 PUSH1 0xE2 SHL DUP2 MSTORE PUSH1 0x1 PUSH1 0x1 PUSH1 0xA0 SHL SUB DUP6 AND PUSH1 0x4 DUP3 ADD MSTORE PUSH1 0x24 DUP2 ADD DUP3 SWAP1 MSTORE PUSH1 0x44 DUP2 ADD DUP4 SWAP1 MSTORE PUSH1 0x64 ADD PUSH3 0xD3 JUMP JUMPDEST PUSH1 0x1 PUSH1 0x1 PUSH1 0xA0 SHL SUB DUP5 AND PUSH1 0x0 SWAP1 DUP2 MSTORE PUSH1 0x20 DUP2 SWAP1 MSTORE PUSH1 0x40 SWAP1 KECCAK256 SWAP1 DUP3 SWAP1 SUB SWAP1 SSTORE JUMPDEST PUSH1 0x1 PUSH1 0x1 PUSH1 0xA0 SHL SUB DUP3 AND PUSH3 0x4AA JUMPI PUSH1 0x2 DUP1 SLOAD DUP3 SWAP1 SUB SWAP1 SSTORE PUSH3 0x4C9 JUMP JUMPDEST PUSH1 0x1 PUSH1 0x1 PUSH1 0xA0 SHL SUB DUP3 AND PUSH1 0x0 SWAP1 DUP2 MSTORE PUSH1 0x20 DUP2 SWAP1 MSTORE PUSH1 0x40 SWAP1 KECCAK256 DUP1 SLOAD DUP3 ADD SWAP1 SSTORE JUMPDEST DUP2 PUSH1 0x1 PUSH1 0x1 PUSH1 0xA0 SHL SUB AND DUP4 PUSH1 0x1 PUSH1 0x1 PUSH1 0xA0 SHL SUB AND PUSH32 0xDDF252AD1BE2C89B69C2B068FC378DAA952BA7F163C4A11628F55A4DF523B3EF DUP4 PUSH1 0x40 MLOAD PUSH3 0x50F SWAP2 DUP2 MSTORE PUSH1 0x20 ADD SWAP1 JUMP JUMPDEST PUSH1 0x40 MLOAD DUP1 SWAP2 SUB SWAP1 LOG3 POP POP POP JUMP JUMPDEST PUSH1 0x1 PUSH1 0x1 PUSH1 0xA0 SHL SUB DUP4 AND PUSH3 0x551 JUMPI PUSH3 0x54E PUSH1 0xB PUSH3 0xF41 PUSH3 0x5B4 PUSH1 0x20 SHL OR PUSH3 0x548 DUP5 PUSH3 0x5C9 JUMP JUMPDEST PUSH3 0x603 JUMP JUMPDEST POP POP JUMPDEST PUSH1 0x1 PUSH1 0x1 PUSH1 0xA0 SHL SUB DUP3 AND PUSH3 0x580 JUMPI PUSH3 0x57D PUSH1 0xB PUSH3 0xF4D PUSH3 0x640 PUSH1 0x20 SHL OR PUSH3 0x548 DUP5 PUSH3 0x5C9 JUMP JUMPDEST POP POP JUMPDEST PUSH1 0x1 PUSH1 0x1 PUSH1 0xA0 SHL SUB DUP4 DUP2 AND PUSH1 0x0 SWAP1 DUP2 MSTORE PUSH1 0x9 PUSH1 0x20 MSTORE PUSH1 0x40 DUP1 DUP3 KECCAK256 SLOAD DUP6 DUP5 AND DUP4 MSTORE SWAP2 KECCAK256 SLOAD PUSH3 0x375 SWAP3 SWAP2 DUP3 AND SWAP2 AND DUP4 PUSH3 0x64E JUMP JUMPDEST PUSH1 0x0 PUSH3 0x5C2 DUP3 DUP5 PUSH3 0xD35 JUMP JUMPDEST SWAP4 SWAP3 POP POP POP JUMP JUMPDEST PUSH1 0x0 PUSH1 0x1 PUSH1 0x1 PUSH1 0xD0 SHL SUB DUP3 GT ISZERO PUSH3 0x5FF JUMPI PUSH1 0x40 MLOAD PUSH4 0x6DFCC65 PUSH1 0xE4 SHL DUP2 MSTORE PUSH1 0xD0 PUSH1 0x4 DUP3 ADD MSTORE PUSH1 0x24 DUP2 ADD DUP4 SWAP1 MSTORE PUSH1 0x44 ADD PUSH3 0xD3 JUMP JUMPDEST POP SWAP1 JUMP JUMPDEST PUSH1 0x0 DUP1 PUSH3 0x633 PUSH3 0x614 PUSH3 0x7B5 JUMP JUMPDEST PUSH3 0x62A PUSH3 0x623 DUP9 PUSH3 0x7C6 JUMP JUMPDEST DUP7 DUP9 PUSH1 0x20 SHR JUMP JUMPDEST DUP8 SWAP2 SWAP1 PUSH3 0x815 JUMP JUMPDEST SWAP2 POP SWAP2 POP JUMPDEST SWAP4 POP SWAP4 SWAP2 POP POP JUMP JUMPDEST PUSH1 0x0 PUSH3 0x5C2 DUP3 DUP5 PUSH3 0xD5F JUMP JUMPDEST DUP2 PUSH1 0x1 PUSH1 0x1 PUSH1 0xA0 SHL SUB AND DUP4 PUSH1 0x1 PUSH1 0x1 PUSH1 0xA0 SHL SUB AND EQ ISZERO DUP1 ISZERO PUSH3 0x671 JUMPI POP PUSH1 0x0 DUP2 GT JUMPDEST ISZERO PUSH3 0x375 JUMPI PUSH1 0x1 PUSH1 0x1 PUSH1 0xA0 SHL SUB DUP4 AND ISZERO PUSH3 0x714 JUMPI PUSH1 0x1 PUSH1 0x1 PUSH1 0xA0 SHL SUB DUP4 AND PUSH1 0x0 SWAP1 DUP2 MSTORE PUSH1 0xA PUSH1 0x20 SWAP1 DUP2 MSTORE PUSH1 0x40 DUP3 KECCAK256 DUP3 SWAP2 PUSH3 0x6BF SWAP2 SWAP1 PUSH3 0x640 SWAP1 SHL PUSH3 0xF4D OR PUSH3 0x548 DUP7 PUSH3 0x5C9 JUMP JUMPDEST PUSH1 0x1 PUSH1 0x1 PUSH1 0xD0 SHL SUB AND SWAP2 POP PUSH1 0x1 PUSH1 0x1 PUSH1 0xD0 SHL SUB AND SWAP2 POP DUP5 PUSH1 0x1 PUSH1 0x1 PUSH1 0xA0 SHL SUB AND PUSH1 0x0 DUP1 MLOAD PUSH1 0x20 PUSH3 0x33AE DUP4 CODECOPY DUP2 MLOAD SWAP2 MSTORE DUP4 DUP4 PUSH1 0x40 MLOAD PUSH3 0x709 SWAP3 SWAP2 SWAP1 SWAP2 DUP3 MSTORE PUSH1 0x20 DUP3 ADD MSTORE PUSH1 0x40 ADD SWAP1 JUMP JUMPDEST PUSH1 0x40 MLOAD DUP1 SWAP2 SUB SWAP1 LOG2 POP POP JUMPDEST PUSH1 0x1 PUSH1 0x1 PUSH1 0xA0 SHL SUB DUP3 AND ISZERO PUSH3 0x375 JUMPI PUSH1 0x1 PUSH1 0x1 PUSH1 0xA0 SHL SUB DUP3 AND PUSH1 0x0 SWAP1 DUP2 MSTORE PUSH1 0xA PUSH1 0x20 SWAP1 DUP2 MSTORE PUSH1 0x40 DUP3 KECCAK256 DUP3 SWAP2 PUSH3 0x75C SWAP2 SWAP1 PUSH3 0x5B4 SWAP1 SHL PUSH3 0xF41 OR PUSH3 0x548 DUP7 PUSH3 0x5C9 JUMP JUMPDEST PUSH1 0x1 PUSH1 0x1 PUSH1 0xD0 SHL SUB AND SWAP2 POP PUSH1 0x1 PUSH1 0x1 PUSH1 0xD0 SHL SUB AND SWAP2 POP DUP4 PUSH1 0x1 PUSH1 0x1 PUSH1 0xA0 SHL SUB AND PUSH1 0x0 DUP1 MLOAD PUSH1 0x20 PUSH3 0x33AE DUP4 CODECOPY DUP2 MLOAD SWAP2 MSTORE DUP4 DUP4 PUSH1 0x40 MLOAD PUSH3 0x7A6 SWAP3 SWAP2 SWAP1 SWAP2 DUP3 MSTORE PUSH1 0x20 DUP3 ADD MSTORE PUSH1 0x40 ADD SWAP1 JUMP JUMPDEST PUSH1 0x40 MLOAD DUP1 SWAP2 SUB SWAP1 LOG2 POP POP POP POP POP JUMP JUMPDEST PUSH1 0x0 PUSH3 0x7C1 PUSH3 0x825 JUMP JUMPDEST SWAP1 POP SWAP1 JUMP JUMPDEST DUP1 SLOAD PUSH1 0x0 SWAP1 DUP1 ISZERO PUSH3 0x80C JUMPI PUSH3 0x7F2 DUP4 PUSH3 0x7E4 PUSH1 0x1 DUP5 PUSH3 0xD82 JUMP JUMPDEST PUSH1 0x0 SWAP2 DUP3 MSTORE PUSH1 0x20 SWAP1 SWAP2 KECCAK256 ADD SWAP1 JUMP JUMPDEST SLOAD PUSH7 0x1000000000000 SWAP1 DIV PUSH1 0x1 PUSH1 0x1 PUSH1 0xD0 SHL SUB AND PUSH3 0x5C2 JUMP JUMPDEST PUSH1 0x0 SWAP4 SWAP3 POP POP POP JUMP JUMPDEST PUSH1 0x0 DUP1 PUSH3 0x633 DUP6 DUP6 DUP6 PUSH3 0x832 JUMP JUMPDEST PUSH1 0x0 PUSH3 0x7C1 NUMBER PUSH3 0x9C4 JUMP JUMPDEST DUP3 SLOAD PUSH1 0x0 SWAP1 DUP2 SWAP1 DUP1 ISZERO PUSH3 0x965 JUMPI PUSH1 0x0 PUSH3 0x854 DUP8 PUSH3 0x7E4 PUSH1 0x1 DUP6 PUSH3 0xD82 JUMP JUMPDEST PUSH1 0x40 DUP1 MLOAD DUP1 DUP3 ADD SWAP1 SWAP2 MSTORE SWAP1 SLOAD PUSH6 0xFFFFFFFFFFFF DUP1 DUP3 AND DUP1 DUP5 MSTORE PUSH7 0x1000000000000 SWAP1 SWAP3 DIV PUSH1 0x1 PUSH1 0x1 PUSH1 0xD0 SHL SUB AND PUSH1 0x20 DUP5 ADD MSTORE SWAP2 SWAP3 POP SWAP1 DUP8 AND LT ISZERO PUSH3 0x8AC JUMPI PUSH1 0x40 MLOAD PUSH4 0x2520601D PUSH1 0xE0 SHL DUP2 MSTORE PUSH1 0x4 ADD PUSH1 0x40 MLOAD DUP1 SWAP2 SUB SWAP1 REVERT JUMPDEST DUP1 MLOAD PUSH6 0xFFFFFFFFFFFF DUP1 DUP9 AND SWAP2 AND SUB PUSH3 0x900 JUMPI DUP5 PUSH3 0x8D3 DUP9 PUSH3 0x7E4 PUSH1 0x1 DUP7 PUSH3 0xD82 JUMP JUMPDEST DUP1 SLOAD PUSH1 0x1 PUSH1 0x1 PUSH1 0xD0 SHL SUB SWAP3 SWAP1 SWAP3 AND PUSH7 0x1000000000000 MUL PUSH6 0xFFFFFFFFFFFF SWAP1 SWAP3 AND SWAP2 SWAP1 SWAP2 OR SWAP1 SSTORE PUSH3 0x954 JUMP JUMPDEST PUSH1 0x40 DUP1 MLOAD DUP1 DUP3 ADD SWAP1 SWAP2 MSTORE PUSH6 0xFFFFFFFFFFFF DUP1 DUP9 AND DUP3 MSTORE PUSH1 0x1 PUSH1 0x1 PUSH1 0xD0 SHL SUB DUP1 DUP9 AND PUSH1 0x20 DUP1 DUP6 ADD SWAP2 DUP3 MSTORE DUP12 SLOAD PUSH1 0x1 DUP2 ADD DUP14 SSTORE PUSH1 0x0 DUP14 DUP2 MSTORE SWAP2 SWAP1 SWAP2 KECCAK256 SWAP5 MLOAD SWAP2 MLOAD SWAP1 SWAP3 AND PUSH7 0x1000000000000 MUL SWAP3 AND SWAP2 SWAP1 SWAP2 OR SWAP2 ADD SSTORE JUMPDEST PUSH1 0x20 ADD MLOAD SWAP3 POP DUP4 SWAP2 POP PUSH3 0x638 SWAP1 POP JUMP JUMPDEST POP POP PUSH1 0x40 DUP1 MLOAD DUP1 DUP3 ADD SWAP1 SWAP2 MSTORE PUSH6 0xFFFFFFFFFFFF DUP1 DUP6 AND DUP3 MSTORE PUSH1 0x1 PUSH1 0x1 PUSH1 0xD0 SHL SUB DUP1 DUP6 AND PUSH1 0x20 DUP1 DUP6 ADD SWAP2 DUP3 MSTORE DUP9 SLOAD PUSH1 0x1 DUP2 ADD DUP11 SSTORE PUSH1 0x0 DUP11 DUP2 MSTORE SWAP2 DUP3 KECCAK256 SWAP6 MLOAD SWAP3 MLOAD SWAP1 SWAP4 AND PUSH7 0x1000000000000 MUL SWAP2 SWAP1 SWAP4 AND OR SWAP3 ADD SWAP2 SWAP1 SWAP2 SSTORE SWAP1 POP DUP2 PUSH3 0x638 JUMP JUMPDEST PUSH1 0x0 PUSH6 0xFFFFFFFFFFFF DUP3 GT ISZERO PUSH3 0x5FF JUMPI PUSH1 0x40 MLOAD PUSH4 0x6DFCC65 PUSH1 0xE4 SHL DUP2 MSTORE PUSH1 0x30 PUSH1 0x4 DUP3 ADD MSTORE PUSH1 0x24 DUP2 ADD DUP4 SWAP1 MSTORE PUSH1 0x44 ADD PUSH3 0xD3 JUMP JUMPDEST PUSH4 0x4E487B71 PUSH1 0xE0 SHL PUSH1 0x0 MSTORE PUSH1 0x41 PUSH1 0x4 MSTORE PUSH1 0x24 PUSH1 0x0 REVERT JUMPDEST PUSH1 0x1 DUP2 DUP2 SHR SWAP1 DUP3 AND DUP1 PUSH3 0xA24 JUMPI PUSH1 0x7F DUP3 AND SWAP2 POP JUMPDEST PUSH1 0x20 DUP3 LT DUP2 SUB PUSH3 0xA45 JUMPI PUSH4 0x4E487B71 PUSH1 0xE0 SHL PUSH1 0x0 MSTORE PUSH1 0x22 PUSH1 0x4 MSTORE PUSH1 0x24 PUSH1 0x0 REVERT JUMPDEST POP SWAP2 SWAP1 POP JUMP JUMPDEST PUSH1 0x1F DUP3 GT ISZERO PUSH3 0x375 JUMPI PUSH1 0x0 DUP2 PUSH1 0x0 MSTORE PUSH1 0x20 PUSH1 0x0 KECCAK256 PUSH1 0x1F DUP6 ADD PUSH1 0x5 SHR DUP2 ADD PUSH1 0x20 DUP7 LT ISZERO PUSH3 0xA76 JUMPI POP DUP1 JUMPDEST PUSH1 0x1F DUP6 ADD PUSH1 0x5 SHR DUP3 ADD SWAP2 POP JUMPDEST DUP2 DUP2 LT ISZERO PUSH3 0xA97 JUMPI DUP3 DUP2 SSTORE PUSH1 0x1 ADD PUSH3 0xA82 JUMP JUMPDEST POP POP POP POP POP POP JUMP JUMPDEST DUP2 MLOAD PUSH1 0x1 PUSH1 0x1 PUSH1 0x40 SHL SUB DUP2 GT ISZERO PUSH3 0xABB JUMPI PUSH3 0xABB PUSH3 0x9F9 JUMP JUMPDEST PUSH3 0xAD3 DUP2 PUSH3 0xACC DUP5 SLOAD PUSH3 0xA0F JUMP JUMPDEST DUP5 PUSH3 0xA4B JUMP JUMPDEST PUSH1 0x20 DUP1 PUSH1 0x1F DUP4 GT PUSH1 0x1 DUP2 EQ PUSH3 0xB0B JUMPI PUSH1 0x0 DUP5 ISZERO PUSH3 0xAF2 JUMPI POP DUP6 DUP4 ADD MLOAD JUMPDEST PUSH1 0x0 NOT PUSH1 0x3 DUP7 SWAP1 SHL SHR NOT AND PUSH1 0x1 DUP6 SWAP1 SHL OR DUP6 SSTORE PUSH3 0xA97 JUMP JUMPDEST PUSH1 0x0 DUP6 DUP2 MSTORE PUSH1 0x20 DUP2 KECCAK256 PUSH1 0x1F NOT DUP7 AND SWAP2 JUMPDEST DUP3 DUP2 LT ISZERO PUSH3 0xB3C JUMPI DUP9 DUP7 ADD MLOAD DUP3 SSTORE SWAP5 DUP5 ADD SWAP5 PUSH1 0x1 SWAP1 SWAP2 ADD SWAP1 DUP5 ADD PUSH3 0xB1B JUMP JUMPDEST POP DUP6 DUP3 LT ISZERO PUSH3 0xB5B JUMPI DUP8 DUP6 ADD MLOAD PUSH1 0x0 NOT PUSH1 0x3 DUP9 SWAP1 SHL PUSH1 0xF8 AND SHR NOT AND DUP2 SSTORE JUMPDEST POP POP POP POP POP PUSH1 0x1 SWAP1 DUP2 SHL ADD SWAP1 SSTORE POP JUMP JUMPDEST PUSH4 0x4E487B71 PUSH1 0xE0 SHL PUSH1 0x0 MSTORE PUSH1 0x11 PUSH1 0x4 MSTORE PUSH1 0x24 PUSH1 0x0 REVERT JUMPDEST PUSH1 0x1 DUP2 DUP2 JUMPDEST DUP1 DUP6 GT ISZERO PUSH3 0xBC2 JUMPI DUP2 PUSH1 0x0 NOT DIV DUP3 GT ISZERO PUSH3 0xBA6 JUMPI PUSH3 0xBA6 PUSH3 0xB6B JUMP JUMPDEST DUP1 DUP6 AND ISZERO PUSH3 0xBB4 JUMPI SWAP2 DUP2 MUL SWAP2 JUMPDEST SWAP4 DUP5 SHR SWAP4 SWAP1 DUP1 MUL SWAP1 PUSH3 0xB86 JUMP JUMPDEST POP SWAP3 POP SWAP3 SWAP1 POP JUMP JUMPDEST PUSH1 0x0 DUP3 PUSH3 0xBDB JUMPI POP PUSH1 0x1 PUSH3 0x27B JUMP JUMPDEST DUP2 PUSH3 0xBEA JUMPI POP PUSH1 0x0 PUSH3 0x27B JUMP JUMPDEST DUP2 PUSH1 0x1 DUP2 EQ PUSH3 0xC03 JUMPI PUSH1 0x2 DUP2 EQ PUSH3 0xC0E JUMPI PUSH3 0xC2E JUMP JUMPDEST PUSH1 0x1 SWAP2 POP POP PUSH3 0x27B JUMP JUMPDEST PUSH1 0xFF DUP5 GT ISZERO PUSH3 0xC22 JUMPI PUSH3 0xC22 PUSH3 0xB6B JUMP JUMPDEST POP POP PUSH1 0x1 DUP3 SHL PUSH3 0x27B JUMP JUMPDEST POP PUSH1 0x20 DUP4 LT PUSH2 0x133 DUP4 LT AND PUSH1 0x4E DUP5 LT PUSH1 0xB DUP5 LT AND OR ISZERO PUSH3 0xC53 JUMPI POP DUP2 DUP2 EXP PUSH3 0x27B JUMP JUMPDEST PUSH3 0xC5F DUP4 DUP4 PUSH3 0xB81 JUMP JUMPDEST DUP1 PUSH1 0x0 NOT DIV DUP3 GT ISZERO PUSH3 0xC76 JUMPI PUSH3 0xC76 PUSH3 0xB6B JUMP JUMPDEST MUL SWAP4 SWAP3 POP POP POP JUMP JUMPDEST PUSH1 0x0 PUSH3 0x5C2 PUSH1 0xFF DUP5 AND DUP4 PUSH3 0xBCA JUMP JUMPDEST DUP1 DUP3 MUL DUP2 ISZERO DUP3 DUP3 DIV DUP5 EQ OR PUSH3 0x27B JUMPI PUSH3 0x27B PUSH3 0xB6B JUMP JUMPDEST PUSH1 0x0 PUSH1 0x20 DUP1 DUP4 MSTORE DUP4 MLOAD DUP1 PUSH1 0x20 DUP6 ADD MSTORE PUSH1 0x0 JUMPDEST DUP2 DUP2 LT ISZERO PUSH3 0xCD9 JUMPI DUP6 DUP2 ADD DUP4 ADD MLOAD DUP6 DUP3 ADD PUSH1 0x40 ADD MSTORE DUP3 ADD PUSH3 0xCBB JUMP JUMPDEST POP PUSH1 0x0 PUSH1 0x40 DUP3 DUP7 ADD ADD MSTORE PUSH1 0x40 PUSH1 0x1F NOT PUSH1 0x1F DUP4 ADD AND DUP6 ADD ADD SWAP3 POP POP POP SWAP3 SWAP2 POP POP JUMP JUMPDEST DUP1 MLOAD PUSH1 0x20 DUP1 DUP4 ADD MLOAD SWAP2 SWAP1 DUP2 LT ISZERO PUSH3 0xA45 JUMPI PUSH1 0x0 NOT PUSH1 0x20 SWAP2 SWAP1 SWAP2 SUB PUSH1 0x3 SHL SHL AND SWAP2 SWAP1 POP JUMP JUMPDEST DUP1 DUP3 ADD DUP1 DUP3 GT ISZERO PUSH3 0x27B JUMPI PUSH3 0x27B PUSH3 0xB6B JUMP JUMPDEST PUSH1 0x1 PUSH1 0x1 PUSH1 0xD0 SHL SUB DUP2 DUP2 AND DUP4 DUP3 AND ADD SWAP1 DUP1 DUP3 GT ISZERO PUSH3 0xD58 JUMPI PUSH3 0xD58 PUSH3 0xB6B JUMP JUMPDEST POP SWAP3 SWAP2 POP POP JUMP JUMPDEST PUSH1 0x1 PUSH1 0x1 PUSH1 0xD0 SHL SUB DUP3 DUP2 AND DUP3 DUP3 AND SUB SWAP1 DUP1 DUP3 GT ISZERO PUSH3 0xD58 JUMPI PUSH3 0xD58 PUSH3 0xB6B JUMP JUMPDEST DUP2 DUP2 SUB DUP2 DUP2 GT ISZERO PUSH3 0x27B JUMPI PUSH3 0x27B PUSH3 0xB6B JUMP JUMPDEST PUSH1 0x80 MLOAD PUSH1 0xA0 MLOAD PUSH1 0xC0 MLOAD PUSH1 0xE0 MLOAD PUSH2 0x100 MLOAD PUSH2 0x120 MLOAD PUSH2 0x140 MLOAD PUSH2 0x25BB PUSH3 0xDF3 PUSH1 0x0 CODECOPY PUSH1 0x0 PUSH2 0x1406 ADD MSTORE PUSH1 0x0 PUSH2 0x13D9 ADD MSTORE PUSH1 0x0 PUSH2 0x1122 ADD MSTORE PUSH1 0x0 PUSH2 0x10FA ADD MSTORE PUSH1 0x0 PUSH2 0x1055 ADD MSTORE PUSH1 0x0 PUSH2 0x107F ADD MSTORE PUSH1 0x0 PUSH2 0x10A9 ADD MSTORE PUSH2 0x25BB PUSH1 0x0 RETURN INVALID PUSH1 0x80 PUSH1 0x40 MSTORE PUSH1 0x4 CALLDATASIZE LT PUSH2 0x208 JUMPI PUSH1 0x0 CALLDATALOAD PUSH1 0xE0 SHR DUP1 PUSH4 0x7C000293 GT PUSH2 0x118 JUMPI DUP1 PUSH4 0xA87430BA GT PUSH2 0xA0 JUMPI DUP1 PUSH4 0xC3CDA520 GT PUSH2 0x6F JUMPI DUP1 PUSH4 0xC3CDA520 EQ PUSH2 0x652 JUMPI DUP1 PUSH4 0xD505ACCF EQ PUSH2 0x672 JUMPI DUP1 PUSH4 0xDD62ED3E EQ PUSH2 0x692 JUMPI DUP1 PUSH4 0xF1127ED8 EQ PUSH2 0x6D8 JUMPI DUP1 PUSH4 0xF2FDE38B EQ PUSH2 0x724 JUMPI PUSH1 0x0 DUP1 REVERT JUMPDEST DUP1 PUSH4 0xA87430BA EQ PUSH2 0x5A9 JUMPI DUP1 PUSH4 0xA9059CBB EQ PUSH2 0x5F2 JUMPI DUP1 PUSH4 0xB50DFBBE EQ PUSH2 0x612 JUMPI DUP1 PUSH4 0xC36A4C12 EQ PUSH2 0x632 JUMPI PUSH1 0x0 DUP1 REVERT JUMPDEST DUP1 PUSH4 0x8E539E8C GT PUSH2 0xE7 JUMPI DUP1 PUSH4 0x8E539E8C EQ PUSH2 0x508 JUMPI DUP1 PUSH4 0x91DDADF4 EQ PUSH2 0x528 JUMPI DUP1 PUSH4 0x95D89B41 EQ PUSH2 0x554 JUMPI DUP1 PUSH4 0x97D93935 EQ PUSH2 0x569 JUMPI DUP1 PUSH4 0x9AB24EB0 EQ PUSH2 0x589 JUMPI PUSH1 0x0 DUP1 REVERT JUMPDEST DUP1 PUSH4 0x7C000293 EQ PUSH2 0x482 JUMPI DUP1 PUSH4 0x7ECEBE00 EQ PUSH2 0x4A2 JUMPI DUP1 PUSH4 0x84B0196E EQ PUSH2 0x4C2 JUMPI DUP1 PUSH4 0x8DA5CB5B EQ PUSH2 0x4EA JUMPI PUSH1 0x0 DUP1 REVERT JUMPDEST DUP1 PUSH4 0x3644E515 GT PUSH2 0x19B JUMPI DUP1 PUSH4 0x587CDE1E GT PUSH2 0x16A JUMPI DUP1 PUSH4 0x587CDE1E EQ PUSH2 0x3A9 JUMPI DUP1 PUSH4 0x5C19A95C EQ PUSH2 0x3E2 JUMPI DUP1 PUSH4 0x6FCFFF45 EQ PUSH2 0x402 JUMPI DUP1 PUSH4 0x70A08231 EQ PUSH2 0x437 JUMPI DUP1 PUSH4 0x715018A6 EQ PUSH2 0x46D JUMPI PUSH1 0x0 DUP1 REVERT JUMPDEST DUP1 PUSH4 0x3644E515 EQ PUSH2 0x33D JUMPI DUP1 PUSH4 0x3A46B1A8 EQ PUSH2 0x352 JUMPI DUP1 PUSH4 0x40C10F19 EQ PUSH2 0x372 JUMPI DUP1 PUSH4 0x4BF5D7E9 EQ PUSH2 0x394 JUMPI PUSH1 0x0 DUP1 REVERT JUMPDEST DUP1 PUSH4 0x18160DDD GT PUSH2 0x1D7 JUMPI DUP1 PUSH4 0x18160DDD EQ PUSH2 0x2C3 JUMPI DUP1 PUSH4 0x23B872DD EQ PUSH2 0x2E2 JUMPI DUP1 PUSH4 0x313CE567 EQ PUSH2 0x302 JUMPI DUP1 PUSH4 0x32CB6B0C EQ PUSH2 0x31E JUMPI PUSH1 0x0 DUP1 REVERT JUMPDEST DUP1 PUSH4 0x359FEA9 EQ PUSH2 0x214 JUMPI DUP1 PUSH4 0x6FDDE03 EQ PUSH2 0x251 JUMPI DUP1 PUSH4 0x95EA7B3 EQ PUSH2 0x273 JUMPI DUP1 PUSH4 0x1385A6F2 EQ PUSH2 0x2A3 JUMPI PUSH1 0x0 DUP1 REVERT JUMPDEST CALLDATASIZE PUSH2 0x20F JUMPI STOP JUMPDEST PUSH1 0x0 DUP1 REVERT JUMPDEST CALLVALUE DUP1 ISZERO PUSH2 0x220 JUMPI PUSH1 0x0 DUP1 REVERT JUMPDEST POP PUSH1 0xD SLOAD PUSH2 0x234 SWAP1 PUSH1 0x1 PUSH1 0x1 PUSH1 0xA0 SHL SUB AND DUP2 JUMP JUMPDEST PUSH1 0x40 MLOAD PUSH1 0x1 PUSH1 0x1 PUSH1 0xA0 SHL SUB SWAP1 SWAP2 AND DUP2 MSTORE PUSH1 0x20 ADD JUMPDEST PUSH1 0x40 MLOAD DUP1 SWAP2 SUB SWAP1 RETURN JUMPDEST CALLVALUE DUP1 ISZERO PUSH2 0x25D JUMPI PUSH1 0x0 DUP1 REVERT JUMPDEST POP PUSH2 0x266 PUSH2 0x744 JUMP JUMPDEST PUSH1 0x40 MLOAD PUSH2 0x248 SWAP2 SWAP1 PUSH2 0x219A JUMP JUMPDEST CALLVALUE DUP1 ISZERO PUSH2 0x27F JUMPI PUSH1 0x0 DUP1 REVERT JUMPDEST POP PUSH2 0x293 PUSH2 0x28E CALLDATASIZE PUSH1 0x4 PUSH2 0x21C9 JUMP JUMPDEST PUSH2 0x7D6 JUMP JUMPDEST PUSH1 0x40 MLOAD SWAP1 ISZERO ISZERO DUP2 MSTORE PUSH1 0x20 ADD PUSH2 0x248 JUMP JUMPDEST CALLVALUE DUP1 ISZERO PUSH2 0x2AF JUMPI PUSH1 0x0 DUP1 REVERT JUMPDEST POP PUSH1 0xC SLOAD PUSH2 0x234 SWAP1 PUSH1 0x1 PUSH1 0x1 PUSH1 0xA0 SHL SUB AND DUP2 JUMP JUMPDEST CALLVALUE DUP1 ISZERO PUSH2 0x2CF JUMPI PUSH1 0x0 DUP1 REVERT JUMPDEST POP PUSH1 0x2 SLOAD JUMPDEST PUSH1 0x40 MLOAD SWAP1 DUP2 MSTORE PUSH1 0x20 ADD PUSH2 0x248 JUMP JUMPDEST CALLVALUE DUP1 ISZERO PUSH2 0x2EE JUMPI PUSH1 0x0 DUP1 REVERT JUMPDEST POP PUSH2 0x293 PUSH2 0x2FD CALLDATASIZE PUSH1 0x4 PUSH2 0x21F3 JUMP JUMPDEST PUSH2 0x7F0 JUMP JUMPDEST CALLVALUE DUP1 ISZERO PUSH2 0x30E JUMPI PUSH1 0x0 DUP1 REVERT JUMPDEST POP PUSH1 0x40 MLOAD PUSH1 0x12 DUP2 MSTORE PUSH1 0x20 ADD PUSH2 0x248 JUMP JUMPDEST CALLVALUE DUP1 ISZERO PUSH2 0x32A JUMPI PUSH1 0x0 DUP1 REVERT JUMPDEST POP PUSH2 0x2D4 PUSH11 0x52B7D2DCC80CD2E4000000 DUP2 JUMP JUMPDEST CALLVALUE DUP1 ISZERO PUSH2 0x349 JUMPI PUSH1 0x0 DUP1 REVERT JUMPDEST POP PUSH2 0x2D4 PUSH2 0x814 JUMP JUMPDEST CALLVALUE DUP1 ISZERO PUSH2 0x35E JUMPI PUSH1 0x0 DUP1 REVERT JUMPDEST POP PUSH2 0x2D4 PUSH2 0x36D CALLDATASIZE PUSH1 0x4 PUSH2 0x21C9 JUMP JUMPDEST PUSH2 0x823 JUMP JUMPDEST CALLVALUE DUP1 ISZERO PUSH2 0x37E JUMPI PUSH1 0x0 DUP1 REVERT JUMPDEST POP PUSH2 0x392 PUSH2 0x38D CALLDATASIZE PUSH1 0x4 PUSH2 0x21C9 JUMP JUMPDEST PUSH2 0x8A9 JUMP JUMPDEST STOP JUMPDEST CALLVALUE DUP1 ISZERO PUSH2 0x3A0 JUMPI PUSH1 0x0 DUP1 REVERT JUMPDEST POP PUSH2 0x266 PUSH2 0x9CF JUMP JUMPDEST CALLVALUE DUP1 ISZERO PUSH2 0x3B5 JUMPI PUSH1 0x0 DUP1 REVERT JUMPDEST POP PUSH2 0x234 PUSH2 0x3C4 CALLDATASIZE PUSH1 0x4 PUSH2 0x222F JUMP JUMPDEST PUSH1 0x1 PUSH1 0x1 PUSH1 0xA0 SHL SUB SWAP1 DUP2 AND PUSH1 0x0 SWAP1 DUP2 MSTORE PUSH1 0x9 PUSH1 0x20 MSTORE PUSH1 0x40 SWAP1 KECCAK256 SLOAD AND SWAP1 JUMP JUMPDEST CALLVALUE DUP1 ISZERO PUSH2 0x3EE JUMPI PUSH1 0x0 DUP1 REVERT JUMPDEST POP PUSH2 0x392 PUSH2 0x3FD CALLDATASIZE PUSH1 0x4 PUSH2 0x222F JUMP JUMPDEST PUSH2 0xA47 JUMP JUMPDEST CALLVALUE DUP1 ISZERO PUSH2 0x40E JUMPI PUSH1 0x0 DUP1 REVERT JUMPDEST POP PUSH2 0x422 PUSH2 0x41D CALLDATASIZE PUSH1 0x4 PUSH2 0x222F JUMP JUMPDEST PUSH2 0xA52 JUMP JUMPDEST PUSH1 0x40 MLOAD PUSH4 0xFFFFFFFF SWAP1 SWAP2 AND DUP2 MSTORE PUSH1 0x20 ADD PUSH2 0x248 JUMP JUMPDEST CALLVALUE DUP1 ISZERO PUSH2 0x443 JUMPI PUSH1 0x0 DUP1 REVERT JUMPDEST POP PUSH2 0x2D4 PUSH2 0x452 CALLDATASIZE PUSH1 0x4 PUSH2 0x222F JUMP JUMPDEST PUSH1 0x1 PUSH1 0x1 PUSH1 0xA0 SHL SUB AND PUSH1 0x0 SWAP1 DUP2 MSTORE PUSH1 0x20 DUP2 SWAP1 MSTORE PUSH1 0x40 SWAP1 KECCAK256 SLOAD SWAP1 JUMP JUMPDEST CALLVALUE DUP1 ISZERO PUSH2 0x479 JUMPI PUSH1 0x0 DUP1 REVERT JUMPDEST POP PUSH2 0x392 PUSH2 0xA5D JUMP JUMPDEST CALLVALUE DUP1 ISZERO PUSH2 0x48E JUMPI PUSH1 0x0 DUP1 REVERT JUMPDEST POP PUSH2 0x392 PUSH2 0x49D CALLDATASIZE PUSH1 0x4 PUSH2 0x222F JUMP JUMPDEST PUSH2 0xA71 JUMP JUMPDEST CALLVALUE DUP1 ISZERO PUSH2 0x4AE JUMPI PUSH1 0x0 DUP1 REVERT JUMPDEST POP PUSH2 0x2D4 PUSH2 0x4BD CALLDATASIZE PUSH1 0x4 PUSH2 0x222F JUMP JUMPDEST PUSH2 0xAFF JUMP JUMPDEST CALLVALUE DUP1 ISZERO PUSH2 0x4CE JUMPI PUSH1 0x0 DUP1 REVERT JUMPDEST POP PUSH2 0x4D7 PUSH2 0xB0A JUMP JUMPDEST PUSH1 0x40 MLOAD PUSH2 0x248 SWAP8 SWAP7 SWAP6 SWAP5 SWAP4 SWAP3 SWAP2 SWAP1 PUSH2 0x224A JUMP JUMPDEST CALLVALUE DUP1 ISZERO PUSH2 0x4F6 JUMPI PUSH1 0x0 DUP1 REVERT JUMPDEST POP PUSH1 0x5 SLOAD PUSH1 0x1 PUSH1 0x1 PUSH1 0xA0 SHL SUB AND PUSH2 0x234 JUMP JUMPDEST CALLVALUE DUP1 ISZERO PUSH2 0x514 JUMPI PUSH1 0x0 DUP1 REVERT JUMPDEST POP PUSH2 0x2D4 PUSH2 0x523 CALLDATASIZE PUSH1 0x4 PUSH2 0x22E3 JUMP JUMPDEST PUSH2 0xB50 JUMP JUMPDEST CALLVALUE DUP1 ISZERO PUSH2 0x534 JUMPI PUSH1 0x0 DUP1 REVERT JUMPDEST POP PUSH2 0x53D PUSH2 0xBBA JUMP JUMPDEST PUSH1 0x40 MLOAD PUSH6 0xFFFFFFFFFFFF SWAP1 SWAP2 AND DUP2 MSTORE PUSH1 0x20 ADD PUSH2 0x248 JUMP JUMPDEST CALLVALUE DUP1 ISZERO PUSH2 0x560 JUMPI PUSH1 0x0 DUP1 REVERT JUMPDEST POP PUSH2 0x266 PUSH2 0xBC4 JUMP JUMPDEST CALLVALUE DUP1 ISZERO PUSH2 0x575 JUMPI PUSH1 0x0 DUP1 REVERT JUMPDEST POP PUSH2 0x392 PUSH2 0x584 CALLDATASIZE PUSH1 0x4 PUSH2 0x222F JUMP JUMPDEST PUSH2 0xBD3 JUMP JUMPDEST CALLVALUE DUP1 ISZERO PUSH2 0x595 JUMPI PUSH1 0x0 DUP1 REVERT JUMPDEST POP PUSH2 0x2D4 PUSH2 0x5A4 CALLDATASIZE PUSH1 0x4 PUSH2 0x222F JUMP JUMPDEST PUSH2 0xC70 JUMP JUMPDEST CALLVALUE DUP1 ISZERO PUSH2 0x5B5 JUMPI PUSH1 0x0 DUP1 REVERT JUMPDEST POP PUSH2 0x5DD PUSH2 0x5C4 CALLDATASIZE PUSH1 0x4 PUSH2 0x222F JUMP JUMPDEST PUSH1 0xF PUSH1 0x20 MSTORE PUSH1 0x0 SWAP1 DUP2 MSTORE PUSH1 0x40 SWAP1 KECCAK256 DUP1 SLOAD PUSH1 0x1 SWAP1 SWAP2 ADD SLOAD DUP3 JUMP JUMPDEST PUSH1 0x40 DUP1 MLOAD SWAP3 DUP4 MSTORE PUSH1 0x20 DUP4 ADD SWAP2 SWAP1 SWAP2 MSTORE ADD PUSH2 0x248 JUMP JUMPDEST CALLVALUE DUP1 ISZERO PUSH2 0x5FE JUMPI PUSH1 0x0 DUP1 REVERT JUMPDEST POP PUSH2 0x293 PUSH2 0x60D CALLDATASIZE PUSH1 0x4 PUSH2 0x21C9 JUMP JUMPDEST PUSH2 0xCA0 JUMP JUMPDEST CALLVALUE DUP1 ISZERO PUSH2 0x61E JUMPI PUSH1 0x0 DUP1 REVERT JUMPDEST POP PUSH2 0x392 PUSH2 0x62D CALLDATASIZE PUSH1 0x4 PUSH2 0x222F JUMP JUMPDEST PUSH2 0xCAE JUMP JUMPDEST CALLVALUE DUP1 ISZERO PUSH2 0x63E JUMPI PUSH1 0x0 DUP1 REVERT JUMPDEST POP PUSH1 0x10 SLOAD PUSH2 0x234 SWAP1 PUSH1 0x1 PUSH1 0x1 PUSH1 0xA0 SHL SUB AND DUP2 JUMP JUMPDEST CALLVALUE DUP1 ISZERO PUSH2 0x65E JUMPI PUSH1 0x0 DUP1 REVERT JUMPDEST POP PUSH2 0x392 PUSH2 0x66D CALLDATASIZE PUSH1 0x4 PUSH2 0x230D JUMP JUMPDEST PUSH2 0xCE7 JUMP JUMPDEST CALLVALUE DUP1 ISZERO PUSH2 0x67E JUMPI PUSH1 0x0 DUP1 REVERT JUMPDEST POP PUSH2 0x392 PUSH2 0x68D CALLDATASIZE PUSH1 0x4 PUSH2 0x2365 JUMP JUMPDEST PUSH2 0xDA4 JUMP JUMPDEST CALLVALUE DUP1 ISZERO PUSH2 0x69E JUMPI PUSH1 0x0 DUP1 REVERT JUMPDEST POP PUSH2 0x2D4 PUSH2 0x6AD CALLDATASIZE PUSH1 0x4 PUSH2 0x23CF JUMP JUMPDEST PUSH1 0x1 PUSH1 0x1 PUSH1 0xA0 SHL SUB SWAP2 DUP3 AND PUSH1 0x0 SWAP1 DUP2 MSTORE PUSH1 0x1 PUSH1 0x20 SWAP1 DUP2 MSTORE PUSH1 0x40 DUP1 DUP4 KECCAK256 SWAP4 SWAP1 SWAP5 AND DUP3 MSTORE SWAP2 SWAP1 SWAP2 MSTORE KECCAK256 SLOAD SWAP1 JUMP JUMPDEST CALLVALUE DUP1 ISZERO PUSH2 0x6E4 JUMPI PUSH1 0x0 DUP1 REVERT JUMPDEST POP PUSH2 0x6F8 PUSH2 0x6F3 CALLDATASIZE PUSH1 0x4 PUSH2 0x2402 JUMP JUMPDEST PUSH2 0xEDE JUMP JUMPDEST PUSH1 0x40 DUP1 MLOAD DUP3 MLOAD PUSH6 0xFFFFFFFFFFFF AND DUP2 MSTORE PUSH1 0x20 SWAP3 DUP4 ADD MLOAD PUSH1 0x1 PUSH1 0x1 PUSH1 0xD0 SHL SUB AND SWAP3 DUP2 ADD SWAP3 SWAP1 SWAP3 MSTORE ADD PUSH2 0x248 JUMP JUMPDEST CALLVALUE DUP1 ISZERO PUSH2 0x730 JUMPI PUSH1 0x0 DUP1 REVERT JUMPDEST POP PUSH2 0x392 PUSH2 0x73F CALLDATASIZE PUSH1 0x4 PUSH2 0x222F JUMP JUMPDEST PUSH2 0xF03 JUMP JUMPDEST PUSH1 0x60 PUSH1 0x3 DUP1 SLOAD PUSH2 0x753 SWAP1 PUSH2 0x2442 JUMP JUMPDEST DUP1 PUSH1 0x1F ADD PUSH1 0x20 DUP1 SWAP2 DIV MUL PUSH1 0x20 ADD PUSH1 0x40 MLOAD SWAP1 DUP2 ADD PUSH1 0x40 MSTORE DUP1 SWAP3 SWAP2 SWAP1 DUP2 DUP2 MSTORE PUSH1 0x20 ADD DUP3 DUP1 SLOAD PUSH2 0x77F SWAP1 PUSH2 0x2442 JUMP JUMPDEST DUP1 ISZERO PUSH2 0x7CC JUMPI DUP1 PUSH1 0x1F LT PUSH2 0x7A1 JUMPI PUSH2 0x100 DUP1 DUP4 SLOAD DIV MUL DUP4 MSTORE SWAP2 PUSH1 0x20 ADD SWAP2 PUSH2 0x7CC JUMP JUMPDEST DUP3 ADD SWAP2 SWAP1 PUSH1 0x0 MSTORE PUSH1 0x20 PUSH1 0x0 KECCAK256 SWAP1 JUMPDEST DUP2 SLOAD DUP2 MSTORE SWAP1 PUSH1 0x1 ADD SWAP1 PUSH1 0x20 ADD DUP1 DUP4 GT PUSH2 0x7AF JUMPI DUP3 SWAP1 SUB PUSH1 0x1F AND DUP3 ADD SWAP2 JUMPDEST POP POP POP POP POP SWAP1 POP SWAP1 JUMP JUMPDEST PUSH1 0x0 CALLER PUSH2 0x7E4 DUP2 DUP6 DUP6 PUSH2 0xF59 JUMP JUMPDEST PUSH1 0x1 SWAP2 POP POP JUMPDEST SWAP3 SWAP2 POP POP JUMP JUMPDEST PUSH1 0x0 CALLER PUSH2 0x7FE DUP6 DUP3 DUP6 PUSH2 0xF6B JUMP JUMPDEST PUSH2 0x809 DUP6 DUP6 DUP6 PUSH2 0xFE9 JUMP JUMPDEST POP PUSH1 0x1 SWAP5 SWAP4 POP POP POP POP JUMP JUMPDEST PUSH1 0x0 PUSH2 0x81E PUSH2 0x1048 JUMP JUMPDEST SWAP1 POP SWAP1 JUMP JUMPDEST PUSH1 0x0 DUP1 PUSH2 0x82E PUSH2 0xBBA JUMP JUMPDEST SWAP1 POP DUP1 PUSH6 0xFFFFFFFFFFFF AND DUP4 LT PUSH2 0x86E JUMPI PUSH1 0x40 MLOAD PUSH4 0x7669FC0F PUSH1 0xE1 SHL DUP2 MSTORE PUSH1 0x4 DUP2 ADD DUP5 SWAP1 MSTORE PUSH6 0xFFFFFFFFFFFF DUP3 AND PUSH1 0x24 DUP3 ADD MSTORE PUSH1 0x44 ADD JUMPDEST PUSH1 0x40 MLOAD DUP1 SWAP2 SUB SWAP1 REVERT JUMPDEST PUSH2 0x898 PUSH2 0x87A DUP5 PUSH2 0x1173 JUMP JUMPDEST PUSH1 0x1 PUSH1 0x1 PUSH1 0xA0 SHL SUB DUP7 AND PUSH1 0x0 SWAP1 DUP2 MSTORE PUSH1 0xA PUSH1 0x20 MSTORE PUSH1 0x40 SWAP1 KECCAK256 SWAP1 PUSH2 0x11AA JUMP JUMPDEST PUSH1 0x1 PUSH1 0x1 PUSH1 0xD0 SHL SUB AND SWAP5 SWAP4 POP POP POP POP JUMP JUMPDEST PUSH1 0x5 SLOAD PUSH1 0x1 PUSH1 0x1 PUSH1 0xA0 SHL SUB AND CALLER EQ DUP1 PUSH2 0x929 JUMPI POP PUSH1 0x10 SLOAD PUSH1 0x40 MLOAD PUSH4 0xF3A434E3 PUSH1 0xE0 SHL DUP2 MSTORE CALLER PUSH1 0x4 DUP3 ADD MSTORE PUSH1 0x1 PUSH1 0x1 PUSH1 0xA0 SHL SUB SWAP1 SWAP2 AND SWAP1 PUSH4 0xF3A434E3 SWAP1 PUSH1 0x24 ADD PUSH1 0x20 PUSH1 0x40 MLOAD DUP1 DUP4 SUB DUP2 DUP7 GAS STATICCALL ISZERO DUP1 ISZERO PUSH2 0x905 JUMPI RETURNDATASIZE PUSH1 0x0 DUP1 RETURNDATACOPY RETURNDATASIZE PUSH1 0x0 REVERT JUMPDEST POP POP POP POP PUSH1 0x40 MLOAD RETURNDATASIZE PUSH1 0x1F NOT PUSH1 0x1F DUP3 ADD AND DUP3 ADD DUP1 PUSH1 0x40 MSTORE POP DUP2 ADD SWAP1 PUSH2 0x929 SWAP2 SWAP1 PUSH2 0x247C JUMP JUMPDEST DUP1 PUSH2 0x93E JUMPI POP PUSH1 0xC SLOAD PUSH1 0x1 PUSH1 0x1 PUSH1 0xA0 SHL SUB AND CALLER EQ JUMPDEST PUSH2 0x9C1 JUMPI PUSH1 0x40 MLOAD PUSH3 0x461BCD PUSH1 0xE5 SHL DUP2 MSTORE PUSH1 0x20 PUSH1 0x4 DUP3 ADD MSTORE PUSH1 0x48 PUSH1 0x24 DUP3 ADD MSTORE PUSH32 0x4F6E6C7920696D706C656D656E746174696F6E73206F72206F776E657273206F PUSH1 0x44 DUP3 ADD MSTORE PUSH32 0x722076656E646F72732061726520616C6C6F77656420746F206D696E74206E65 PUSH1 0x64 DUP3 ADD MSTORE PUSH8 0x7720746F6B656E73 PUSH1 0xC0 SHL PUSH1 0x84 DUP3 ADD MSTORE PUSH1 0xA4 ADD PUSH2 0x865 JUMP JUMPDEST PUSH2 0x9CB DUP3 DUP3 PUSH2 0x1260 JUMP JUMPDEST POP POP JUMP JUMPDEST PUSH1 0x60 PUSH2 0x9D9 PUSH2 0x1296 JUMP JUMPDEST PUSH6 0xFFFFFFFFFFFF AND PUSH2 0x9E9 PUSH2 0xBBA JUMP JUMPDEST PUSH6 0xFFFFFFFFFFFF AND EQ PUSH2 0xA0F JUMPI PUSH1 0x40 MLOAD PUSH4 0x1BFC1C5 PUSH1 0xE6 SHL DUP2 MSTORE PUSH1 0x4 ADD PUSH1 0x40 MLOAD DUP1 SWAP2 SUB SWAP1 REVERT JUMPDEST POP PUSH1 0x40 DUP1 MLOAD DUP1 DUP3 ADD SWAP1 SWAP2 MSTORE PUSH1 0x1D DUP2 MSTORE PUSH32 0x6D6F64653D626C6F636B6E756D6265722666726F6D3D64656661756C74000000 PUSH1 0x20 DUP3 ADD MSTORE SWAP1 JUMP JUMPDEST CALLER PUSH2 0x9CB DUP2 DUP4 PUSH2 0x12A1 JUMP JUMPDEST PUSH1 0x0 PUSH2 0x7EA DUP3 PUSH2 0x1313 JUMP JUMPDEST PUSH2 0xA65 PUSH2 0x1335 JUMP JUMPDEST PUSH2 0xA6F PUSH1 0x0 PUSH2 0x1362 JUMP JUMPDEST JUMP JUMPDEST PUSH1 0x5 SLOAD PUSH1 0x1 PUSH1 0x1 PUSH1 0xA0 SHL SUB AND CALLER EQ PUSH2 0xADD JUMPI PUSH1 0x40 MLOAD PUSH3 0x461BCD PUSH1 0xE5 SHL DUP2 MSTORE PUSH1 0x20 PUSH1 0x4 DUP3 ADD MSTORE PUSH1 0x29 PUSH1 0x24 DUP3 ADD MSTORE PUSH32 0x4F6E6C79206F776E6572206F722076656E646F722063616E2073657420726577 PUSH1 0x44 DUP3 ADD MSTORE PUSH9 0x185C991CC81C1BDBDB PUSH1 0xBA SHL PUSH1 0x64 DUP3 ADD MSTORE PUSH1 0x84 ADD PUSH2 0x865 JUMP JUMPDEST PUSH1 0xD DUP1 SLOAD PUSH1 0x1 PUSH1 0x1 PUSH1 0xA0 SHL SUB NOT AND PUSH1 0x1 PUSH1 0x1 PUSH1 0xA0 SHL SUB SWAP3 SWAP1 SWAP3 AND SWAP2 SWAP1 SWAP2 OR SWAP1 SSTORE JUMP JUMPDEST PUSH1 0x0 PUSH2 0x7EA DUP3 PUSH2 0x13B4 JUMP JUMPDEST PUSH1 0x0 PUSH1 0x60 DUP1 PUSH1 0x0 DUP1 PUSH1 0x0 PUSH1 0x60 PUSH2 0xB1E PUSH2 0x13D2 JUMP JUMPDEST PUSH2 0xB26 PUSH2 0x13FF JUMP JUMPDEST PUSH1 0x40 DUP1 MLOAD PUSH1 0x0 DUP1 DUP3 MSTORE PUSH1 0x20 DUP3 ADD SWAP1 SWAP3 MSTORE PUSH1 0xF PUSH1 0xF8 SHL SWAP12 SWAP4 SWAP11 POP SWAP2 SWAP9 POP CHAINID SWAP8 POP ADDRESS SWAP7 POP SWAP5 POP SWAP3 POP SWAP1 POP JUMP JUMPDEST PUSH1 0x0 DUP1 PUSH2 0xB5B PUSH2 0xBBA JUMP JUMPDEST SWAP1 POP DUP1 PUSH6 0xFFFFFFFFFFFF AND DUP4 LT PUSH2 0xB96 JUMPI PUSH1 0x40 MLOAD PUSH4 0x7669FC0F PUSH1 0xE1 SHL DUP2 MSTORE PUSH1 0x4 DUP2 ADD DUP5 SWAP1 MSTORE PUSH6 0xFFFFFFFFFFFF DUP3 AND PUSH1 0x24 DUP3 ADD MSTORE PUSH1 0x44 ADD PUSH2 0x865 JUMP JUMPDEST PUSH2 0xBAA PUSH2 0xBA2 DUP5 PUSH2 0x1173 JUMP JUMPDEST PUSH1 0xB SWAP1 PUSH2 0x11AA JUMP JUMPDEST PUSH1 0x1 PUSH1 0x1 PUSH1 0xD0 SHL SUB AND SWAP4 SWAP3 POP POP POP JUMP JUMPDEST PUSH1 0x0 PUSH2 0x81E PUSH2 0x1296 JUMP JUMPDEST PUSH1 0x60 PUSH1 0x4 DUP1 SLOAD PUSH2 0x753 SWAP1 PUSH2 0x2442 JUMP JUMPDEST PUSH1 0x5 SLOAD PUSH1 0x1 PUSH1 0x1 PUSH1 0xA0 SHL SUB AND CALLER EQ DUP1 PUSH2 0xBF6 JUMPI POP PUSH1 0xC SLOAD PUSH1 0x1 PUSH1 0x1 PUSH1 0xA0 SHL SUB AND CALLER EQ JUMPDEST PUSH2 0xC4E JUMPI PUSH1 0x40 MLOAD PUSH3 0x461BCD PUSH1 0xE5 SHL DUP2 MSTORE PUSH1 0x20 PUSH1 0x4 DUP3 ADD MSTORE PUSH1 0x23 PUSH1 0x24 DUP3 ADD MSTORE PUSH32 0x4F6E6C79206F776E6572206F722076656E646F722063616E207365742076656E PUSH1 0x44 DUP3 ADD MSTORE PUSH3 0x3237B9 PUSH1 0xE9 SHL PUSH1 0x64 DUP3 ADD MSTORE PUSH1 0x84 ADD PUSH2 0x865 JUMP JUMPDEST PUSH1 0xC DUP1 SLOAD PUSH1 0x1 PUSH1 0x1 PUSH1 0xA0 SHL SUB NOT AND PUSH1 0x1 PUSH1 0x1 PUSH1 0xA0 SHL SUB SWAP3 SWAP1 SWAP3 AND SWAP2 SWAP1 SWAP2 OR SWAP1 SSTORE JUMP JUMPDEST PUSH1 0x1 PUSH1 0x1 PUSH1 0xA0 SHL SUB DUP2 AND PUSH1 0x0 SWAP1 DUP2 MSTORE PUSH1 0xA PUSH1 0x20 MSTORE PUSH1 0x40 DUP2 KECCAK256 PUSH2 0xC91 SWAP1 PUSH2 0x142C JUMP JUMPDEST PUSH1 0x1 PUSH1 0x1 PUSH1 0xD0 SHL SUB AND SWAP3 SWAP2 POP POP JUMP JUMPDEST PUSH1 0x0 CALLER PUSH2 0x7E4 DUP2 DUP6 DUP6 PUSH2 0xFE9 JUMP JUMPDEST PUSH1 0x5 SLOAD PUSH1 0x1 PUSH1 0x1 PUSH1 0xA0 SHL SUB AND CALLER EQ PUSH2 0xCC5 JUMPI PUSH1 0x0 DUP1 REVERT JUMPDEST PUSH1 0x10 DUP1 SLOAD PUSH1 0x1 PUSH1 0x1 PUSH1 0xA0 SHL SUB NOT AND PUSH1 0x1 PUSH1 0x1 PUSH1 0xA0 SHL SUB SWAP3 SWAP1 SWAP3 AND SWAP2 SWAP1 SWAP2 OR SWAP1 SSTORE JUMP JUMPDEST DUP4 TIMESTAMP GT ISZERO PUSH2 0xD0B JUMPI PUSH1 0x40 MLOAD PUSH4 0x2341D787 PUSH1 0xE1 SHL DUP2 MSTORE PUSH1 0x4 DUP2 ADD DUP6 SWAP1 MSTORE PUSH1 0x24 ADD PUSH2 0x865 JUMP JUMPDEST PUSH1 0x40 DUP1 MLOAD PUSH32 0xE48329057BFD03D55E49B547132E39CFFD9C1820AD7B9D4C5307691425D15ADF PUSH1 0x20 DUP3 ADD MSTORE PUSH1 0x1 PUSH1 0x1 PUSH1 0xA0 SHL SUB DUP9 AND SWAP2 DUP2 ADD SWAP2 SWAP1 SWAP2 MSTORE PUSH1 0x60 DUP2 ADD DUP7 SWAP1 MSTORE PUSH1 0x80 DUP2 ADD DUP6 SWAP1 MSTORE PUSH1 0x0 SWAP1 PUSH2 0xD85 SWAP1 PUSH2 0xD7D SWAP1 PUSH1 0xA0 ADD PUSH1 0x40 MLOAD PUSH1 0x20 DUP2 DUP4 SUB SUB DUP2 MSTORE SWAP1 PUSH1 0x40 MSTORE DUP1 MLOAD SWAP1 PUSH1 0x20 ADD KECCAK256 PUSH2 0x1465 JUMP JUMPDEST DUP6 DUP6 DUP6 PUSH2 0x1492 JUMP JUMPDEST SWAP1 POP PUSH2 0xD91 DUP2 DUP8 PUSH2 0x14C0 JUMP JUMPDEST PUSH2 0xD9B DUP2 DUP9 PUSH2 0x12A1 JUMP JUMPDEST POP POP POP POP POP POP POP JUMP JUMPDEST DUP4 TIMESTAMP GT ISZERO PUSH2 0xDC8 JUMPI PUSH1 0x40 MLOAD PUSH4 0x313C8981 PUSH1 0xE1 SHL DUP2 MSTORE PUSH1 0x4 DUP2 ADD DUP6 SWAP1 MSTORE PUSH1 0x24 ADD PUSH2 0x865 JUMP JUMPDEST PUSH1 0x0 PUSH32 0x6E71EDAE12B1B97F4D1F60370FEF10105FA2FAAE0126114A169C64845D6126C9 DUP9 DUP9 DUP9 PUSH2 0xE15 DUP13 PUSH1 0x1 PUSH1 0x1 PUSH1 0xA0 SHL SUB AND PUSH1 0x0 SWAP1 DUP2 MSTORE PUSH1 0x8 PUSH1 0x20 MSTORE PUSH1 0x40 SWAP1 KECCAK256 DUP1 SLOAD PUSH1 0x1 DUP2 ADD SWAP1 SWAP2 SSTORE SWAP1 JUMP JUMPDEST PUSH1 0x40 DUP1 MLOAD PUSH1 0x20 DUP2 ADD SWAP7 SWAP1 SWAP7 MSTORE PUSH1 0x1 PUSH1 0x1 PUSH1 0xA0 SHL SUB SWAP5 DUP6 AND SWAP1 DUP7 ADD MSTORE SWAP3 SWAP1 SWAP2 AND PUSH1 0x60 DUP5 ADD MSTORE PUSH1 0x80 DUP4 ADD MSTORE PUSH1 0xA0 DUP3 ADD MSTORE PUSH1 0xC0 DUP2 ADD DUP7 SWAP1 MSTORE PUSH1 0xE0 ADD PUSH1 0x40 MLOAD PUSH1 0x20 DUP2 DUP4 SUB SUB DUP2 MSTORE SWAP1 PUSH1 0x40 MSTORE DUP1 MLOAD SWAP1 PUSH1 0x20 ADD KECCAK256 SWAP1 POP PUSH1 0x0 PUSH2 0xE70 DUP3 PUSH2 0x1465 JUMP JUMPDEST SWAP1 POP PUSH1 0x0 PUSH2 0xE80 DUP3 DUP8 DUP8 DUP8 PUSH2 0x1492 JUMP JUMPDEST SWAP1 POP DUP10 PUSH1 0x1 PUSH1 0x1 PUSH1 0xA0 SHL SUB AND DUP2 PUSH1 0x1 PUSH1 0x1 PUSH1 0xA0 SHL SUB AND EQ PUSH2 0xEC7 JUMPI PUSH1 0x40 MLOAD PUSH4 0x25C00723 PUSH1 0xE1 SHL DUP2 MSTORE PUSH1 0x1 PUSH1 0x1 PUSH1 0xA0 SHL SUB DUP1 DUP4 AND PUSH1 0x4 DUP4 ADD MSTORE DUP12 AND PUSH1 0x24 DUP3 ADD MSTORE PUSH1 0x44 ADD PUSH2 0x865 JUMP JUMPDEST PUSH2 0xED2 DUP11 DUP11 DUP11 PUSH2 0xF59 JUMP JUMPDEST POP POP POP POP POP POP POP POP POP POP JUMP JUMPDEST PUSH1 0x40 DUP1 MLOAD DUP1 DUP3 ADD SWAP1 SWAP2 MSTORE PUSH1 0x0 DUP1 DUP3 MSTORE PUSH1 0x20 DUP3 ADD MSTORE PUSH2 0xEFC DUP4 DUP4 PUSH2 0x1513 JUMP JUMPDEST SWAP4 SWAP3 POP POP POP JUMP JUMPDEST PUSH2 0xF0B PUSH2 0x1335 JUMP JUMPDEST PUSH1 0x1 PUSH1 0x1 PUSH1 0xA0 SHL SUB DUP2 AND PUSH2 0xF35 JUMPI PUSH1 0x40 MLOAD PUSH4 0x1E4FBDF7 PUSH1 0xE0 SHL DUP2 MSTORE PUSH1 0x0 PUSH1 0x4 DUP3 ADD MSTORE PUSH1 0x24 ADD PUSH2 0x865 JUMP JUMPDEST PUSH2 0xF3E DUP2 PUSH2 0x1362 JUMP JUMPDEST POP JUMP JUMPDEST PUSH1 0x0 PUSH2 0xEFC DUP3 DUP5 PUSH2 0x24B4 JUMP JUMPDEST PUSH1 0x0 PUSH2 0xEFC DUP3 DUP5 PUSH2 0x24DB JUMP JUMPDEST PUSH2 0xF66 DUP4 DUP4 DUP4 PUSH1 0x1 PUSH2 0x1549 JUMP JUMPDEST POP POP POP JUMP JUMPDEST PUSH1 0x1 PUSH1 0x1 PUSH1 0xA0 SHL SUB DUP4 DUP2 AND PUSH1 0x0 SWAP1 DUP2 MSTORE PUSH1 0x1 PUSH1 0x20 SWAP1 DUP2 MSTORE PUSH1 0x40 DUP1 DUP4 KECCAK256 SWAP4 DUP7 AND DUP4 MSTORE SWAP3 SWAP1 MSTORE KECCAK256 SLOAD PUSH1 0x0 NOT DUP2 EQ PUSH2 0xFE3 JUMPI DUP2 DUP2 LT ISZERO PUSH2 0xFD4 JUMPI PUSH1 0x40 MLOAD PUSH4 0x7DC7A0D9 PUSH1 0xE1 SHL DUP2 MSTORE PUSH1 0x1 PUSH1 0x1 PUSH1 0xA0 SHL SUB DUP5 AND PUSH1 0x4 DUP3 ADD MSTORE PUSH1 0x24 DUP2 ADD DUP3 SWAP1 MSTORE PUSH1 0x44 DUP2 ADD DUP4 SWAP1 MSTORE PUSH1 0x64 ADD PUSH2 0x865 JUMP JUMPDEST PUSH2 0xFE3 DUP5 DUP5 DUP5 DUP5 SUB PUSH1 0x0 PUSH2 0x1549 JUMP JUMPDEST POP POP POP POP JUMP JUMPDEST PUSH1 0x1 PUSH1 0x1 PUSH1 0xA0 SHL SUB DUP4 AND PUSH2 0x1013 JUMPI PUSH1 0x40 MLOAD PUSH4 0x4B637E8F PUSH1 0xE1 SHL DUP2 MSTORE PUSH1 0x0 PUSH1 0x4 DUP3 ADD MSTORE PUSH1 0x24 ADD PUSH2 0x865 JUMP JUMPDEST PUSH1 0x1 PUSH1 0x1 PUSH1 0xA0 SHL SUB DUP3 AND PUSH2 0x103D JUMPI PUSH1 0x40 MLOAD PUSH4 0xEC442F05 PUSH1 0xE0 SHL DUP2 MSTORE PUSH1 0x0 PUSH1 0x4 DUP3 ADD MSTORE PUSH1 0x24 ADD PUSH2 0x865 JUMP JUMPDEST PUSH2 0xF66 DUP4 DUP4 DUP4 PUSH2 0x161E JUMP JUMPDEST PUSH1 0x0 ADDRESS PUSH1 0x1 PUSH1 0x1 PUSH1 0xA0 SHL SUB PUSH32 0x0 AND EQ DUP1 ISZERO PUSH2 0x10A1 JUMPI POP PUSH32 0x0 CHAINID EQ JUMPDEST ISZERO PUSH2 0x10CB JUMPI POP PUSH32 0x0 SWAP1 JUMP JUMPDEST PUSH2 0x81E PUSH1 0x40 DUP1 MLOAD PUSH32 0x8B73C3C69BB8FE3D512ECC4CF759CC79239F7B179B0FFACAA9A75D522B39400F PUSH1 0x20 DUP3 ADD MSTORE PUSH32 0x0 SWAP2 DUP2 ADD SWAP2 SWAP1 SWAP2 MSTORE PUSH32 0x0 PUSH1 0x60 DUP3 ADD MSTORE CHAINID PUSH1 0x80 DUP3 ADD MSTORE ADDRESS PUSH1 0xA0 DUP3 ADD MSTORE PUSH1 0x0 SWAP1 PUSH1 0xC0 ADD PUSH1 0x40 MLOAD PUSH1 0x20 DUP2 DUP4 SUB SUB DUP2 MSTORE SWAP1 PUSH1 0x40 MSTORE DUP1 MLOAD SWAP1 PUSH1 0x20 ADD KECCAK256 SWAP1 POP SWAP1 JUMP JUMPDEST PUSH1 0x0 PUSH6 0xFFFFFFFFFFFF DUP3 GT ISZERO PUSH2 0x11A6 JUMPI PUSH1 0x40 MLOAD PUSH4 0x6DFCC65 PUSH1 0xE4 SHL DUP2 MSTORE PUSH1 0x30 PUSH1 0x4 DUP3 ADD MSTORE PUSH1 0x24 DUP2 ADD DUP4 SWAP1 MSTORE PUSH1 0x44 ADD PUSH2 0x865 JUMP JUMPDEST POP SWAP1 JUMP JUMPDEST DUP2 SLOAD PUSH1 0x0 SWAP1 DUP2 DUP2 PUSH1 0x5 DUP2 GT ISZERO PUSH2 0x1209 JUMPI PUSH1 0x0 PUSH2 0x11C5 DUP5 PUSH2 0x1684 JUMP JUMPDEST PUSH2 0x11CF SWAP1 DUP6 PUSH2 0x24FB JUMP JUMPDEST PUSH1 0x0 DUP9 DUP2 MSTORE PUSH1 0x20 SWAP1 KECCAK256 SWAP1 SWAP2 POP DUP2 ADD SLOAD PUSH6 0xFFFFFFFFFFFF SWAP1 DUP2 AND SWAP1 DUP8 AND LT ISZERO PUSH2 0x11F9 JUMPI DUP1 SWAP2 POP PUSH2 0x1207 JUMP JUMPDEST PUSH2 0x1204 DUP2 PUSH1 0x1 PUSH2 0x250E JUMP JUMPDEST SWAP3 POP JUMPDEST POP JUMPDEST PUSH1 0x0 PUSH2 0x1217 DUP8 DUP8 DUP6 DUP6 PUSH2 0x176C JUMP JUMPDEST SWAP1 POP DUP1 ISZERO PUSH2 0x1252 JUMPI PUSH2 0x123C DUP8 PUSH2 0x122E PUSH1 0x1 DUP5 PUSH2 0x24FB JUMP JUMPDEST PUSH1 0x0 SWAP2 DUP3 MSTORE PUSH1 0x20 SWAP1 SWAP2 KECCAK256 ADD SWAP1 JUMP JUMPDEST SLOAD PUSH1 0x1 PUSH1 0x30 SHL SWAP1 DIV PUSH1 0x1 PUSH1 0x1 PUSH1 0xD0 SHL SUB AND PUSH2 0x1255 JUMP JUMPDEST PUSH1 0x0 JUMPDEST SWAP8 SWAP7 POP POP POP POP POP POP POP JUMP JUMPDEST PUSH1 0x1 PUSH1 0x1 PUSH1 0xA0 SHL SUB DUP3 AND PUSH2 0x128A JUMPI PUSH1 0x40 MLOAD PUSH4 0xEC442F05 PUSH1 0xE0 SHL DUP2 MSTORE PUSH1 0x0 PUSH1 0x4 DUP3 ADD MSTORE PUSH1 0x24 ADD PUSH2 0x865 JUMP JUMPDEST PUSH2 0x9CB PUSH1 0x0 DUP4 DUP4 PUSH2 0x161E JUMP JUMPDEST PUSH1 0x0 PUSH2 0x81E NUMBER PUSH2 0x1173 JUMP JUMPDEST PUSH1 0x1 PUSH1 0x1 PUSH1 0xA0 SHL SUB DUP3 DUP2 AND PUSH1 0x0 DUP2 DUP2 MSTORE PUSH1 0x9 PUSH1 0x20 MSTORE PUSH1 0x40 DUP1 DUP3 KECCAK256 DUP1 SLOAD DUP7 DUP7 AND PUSH1 0x1 PUSH1 0x1 PUSH1 0xA0 SHL SUB NOT DUP3 AND DUP2 OR SWAP1 SWAP3 SSTORE SWAP2 MLOAD SWAP2 SWAP1 SWAP5 AND SWAP4 SWAP3 DUP5 SWAP3 SWAP1 SWAP2 PUSH32 0x3134E8A2E6D97E929A7E54011EA5485D7D196DD5F0BA4D4EF95803E8E3FC257F SWAP2 SWAP1 LOG4 PUSH2 0xF66 DUP2 DUP4 PUSH2 0x130E DUP7 PUSH2 0x17CE JUMP JUMPDEST PUSH2 0x17EC JUMP JUMPDEST PUSH1 0x1 PUSH1 0x1 PUSH1 0xA0 SHL SUB DUP2 AND PUSH1 0x0 SWAP1 DUP2 MSTORE PUSH1 0xA PUSH1 0x20 MSTORE PUSH1 0x40 DUP2 KECCAK256 SLOAD PUSH2 0x7EA SWAP1 PUSH2 0x1958 JUMP JUMPDEST PUSH1 0x5 SLOAD PUSH1 0x1 PUSH1 0x1 PUSH1 0xA0 SHL SUB AND CALLER EQ PUSH2 0xA6F JUMPI PUSH1 0x40 MLOAD PUSH4 0x118CDAA7 PUSH1 0xE0 SHL DUP2 MSTORE CALLER PUSH1 0x4 DUP3 ADD MSTORE PUSH1 0x24 ADD PUSH2 0x865 JUMP JUMPDEST PUSH1 0x5 DUP1 SLOAD PUSH1 0x1 PUSH1 0x1 PUSH1 0xA0 SHL SUB DUP4 DUP2 AND PUSH1 0x1 PUSH1 0x1 PUSH1 0xA0 SHL SUB NOT DUP4 AND DUP2 OR SWAP1 SWAP4 SSTORE PUSH1 0x40 MLOAD SWAP2 AND SWAP2 SWAP1 DUP3 SWAP1 PUSH32 0x8BE0079C531659141344CD1FD0A4F28419497F9722A3DAAFE3B4186F6B6457E0 SWAP1 PUSH1 0x0 SWAP1 LOG3 POP POP JUMP JUMPDEST PUSH1 0x1 PUSH1 0x1 PUSH1 0xA0 SHL SUB DUP2 AND PUSH1 0x0 SWAP1 DUP2 MSTORE PUSH1 0x8 PUSH1 0x20 MSTORE PUSH1 0x40 DUP2 KECCAK256 SLOAD PUSH2 0x7EA JUMP JUMPDEST PUSH1 0x60 PUSH2 0x81E PUSH32 0x0 PUSH1 0x6 PUSH2 0x1989 JUMP JUMPDEST PUSH1 0x60 PUSH2 0x81E PUSH32 0x0 PUSH1 0x7 PUSH2 0x1989 JUMP JUMPDEST DUP1 SLOAD PUSH1 0x0 SWAP1 DUP1 ISZERO PUSH2 0x145C JUMPI PUSH2 0x1446 DUP4 PUSH2 0x122E PUSH1 0x1 DUP5 PUSH2 0x24FB JUMP JUMPDEST SLOAD PUSH1 0x1 PUSH1 0x30 SHL SWAP1 DIV PUSH1 0x1 PUSH1 0x1 PUSH1 0xD0 SHL SUB AND PUSH2 0xEFC JUMP JUMPDEST PUSH1 0x0 SWAP4 SWAP3 POP POP POP JUMP JUMPDEST PUSH1 0x0 PUSH2 0x7EA PUSH2 0x1472 PUSH2 0x1048 JUMP JUMPDEST DUP4 PUSH1 0x40 MLOAD PUSH2 0x1901 PUSH1 0xF0 SHL DUP2 MSTORE PUSH1 0x2 DUP2 ADD SWAP3 SWAP1 SWAP3 MSTORE PUSH1 0x22 DUP3 ADD MSTORE PUSH1 0x42 SWAP1 KECCAK256 SWAP1 JUMP JUMPDEST PUSH1 0x0 DUP1 PUSH1 0x0 DUP1 PUSH2 0x14A4 DUP9 DUP9 DUP9 DUP9 PUSH2 0x1A34 JUMP JUMPDEST SWAP3 POP SWAP3 POP SWAP3 POP PUSH2 0x14B4 DUP3 DUP3 PUSH2 0x1B03 JUMP JUMPDEST POP SWAP1 SWAP7 SWAP6 POP POP POP POP POP POP JUMP JUMPDEST PUSH1 0x1 PUSH1 0x1 PUSH1 0xA0 SHL SUB DUP3 AND PUSH1 0x0 SWAP1 DUP2 MSTORE PUSH1 0x8 PUSH1 0x20 MSTORE PUSH1 0x40 SWAP1 KECCAK256 DUP1 SLOAD PUSH1 0x1 DUP2 ADD SWAP1 SWAP2 SSTORE DUP2 DUP2 EQ PUSH2 0xF66 JUMPI PUSH1 0x40 MLOAD PUSH4 0x1D4B623 PUSH1 0xE6 SHL DUP2 MSTORE PUSH1 0x1 PUSH1 0x1 PUSH1 0xA0 SHL SUB DUP5 AND PUSH1 0x4 DUP3 ADD MSTORE PUSH1 0x24 DUP2 ADD DUP3 SWAP1 MSTORE PUSH1 0x44 ADD PUSH2 0x865 JUMP JUMPDEST PUSH1 0x40 DUP1 MLOAD DUP1 DUP3 ADD SWAP1 SWAP2 MSTORE PUSH1 0x0 DUP1 DUP3 MSTORE PUSH1 0x20 DUP3 ADD MSTORE PUSH1 0x1 PUSH1 0x1 PUSH1 0xA0 SHL SUB DUP4 AND PUSH1 0x0 SWAP1 DUP2 MSTORE PUSH1 0xA PUSH1 0x20 MSTORE PUSH1 0x40 SWAP1 KECCAK256 PUSH2 0xEFC SWAP1 DUP4 PUSH2 0x1BBC JUMP JUMPDEST PUSH1 0x1 PUSH1 0x1 PUSH1 0xA0 SHL SUB DUP5 AND PUSH2 0x1573 JUMPI PUSH1 0x40 MLOAD PUSH4 0xE602DF05 PUSH1 0xE0 SHL DUP2 MSTORE PUSH1 0x0 PUSH1 0x4 DUP3 ADD MSTORE PUSH1 0x24 ADD PUSH2 0x865 JUMP JUMPDEST PUSH1 0x1 PUSH1 0x1 PUSH1 0xA0 SHL SUB DUP4 AND PUSH2 0x159D JUMPI PUSH1 0x40 MLOAD PUSH4 0x4A1406B1 PUSH1 0xE1 SHL DUP2 MSTORE PUSH1 0x0 PUSH1 0x4 DUP3 ADD MSTORE PUSH1 0x24 ADD PUSH2 0x865 JUMP JUMPDEST PUSH1 0x1 PUSH1 0x1 PUSH1 0xA0 SHL SUB DUP1 DUP6 AND PUSH1 0x0 SWAP1 DUP2 MSTORE PUSH1 0x1 PUSH1 0x20 SWAP1 DUP2 MSTORE PUSH1 0x40 DUP1 DUP4 KECCAK256 SWAP4 DUP8 AND DUP4 MSTORE SWAP3 SWAP1 MSTORE KECCAK256 DUP3 SWAP1 SSTORE DUP1 ISZERO PUSH2 0xFE3 JUMPI DUP3 PUSH1 0x1 PUSH1 0x1 PUSH1 0xA0 SHL SUB AND DUP5 PUSH1 0x1 PUSH1 0x1 PUSH1 0xA0 SHL SUB AND PUSH32 0x8C5BE1E5EBEC7D5BD14F71427D1E84F3DD0314C0F7B2291E5B200AC8C7C3B925 DUP5 PUSH1 0x40 MLOAD PUSH2 0x1610 SWAP2 DUP2 MSTORE PUSH1 0x20 ADD SWAP1 JUMP JUMPDEST PUSH1 0x40 MLOAD DUP1 SWAP2 SUB SWAP1 LOG3 POP POP POP POP JUMP JUMPDEST PUSH2 0x1629 DUP4 DUP4 DUP4 PUSH2 0x1C2C JUMP JUMPDEST PUSH11 0x52B7D2DCC80CD2E4000000 PUSH2 0x163E PUSH1 0x2 SLOAD SWAP1 JUMP JUMPDEST GT ISZERO PUSH2 0xF66 JUMPI PUSH1 0x40 MLOAD PUSH3 0x461BCD PUSH1 0xE5 SHL DUP2 MSTORE PUSH1 0x20 PUSH1 0x4 DUP3 ADD MSTORE PUSH1 0x15 PUSH1 0x24 DUP3 ADD MSTORE PUSH21 0x151BDD185B081CDD5C1C1B1E48195E18D959591959 PUSH1 0x5A SHL PUSH1 0x44 DUP3 ADD MSTORE PUSH1 0x64 ADD PUSH2 0x865 JUMP JUMPDEST PUSH1 0x0 DUP2 PUSH1 0x0 SUB PUSH2 0x1696 JUMPI POP PUSH1 0x0 SWAP2 SWAP1 POP JUMP JUMPDEST PUSH1 0x0 PUSH1 0x1 PUSH2 0x16A3 DUP5 PUSH2 0x1C93 JUMP JUMPDEST SWAP1 SHR PUSH1 0x1 SWAP1 SHL SWAP1 POP PUSH1 0x1 DUP2 DUP5 DUP2 PUSH2 0x16BC JUMPI PUSH2 0x16BC PUSH2 0x2521 JUMP JUMPDEST DIV DUP3 ADD SWAP1 SHR SWAP1 POP PUSH1 0x1 DUP2 DUP5 DUP2 PUSH2 0x16D4 JUMPI PUSH2 0x16D4 PUSH2 0x2521 JUMP JUMPDEST DIV DUP3 ADD SWAP1 SHR SWAP1 POP PUSH1 0x1 DUP2 DUP5 DUP2 PUSH2 0x16EC JUMPI PUSH2 0x16EC PUSH2 0x2521 JUMP JUMPDEST DIV DUP3 ADD SWAP1 SHR SWAP1 POP PUSH1 0x1 DUP2 DUP5 DUP2 PUSH2 0x1704 JUMPI PUSH2 0x1704 PUSH2 0x2521 JUMP JUMPDEST DIV DUP3 ADD SWAP1 SHR SWAP1 POP PUSH1 0x1 DUP2 DUP5 DUP2 PUSH2 0x171C JUMPI PUSH2 0x171C PUSH2 0x2521 JUMP JUMPDEST DIV DUP3 ADD SWAP1 SHR SWAP1 POP PUSH1 0x1 DUP2 DUP5 DUP2 PUSH2 0x1734 JUMPI PUSH2 0x1734 PUSH2 0x2521 JUMP JUMPDEST DIV DUP3 ADD SWAP1 SHR SWAP1 POP PUSH1 0x1 DUP2 DUP5 DUP2 PUSH2 0x174C JUMPI PUSH2 0x174C PUSH2 0x2521 JUMP JUMPDEST DIV DUP3 ADD SWAP1 SHR SWAP1 POP PUSH2 0xEFC DUP2 DUP3 DUP6 DUP2 PUSH2 0x1766 JUMPI PUSH2 0x1766 PUSH2 0x2521 JUMP JUMPDEST DIV PUSH2 0x1D27 JUMP JUMPDEST PUSH1 0x0 JUMPDEST DUP2 DUP4 LT ISZERO PUSH2 0x17C6 JUMPI PUSH1 0x0 PUSH2 0x1783 DUP5 DUP5 PUSH2 0x1D3D JUMP JUMPDEST PUSH1 0x0 DUP8 DUP2 MSTORE PUSH1 0x20 SWAP1 KECCAK256 SWAP1 SWAP2 POP PUSH6 0xFFFFFFFFFFFF DUP7 AND SWAP1 DUP3 ADD SLOAD PUSH6 0xFFFFFFFFFFFF AND GT ISZERO PUSH2 0x17B2 JUMPI DUP1 SWAP3 POP PUSH2 0x17C0 JUMP JUMPDEST PUSH2 0x17BD DUP2 PUSH1 0x1 PUSH2 0x250E JUMP JUMPDEST SWAP4 POP JUMPDEST POP PUSH2 0x176F JUMP JUMPDEST POP SWAP4 SWAP3 POP POP POP JUMP JUMPDEST PUSH1 0x1 PUSH1 0x1 PUSH1 0xA0 SHL SUB DUP2 AND PUSH1 0x0 SWAP1 DUP2 MSTORE PUSH1 0x20 DUP2 SWAP1 MSTORE PUSH1 0x40 DUP2 KECCAK256 SLOAD PUSH2 0x7EA JUMP JUMPDEST DUP2 PUSH1 0x1 PUSH1 0x1 PUSH1 0xA0 SHL SUB AND DUP4 PUSH1 0x1 PUSH1 0x1 PUSH1 0xA0 SHL SUB AND EQ ISZERO DUP1 ISZERO PUSH2 0x180E JUMPI POP PUSH1 0x0 DUP2 GT JUMPDEST ISZERO PUSH2 0xF66 JUMPI PUSH1 0x1 PUSH1 0x1 PUSH1 0xA0 SHL SUB DUP4 AND ISZERO PUSH2 0x18B6 JUMPI PUSH1 0x1 PUSH1 0x1 PUSH1 0xA0 SHL SUB DUP4 AND PUSH1 0x0 SWAP1 DUP2 MSTORE PUSH1 0xA PUSH1 0x20 MSTORE PUSH1 0x40 DUP2 KECCAK256 DUP2 SWAP1 PUSH2 0x1851 SWAP1 PUSH2 0xF4D PUSH2 0x184C DUP7 PUSH2 0x1D58 JUMP JUMPDEST PUSH2 0x1D8C JUMP JUMPDEST PUSH1 0x1 PUSH1 0x1 PUSH1 0xD0 SHL SUB AND SWAP2 POP PUSH1 0x1 PUSH1 0x1 PUSH1 0xD0 SHL SUB AND SWAP2 POP DUP5 PUSH1 0x1 PUSH1 0x1 PUSH1 0xA0 SHL SUB AND PUSH32 0xDEC2BACDD2F05B59DE34DA9B523DFF8BE42E5E38E818C82FDB0BAE774387A724 DUP4 DUP4 PUSH1 0x40 MLOAD PUSH2 0x18AB SWAP3 SWAP2 SWAP1 SWAP2 DUP3 MSTORE PUSH1 0x20 DUP3 ADD MSTORE PUSH1 0x40 ADD SWAP1 JUMP JUMPDEST PUSH1 0x40 MLOAD DUP1 SWAP2 SUB SWAP1 LOG2 POP POP JUMPDEST PUSH1 0x1 PUSH1 0x1 PUSH1 0xA0 SHL SUB DUP3 AND ISZERO PUSH2 0xF66 JUMPI PUSH1 0x1 PUSH1 0x1 PUSH1 0xA0 SHL SUB DUP3 AND PUSH1 0x0 SWAP1 DUP2 MSTORE PUSH1 0xA PUSH1 0x20 MSTORE PUSH1 0x40 DUP2 KECCAK256 DUP2 SWAP1 PUSH2 0x18EF SWAP1 PUSH2 0xF41 PUSH2 0x184C DUP7 PUSH2 0x1D58 JUMP JUMPDEST PUSH1 0x1 PUSH1 0x1 PUSH1 0xD0 SHL SUB AND SWAP2 POP PUSH1 0x1 PUSH1 0x1 PUSH1 0xD0 SHL SUB AND SWAP2 POP DUP4 PUSH1 0x1 PUSH1 0x1 PUSH1 0xA0 SHL SUB AND PUSH32 0xDEC2BACDD2F05B59DE34DA9B523DFF8BE42E5E38E818C82FDB0BAE774387A724 DUP4 DUP4 PUSH1 0x40 MLOAD PUSH2 0x1949 SWAP3 SWAP2 SWAP1 SWAP2 DUP3 MSTORE PUSH1 0x20 DUP3 ADD MSTORE PUSH1 0x40 ADD SWAP1 JUMP JUMPDEST PUSH1 0x40 MLOAD DUP1 SWAP2 SUB SWAP1 LOG2 POP POP POP POP POP JUMP JUMPDEST PUSH1 0x0 PUSH4 0xFFFFFFFF DUP3 GT ISZERO PUSH2 0x11A6 JUMPI PUSH1 0x40 MLOAD PUSH4 0x6DFCC65 PUSH1 0xE4 SHL DUP2 MSTORE PUSH1 0x20 PUSH1 0x4 DUP3 ADD MSTORE PUSH1 0x24 DUP2 ADD DUP4 SWAP1 MSTORE PUSH1 0x44 ADD PUSH2 0x865 JUMP JUMPDEST PUSH1 0x60 PUSH1 0xFF DUP4 EQ PUSH2 0x19A3 JUMPI PUSH2 0x199C DUP4 PUSH2 0x1DC5 JUMP JUMPDEST SWAP1 POP PUSH2 0x7EA JUMP JUMPDEST DUP2 DUP1 SLOAD PUSH2 0x19AF SWAP1 PUSH2 0x2442 JUMP JUMPDEST DUP1 PUSH1 0x1F ADD PUSH1 0x20 DUP1 SWAP2 DIV MUL PUSH1 0x20 ADD PUSH1 0x40 MLOAD SWAP1 DUP2 ADD PUSH1 0x40 MSTORE DUP1 SWAP3 SWAP2 SWAP1 DUP2 DUP2 MSTORE PUSH1 0x20 ADD DUP3 DUP1 SLOAD PUSH2 0x19DB SWAP1 PUSH2 0x2442 JUMP JUMPDEST DUP1 ISZERO PUSH2 0x1A28 JUMPI DUP1 PUSH1 0x1F LT PUSH2 0x19FD JUMPI PUSH2 0x100 DUP1 DUP4 SLOAD DIV MUL DUP4 MSTORE SWAP2 PUSH1 0x20 ADD SWAP2 PUSH2 0x1A28 JUMP JUMPDEST DUP3 ADD SWAP2 SWAP1 PUSH1 0x0 MSTORE PUSH1 0x20 PUSH1 0x0 KECCAK256 SWAP1 JUMPDEST DUP2 SLOAD DUP2 MSTORE SWAP1 PUSH1 0x1 ADD SWAP1 PUSH1 0x20 ADD DUP1 DUP4 GT PUSH2 0x1A0B JUMPI DUP3 SWAP1 SUB PUSH1 0x1F AND DUP3 ADD SWAP2 JUMPDEST POP POP POP POP POP SWAP1 POP PUSH2 0x7EA JUMP JUMPDEST PUSH1 0x0 DUP1 DUP1 PUSH32 0x7FFFFFFFFFFFFFFFFFFFFFFFFFFFFFFF5D576E7357A4501DDFE92F46681B20A0 DUP5 GT ISZERO PUSH2 0x1A6F JUMPI POP PUSH1 0x0 SWAP2 POP PUSH1 0x3 SWAP1 POP DUP3 PUSH2 0x1AF9 JUMP JUMPDEST PUSH1 0x40 DUP1 MLOAD PUSH1 0x0 DUP1 DUP3 MSTORE PUSH1 0x20 DUP3 ADD DUP1 DUP5 MSTORE DUP11 SWAP1 MSTORE PUSH1 0xFF DUP10 AND SWAP3 DUP3 ADD SWAP3 SWAP1 SWAP3 MSTORE PUSH1 0x60 DUP2 ADD DUP8 SWAP1 MSTORE PUSH1 0x80 DUP2 ADD DUP7 SWAP1 MSTORE PUSH1 0x1 SWAP1 PUSH1 0xA0 ADD PUSH1 0x20 PUSH1 0x40 MLOAD PUSH1 0x20 DUP2 SUB SWAP1 DUP1 DUP5 SUB SWAP1 DUP6 GAS STATICCALL ISZERO DUP1 ISZERO PUSH2 0x1AC3 JUMPI RETURNDATASIZE PUSH1 0x0 DUP1 RETURNDATACOPY RETURNDATASIZE PUSH1 0x0 REVERT JUMPDEST POP POP PUSH1 0x40 MLOAD PUSH1 0x1F NOT ADD MLOAD SWAP2 POP POP PUSH1 0x1 PUSH1 0x1 PUSH1 0xA0 SHL SUB DUP2 AND PUSH2 0x1AEF JUMPI POP PUSH1 0x0 SWAP3 POP PUSH1 0x1 SWAP2 POP DUP3 SWAP1 POP PUSH2 0x1AF9 JUMP JUMPDEST SWAP3 POP PUSH1 0x0 SWAP2 POP DUP2 SWAP1 POP JUMPDEST SWAP5 POP SWAP5 POP SWAP5 SWAP2 POP POP JUMP JUMPDEST PUSH1 0x0 DUP3 PUSH1 0x3 DUP2 GT ISZERO PUSH2 0x1B17 JUMPI PUSH2 0x1B17 PUSH2 0x2537 JUMP JUMPDEST SUB PUSH2 0x1B20 JUMPI POP POP JUMP JUMPDEST PUSH1 0x1 DUP3 PUSH1 0x3 DUP2 GT ISZERO PUSH2 0x1B34 JUMPI PUSH2 0x1B34 PUSH2 0x2537 JUMP JUMPDEST SUB PUSH2 0x1B52 JUMPI PUSH1 0x40 MLOAD PUSH4 0xF645EEDF PUSH1 0xE0 SHL DUP2 MSTORE PUSH1 0x4 ADD PUSH1 0x40 MLOAD DUP1 SWAP2 SUB SWAP1 REVERT JUMPDEST PUSH1 0x2 DUP3 PUSH1 0x3 DUP2 GT ISZERO PUSH2 0x1B66 JUMPI PUSH2 0x1B66 PUSH2 0x2537 JUMP JUMPDEST SUB PUSH2 0x1B87 JUMPI PUSH1 0x40 MLOAD PUSH4 0xFCE698F7 PUSH1 0xE0 SHL DUP2 MSTORE PUSH1 0x4 DUP2 ADD DUP3 SWAP1 MSTORE PUSH1 0x24 ADD PUSH2 0x865 JUMP JUMPDEST PUSH1 0x3 DUP3 PUSH1 0x3 DUP2 GT ISZERO PUSH2 0x1B9B JUMPI PUSH2 0x1B9B PUSH2 0x2537 JUMP JUMPDEST SUB PUSH2 0x9CB JUMPI PUSH1 0x40 MLOAD PUSH4 0x35E2F383 PUSH1 0xE2 SHL DUP2 MSTORE PUSH1 0x4 DUP2 ADD DUP3 SWAP1 MSTORE PUSH1 0x24 ADD PUSH2 0x865 JUMP JUMPDEST PUSH1 0x40 DUP1 MLOAD DUP1 DUP3 ADD SWAP1 SWAP2 MSTORE PUSH1 0x0 DUP1 DUP3 MSTORE PUSH1 0x20 DUP3 ADD MSTORE DUP3 PUSH1 0x0 ADD DUP3 PUSH4 0xFFFFFFFF AND DUP2 SLOAD DUP2 LT PUSH2 0x1BEB JUMPI PUSH2 0x1BEB PUSH2 0x254D JUMP JUMPDEST PUSH1 0x0 SWAP2 DUP3 MSTORE PUSH1 0x20 SWAP2 DUP3 SWAP1 KECCAK256 PUSH1 0x40 DUP1 MLOAD DUP1 DUP3 ADD SWAP1 SWAP2 MSTORE SWAP2 ADD SLOAD PUSH6 0xFFFFFFFFFFFF DUP2 AND DUP3 MSTORE PUSH1 0x1 PUSH1 0x30 SHL SWAP1 DIV PUSH1 0x1 PUSH1 0x1 PUSH1 0xD0 SHL SUB AND SWAP2 DUP2 ADD SWAP2 SWAP1 SWAP2 MSTORE SWAP4 SWAP3 POP POP POP JUMP JUMPDEST PUSH2 0x1C37 DUP4 DUP4 DUP4 PUSH2 0x1E04 JUMP JUMPDEST PUSH1 0x1 PUSH1 0x1 PUSH1 0xA0 SHL SUB DUP4 AND PUSH2 0x1C88 JUMPI PUSH1 0x0 PUSH2 0x1C50 PUSH1 0x2 SLOAD SWAP1 JUMP JUMPDEST SWAP1 POP PUSH1 0x1 PUSH1 0x1 PUSH1 0xD0 SHL SUB DUP1 DUP3 GT ISZERO PUSH2 0x1C85 JUMPI PUSH1 0x40 MLOAD PUSH4 0xE58AE93 PUSH1 0xE1 SHL DUP2 MSTORE PUSH1 0x4 DUP2 ADD DUP4 SWAP1 MSTORE PUSH1 0x24 DUP2 ADD DUP3 SWAP1 MSTORE PUSH1 0x44 ADD PUSH2 0x865 JUMP JUMPDEST POP POP JUMPDEST PUSH2 0xF66 DUP4 DUP4 DUP4 PUSH2 0x1F2E JUMP JUMPDEST PUSH1 0x0 DUP1 PUSH1 0x80 DUP4 SWAP1 SHR ISZERO PUSH2 0x1CA8 JUMPI PUSH1 0x80 SWAP3 DUP4 SHR SWAP3 ADD JUMPDEST PUSH1 0x40 DUP4 SWAP1 SHR ISZERO PUSH2 0x1CBA JUMPI PUSH1 0x40 SWAP3 DUP4 SHR SWAP3 ADD JUMPDEST PUSH1 0x20 DUP4 SWAP1 SHR ISZERO PUSH2 0x1CCC JUMPI PUSH1 0x20 SWAP3 DUP4 SHR SWAP3 ADD JUMPDEST PUSH1 0x10 DUP4 SWAP1 SHR ISZERO PUSH2 0x1CDE JUMPI PUSH1 0x10 SWAP3 DUP4 SHR SWAP3 ADD JUMPDEST PUSH1 0x8 DUP4 SWAP1 SHR ISZERO PUSH2 0x1CF0 JUMPI PUSH1 0x8 SWAP3 DUP4 SHR SWAP3 ADD JUMPDEST PUSH1 0x4 DUP4 SWAP1 SHR ISZERO PUSH2 0x1D02 JUMPI PUSH1 0x4 SWAP3 DUP4 SHR SWAP3 ADD JUMPDEST PUSH1 0x2 DUP4 SWAP1 SHR ISZERO PUSH2 0x1D14 JUMPI PUSH1 0x2 SWAP3 DUP4 SHR SWAP3 ADD JUMPDEST PUSH1 0x1 DUP4 SWAP1 SHR ISZERO PUSH2 0x7EA JUMPI PUSH1 0x1 ADD SWAP3 SWAP2 POP POP JUMP JUMPDEST PUSH1 0x0 DUP2 DUP4 LT PUSH2 0x1D36 JUMPI DUP2 PUSH2 0xEFC JUMP JUMPDEST POP SWAP1 SWAP2 SWAP1 POP JUMP JUMPDEST PUSH1 0x0 PUSH2 0x1D4C PUSH1 0x2 DUP5 DUP5 XOR PUSH2 0x2563 JUMP JUMPDEST PUSH2 0xEFC SWAP1 DUP5 DUP5 AND PUSH2 0x250E JUMP JUMPDEST PUSH1 0x0 PUSH1 0x1 PUSH1 0x1 PUSH1 0xD0 SHL SUB DUP3 GT ISZERO PUSH2 0x11A6 JUMPI PUSH1 0x40 MLOAD PUSH4 0x6DFCC65 PUSH1 0xE4 SHL DUP2 MSTORE PUSH1 0xD0 PUSH1 0x4 DUP3 ADD MSTORE PUSH1 0x24 DUP2 ADD DUP4 SWAP1 MSTORE PUSH1 0x44 ADD PUSH2 0x865 JUMP JUMPDEST PUSH1 0x0 DUP1 PUSH2 0x1DB8 PUSH2 0x1D9A PUSH2 0xBBA JUMP JUMPDEST PUSH2 0x1DB0 PUSH2 0x1DA6 DUP9 PUSH2 0x142C JUMP JUMPDEST DUP7 DUP9 PUSH4 0xFFFFFFFF AND JUMP JUMPDEST DUP8 SWAP2 SWAP1 PUSH2 0x1FA4 JUMP JUMPDEST SWAP2 POP SWAP2 POP JUMPDEST SWAP4 POP SWAP4 SWAP2 POP POP JUMP JUMPDEST PUSH1 0x60 PUSH1 0x0 PUSH2 0x1DD2 DUP4 PUSH2 0x1FB2 JUMP JUMPDEST PUSH1 0x40 DUP1 MLOAD PUSH1 0x20 DUP1 DUP3 MSTORE DUP2 DUP4 ADD SWAP1 SWAP3 MSTORE SWAP2 SWAP3 POP PUSH1 0x0 SWAP2 SWAP1 PUSH1 0x20 DUP3 ADD DUP2 DUP1 CALLDATASIZE DUP4 CALLDATACOPY POP POP POP SWAP2 DUP3 MSTORE POP PUSH1 0x20 DUP2 ADD SWAP3 SWAP1 SWAP3 MSTORE POP SWAP1 JUMP JUMPDEST PUSH1 0x1 PUSH1 0x1 PUSH1 0xA0 SHL SUB DUP4 AND PUSH2 0x1E2F JUMPI DUP1 PUSH1 0x2 PUSH1 0x0 DUP3 DUP3 SLOAD PUSH2 0x1E24 SWAP2 SWAP1 PUSH2 0x250E JUMP JUMPDEST SWAP1 SWAP2 SSTORE POP PUSH2 0x1EA1 SWAP1 POP JUMP JUMPDEST PUSH1 0x1 PUSH1 0x1 PUSH1 0xA0 SHL SUB DUP4 AND PUSH1 0x0 SWAP1 DUP2 MSTORE PUSH1 0x20 DUP2 SWAP1 MSTORE PUSH1 0x40 SWAP1 KECCAK256 SLOAD DUP2 DUP2 LT ISZERO PUSH2 0x1E82 JUMPI PUSH1 0x40 MLOAD PUSH4 0x391434E3 PUSH1 0xE2 SHL DUP2 MSTORE PUSH1 0x1 PUSH1 0x1 PUSH1 0xA0 SHL SUB DUP6 AND PUSH1 0x4 DUP3 ADD MSTORE PUSH1 0x24 DUP2 ADD DUP3 SWAP1 MSTORE PUSH1 0x44 DUP2 ADD DUP4 SWAP1 MSTORE PUSH1 0x64 ADD PUSH2 0x865 JUMP JUMPDEST PUSH1 0x1 PUSH1 0x1 PUSH1 0xA0 SHL SUB DUP5 AND PUSH1 0x0 SWAP1 DUP2 MSTORE PUSH1 0x20 DUP2 SWAP1 MSTORE PUSH1 0x40 SWAP1 KECCAK256 SWAP1 DUP3 SWAP1 SUB SWAP1 SSTORE JUMPDEST PUSH1 0x1 PUSH1 0x1 PUSH1 0xA0 SHL SUB DUP3 AND PUSH2 0x1EBD JUMPI PUSH1 0x2 DUP1 SLOAD DUP3 SWAP1 SUB SWAP1 SSTORE PUSH2 0x1EDC JUMP JUMPDEST PUSH1 0x1 PUSH1 0x1 PUSH1 0xA0 SHL SUB DUP3 AND PUSH1 0x0 SWAP1 DUP2 MSTORE PUSH1 0x20 DUP2 SWAP1 MSTORE PUSH1 0x40 SWAP1 KECCAK256 DUP1 SLOAD DUP3 ADD SWAP1 SSTORE JUMPDEST DUP2 PUSH1 0x1 PUSH1 0x1 PUSH1 0xA0 SHL SUB AND DUP4 PUSH1 0x1 PUSH1 0x1 PUSH1 0xA0 SHL SUB AND PUSH32 0xDDF252AD1BE2C89B69C2B068FC378DAA952BA7F163C4A11628F55A4DF523B3EF DUP4 PUSH1 0x40 MLOAD PUSH2 0x1F21 SWAP2 DUP2 MSTORE PUSH1 0x20 ADD SWAP1 JUMP JUMPDEST PUSH1 0x40 MLOAD DUP1 SWAP2 SUB SWAP1 LOG3 POP POP POP JUMP JUMPDEST PUSH1 0x1 PUSH1 0x1 PUSH1 0xA0 SHL SUB DUP4 AND PUSH2 0x1F50 JUMPI PUSH2 0x1F4D PUSH1 0xB PUSH2 0xF41 PUSH2 0x184C DUP5 PUSH2 0x1D58 JUMP JUMPDEST POP POP JUMPDEST PUSH1 0x1 PUSH1 0x1 PUSH1 0xA0 SHL SUB DUP3 AND PUSH2 0x1F72 JUMPI PUSH2 0x1F6F PUSH1 0xB PUSH2 0xF4D PUSH2 0x184C DUP5 PUSH2 0x1D58 JUMP JUMPDEST POP POP JUMPDEST PUSH1 0x1 PUSH1 0x1 PUSH1 0xA0 SHL SUB DUP4 DUP2 AND PUSH1 0x0 SWAP1 DUP2 MSTORE PUSH1 0x9 PUSH1 0x20 MSTORE PUSH1 0x40 DUP1 DUP3 KECCAK256 SLOAD DUP6 DUP5 AND DUP4 MSTORE SWAP2 KECCAK256 SLOAD PUSH2 0xF66 SWAP3 SWAP2 DUP3 AND SWAP2 AND DUP4 PUSH2 0x17EC JUMP JUMPDEST PUSH1 0x0 DUP1 PUSH2 0x1DB8 DUP6 DUP6 DUP6 PUSH2 0x1FDA JUMP JUMPDEST PUSH1 0x0 PUSH1 0xFF DUP3 AND PUSH1 0x1F DUP2 GT ISZERO PUSH2 0x7EA JUMPI PUSH1 0x40 MLOAD PUSH4 0x2CD44AC3 PUSH1 0xE2 SHL DUP2 MSTORE PUSH1 0x4 ADD PUSH1 0x40 MLOAD DUP1 SWAP2 SUB SWAP1 REVERT JUMPDEST DUP3 SLOAD PUSH1 0x0 SWAP1 DUP2 SWAP1 DUP1 ISZERO PUSH2 0x20F9 JUMPI PUSH1 0x0 PUSH2 0x1FF8 DUP8 PUSH2 0x122E PUSH1 0x1 DUP6 PUSH2 0x24FB JUMP JUMPDEST PUSH1 0x40 DUP1 MLOAD DUP1 DUP3 ADD SWAP1 SWAP2 MSTORE SWAP1 SLOAD PUSH6 0xFFFFFFFFFFFF DUP1 DUP3 AND DUP1 DUP5 MSTORE PUSH1 0x1 PUSH1 0x30 SHL SWAP1 SWAP3 DIV PUSH1 0x1 PUSH1 0x1 PUSH1 0xD0 SHL SUB AND PUSH1 0x20 DUP5 ADD MSTORE SWAP2 SWAP3 POP SWAP1 DUP8 AND LT ISZERO PUSH2 0x204C JUMPI PUSH1 0x40 MLOAD PUSH4 0x2520601D PUSH1 0xE0 SHL DUP2 MSTORE PUSH1 0x4 ADD PUSH1 0x40 MLOAD DUP1 SWAP2 SUB SWAP1 REVERT JUMPDEST DUP1 MLOAD PUSH6 0xFFFFFFFFFFFF DUP1 DUP9 AND SWAP2 AND SUB PUSH2 0x2098 JUMPI DUP5 PUSH2 0x206F DUP9 PUSH2 0x122E PUSH1 0x1 DUP7 PUSH2 0x24FB JUMP JUMPDEST DUP1 SLOAD PUSH1 0x1 PUSH1 0x1 PUSH1 0xD0 SHL SUB SWAP3 SWAP1 SWAP3 AND PUSH1 0x1 PUSH1 0x30 SHL MUL PUSH6 0xFFFFFFFFFFFF SWAP1 SWAP3 AND SWAP2 SWAP1 SWAP2 OR SWAP1 SSTORE PUSH2 0x20E9 JUMP JUMPDEST PUSH1 0x40 DUP1 MLOAD DUP1 DUP3 ADD SWAP1 SWAP2 MSTORE PUSH6 0xFFFFFFFFFFFF DUP1 DUP9 AND DUP3 MSTORE PUSH1 0x1 PUSH1 0x1 PUSH1 0xD0 SHL SUB DUP1 DUP9 AND PUSH1 0x20 DUP1 DUP6 ADD SWAP2 DUP3 MSTORE DUP12 SLOAD PUSH1 0x1 DUP2 ADD DUP14 SSTORE PUSH1 0x0 DUP14 DUP2 MSTORE SWAP2 SWAP1 SWAP2 KECCAK256 SWAP5 MLOAD SWAP2 MLOAD SWAP1 SWAP3 AND PUSH1 0x1 PUSH1 0x30 SHL MUL SWAP3 AND SWAP2 SWAP1 SWAP2 OR SWAP2 ADD SSTORE JUMPDEST PUSH1 0x20 ADD MLOAD SWAP3 POP DUP4 SWAP2 POP PUSH2 0x1DBD SWAP1 POP JUMP JUMPDEST POP POP PUSH1 0x40 DUP1 MLOAD DUP1 DUP3 ADD SWAP1 SWAP2 MSTORE PUSH6 0xFFFFFFFFFFFF DUP1 DUP6 AND DUP3 MSTORE PUSH1 0x1 PUSH1 0x1 PUSH1 0xD0 SHL SUB DUP1 DUP6 AND PUSH1 0x20 DUP1 DUP6 ADD SWAP2 DUP3 MSTORE DUP9 SLOAD PUSH1 0x1 DUP2 ADD DUP11 SSTORE PUSH1 0x0 DUP11 DUP2 MSTORE SWAP2 DUP3 KECCAK256 SWAP6 MLOAD SWAP3 MLOAD SWAP1 SWAP4 AND PUSH1 0x1 PUSH1 0x30 SHL MUL SWAP2 SWAP1 SWAP4 AND OR SWAP3 ADD SWAP2 SWAP1 SWAP2 SSTORE SWAP1 POP DUP2 PUSH2 0x1DBD JUMP JUMPDEST PUSH1 0x0 DUP2 MLOAD DUP1 DUP5 MSTORE PUSH1 0x0 JUMPDEST DUP2 DUP2 LT ISZERO PUSH2 0x217A JUMPI PUSH1 0x20 DUP2 DUP6 ADD DUP2 ADD MLOAD DUP7 DUP4 ADD DUP3 ADD MSTORE ADD PUSH2 0x215E JUMP JUMPDEST POP PUSH1 0x0 PUSH1 0x20 DUP3 DUP7 ADD ADD MSTORE PUSH1 0x20 PUSH1 0x1F NOT PUSH1 0x1F DUP4 ADD AND DUP6 ADD ADD SWAP2 POP POP SWAP3 SWAP2 POP POP JUMP JUMPDEST PUSH1 0x20 DUP2 MSTORE PUSH1 0x0 PUSH2 0xEFC PUSH1 0x20 DUP4 ADD DUP5 PUSH2 0x2154 JUMP JUMPDEST DUP1 CALLDATALOAD PUSH1 0x1 PUSH1 0x1 PUSH1 0xA0 SHL SUB DUP2 AND DUP2 EQ PUSH2 0x21C4 JUMPI PUSH1 0x0 DUP1 REVERT JUMPDEST SWAP2 SWAP1 POP JUMP JUMPDEST PUSH1 0x0 DUP1 PUSH1 0x40 DUP4 DUP6 SUB SLT ISZERO PUSH2 0x21DC JUMPI PUSH1 0x0 DUP1 REVERT JUMPDEST PUSH2 0x21E5 DUP4 PUSH2 0x21AD JUMP JUMPDEST SWAP5 PUSH1 0x20 SWAP4 SWAP1 SWAP4 ADD CALLDATALOAD SWAP4 POP POP POP JUMP JUMPDEST PUSH1 0x0 DUP1 PUSH1 0x0 PUSH1 0x60 DUP5 DUP7 SUB SLT ISZERO PUSH2 0x2208 JUMPI PUSH1 0x0 DUP1 REVERT JUMPDEST PUSH2 0x2211 DUP5 PUSH2 0x21AD JUMP JUMPDEST SWAP3 POP PUSH2 0x221F PUSH1 0x20 DUP6 ADD PUSH2 0x21AD JUMP JUMPDEST SWAP2 POP PUSH1 0x40 DUP5 ADD CALLDATALOAD SWAP1 POP SWAP3 POP SWAP3 POP SWAP3 JUMP JUMPDEST PUSH1 0x0 PUSH1 0x20 DUP3 DUP5 SUB SLT ISZERO PUSH2 0x2241 JUMPI PUSH1 0x0 DUP1 REVERT JUMPDEST PUSH2 0xEFC DUP3 PUSH2 0x21AD JUMP JUMPDEST PUSH1 0xFF PUSH1 0xF8 SHL DUP9 AND DUP2 MSTORE PUSH1 0x0 PUSH1 0x20 PUSH1 0xE0 PUSH1 0x20 DUP5 ADD MSTORE PUSH2 0x226B PUSH1 0xE0 DUP5 ADD DUP11 PUSH2 0x2154 JUMP JUMPDEST DUP4 DUP2 SUB PUSH1 0x40 DUP6 ADD MSTORE PUSH2 0x227D DUP2 DUP11 PUSH2 0x2154 JUMP JUMPDEST PUSH1 0x60 DUP6 ADD DUP10 SWAP1 MSTORE PUSH1 0x1 PUSH1 0x1 PUSH1 0xA0 SHL SUB DUP9 AND PUSH1 0x80 DUP7 ADD MSTORE PUSH1 0xA0 DUP6 ADD DUP8 SWAP1 MSTORE DUP5 DUP2 SUB PUSH1 0xC0 DUP7 ADD MSTORE DUP6 MLOAD DUP1 DUP3 MSTORE PUSH1 0x20 DUP1 DUP9 ADD SWAP4 POP SWAP1 SWAP2 ADD SWAP1 PUSH1 0x0 JUMPDEST DUP2 DUP2 LT ISZERO PUSH2 0x22D1 JUMPI DUP4 MLOAD DUP4 MSTORE SWAP3 DUP5 ADD SWAP3 SWAP2 DUP5 ADD SWAP2 PUSH1 0x1 ADD PUSH2 0x22B5 JUMP JUMPDEST POP SWAP1 SWAP13 SWAP12 POP POP POP POP POP POP POP POP POP POP POP POP JUMP JUMPDEST PUSH1 0x0 PUSH1 0x20 DUP3 DUP5 SUB SLT ISZERO PUSH2 0x22F5 JUMPI PUSH1 0x0 DUP1 REVERT JUMPDEST POP CALLDATALOAD SWAP2 SWAP1 POP JUMP JUMPDEST DUP1 CALLDATALOAD PUSH1 0xFF DUP2 AND DUP2 EQ PUSH2 0x21C4 JUMPI PUSH1 0x0 DUP1 REVERT JUMPDEST PUSH1 0x0 DUP1 PUSH1 0x0 DUP1 PUSH1 0x0 DUP1 PUSH1 0xC0 DUP8 DUP10 SUB SLT ISZERO PUSH2 0x2326 JUMPI PUSH1 0x0 DUP1 REVERT JUMPDEST PUSH2 0x232F DUP8 PUSH2 0x21AD JUMP JUMPDEST SWAP6 POP PUSH1 0x20 DUP8 ADD CALLDATALOAD SWAP5 POP PUSH1 0x40 DUP8 ADD CALLDATALOAD SWAP4 POP PUSH2 0x234B PUSH1 0x60 DUP9 ADD PUSH2 0x22FC JUMP JUMPDEST SWAP3 POP PUSH1 0x80 DUP8 ADD CALLDATALOAD SWAP2 POP PUSH1 0xA0 DUP8 ADD CALLDATALOAD SWAP1 POP SWAP3 SWAP6 POP SWAP3 SWAP6 POP SWAP3 SWAP6 JUMP JUMPDEST PUSH1 0x0 DUP1 PUSH1 0x0 DUP1 PUSH1 0x0 DUP1 PUSH1 0x0 PUSH1 0xE0 DUP9 DUP11 SUB SLT ISZERO PUSH2 0x2380 JUMPI PUSH1 0x0 DUP1 REVERT JUMPDEST PUSH2 0x2389 DUP9 PUSH2 0x21AD JUMP JUMPDEST SWAP7 POP PUSH2 0x2397 PUSH1 0x20 DUP10 ADD PUSH2 0x21AD JUMP JUMPDEST SWAP6 POP PUSH1 0x40 DUP9 ADD CALLDATALOAD SWAP5 POP PUSH1 0x60 DUP9 ADD CALLDATALOAD SWAP4 POP PUSH2 0x23B3 PUSH1 0x80 DUP10 ADD PUSH2 0x22FC JUMP JUMPDEST SWAP3 POP PUSH1 0xA0 DUP9 ADD CALLDATALOAD SWAP2 POP PUSH1 0xC0 DUP9 ADD CALLDATALOAD SWAP1 POP SWAP3 SWAP6 SWAP9 SWAP2 SWAP5 SWAP8 POP SWAP3 SWAP6 POP JUMP JUMPDEST PUSH1 0x0 DUP1 PUSH1 0x40 DUP4 DUP6 SUB SLT ISZERO PUSH2 0x23E2 JUMPI PUSH1 0x0 DUP1 REVERT JUMPDEST PUSH2 0x23EB DUP4 PUSH2 0x21AD JUMP JUMPDEST SWAP2 POP PUSH2 0x23F9 PUSH1 0x20 DUP5 ADD PUSH2 0x21AD JUMP JUMPDEST SWAP1 POP SWAP3 POP SWAP3 SWAP1 POP JUMP JUMPDEST PUSH1 0x0 DUP1 PUSH1 0x40 DUP4 DUP6 SUB SLT ISZERO PUSH2 0x2415 JUMPI PUSH1 0x0 DUP1 REVERT JUMPDEST PUSH2 0x241E DUP4 PUSH2 0x21AD JUMP JUMPDEST SWAP2 POP PUSH1 0x20 DUP4 ADD CALLDATALOAD PUSH4 0xFFFFFFFF DUP2 AND DUP2 EQ PUSH2 0x2437 JUMPI PUSH1 0x0 DUP1 REVERT JUMPDEST DUP1 SWAP2 POP POP SWAP3 POP SWAP3 SWAP1 POP JUMP JUMPDEST PUSH1 0x1 DUP2 DUP2 SHR SWAP1 DUP3 AND DUP1 PUSH2 0x2456 JUMPI PUSH1 0x7F DUP3 AND SWAP2 POP JUMPDEST PUSH1 0x20 DUP3 LT DUP2 SUB PUSH2 0x2476 JUMPI PUSH4 0x4E487B71 PUSH1 0xE0 SHL PUSH1 0x0 MSTORE PUSH1 0x22 PUSH1 0x4 MSTORE PUSH1 0x24 PUSH1 0x0 REVERT JUMPDEST POP SWAP2 SWAP1 POP JUMP JUMPDEST PUSH1 0x0 PUSH1 0x20 DUP3 DUP5 SUB SLT ISZERO PUSH2 0x248E JUMPI PUSH1 0x0 DUP1 REVERT JUMPDEST DUP2 MLOAD DUP1 ISZERO ISZERO DUP2 EQ PUSH2 0xEFC JUMPI PUSH1 0x0 DUP1 REVERT JUMPDEST PUSH4 0x4E487B71 PUSH1 0xE0 SHL PUSH1 0x0 MSTORE PUSH1 0x11 PUSH1 0x4 MSTORE PUSH1 0x24 PUSH1 0x0 REVERT JUMPDEST PUSH1 0x1 PUSH1 0x1 PUSH1 0xD0 SHL SUB DUP2 DUP2 AND DUP4 DUP3 AND ADD SWAP1 DUP1 DUP3 GT ISZERO PUSH2 0x24D4 JUMPI PUSH2 0x24D4 PUSH2 0x249E JUMP JUMPDEST POP SWAP3 SWAP2 POP POP JUMP JUMPDEST PUSH1 0x1 PUSH1 0x1 PUSH1 0xD0 SHL SUB DUP3 DUP2 AND DUP3 DUP3 AND SUB SWAP1 DUP1 DUP3 GT ISZERO PUSH2 0x24D4 JUMPI PUSH2 0x24D4 PUSH2 0x249E JUMP JUMPDEST DUP2 DUP2 SUB DUP2 DUP2 GT ISZERO PUSH2 0x7EA JUMPI PUSH2 0x7EA PUSH2 0x249E JUMP JUMPDEST DUP1 DUP3 ADD DUP1 DUP3 GT ISZERO PUSH2 0x7EA JUMPI PUSH2 0x7EA PUSH2 0x249E JUMP JUMPDEST PUSH4 0x4E487B71 PUSH1 0xE0 SHL PUSH1 0x0 MSTORE PUSH1 0x12 PUSH1 0x4 MSTORE PUSH1 0x24 PUSH1 0x0 REVERT JUMPDEST PUSH4 0x4E487B71 PUSH1 0xE0 SHL PUSH1 0x0 MSTORE PUSH1 0x21 PUSH1 0x4 MSTORE PUSH1 0x24 PUSH1 0x0 REVERT JUMPDEST PUSH4 0x4E487B71 PUSH1 0xE0 SHL PUSH1 0x0 MSTORE PUSH1 0x32 PUSH1 0x4 MSTORE PUSH1 0x24 PUSH1 0x0 REVERT JUMPDEST PUSH1 0x0 DUP3 PUSH2 0x2580 JUMPI PUSH4 0x4E487B71 PUSH1 0xE0 SHL PUSH1 0x0 MSTORE PUSH1 0x12 PUSH1 0x4 MSTORE PUSH1 0x24 PUSH1 0x0 REVERT JUMPDEST POP DIV SWAP1 JUMP INVALID LOG2 PUSH5 0x6970667358 0x22 SLT KECCAK256 PREVRANDAO PUSH4 0x8A26E445 0xE6 MUL PUSH11 0x9C7BA95F02C2DA16185C51 0xCD GASLIMIT CREATE2 LT 0xD KECCAK256 0xD8 OR 0x2D PUSH4 0x22BD6473 PUSH16 0x6C63430008180033DEC2BACDD2F05B59 0xDE CALLVALUE 0xDA SWAP12 MSTORE RETURNDATASIZE SELFDESTRUCT DUP12 0xE4 0x2E MCOPY CODESIZE 0xE8 XOR 0xC8 0x2F 0xDB SIGNEXTEND 0xAE PUSH24 0x4387A7240000000000000000000000000000000000000000 "},"methodIdentifiers":{"CLOCK_MODE()":"4bf5d7e9","DOMAIN_SEPARATOR()":"3644e515","MAX_SUPPLY()":"32cb6b0c","allowance(address,address)":"dd62ed3e","approve(address,uint256)":"095ea7b3","balanceOf(address)":"70a08231","changePaysec(address)":"b50dfbbe","checkpoints(address,uint32)":"f1127ed8","clock()":"91ddadf4","decimals()":"313ce567","delegate(address)":"5c19a95c","delegateBySig(address,uint256,uint256,uint8,bytes32,bytes32)":"c3cda520","delegates(address)":"587cde1e","eip712Domain()":"84b0196e","getPastTotalSupply(uint256)":"8e539e8c","getPastVotes(address,uint256)":"3a46b1a8","getVotes(address)":"9ab24eb0","mint(address,uint256)":"40c10f19","name()":"06fdde03","nonces(address)":"7ecebe00","numCheckpoints(address)":"6fcfff45","owner()":"8da5cb5b","paysecAddress()":"c36a4c12","permit(address,address,uint256,uint256,uint8,bytes32,bytes32)":"d505accf","renounceOwnership()":"715018a6","rewardsPool()":"0359fea9","setRewardsPool(address)":"7c000293","setVendor(address)":"97d93935","symbol()":"95d89b41","totalSupply()":"18160ddd","transfer(address,uint256)":"a9059cbb","transferFrom(address,address,uint256)":"23b872dd","transferOwnership(address)":"f2fde38b","users(address)":"a87430ba","vendor()":"1385a6f2"}},"storageLayout":{"storage":[{"astId":988,"contract":"contracts/PSC.sol:PSC","label":"_balances","offset":0,"slot":"0","type":"t_mapping(t_address,t_uint256)"},{"astId":994,"contract":"contracts/PSC.sol:PSC","label":"_allowances","offset":0,"slot":"1","type":"t_mapping(t_address,t_mapping(t_address,t_uint256))"},{"astId":996,"contract":"contracts/PSC.sol:PSC","label":"_totalSupply","offset":0,"slot":"2","type":"t_uint256"},{"astId":998,"contract":"contracts/PSC.sol:PSC","label":"_name","offset":0,"slot":"3","type":"t_string_storage"},{"astId":1000,"contract":"contracts/PSC.sol:PSC","label":"_symbol","offset":0,"slot":"4","type":"t_string_storage"},{"astId":8,"contract":"contracts/PSC.sol:PSC","label":"_owner","offset":0,"slot":"5","type":"t_address"},{"astId":2971,"contract":"contracts/PSC.sol:PSC","label":"_nameFallback","offset":0,"slot":"6","type":"t_string_storage"},{"astId":2973,"contract":"contracts/PSC.sol:PSC","label":"_versionFallback","offset":0,"slot":"7","type":"t_string_storage"},{"astId":1950,"contract":"contracts/PSC.sol:PSC","label":"_nonces","offset":0,"slot":"8","type":"t_mapping(t_address,t_uint256)"},{"astId":270,"contract":"contracts/PSC.sol:PSC","label":"_delegatee","offset":0,"slot":"9","type":"t_mapping(t_address,t_address)"},{"astId":275,"contract":"contracts/PSC.sol:PSC","label":"_delegateCheckpoints","offset":0,"slot":"10","type":"t_mapping(t_address,t_struct(Trace208)6683_storage)"},{"astId":278,"contract":"contracts/PSC.sol:PSC","label":"_totalCheckpoints","offset":0,"slot":"11","type":"t_struct(Trace208)6683_storage"},{"astId":8266,"contract":"contracts/PSC.sol:PSC","label":"vendor","offset":0,"slot":"12","type":"t_address"},{"astId":8268,"contract":"contracts/PSC.sol:PSC","label":"rewardsPool","offset":0,"slot":"13","type":"t_address"},{"astId":8270,"contract":"contracts/PSC.sol:PSC","label":"devAddress","offset":0,"slot":"14","type":"t_address"},{"astId":8302,"contract":"contracts/PSC.sol:PSC","label":"users","offset":0,"slot":"15","type":"t_mapping(t_address,t_struct(User)8309_storage)"},{"astId":8304,"contract":"contracts/PSC.sol:PSC","label":"paysecAddress","offset":0,"slot":"16","type":"t_address"}],"types":{"t_address":{"encoding":"inplace","label":"address","numberOfBytes":"20"},"t_array(t_struct(Checkpoint208)6688_storage)dyn_storage":{"base":"t_struct(Checkpoint208)6688_storage","encoding":"dynamic_array","label":"struct Checkpoints.Checkpoint208[]","numberOfBytes":"32"},"t_mapping(t_address,t_address)":{"encoding":"mapping","key":"t_address","label":"mapping(address => address)","numberOfBytes":"32","value":"t_address"},"t_mapping(t_address,t_mapping(t_address,t_uint256))":{"encoding":"mapping","key":"t_address","label":"mapping(address => mapping(address => uint256))","numberOfBytes":"32","value":"t_mapping(t_address,t_uint256)"},"t_mapping(t_address,t_struct(Trace208)6683_storage)":{"encoding":"mapping","key":"t_address","label":"mapping(address => struct Checkpoints.Trace208)","numberOfBytes":"32","value":"t_struct(Trace208)6683_storage"},"t_mapping(t_address,t_struct(User)8309_storage)":{"encoding":"mapping","key":"t_address","label":"mapping(address => struct PSC.User)","numberOfBytes":"32","value":"t_struct(User)8309_storage"},"t_mapping(t_address,t_uint256)":{"encoding":"mapping","key":"t_address","label":"mapping(address => uint256)","numberOfBytes":"32","value":"t_uint256"},"t_string_storage":{"encoding":"bytes","label":"string","numberOfBytes":"32"},"t_struct(Checkpoint208)6688_storage":{"encoding":"inplace","label":"struct Checkpoints.Checkpoint208","members":[{"astId":6685,"contract":"contracts/PSC.sol:PSC","label":"_key","offset":0,"slot":"0","type":"t_uint48"},{"astId":6687,"contract":"contracts/PSC.sol:PSC","label":"_value","offset":6,"slot":"0","type":"t_uint208"}],"numberOfBytes":"32"},"t_struct(Trace208)6683_storage":{"encoding":"inplace","label":"struct Checkpoints.Trace208","members":[{"astId":6682,"contract":"contracts/PSC.sol:PSC","label":"_checkpoints","offset":0,"slot":"0","type":"t_array(t_struct(Checkpoint208)6688_storage)dyn_storage"}],"numberOfBytes":"32"},"t_struct(User)8309_storage":{"encoding":"inplace","label":"struct PSC.User","members":[{"astId":8306,"contract":"contracts/PSC.sol:PSC","label":"dividendPerTokenWithdrawn","offset":0,"slot":"0","type":"t_uint256"},{"astId":8308,"contract":"contracts/PSC.sol:PSC","label":"withdrawalCredit","offset":0,"slot":"1","type":"t_uint256"}],"numberOfBytes":"64"},"t_uint208":{"encoding":"inplace","label":"uint208","numberOfBytes":"26"},"t_uint256":{"encoding":"inplace","label":"uint256","numberOfBytes":"32"},"t_uint48":{"encoding":"inplace","label":"uint48","numberOfBytes":"6"}}}}}}