{"contracts/VestedFunder.sol":{"PSCICO":{"abi":[{"inputs":[{"internalType":"address","name":"_PSC","type":"address"}],"stateMutability":"nonpayable","type":"constructor"},{"inputs":[{"internalType":"address","name":"owner","type":"address"}],"name":"OwnableInvalidOwner","type":"error"},{"inputs":[{"internalType":"address","name":"account","type":"address"}],"name":"OwnableUnauthorizedAccount","type":"error"},{"anonymous":false,"inputs":[{"indexed":true,"internalType":"address","name":"user","type":"address"},{"indexed":false,"internalType":"uint256","name":"amount","type":"uint256"},{"indexed":false,"internalType":"uint256","name":"timestamp","type":"uint256"}],"name":"ETHWithdrawn","type":"event"},{"anonymous":false,"inputs":[{"indexed":true,"internalType":"address","name":"owner","type":"address"},{"indexed":false,"internalType":"uint256","name":"tokenId","type":"uint256"},{"indexed":false,"internalType":"uint256","name":"amount0","type":"uint256"},{"indexed":false,"internalType":"uint256","name":"amount1","type":"uint256"}],"name":"FeesCollected","type":"event"},{"anonymous":false,"inputs":[{"indexed":true,"internalType":"address","name":"endedBy","type":"address"},{"indexed":false,"internalType":"uint256","name":"timestamp","type":"uint256"}],"name":"ICOEnded","type":"event"},{"anonymous":false,"inputs":[{"indexed":true,"internalType":"address","name":"owner","type":"address"},{"indexed":false,"internalType":"uint256","name":"poolPSC","type":"uint256"},{"indexed":false,"internalType":"uint256","name":"timestamp","type":"uint256"}],"name":"ICOLaunched","type":"event"},{"anonymous":false,"inputs":[{"indexed":false,"internalType":"address","name":"pool","type":"address"},{"indexed":false,"internalType":"uint256","name":"timestamp","type":"uint256"}],"name":"LiquidityPoolCreated","type":"event"},{"anonymous":false,"inputs":[{"indexed":false,"internalType":"uint256","name":"tokenId","type":"uint256"},{"indexed":false,"internalType":"uint128","name":"liquidity","type":"uint128"},{"indexed":false,"internalType":"uint256","name":"amount0","type":"uint256"},{"indexed":false,"internalType":"uint256","name":"amount1","type":"uint256"},{"indexed":false,"internalType":"uint256","name":"timestamp","type":"uint256"}],"name":"LiquidityPositionMinted","type":"event"},{"anonymous":false,"inputs":[{"indexed":true,"internalType":"address","name":"previousOwner","type":"address"},{"indexed":true,"internalType":"address","name":"newOwner","type":"address"}],"name":"OwnershipTransferred","type":"event"},{"anonymous":false,"inputs":[{"indexed":true,"internalType":"address","name":"buyer","type":"address"},{"indexed":true,"internalType":"address","name":"referer","type":"address"},{"indexed":false,"internalType":"uint256","name":"ethAmount","type":"uint256"},{"indexed":false,"internalType":"uint256","name":"weightedContribution","type":"uint256"}],"name":"PSCBought","type":"event"},{"anonymous":false,"inputs":[{"indexed":true,"internalType":"address","name":"user","type":"address"},{"indexed":false,"internalType":"uint256","name":"amountWithdrawn","type":"uint256"},{"indexed":false,"internalType":"uint256","name":"timestamp","type":"uint256"}],"name":"PSCWithdrawn","type":"event"},{"anonymous":false,"inputs":[{"indexed":true,"internalType":"address","name":"referer","type":"address"},{"indexed":true,"internalType":"address","name":"addedBy","type":"address"}],"name":"RefererAdded","type":"event"},{"inputs":[{"internalType":"address","name":"referer","type":"address"}],"name":"addReferer","outputs":[],"stateMutability":"nonpayable","type":"function"},{"inputs":[{"internalType":"address","name":"referer","type":"address"}],"name":"buyPSC","outputs":[],"stateMutability":"payable","type":"function"},{"inputs":[{"internalType":"uint256","name":"amount0","type":"uint256"},{"internalType":"uint256","name":"amount1","type":"uint256"}],"name":"calculateSqrtPriceX96","outputs":[{"internalType":"uint160","name":"","type":"uint160"}],"stateMutability":"pure","type":"function"},{"inputs":[],"name":"claimETH","outputs":[],"stateMutability":"nonpayable","type":"function"},{"inputs":[],"name":"claimPSC","outputs":[],"stateMutability":"nonpayable","type":"function"},{"inputs":[{"internalType":"uint256","name":"tokenId","type":"uint256"}],"name":"collectAllFees","outputs":[{"internalType":"uint256","name":"amount0","type":"uint256"},{"internalType":"uint256","name":"amount1","type":"uint256"}],"stateMutability":"nonpayable","type":"function"},{"inputs":[{"internalType":"address","name":"","type":"address"}],"name":"contributors","outputs":[{"internalType":"bool","name":"isReferer","type":"bool"},{"internalType":"uint256","name":"ethReceived","type":"uint256"},{"internalType":"uint256","name":"contribution","type":"uint256"},{"internalType":"uint256","name":"weightedContribution","type":"uint256"},{"internalType":"uint256","name":"pscWithdrawn","type":"uint256"}],"stateMutability":"view","type":"function"},{"inputs":[],"name":"deploymentTime","outputs":[{"internalType":"uint256","name":"","type":"uint256"}],"stateMutability":"view","type":"function"},{"inputs":[],"name":"endICO","outputs":[],"stateMutability":"nonpayable","type":"function"},{"inputs":[],"name":"getMultiplier","outputs":[{"internalType":"uint256","name":"","type":"uint256"}],"stateMutability":"view","type":"function"},{"inputs":[],"name":"getPool","outputs":[{"internalType":"address","name":"","type":"address"}],"stateMutability":"view","type":"function"},{"inputs":[],"name":"goalAmount","outputs":[{"internalType":"uint256","name":"","type":"uint256"}],"stateMutability":"view","type":"function"},{"inputs":[],"name":"isEnded","outputs":[{"internalType":"bool","name":"","type":"bool"}],"stateMutability":"view","type":"function"},{"inputs":[],"name":"launchICO","outputs":[],"stateMutability":"nonpayable","type":"function"},{"inputs":[],"name":"liquidityETH","outputs":[{"internalType":"uint256","name":"","type":"uint256"}],"stateMutability":"view","type":"function"},{"inputs":[],"name":"liquidityPSC","outputs":[{"internalType":"uint256","name":"","type":"uint256"}],"stateMutability":"view","type":"function"},{"inputs":[],"name":"nonfungiblePositionManager","outputs":[{"internalType":"contract INonfungiblePositionManager","name":"","type":"address"}],"stateMutability":"view","type":"function"},{"inputs":[],"name":"owner","outputs":[{"internalType":"address","name":"","type":"address"}],"stateMutability":"view","type":"function"},{"inputs":[],"name":"poolETH","outputs":[{"internalType":"uint256","name":"","type":"uint256"}],"stateMutability":"view","type":"function"},{"inputs":[],"name":"poolPSC","outputs":[{"internalType":"uint256","name":"","type":"uint256"}],"stateMutability":"view","type":"function"},{"inputs":[],"name":"renounceOwnership","outputs":[],"stateMutability":"nonpayable","type":"function"},{"inputs":[],"name":"soldAmount","outputs":[{"internalType":"uint256","name":"","type":"uint256"}],"stateMutability":"view","type":"function"},{"inputs":[],"name":"timeLimit","outputs":[{"internalType":"uint256","name":"","type":"uint256"}],"stateMutability":"view","type":"function"},{"inputs":[{"internalType":"address","name":"newOwner","type":"address"}],"name":"transferOwnership","outputs":[],"stateMutability":"nonpayable","type":"function"},{"inputs":[],"name":"weightedETHRaised","outputs":[{"internalType":"uint256","name":"","type":"uint256"}],"stateMutability":"view","type":"function"},{"stateMutability":"payable","type":"receive"}],"evm":{"bytecode":{"linkReferences":{},"object":"60e060405273c36442b4a4522e871399cd717abdd847ab11fe88608081905260a05273c02aaa39b223fe8d0a0e5c4f27ead9083c756cc260c05262278d0060045560326009556103e8600a5560c8600b55600e805460ff191690556011805461ffff191690553480156200007257600080fd5b50604051620025f2380380620025f28339810160408190526200009591620001b5565b3380620000bc57604051631e4fbdf760e01b81526000600482015260240160405180910390fd5b620000c78162000165565b50600180546001600160a01b039092166001600160a01b0319928316178155426003908155600280549093163390811784556040805160a081018252848152600060208083018281528385018381526060850189815260808601858152978552600f909352949092209251835490151560ff1990911617835590519582019590955590519481019490945591519083015551600490910155620001e7565b600080546001600160a01b038381166001600160a01b0319831681178455604051919092169283917f8be0079c531659141344cd1fd0a4f28419497f9722a3daafe3b4186f6b6457e09190a35050565b600060208284031215620001c857600080fd5b81516001600160a01b0381168114620001e057600080fd5b9392505050565b60805160a05160c05161237962000279600039600081816114070152818161143701528181611541015281816116d301528181611707015281816118d30152611a790152600081816103ee01528181610813015281816115c9015281816117ae0152818161184601526119d8015260008181611ac101528181611bc701528181611c690152611d6f01526123796000f3fe60806040526004361061016a5760003560e01c80638da5cb5b116100d1578063b44a27221161008a578063ecda10f511610064578063ecda10f51461043c578063f2fde38b14610452578063fa1a5f5914610472578063feb952a31461048857600080fd5b8063b44a2722146103dc578063c08d1fe514610410578063e677afcc1461042657600080fd5b80638da5cb5b1461032e578063950970301461034c5780639d4cc0ea14610362578063a000bf4f14610377578063a4fd6f5614610397578063aacff1dd146103bc57600080fd5b8063498914a611610123578063498914a6146102b05780634f248409146102c65780635453f3fa146102db57806367272999146102ee578063715018a614610303578063738703ea1461031857600080fd5b8063026b1d5f146101765780631720b593146101b35780631f6d4942146101ca5780632636b9451461024257806340490a901461026657806346ce96dd1461027b57600080fd5b3661017157005b600080fd5b34801561018257600080fd5b506011546201000090046001600160a01b03165b6040516001600160a01b0390911681526020015b60405180910390f35b3480156101bf57600080fd5b506101c861049e565b005b3480156101d657600080fd5b506102186101e5366004611f3c565b600f602052600090815260409020805460018201546002830154600384015460049094015460ff90931693919290919085565b6040805195151586526020860194909452928401919091526060830152608082015260a0016101aa565b34801561024e57600080fd5b5061025860065481565b6040519081526020016101aa565b34801561027257600080fd5b506102586106e7565b34801561028757600080fd5b5061029b610296366004611f59565b61073a565b604080519283526020830191909152016101aa565b3480156102bc57600080fd5b5061025860055481565b3480156102d257600080fd5b506101c86108cd565b6101c86102e9366004611f3c565b610b09565b3480156102fa57600080fd5b506101c8610dcd565b34801561030f57600080fd5b506101c8610ec7565b34801561032457600080fd5b50610258600d5481565b34801561033a57600080fd5b506000546001600160a01b0316610196565b34801561035857600080fd5b5061025860085481565b34801561036e57600080fd5b506101c8610edb565b34801561038357600080fd5b50610196610392366004611f72565b6111ee565b3480156103a357600080fd5b506103ac611239565b60405190151581526020016101aa565b3480156103c857600080fd5b506101c86103d7366004611f3c565b611252565b3480156103e857600080fd5b506101967f000000000000000000000000000000000000000000000000000000000000000081565b34801561041c57600080fd5b5061025860045481565b34801561043257600080fd5b5061025860075481565b34801561044857600080fd5b5061025860035481565b34801561045e57600080fd5b506101c861046d366004611f3c565b6113b1565b34801561047e57600080fd5b5061025860105481565b34801561049457600080fd5b50610258600c5481565b6000546001600160a01b031633146104fd5760405162461bcd60e51b815260206004820152601960248201527f4f6e6c79206f776e65722063616e206c61756e63682049434f0000000000000060448201526064015b60405180910390fd5b60115460ff16156105475760405162461bcd60e51b81526020600482015260146024820152731250d3c8185b1c9958591e481b185d5b98da195960621b60448201526064016104f4565b6011805460ff19166001908117909155546040805163313ce56760e01b815290516001600160a01b0390921691600091839163313ce567916004808201926020929091908290030181865afa1580156105a4573d6000803e3d6000fd5b505050506040513d601f19601f820116820180604052508101906105c89190611f94565b6105d390600a6120a7565b90506105e3816301c9c3806120b3565b60058190556040516323b872dd60e01b815233600482015230602482015260448101919091526001600160a01b038316906323b872dd906064016020604051808303816000875af115801561063c573d6000803e3d6000fd5b505050506040513d601f19601f8201168201806040525081019061066091906120ca565b6106a55760405162461bcd60e51b8152602060048201526016602482015275151c985b9cd9995c881d1bc81250d3c819985a5b195960521b60448201526064016104f4565b6005546040805191825242602083015233917f682c5186130f86e9f84f109bccf334a7b72843485c4abd72e2295b8e8d69705d91015b60405180910390a25050565b600080600354426106f891906120ec565b90506000600454826103e861070d91906120b3565b6107179190612115565b610723906107d06120ec565b90506103e881101561073457506103e85b92915050565b60008061074f6000546001600160a01b031690565b6001600160a01b0316336001600160a01b0316146107af5760405162461bcd60e51b815260206004820152601b60248201527f4f6e6c79206f776e65722063616e20636f6c6c6563742066656573000000000060448201526064016104f4565b6040805160808101825284815233602082019081526001600160801b0382840181815260608401828152945163fc6f786560e01b81528451600482015292516001600160a01b039081166024850152905182166044840152935116606482015290917f0000000000000000000000000000000000000000000000000000000000000000169063fc6f78659060840160408051808303816000875af115801561085b573d6000803e3d6000fd5b505050506040513d601f19601f8201168201806040525081019061087f9190612129565b6040805187815260208101849052908101829052919450925033907facf5781f729863816d01e6d77635b13f2998b176b9a3550306ac6363f601bc2b9060600160405180910390a250915091565b60115460ff166109125760405162461bcd60e51b815260206004820152601060248201526f1250d3c81b9bdd081b185d5b98da195960821b60448201526064016104f4565b61091a611239565b6109365760405162461bcd60e51b81526004016104f49061214d565b601154610100900460ff16156109825760405162461bcd60e51b81526020600482015260116024820152701250d3c8185b1c9958591e48195b991959607a1b60448201526064016104f4565b6011805461ff0019166101001790556001546001600160a01b03166109a56113ef565b506109ae6116b9565b50505050806001600160a01b03166397d93935826001600160a01b0316638da5cb5b6040518163ffffffff1660e01b8152600401602060405180830381865afa1580156109ff573d6000803e3d6000fd5b505050506040513d601f19601f82011682018060405250810190610a23919061217a565b6040516001600160e01b031960e084901b1681526001600160a01b039091166004820152602401600060405180830381600087803b158015610a6457600080fd5b505af1158015610a78573d6000803e3d6000fd5b505050506000600a54600b54600c54610a9191906120b3565b610a9b9190612115565b6002546040519192506001600160a01b03169082156108fc029083906000818181858888f19350505050158015610ad6573d6000803e3d6000fd5b5060405142815233907faf7ceceb1d24b8d84e8a3ddb34e1e634558983a6785f43817275dee72ad0f70c906020016106db565b60115460ff16610b4e5760405162461bcd60e51b815260206004820152601060248201526f1250d3c81b9bdd081b185d5b98da195960821b60448201526064016104f4565b60003411610b9e5760405162461bcd60e51b815260206004820152601c60248201527f56616c7565206d7573742062652067726561746572207468616e20300000000060448201526064016104f4565b610ba6611239565b15610be25760405162461bcd60e51b815260206004820152600c60248201526b1250d3c81a5cc8195b99195960a21b60448201526064016104f4565b6001600160a01b03811615610c57576001600160a01b0381166000908152600f602052604090205460ff161515600114610c525760405162461bcd60e51b8152602060048201526011602482015270149959995c995c881b9bdd08199bdd5b99607a1b60448201526064016104f4565b610c65565b506002546001600160a01b03165b6000610c6f6106e7565b336000908152600f6020526040812060020180549293503492909190610c96908490612197565b9091555050600a54600090610cab83346120b3565b610cb59190612115565b336000908152600f6020526040812060030180549293508392909190610cdc908490612197565b9091555050600a54600954610cf190346120b3565b610cfb9190612115565b6001600160a01b0384166000908152600f602052604081206001018054909190610d26908490612197565b9250508190555034600c6000828254610d3f9190612197565b9091555050600a54610d5183346120b3565b610d5b9190612115565b600d6000828254610d6c9190612197565b9091555050336000818152600f6020908152604091829020600301548251348152918201526001600160a01b03861692917fc7bcd4498f0589428c9288505f6d25be813429ec3ff8277e1741318a7d28fd92910160405180910390a3505050565b336000908152600f6020526040902060010154610e1e5760405162461bcd60e51b815260206004820152600f60248201526e4e6f2045544820746f20636c61696d60881b60448201526064016104f4565b601154610100900460ff16610e455760405162461bcd60e51b81526004016104f49061214d565b336000818152600f6020526040808220600101805490839055905190929183156108fc02918491818181858888f19350505050158015610e89573d6000803e3d6000fd5b506040805182815242602082015233917fd3605746397fcbe273096353855da8c40c332aa45d2d97a5e19130a238e9e3bc910160405180910390a250565b610ecf611e51565b610ed96000611e7e565b565b336000908152600f6020526040902060020154610f2c5760405162461bcd60e51b815260206004820152600f60248201526e4e6f2050534320746f20636c61696d60881b60448201526064016104f4565b601154610100900460ff16610f535760405162461bcd60e51b81526004016104f49061214d565b336000908152600f602052604081206002810154600a546003909201549091610f7b916120b3565b610f859190612115565b90506000600a5482600454610f9a91906120b3565b610fa49190612115565b90508060035442610fb591906120ec565b11610ffa5760405162461bcd60e51b815260206004820152601560248201527421b634b333103832b934b7b2103737ba1037bb32b960591b60448201526064016104f4565b600154600d54336000908152600f60205260408120600301546005546001600160a01b039094169391929161102f91906120b3565b6110399190612115565b336000908152600f6020526040902060040154909150811161109d5760405162461bcd60e51b815260206004820152601760248201527f416c726561647920636c61696d656420616c6c2050534300000000000000000060448201526064016104f4565b6000836003546110ad9190612197565b6110b790426120ec565b90506000600a54866004546110cc91906120b3565b6110d69190612115565b9050808211156110e4578091505b6000816110f184866120b3565b6110fb9190612115565b336000908152600f602052604081206004015491925061111b82846120ec565b336000818152600f6020526040908190206004908101879055905163a9059cbb60e01b815290810191909152602481018290529091506001600160a01b0388169063a9059cbb906044016020604051808303816000875af1158015611184573d6000803e3d6000fd5b505050506040513d601f19601f820116820180604052508101906111a891906120ca565b506040805182815242602082015233917f94f984ebd5c936a60642af6e2dc9843a51cdd10a75e94743020b41ae5cefebed910160405180910390a2505050505050505050565b6000633b9aca0061121a8461120b85670de0b6b3a76400006120b3565b6112159190612115565b611ece565b61122890600160601b6120b3565b6112329190612115565b9392505050565b600060045460035461124b9190612197565b4211905090565b6002546001600160a01b031633146112ac5760405162461bcd60e51b815260206004820152601860248201527f4f6e6c79206465762063616e206164642072656665726572000000000000000060448201526064016104f4565b6001600160a01b0381166113025760405162461bcd60e51b815260206004820152601b60248201527f526566657265722063616e6e6f7420626520302061646472657373000000000060448201526064016104f4565b6001600160a01b0381166000908152600f602052604090205460ff16156113635760405162461bcd60e51b8152602060048201526015602482015274149959995c995c88185b1c9958591e481859191959605a1b60448201526064016104f4565b6001600160a01b0381166000818152600f6020526040808220805460ff19166001179055513392917f3614112c726085bae6239dd3b2a720c351c7e51beac5058535e2475aa78f8e7c91a350565b6113b9611e51565b6001600160a01b0381166113e357604051631e4fbdf760e01b8152600060048201526024016104f4565b6113ec81611e7e565b50565b600154600090610bb8906001600160a01b03908116907f00000000000000000000000000000000000000000000000000000000000000009081168211156114615750506001547f0000000000000000000000000000000000000000000000000000000000000000906001600160a01b03165b600a54600954600b5461147490836120ec565b61147e91906120ec565b61148890476120b3565b6114929190612115565b6008819055600d5460055490916114a8916120b3565b6114b29190612115565b60078190556001546040516340c10f1960e01b815230600482015260248101929092526001600160a01b03169081906340c10f19906044016020604051808303816000875af1158015611509573d6000803e3d6000fd5b505050506040513d601f19601f8201168201806040525081019061152d9190611f94565b506001546000906001600160a01b039081167f0000000000000000000000000000000000000000000000000000000000000000909116101561157e576115776008546007546111ee565b905061158f565b61158c6007546008546111ee565b90505b6040516309f56ab160e11b81526001600160a01b038581166004830152848116602483015262ffffff8716604483015282811660648301527f000000000000000000000000000000000000000000000000000000000000000016906313ead562906084016020604051808303816000875af1158015611612573d6000803e3d6000fd5b505050506040513d601f19601f82011682018060405250810190611636919061217a565b6011805462010000600160b01b031916620100006001600160a01b0393841681029190911791829055604080519190920490921682524260208301527f7d8a82854e233f0a9eebcf831c1c7165d0a24090f0abfefe183e60aa8d23e6e7910160405180910390a150506011546201000090046001600160a01b0316949350505050565b6001546000908190819081906001600160a01b03908116907f0000000000000000000000000000000000000000000000000000000000000000908290829081168211156117315750506001547f0000000000000000000000000000000000000000000000000000000000000000906001600160a01b03165b6000610bb890506000600754905060006008549050856001600160a01b031663d0e30db0826040518263ffffffff1660e01b81526004016000604051808303818588803b15801561178157600080fd5b505af1158015611795573d6000803e3d6000fd5b505060405163095ea7b360e01b81526001600160a01b037f000000000000000000000000000000000000000000000000000000000000000081166004830152602482018790528b16935063095ea7b3925060440190506020604051808303816000875af115801561180a573d6000803e3d6000fd5b505050506040513d601f19601f8201168201806040525081019061182e91906120ca565b5060405163095ea7b360e01b81526001600160a01b037f0000000000000000000000000000000000000000000000000000000000000000811660048301526024820183905287169063095ea7b3906044016020604051808303816000875af115801561189e573d6000803e3d6000fd5b505050506040513d601f19601f820116820180604052508101906118c291906120ca565b506001546001600160a01b039081167f00000000000000000000000000000000000000000000000000000000000000009091161015611902576007549091505b6000604051806101600160405280876001600160a01b03168152602001866001600160a01b031681526020018562ffffff16815260200160328661194691906121aa565b611952620d89e86121cc565b61195c91906121ee565b611968620d89e86121cc565b6119729190612210565b60020b81526020016119856032876121aa565b61199290620d89e86121ee565b61199f90620d89e8612210565b60020b81526020018481526020018381526020016000815260200160008152602001306001600160a01b031681526020014281525090507f00000000000000000000000000000000000000000000000000000000000000006001600160a01b03166388316456826040518263ffffffff1660e01b8152600401611a229190612235565b6080604051808303816000875af1158015611a41573d6000803e3d6000fd5b505050506040513d601f19601f82011682018060405250810190611a6591906122f9565b929e50909c509a5098506001600160a01b037f0000000000000000000000000000000000000000000000000000000000000000811690861603611c4a5781891015611ba85760405163095ea7b360e01b81526001600160a01b037f0000000000000000000000000000000000000000000000000000000000000000811660048301526000602483015288169063095ea7b3906044016020604051808303816000875af1158015611b19573d6000803e3d6000fd5b505050506040513d601f19601f82011682018060405250810190611b3d91906120ca565b506001600160a01b038716632e1a7d4d611b578b856120ec565b6040518263ffffffff1660e01b8152600401611b7591815260200190565b600060405180830381600087803b158015611b8f57600080fd5b505af1158015611ba3573d6000803e3d6000fd5b505050505b828a1015611c455760405163095ea7b360e01b81526001600160a01b037f0000000000000000000000000000000000000000000000000000000000000000811660048301526000602483015289169063095ea7b3906044016020604051808303816000875af1158015611c1f573d6000803e3d6000fd5b505050506040513d601f19601f82011682018060405250810190611c4391906120ca565b505b611ded565b828a1015611d505760405163095ea7b360e01b81526001600160a01b037f0000000000000000000000000000000000000000000000000000000000000000811660048301526000602483015288169063095ea7b3906044016020604051808303816000875af1158015611cc1573d6000803e3d6000fd5b505050506040513d601f19601f82011682018060405250810190611ce591906120ca565b506001600160a01b038716632e1a7d4d611cff8c866120ec565b6040518263ffffffff1660e01b8152600401611d1d91815260200190565b600060405180830381600087803b158015611d3757600080fd5b505af1158015611d4b573d6000803e3d6000fd5b505050505b81891015611ded5760405163095ea7b360e01b81526001600160a01b037f0000000000000000000000000000000000000000000000000000000000000000811660048301526000602483015289169063095ea7b3906044016020604051808303816000875af1158015611dc7573d6000803e3d6000fd5b505050506040513d601f19601f82011682018060405250810190611deb91906120ca565b505b604080518d81526001600160801b038d1660208201529081018b9052606081018a90524260808201527f1937c4a40ba1176b66fd7fc569286057a049d1f0b5e423b0fa1ac7537751140c9060a00160405180910390a1505050505050505090919293565b6000546001600160a01b03163314610ed95760405163118cdaa760e01b81523360048201526024016104f4565b600080546001600160a01b038381166001600160a01b0319831681178455604051919092169283917f8be0079c531659141344cd1fd0a4f28419497f9722a3daafe3b4186f6b6457e09190a35050565b6000806002611ede846001612197565b611ee89190612115565b90508291505b81811015611f2157905080600281611f068186612115565b611f109190612197565b611f1a9190612115565b9050611eee565b50919050565b6001600160a01b03811681146113ec57600080fd5b600060208284031215611f4e57600080fd5b813561123281611f27565b600060208284031215611f6b57600080fd5b5035919050565b60008060408385031215611f8557600080fd5b50508035926020909101359150565b600060208284031215611fa657600080fd5b5051919050565b634e487b7160e01b600052601160045260246000fd5b600181815b80851115611ffe578160001904821115611fe457611fe4611fad565b80851615611ff157918102915b93841c9390800290611fc8565b509250929050565b60008261201557506001610734565b8161202257506000610734565b816001811461203857600281146120425761205e565b6001915050610734565b60ff84111561205357612053611fad565b50506001821b610734565b5060208310610133831016604e8410600b8410161715612081575081810a610734565b61208b8383611fc3565b806000190482111561209f5761209f611fad565b029392505050565b60006112328383612006565b808202811582820484141761073457610734611fad565b6000602082840312156120dc57600080fd5b8151801515811461123257600080fd5b8181038181111561073457610734611fad565b634e487b7160e01b600052601260045260246000fd5b600082612124576121246120ff565b500490565b6000806040838503121561213c57600080fd5b505080516020909101519092909150565b60208082526013908201527249434f206973207374696c6c2061637469766560681b604082015260600190565b60006020828403121561218c57600080fd5b815161123281611f27565b8082018082111561073457610734611fad565b600062ffffff808416806121c0576121c06120ff565b92169190910492915050565b60008160020b627fffff1981036121e5576121e5611fad565b60000392915050565b60008260020b80612201576122016120ff565b808360020b0791505092915050565b600282810b9082900b03627fffff198112627fffff8213171561073457610734611fad565b81516001600160a01b031681526101608101602083015161226160208401826001600160a01b03169052565b506040830151612278604084018262ffffff169052565b50606083015161228d606084018260020b9052565b5060808301516122a2608084018260020b9052565b5060a083015160a083015260c083015160c083015260e083015160e0830152610100808401518184015250610120808401516122e8828501826001600160a01b03169052565b505061014092830151919092015290565b6000806000806080858703121561230f57600080fd5b8451935060208501516001600160801b038116811461232d57600080fd5b604086015160609096015194979096509250505056fea264697066735822122074f3ffcacef5e33b067445f5321190b1434b90967d131eae22e76408a059676a64736f6c63430008180033","opcodes":"PUSH1 0xE0 PUSH1 0x40 MSTORE PUSH20 0xC36442B4A4522E871399CD717ABDD847AB11FE88 PUSH1 0x80 DUP2 SWAP1 MSTORE PUSH1 0xA0 MSTORE PUSH20 0xC02AAA39B223FE8D0A0E5C4F27EAD9083C756CC2 PUSH1 0xC0 MSTORE PUSH3 0x278D00 PUSH1 0x4 SSTORE PUSH1 0x32 PUSH1 0x9 SSTORE PUSH2 0x3E8 PUSH1 0xA SSTORE PUSH1 0xC8 PUSH1 0xB SSTORE PUSH1 0xE DUP1 SLOAD PUSH1 0xFF NOT AND SWAP1 SSTORE PUSH1 0x11 DUP1 SLOAD PUSH2 0xFFFF NOT AND SWAP1 SSTORE CALLVALUE DUP1 ISZERO PUSH3 0x72 JUMPI PUSH1 0x0 DUP1 REVERT JUMPDEST POP PUSH1 0x40 MLOAD PUSH3 0x25F2 CODESIZE SUB DUP1 PUSH3 0x25F2 DUP4 CODECOPY DUP2 ADD PUSH1 0x40 DUP2 SWAP1 MSTORE PUSH3 0x95 SWAP2 PUSH3 0x1B5 JUMP JUMPDEST CALLER DUP1 PUSH3 0xBC JUMPI PUSH1 0x40 MLOAD PUSH4 0x1E4FBDF7 PUSH1 0xE0 SHL DUP2 MSTORE PUSH1 0x0 PUSH1 0x4 DUP3 ADD MSTORE PUSH1 0x24 ADD PUSH1 0x40 MLOAD DUP1 SWAP2 SUB SWAP1 REVERT JUMPDEST PUSH3 0xC7 DUP2 PUSH3 0x165 JUMP JUMPDEST POP PUSH1 0x1 DUP1 SLOAD PUSH1 0x1 PUSH1 0x1 PUSH1 0xA0 SHL SUB SWAP1 SWAP3 AND PUSH1 0x1 PUSH1 0x1 PUSH1 0xA0 SHL SUB NOT SWAP3 DUP4 AND OR DUP2 SSTORE TIMESTAMP PUSH1 0x3 SWAP1 DUP2 SSTORE PUSH1 0x2 DUP1 SLOAD SWAP1 SWAP4 AND CALLER SWAP1 DUP2 OR DUP5 SSTORE PUSH1 0x40 DUP1 MLOAD PUSH1 0xA0 DUP2 ADD DUP3 MSTORE DUP5 DUP2 MSTORE PUSH1 0x0 PUSH1 0x20 DUP1 DUP4 ADD DUP3 DUP2 MSTORE DUP4 DUP6 ADD DUP4 DUP2 MSTORE PUSH1 0x60 DUP6 ADD DUP10 DUP2 MSTORE PUSH1 0x80 DUP7 ADD DUP6 DUP2 MSTORE SWAP8 DUP6 MSTORE PUSH1 0xF SWAP1 SWAP4 MSTORE SWAP5 SWAP1 SWAP3 KECCAK256 SWAP3 MLOAD DUP4 SLOAD SWAP1 ISZERO ISZERO PUSH1 0xFF NOT SWAP1 SWAP2 AND OR DUP4 SSTORE SWAP1 MLOAD SWAP6 DUP3 ADD SWAP6 SWAP1 SWAP6 SSTORE SWAP1 MLOAD SWAP5 DUP2 ADD SWAP5 SWAP1 SWAP5 SSTORE SWAP2 MLOAD SWAP1 DUP4 ADD SSTORE MLOAD PUSH1 0x4 SWAP1 SWAP2 ADD SSTORE PUSH3 0x1E7 JUMP JUMPDEST PUSH1 0x0 DUP1 SLOAD PUSH1 0x1 PUSH1 0x1 PUSH1 0xA0 SHL SUB DUP4 DUP2 AND PUSH1 0x1 PUSH1 0x1 PUSH1 0xA0 SHL SUB NOT DUP4 AND DUP2 OR DUP5 SSTORE PUSH1 0x40 MLOAD SWAP2 SWAP1 SWAP3 AND SWAP3 DUP4 SWAP2 PUSH32 0x8BE0079C531659141344CD1FD0A4F28419497F9722A3DAAFE3B4186F6B6457E0 SWAP2 SWAP1 LOG3 POP POP JUMP JUMPDEST PUSH1 0x0 PUSH1 0x20 DUP3 DUP5 SUB SLT ISZERO PUSH3 0x1C8 JUMPI PUSH1 0x0 DUP1 REVERT JUMPDEST DUP2 MLOAD PUSH1 0x1 PUSH1 0x1 PUSH1 0xA0 SHL SUB DUP2 AND DUP2 EQ PUSH3 0x1E0 JUMPI PUSH1 0x0 DUP1 REVERT JUMPDEST SWAP4 SWAP3 POP POP POP JUMP JUMPDEST PUSH1 0x80 MLOAD PUSH1 0xA0 MLOAD PUSH1 0xC0 MLOAD PUSH2 0x2379 PUSH3 0x279 PUSH1 0x0 CODECOPY PUSH1 0x0 DUP2 DUP2 PUSH2 0x1407 ADD MSTORE DUP2 DUP2 PUSH2 0x1437 ADD MSTORE DUP2 DUP2 PUSH2 0x1541 ADD MSTORE DUP2 DUP2 PUSH2 0x16D3 ADD MSTORE DUP2 DUP2 PUSH2 0x1707 ADD MSTORE DUP2 DUP2 PUSH2 0x18D3 ADD MSTORE PUSH2 0x1A79 ADD MSTORE PUSH1 0x0 DUP2 DUP2 PUSH2 0x3EE ADD MSTORE DUP2 DUP2 PUSH2 0x813 ADD MSTORE DUP2 DUP2 PUSH2 0x15C9 ADD MSTORE DUP2 DUP2 PUSH2 0x17AE ADD MSTORE DUP2 DUP2 PUSH2 0x1846 ADD MSTORE PUSH2 0x19D8 ADD MSTORE PUSH1 0x0 DUP2 DUP2 PUSH2 0x1AC1 ADD MSTORE DUP2 DUP2 PUSH2 0x1BC7 ADD MSTORE DUP2 DUP2 PUSH2 0x1C69 ADD MSTORE PUSH2 0x1D6F ADD MSTORE PUSH2 0x2379 PUSH1 0x0 RETURN INVALID PUSH1 0x80 PUSH1 0x40 MSTORE PUSH1 0x4 CALLDATASIZE LT PUSH2 0x16A JUMPI PUSH1 0x0 CALLDATALOAD PUSH1 0xE0 SHR DUP1 PUSH4 0x8DA5CB5B GT PUSH2 0xD1 JUMPI DUP1 PUSH4 0xB44A2722 GT PUSH2 0x8A JUMPI DUP1 PUSH4 0xECDA10F5 GT PUSH2 0x64 JUMPI DUP1 PUSH4 0xECDA10F5 EQ PUSH2 0x43C JUMPI DUP1 PUSH4 0xF2FDE38B EQ PUSH2 0x452 JUMPI DUP1 PUSH4 0xFA1A5F59 EQ PUSH2 0x472 JUMPI DUP1 PUSH4 0xFEB952A3 EQ PUSH2 0x488 JUMPI PUSH1 0x0 DUP1 REVERT JUMPDEST DUP1 PUSH4 0xB44A2722 EQ PUSH2 0x3DC JUMPI DUP1 PUSH4 0xC08D1FE5 EQ PUSH2 0x410 JUMPI DUP1 PUSH4 0xE677AFCC EQ PUSH2 0x426 JUMPI PUSH1 0x0 DUP1 REVERT JUMPDEST DUP1 PUSH4 0x8DA5CB5B EQ PUSH2 0x32E JUMPI DUP1 PUSH4 0x95097030 EQ PUSH2 0x34C JUMPI DUP1 PUSH4 0x9D4CC0EA EQ PUSH2 0x362 JUMPI DUP1 PUSH4 0xA000BF4F EQ PUSH2 0x377 JUMPI DUP1 PUSH4 0xA4FD6F56 EQ PUSH2 0x397 JUMPI DUP1 PUSH4 0xAACFF1DD EQ PUSH2 0x3BC JUMPI PUSH1 0x0 DUP1 REVERT JUMPDEST DUP1 PUSH4 0x498914A6 GT PUSH2 0x123 JUMPI DUP1 PUSH4 0x498914A6 EQ PUSH2 0x2B0 JUMPI DUP1 PUSH4 0x4F248409 EQ PUSH2 0x2C6 JUMPI DUP1 PUSH4 0x5453F3FA EQ PUSH2 0x2DB JUMPI DUP1 PUSH4 0x67272999 EQ PUSH2 0x2EE JUMPI DUP1 PUSH4 0x715018A6 EQ PUSH2 0x303 JUMPI DUP1 PUSH4 0x738703EA EQ PUSH2 0x318 JUMPI PUSH1 0x0 DUP1 REVERT JUMPDEST DUP1 PUSH4 0x26B1D5F EQ PUSH2 0x176 JUMPI DUP1 PUSH4 0x1720B593 EQ PUSH2 0x1B3 JUMPI DUP1 PUSH4 0x1F6D4942 EQ PUSH2 0x1CA JUMPI DUP1 PUSH4 0x2636B945 EQ PUSH2 0x242 JUMPI DUP1 PUSH4 0x40490A90 EQ PUSH2 0x266 JUMPI DUP1 PUSH4 0x46CE96DD EQ PUSH2 0x27B JUMPI PUSH1 0x0 DUP1 REVERT JUMPDEST CALLDATASIZE PUSH2 0x171 JUMPI STOP JUMPDEST PUSH1 0x0 DUP1 REVERT JUMPDEST CALLVALUE DUP1 ISZERO PUSH2 0x182 JUMPI PUSH1 0x0 DUP1 REVERT JUMPDEST POP PUSH1 0x11 SLOAD PUSH3 0x10000 SWAP1 DIV PUSH1 0x1 PUSH1 0x1 PUSH1 0xA0 SHL SUB AND JUMPDEST PUSH1 0x40 MLOAD PUSH1 0x1 PUSH1 0x1 PUSH1 0xA0 SHL SUB SWAP1 SWAP2 AND DUP2 MSTORE PUSH1 0x20 ADD JUMPDEST PUSH1 0x40 MLOAD DUP1 SWAP2 SUB SWAP1 RETURN JUMPDEST CALLVALUE DUP1 ISZERO PUSH2 0x1BF JUMPI PUSH1 0x0 DUP1 REVERT JUMPDEST POP PUSH2 0x1C8 PUSH2 0x49E JUMP JUMPDEST STOP JUMPDEST CALLVALUE DUP1 ISZERO PUSH2 0x1D6 JUMPI PUSH1 0x0 DUP1 REVERT JUMPDEST POP PUSH2 0x218 PUSH2 0x1E5 CALLDATASIZE PUSH1 0x4 PUSH2 0x1F3C JUMP JUMPDEST PUSH1 0xF PUSH1 0x20 MSTORE PUSH1 0x0 SWAP1 DUP2 MSTORE PUSH1 0x40 SWAP1 KECCAK256 DUP1 SLOAD PUSH1 0x1 DUP3 ADD SLOAD PUSH1 0x2 DUP4 ADD SLOAD PUSH1 0x3 DUP5 ADD SLOAD PUSH1 0x4 SWAP1 SWAP5 ADD SLOAD PUSH1 0xFF SWAP1 SWAP4 AND SWAP4 SWAP2 SWAP3 SWAP1 SWAP2 SWAP1 DUP6 JUMP JUMPDEST PUSH1 0x40 DUP1 MLOAD SWAP6 ISZERO ISZERO DUP7 MSTORE PUSH1 0x20 DUP7 ADD SWAP5 SWAP1 SWAP5 MSTORE SWAP3 DUP5 ADD SWAP2 SWAP1 SWAP2 MSTORE PUSH1 0x60 DUP4 ADD MSTORE PUSH1 0x80 DUP3 ADD MSTORE PUSH1 0xA0 ADD PUSH2 0x1AA JUMP JUMPDEST CALLVALUE DUP1 ISZERO PUSH2 0x24E JUMPI PUSH1 0x0 DUP1 REVERT JUMPDEST POP PUSH2 0x258 PUSH1 0x6 SLOAD DUP2 JUMP JUMPDEST PUSH1 0x40 MLOAD SWAP1 DUP2 MSTORE PUSH1 0x20 ADD PUSH2 0x1AA JUMP JUMPDEST CALLVALUE DUP1 ISZERO PUSH2 0x272 JUMPI PUSH1 0x0 DUP1 REVERT JUMPDEST POP PUSH2 0x258 PUSH2 0x6E7 JUMP JUMPDEST CALLVALUE DUP1 ISZERO PUSH2 0x287 JUMPI PUSH1 0x0 DUP1 REVERT JUMPDEST POP PUSH2 0x29B PUSH2 0x296 CALLDATASIZE PUSH1 0x4 PUSH2 0x1F59 JUMP JUMPDEST PUSH2 0x73A JUMP JUMPDEST PUSH1 0x40 DUP1 MLOAD SWAP3 DUP4 MSTORE PUSH1 0x20 DUP4 ADD SWAP2 SWAP1 SWAP2 MSTORE ADD PUSH2 0x1AA JUMP JUMPDEST CALLVALUE DUP1 ISZERO PUSH2 0x2BC JUMPI PUSH1 0x0 DUP1 REVERT JUMPDEST POP PUSH2 0x258 PUSH1 0x5 SLOAD DUP2 JUMP JUMPDEST CALLVALUE DUP1 ISZERO PUSH2 0x2D2 JUMPI PUSH1 0x0 DUP1 REVERT JUMPDEST POP PUSH2 0x1C8 PUSH2 0x8CD JUMP JUMPDEST PUSH2 0x1C8 PUSH2 0x2E9 CALLDATASIZE PUSH1 0x4 PUSH2 0x1F3C JUMP JUMPDEST PUSH2 0xB09 JUMP JUMPDEST CALLVALUE DUP1 ISZERO PUSH2 0x2FA JUMPI PUSH1 0x0 DUP1 REVERT JUMPDEST POP PUSH2 0x1C8 PUSH2 0xDCD JUMP JUMPDEST CALLVALUE DUP1 ISZERO PUSH2 0x30F JUMPI PUSH1 0x0 DUP1 REVERT JUMPDEST POP PUSH2 0x1C8 PUSH2 0xEC7 JUMP JUMPDEST CALLVALUE DUP1 ISZERO PUSH2 0x324 JUMPI PUSH1 0x0 DUP1 REVERT JUMPDEST POP PUSH2 0x258 PUSH1 0xD SLOAD DUP2 JUMP JUMPDEST CALLVALUE DUP1 ISZERO PUSH2 0x33A JUMPI PUSH1 0x0 DUP1 REVERT JUMPDEST POP PUSH1 0x0 SLOAD PUSH1 0x1 PUSH1 0x1 PUSH1 0xA0 SHL SUB AND PUSH2 0x196 JUMP JUMPDEST CALLVALUE DUP1 ISZERO PUSH2 0x358 JUMPI PUSH1 0x0 DUP1 REVERT JUMPDEST POP PUSH2 0x258 PUSH1 0x8 SLOAD DUP2 JUMP JUMPDEST CALLVALUE DUP1 ISZERO PUSH2 0x36E JUMPI PUSH1 0x0 DUP1 REVERT JUMPDEST POP PUSH2 0x1C8 PUSH2 0xEDB JUMP JUMPDEST CALLVALUE DUP1 ISZERO PUSH2 0x383 JUMPI PUSH1 0x0 DUP1 REVERT JUMPDEST POP PUSH2 0x196 PUSH2 0x392 CALLDATASIZE PUSH1 0x4 PUSH2 0x1F72 JUMP JUMPDEST PUSH2 0x11EE JUMP JUMPDEST CALLVALUE DUP1 ISZERO PUSH2 0x3A3 JUMPI PUSH1 0x0 DUP1 REVERT JUMPDEST POP PUSH2 0x3AC PUSH2 0x1239 JUMP JUMPDEST PUSH1 0x40 MLOAD SWAP1 ISZERO ISZERO DUP2 MSTORE PUSH1 0x20 ADD PUSH2 0x1AA JUMP JUMPDEST CALLVALUE DUP1 ISZERO PUSH2 0x3C8 JUMPI PUSH1 0x0 DUP1 REVERT JUMPDEST POP PUSH2 0x1C8 PUSH2 0x3D7 CALLDATASIZE PUSH1 0x4 PUSH2 0x1F3C JUMP JUMPDEST PUSH2 0x1252 JUMP JUMPDEST CALLVALUE DUP1 ISZERO PUSH2 0x3E8 JUMPI PUSH1 0x0 DUP1 REVERT JUMPDEST POP PUSH2 0x196 PUSH32 0x0 DUP2 JUMP JUMPDEST CALLVALUE DUP1 ISZERO PUSH2 0x41C JUMPI PUSH1 0x0 DUP1 REVERT JUMPDEST POP PUSH2 0x258 PUSH1 0x4 SLOAD DUP2 JUMP JUMPDEST CALLVALUE DUP1 ISZERO PUSH2 0x432 JUMPI PUSH1 0x0 DUP1 REVERT JUMPDEST POP PUSH2 0x258 PUSH1 0x7 SLOAD DUP2 JUMP JUMPDEST CALLVALUE DUP1 ISZERO PUSH2 0x448 JUMPI PUSH1 0x0 DUP1 REVERT JUMPDEST POP PUSH2 0x258 PUSH1 0x3 SLOAD DUP2 JUMP JUMPDEST CALLVALUE DUP1 ISZERO PUSH2 0x45E JUMPI PUSH1 0x0 DUP1 REVERT JUMPDEST POP PUSH2 0x1C8 PUSH2 0x46D CALLDATASIZE PUSH1 0x4 PUSH2 0x1F3C JUMP JUMPDEST PUSH2 0x13B1 JUMP JUMPDEST CALLVALUE DUP1 ISZERO PUSH2 0x47E JUMPI PUSH1 0x0 DUP1 REVERT JUMPDEST POP PUSH2 0x258 PUSH1 0x10 SLOAD DUP2 JUMP JUMPDEST CALLVALUE DUP1 ISZERO PUSH2 0x494 JUMPI PUSH1 0x0 DUP1 REVERT JUMPDEST POP PUSH2 0x258 PUSH1 0xC SLOAD DUP2 JUMP JUMPDEST PUSH1 0x0 SLOAD PUSH1 0x1 PUSH1 0x1 PUSH1 0xA0 SHL SUB AND CALLER EQ PUSH2 0x4FD JUMPI PUSH1 0x40 MLOAD PUSH3 0x461BCD PUSH1 0xE5 SHL DUP2 MSTORE PUSH1 0x20 PUSH1 0x4 DUP3 ADD MSTORE PUSH1 0x19 PUSH1 0x24 DUP3 ADD MSTORE PUSH32 0x4F6E6C79206F776E65722063616E206C61756E63682049434F00000000000000 PUSH1 0x44 DUP3 ADD MSTORE PUSH1 0x64 ADD JUMPDEST PUSH1 0x40 MLOAD DUP1 SWAP2 SUB SWAP1 REVERT JUMPDEST PUSH1 0x11 SLOAD PUSH1 0xFF AND ISZERO PUSH2 0x547 JUMPI PUSH1 0x40 MLOAD PUSH3 0x461BCD PUSH1 0xE5 SHL DUP2 MSTORE PUSH1 0x20 PUSH1 0x4 DUP3 ADD MSTORE PUSH1 0x14 PUSH1 0x24 DUP3 ADD MSTORE PUSH20 0x1250D3C8185B1C9958591E481B185D5B98DA1959 PUSH1 0x62 SHL PUSH1 0x44 DUP3 ADD MSTORE PUSH1 0x64 ADD PUSH2 0x4F4 JUMP JUMPDEST PUSH1 0x11 DUP1 SLOAD PUSH1 0xFF NOT AND PUSH1 0x1 SWAP1 DUP2 OR SWAP1 SWAP2 SSTORE SLOAD PUSH1 0x40 DUP1 MLOAD PUSH4 0x313CE567 PUSH1 0xE0 SHL DUP2 MSTORE SWAP1 MLOAD PUSH1 0x1 PUSH1 0x1 PUSH1 0xA0 SHL SUB SWAP1 SWAP3 AND SWAP2 PUSH1 0x0 SWAP2 DUP4 SWAP2 PUSH4 0x313CE567 SWAP2 PUSH1 0x4 DUP1 DUP3 ADD SWAP3 PUSH1 0x20 SWAP3 SWAP1 SWAP2 SWAP1 DUP3 SWAP1 SUB ADD DUP2 DUP7 GAS STATICCALL ISZERO DUP1 ISZERO PUSH2 0x5A4 JUMPI RETURNDATASIZE PUSH1 0x0 DUP1 RETURNDATACOPY RETURNDATASIZE PUSH1 0x0 REVERT JUMPDEST POP POP POP POP PUSH1 0x40 MLOAD RETURNDATASIZE PUSH1 0x1F NOT PUSH1 0x1F DUP3 ADD AND DUP3 ADD DUP1 PUSH1 0x40 MSTORE POP DUP2 ADD SWAP1 PUSH2 0x5C8 SWAP2 SWAP1 PUSH2 0x1F94 JUMP JUMPDEST PUSH2 0x5D3 SWAP1 PUSH1 0xA PUSH2 0x20A7 JUMP JUMPDEST SWAP1 POP PUSH2 0x5E3 DUP2 PUSH4 0x1C9C380 PUSH2 0x20B3 JUMP JUMPDEST PUSH1 0x5 DUP2 SWAP1 SSTORE PUSH1 0x40 MLOAD PUSH4 0x23B872DD PUSH1 0xE0 SHL DUP2 MSTORE CALLER PUSH1 0x4 DUP3 ADD MSTORE ADDRESS PUSH1 0x24 DUP3 ADD MSTORE PUSH1 0x44 DUP2 ADD SWAP2 SWAP1 SWAP2 MSTORE PUSH1 0x1 PUSH1 0x1 PUSH1 0xA0 SHL SUB DUP4 AND SWAP1 PUSH4 0x23B872DD SWAP1 PUSH1 0x64 ADD PUSH1 0x20 PUSH1 0x40 MLOAD DUP1 DUP4 SUB DUP2 PUSH1 0x0 DUP8 GAS CALL ISZERO DUP1 ISZERO PUSH2 0x63C JUMPI RETURNDATASIZE PUSH1 0x0 DUP1 RETURNDATACOPY RETURNDATASIZE PUSH1 0x0 REVERT JUMPDEST POP POP POP POP PUSH1 0x40 MLOAD RETURNDATASIZE PUSH1 0x1F NOT PUSH1 0x1F DUP3 ADD AND DUP3 ADD DUP1 PUSH1 0x40 MSTORE POP DUP2 ADD SWAP1 PUSH2 0x660 SWAP2 SWAP1 PUSH2 0x20CA JUMP JUMPDEST PUSH2 0x6A5 JUMPI PUSH1 0x40 MLOAD PUSH3 0x461BCD PUSH1 0xE5 SHL DUP2 MSTORE PUSH1 0x20 PUSH1 0x4 DUP3 ADD MSTORE PUSH1 0x16 PUSH1 0x24 DUP3 ADD MSTORE PUSH22 0x151C985B9CD9995C881D1BC81250D3C819985A5B1959 PUSH1 0x52 SHL PUSH1 0x44 DUP3 ADD MSTORE PUSH1 0x64 ADD PUSH2 0x4F4 JUMP JUMPDEST PUSH1 0x5 SLOAD PUSH1 0x40 DUP1 MLOAD SWAP2 DUP3 MSTORE TIMESTAMP PUSH1 0x20 DUP4 ADD MSTORE CALLER SWAP2 PUSH32 0x682C5186130F86E9F84F109BCCF334A7B72843485C4ABD72E2295B8E8D69705D SWAP2 ADD JUMPDEST PUSH1 0x40 MLOAD DUP1 SWAP2 SUB SWAP1 LOG2 POP POP JUMP JUMPDEST PUSH1 0x0 DUP1 PUSH1 0x3 SLOAD TIMESTAMP PUSH2 0x6F8 SWAP2 SWAP1 PUSH2 0x20EC JUMP JUMPDEST SWAP1 POP PUSH1 0x0 PUSH1 0x4 SLOAD DUP3 PUSH2 0x3E8 PUSH2 0x70D SWAP2 SWAP1 PUSH2 0x20B3 JUMP JUMPDEST PUSH2 0x717 SWAP2 SWAP1 PUSH2 0x2115 JUMP JUMPDEST PUSH2 0x723 SWAP1 PUSH2 0x7D0 PUSH2 0x20EC JUMP JUMPDEST SWAP1 POP PUSH2 0x3E8 DUP2 LT ISZERO PUSH2 0x734 JUMPI POP PUSH2 0x3E8 JUMPDEST SWAP3 SWAP2 POP POP JUMP JUMPDEST PUSH1 0x0 DUP1 PUSH2 0x74F PUSH1 0x0 SLOAD PUSH1 0x1 PUSH1 0x1 PUSH1 0xA0 SHL SUB AND SWAP1 JUMP JUMPDEST PUSH1 0x1 PUSH1 0x1 PUSH1 0xA0 SHL SUB AND CALLER PUSH1 0x1 PUSH1 0x1 PUSH1 0xA0 SHL SUB AND EQ PUSH2 0x7AF JUMPI PUSH1 0x40 MLOAD PUSH3 0x461BCD PUSH1 0xE5 SHL DUP2 MSTORE PUSH1 0x20 PUSH1 0x4 DUP3 ADD MSTORE PUSH1 0x1B PUSH1 0x24 DUP3 ADD MSTORE PUSH32 0x4F6E6C79206F776E65722063616E20636F6C6C65637420666565730000000000 PUSH1 0x44 DUP3 ADD MSTORE PUSH1 0x64 ADD PUSH2 0x4F4 JUMP JUMPDEST PUSH1 0x40 DUP1 MLOAD PUSH1 0x80 DUP2 ADD DUP3 MSTORE DUP5 DUP2 MSTORE CALLER PUSH1 0x20 DUP3 ADD SWAP1 DUP2 MSTORE PUSH1 0x1 PUSH1 0x1 PUSH1 0x80 SHL SUB DUP3 DUP5 ADD DUP2 DUP2 MSTORE PUSH1 0x60 DUP5 ADD DUP3 DUP2 MSTORE SWAP5 MLOAD PUSH4 0xFC6F7865 PUSH1 0xE0 SHL DUP2 MSTORE DUP5 MLOAD PUSH1 0x4 DUP3 ADD MSTORE SWAP3 MLOAD PUSH1 0x1 PUSH1 0x1 PUSH1 0xA0 SHL SUB SWAP1 DUP2 AND PUSH1 0x24 DUP6 ADD MSTORE SWAP1 MLOAD DUP3 AND PUSH1 0x44 DUP5 ADD MSTORE SWAP4 MLOAD AND PUSH1 0x64 DUP3 ADD MSTORE SWAP1 SWAP2 PUSH32 0x0 AND SWAP1 PUSH4 0xFC6F7865 SWAP1 PUSH1 0x84 ADD PUSH1 0x40 DUP1 MLOAD DUP1 DUP4 SUB DUP2 PUSH1 0x0 DUP8 GAS CALL ISZERO DUP1 ISZERO PUSH2 0x85B JUMPI RETURNDATASIZE PUSH1 0x0 DUP1 RETURNDATACOPY RETURNDATASIZE PUSH1 0x0 REVERT JUMPDEST POP POP POP POP PUSH1 0x40 MLOAD RETURNDATASIZE PUSH1 0x1F NOT PUSH1 0x1F DUP3 ADD AND DUP3 ADD DUP1 PUSH1 0x40 MSTORE POP DUP2 ADD SWAP1 PUSH2 0x87F SWAP2 SWAP1 PUSH2 0x2129 JUMP JUMPDEST PUSH1 0x40 DUP1 MLOAD DUP8 DUP2 MSTORE PUSH1 0x20 DUP2 ADD DUP5 SWAP1 MSTORE SWAP1 DUP2 ADD DUP3 SWAP1 MSTORE SWAP2 SWAP5 POP SWAP3 POP CALLER SWAP1 PUSH32 0xACF5781F729863816D01E6D77635B13F2998B176B9A3550306AC6363F601BC2B SWAP1 PUSH1 0x60 ADD PUSH1 0x40 MLOAD DUP1 SWAP2 SUB SWAP1 LOG2 POP SWAP2 POP SWAP2 JUMP JUMPDEST PUSH1 0x11 SLOAD PUSH1 0xFF AND PUSH2 0x912 JUMPI PUSH1 0x40 MLOAD PUSH3 0x461BCD PUSH1 0xE5 SHL DUP2 MSTORE PUSH1 0x20 PUSH1 0x4 DUP3 ADD MSTORE PUSH1 0x10 PUSH1 0x24 DUP3 ADD MSTORE PUSH16 0x1250D3C81B9BDD081B185D5B98DA1959 PUSH1 0x82 SHL PUSH1 0x44 DUP3 ADD MSTORE PUSH1 0x64 ADD PUSH2 0x4F4 JUMP JUMPDEST PUSH2 0x91A PUSH2 0x1239 JUMP JUMPDEST PUSH2 0x936 JUMPI PUSH1 0x40 MLOAD PUSH3 0x461BCD PUSH1 0xE5 SHL DUP2 MSTORE PUSH1 0x4 ADD PUSH2 0x4F4 SWAP1 PUSH2 0x214D JUMP JUMPDEST PUSH1 0x11 SLOAD PUSH2 0x100 SWAP1 DIV PUSH1 0xFF AND ISZERO PUSH2 0x982 JUMPI PUSH1 0x40 MLOAD PUSH3 0x461BCD PUSH1 0xE5 SHL DUP2 MSTORE PUSH1 0x20 PUSH1 0x4 DUP3 ADD MSTORE PUSH1 0x11 PUSH1 0x24 DUP3 ADD MSTORE PUSH17 0x1250D3C8185B1C9958591E48195B991959 PUSH1 0x7A SHL PUSH1 0x44 DUP3 ADD MSTORE PUSH1 0x64 ADD PUSH2 0x4F4 JUMP JUMPDEST PUSH1 0x11 DUP1 SLOAD PUSH2 0xFF00 NOT AND PUSH2 0x100 OR SWAP1 SSTORE PUSH1 0x1 SLOAD PUSH1 0x1 PUSH1 0x1 PUSH1 0xA0 SHL SUB AND PUSH2 0x9A5 PUSH2 0x13EF JUMP JUMPDEST POP PUSH2 0x9AE PUSH2 0x16B9 JUMP JUMPDEST POP POP POP POP DUP1 PUSH1 0x1 PUSH1 0x1 PUSH1 0xA0 SHL SUB AND PUSH4 0x97D93935 DUP3 PUSH1 0x1 PUSH1 0x1 PUSH1 0xA0 SHL SUB AND PUSH4 0x8DA5CB5B PUSH1 0x40 MLOAD DUP2 PUSH4 0xFFFFFFFF AND PUSH1 0xE0 SHL DUP2 MSTORE PUSH1 0x4 ADD PUSH1 0x20 PUSH1 0x40 MLOAD DUP1 DUP4 SUB DUP2 DUP7 GAS STATICCALL ISZERO DUP1 ISZERO PUSH2 0x9FF JUMPI RETURNDATASIZE PUSH1 0x0 DUP1 RETURNDATACOPY RETURNDATASIZE PUSH1 0x0 REVERT JUMPDEST POP POP POP POP PUSH1 0x40 MLOAD RETURNDATASIZE PUSH1 0x1F NOT PUSH1 0x1F DUP3 ADD AND DUP3 ADD DUP1 PUSH1 0x40 MSTORE POP DUP2 ADD SWAP1 PUSH2 0xA23 SWAP2 SWAP1 PUSH2 0x217A JUMP JUMPDEST PUSH1 0x40 MLOAD PUSH1 0x1 PUSH1 0x1 PUSH1 0xE0 SHL SUB NOT PUSH1 0xE0 DUP5 SWAP1 SHL AND DUP2 MSTORE PUSH1 0x1 PUSH1 0x1 PUSH1 0xA0 SHL SUB SWAP1 SWAP2 AND PUSH1 0x4 DUP3 ADD MSTORE PUSH1 0x24 ADD PUSH1 0x0 PUSH1 0x40 MLOAD DUP1 DUP4 SUB DUP2 PUSH1 0x0 DUP8 DUP1 EXTCODESIZE ISZERO DUP1 ISZERO PUSH2 0xA64 JUMPI PUSH1 0x0 DUP1 REVERT JUMPDEST POP GAS CALL ISZERO DUP1 ISZERO PUSH2 0xA78 JUMPI RETURNDATASIZE PUSH1 0x0 DUP1 RETURNDATACOPY RETURNDATASIZE PUSH1 0x0 REVERT JUMPDEST POP POP POP POP PUSH1 0x0 PUSH1 0xA SLOAD PUSH1 0xB SLOAD PUSH1 0xC SLOAD PUSH2 0xA91 SWAP2 SWAP1 PUSH2 0x20B3 JUMP JUMPDEST PUSH2 0xA9B SWAP2 SWAP1 PUSH2 0x2115 JUMP JUMPDEST PUSH1 0x2 SLOAD PUSH1 0x40 MLOAD SWAP2 SWAP3 POP PUSH1 0x1 PUSH1 0x1 PUSH1 0xA0 SHL SUB AND SWAP1 DUP3 ISZERO PUSH2 0x8FC MUL SWAP1 DUP4 SWAP1 PUSH1 0x0 DUP2 DUP2 DUP2 DUP6 DUP9 DUP9 CALL SWAP4 POP POP POP POP ISZERO DUP1 ISZERO PUSH2 0xAD6 JUMPI RETURNDATASIZE PUSH1 0x0 DUP1 RETURNDATACOPY RETURNDATASIZE PUSH1 0x0 REVERT JUMPDEST POP PUSH1 0x40 MLOAD TIMESTAMP DUP2 MSTORE CALLER SWAP1 PUSH32 0xAF7CECEB1D24B8D84E8A3DDB34E1E634558983A6785F43817275DEE72AD0F70C SWAP1 PUSH1 0x20 ADD PUSH2 0x6DB JUMP JUMPDEST PUSH1 0x11 SLOAD PUSH1 0xFF AND PUSH2 0xB4E JUMPI PUSH1 0x40 MLOAD PUSH3 0x461BCD PUSH1 0xE5 SHL DUP2 MSTORE PUSH1 0x20 PUSH1 0x4 DUP3 ADD MSTORE PUSH1 0x10 PUSH1 0x24 DUP3 ADD MSTORE PUSH16 0x1250D3C81B9BDD081B185D5B98DA1959 PUSH1 0x82 SHL PUSH1 0x44 DUP3 ADD MSTORE PUSH1 0x64 ADD PUSH2 0x4F4 JUMP JUMPDEST PUSH1 0x0 CALLVALUE GT PUSH2 0xB9E JUMPI PUSH1 0x40 MLOAD PUSH3 0x461BCD PUSH1 0xE5 SHL DUP2 MSTORE PUSH1 0x20 PUSH1 0x4 DUP3 ADD MSTORE PUSH1 0x1C PUSH1 0x24 DUP3 ADD MSTORE PUSH32 0x56616C7565206D7573742062652067726561746572207468616E203000000000 PUSH1 0x44 DUP3 ADD MSTORE PUSH1 0x64 ADD PUSH2 0x4F4 JUMP JUMPDEST PUSH2 0xBA6 PUSH2 0x1239 JUMP JUMPDEST ISZERO PUSH2 0xBE2 JUMPI PUSH1 0x40 MLOAD PUSH3 0x461BCD PUSH1 0xE5 SHL DUP2 MSTORE PUSH1 0x20 PUSH1 0x4 DUP3 ADD MSTORE PUSH1 0xC PUSH1 0x24 DUP3 ADD MSTORE PUSH12 0x1250D3C81A5CC8195B991959 PUSH1 0xA2 SHL PUSH1 0x44 DUP3 ADD MSTORE PUSH1 0x64 ADD PUSH2 0x4F4 JUMP JUMPDEST PUSH1 0x1 PUSH1 0x1 PUSH1 0xA0 SHL SUB DUP2 AND ISZERO PUSH2 0xC57 JUMPI PUSH1 0x1 PUSH1 0x1 PUSH1 0xA0 SHL SUB DUP2 AND PUSH1 0x0 SWAP1 DUP2 MSTORE PUSH1 0xF PUSH1 0x20 MSTORE PUSH1 0x40 SWAP1 KECCAK256 SLOAD PUSH1 0xFF AND ISZERO ISZERO PUSH1 0x1 EQ PUSH2 0xC52 JUMPI PUSH1 0x40 MLOAD PUSH3 0x461BCD PUSH1 0xE5 SHL DUP2 MSTORE PUSH1 0x20 PUSH1 0x4 DUP3 ADD MSTORE PUSH1 0x11 PUSH1 0x24 DUP3 ADD MSTORE PUSH17 0x149959995C995C881B9BDD08199BDD5B99 PUSH1 0x7A SHL PUSH1 0x44 DUP3 ADD MSTORE PUSH1 0x64 ADD PUSH2 0x4F4 JUMP JUMPDEST PUSH2 0xC65 JUMP JUMPDEST POP PUSH1 0x2 SLOAD PUSH1 0x1 PUSH1 0x1 PUSH1 0xA0 SHL SUB AND JUMPDEST PUSH1 0x0 PUSH2 0xC6F PUSH2 0x6E7 JUMP JUMPDEST CALLER PUSH1 0x0 SWAP1 DUP2 MSTORE PUSH1 0xF PUSH1 0x20 MSTORE PUSH1 0x40 DUP2 KECCAK256 PUSH1 0x2 ADD DUP1 SLOAD SWAP3 SWAP4 POP CALLVALUE SWAP3 SWAP1 SWAP2 SWAP1 PUSH2 0xC96 SWAP1 DUP5 SWAP1 PUSH2 0x2197 JUMP JUMPDEST SWAP1 SWAP2 SSTORE POP POP PUSH1 0xA SLOAD PUSH1 0x0 SWAP1 PUSH2 0xCAB DUP4 CALLVALUE PUSH2 0x20B3 JUMP JUMPDEST PUSH2 0xCB5 SWAP2 SWAP1 PUSH2 0x2115 JUMP JUMPDEST CALLER PUSH1 0x0 SWAP1 DUP2 MSTORE PUSH1 0xF PUSH1 0x20 MSTORE PUSH1 0x40 DUP2 KECCAK256 PUSH1 0x3 ADD DUP1 SLOAD SWAP3 SWAP4 POP DUP4 SWAP3 SWAP1 SWAP2 SWAP1 PUSH2 0xCDC SWAP1 DUP5 SWAP1 PUSH2 0x2197 JUMP JUMPDEST SWAP1 SWAP2 SSTORE POP POP PUSH1 0xA SLOAD PUSH1 0x9 SLOAD PUSH2 0xCF1 SWAP1 CALLVALUE PUSH2 0x20B3 JUMP JUMPDEST PUSH2 0xCFB SWAP2 SWAP1 PUSH2 0x2115 JUMP JUMPDEST PUSH1 0x1 PUSH1 0x1 PUSH1 0xA0 SHL SUB DUP5 AND PUSH1 0x0 SWAP1 DUP2 MSTORE PUSH1 0xF PUSH1 0x20 MSTORE PUSH1 0x40 DUP2 KECCAK256 PUSH1 0x1 ADD DUP1 SLOAD SWAP1 SWAP2 SWAP1 PUSH2 0xD26 SWAP1 DUP5 SWAP1 PUSH2 0x2197 JUMP JUMPDEST SWAP3 POP POP DUP2 SWAP1 SSTORE POP CALLVALUE PUSH1 0xC PUSH1 0x0 DUP3 DUP3 SLOAD PUSH2 0xD3F SWAP2 SWAP1 PUSH2 0x2197 JUMP JUMPDEST SWAP1 SWAP2 SSTORE POP POP PUSH1 0xA SLOAD PUSH2 0xD51 DUP4 CALLVALUE PUSH2 0x20B3 JUMP JUMPDEST PUSH2 0xD5B SWAP2 SWAP1 PUSH2 0x2115 JUMP JUMPDEST PUSH1 0xD PUSH1 0x0 DUP3 DUP3 SLOAD PUSH2 0xD6C SWAP2 SWAP1 PUSH2 0x2197 JUMP JUMPDEST SWAP1 SWAP2 SSTORE POP POP CALLER PUSH1 0x0 DUP2 DUP2 MSTORE PUSH1 0xF PUSH1 0x20 SWAP1 DUP2 MSTORE PUSH1 0x40 SWAP2 DUP3 SWAP1 KECCAK256 PUSH1 0x3 ADD SLOAD DUP3 MLOAD CALLVALUE DUP2 MSTORE SWAP2 DUP3 ADD MSTORE PUSH1 0x1 PUSH1 0x1 PUSH1 0xA0 SHL SUB DUP7 AND SWAP3 SWAP2 PUSH32 0xC7BCD4498F0589428C9288505F6D25BE813429EC3FF8277E1741318A7D28FD92 SWAP2 ADD PUSH1 0x40 MLOAD DUP1 SWAP2 SUB SWAP1 LOG3 POP POP POP JUMP JUMPDEST CALLER PUSH1 0x0 SWAP1 DUP2 MSTORE PUSH1 0xF PUSH1 0x20 MSTORE PUSH1 0x40 SWAP1 KECCAK256 PUSH1 0x1 ADD SLOAD PUSH2 0xE1E JUMPI PUSH1 0x40 MLOAD PUSH3 0x461BCD PUSH1 0xE5 SHL DUP2 MSTORE PUSH1 0x20 PUSH1 0x4 DUP3 ADD MSTORE PUSH1 0xF PUSH1 0x24 DUP3 ADD MSTORE PUSH15 0x4E6F2045544820746F20636C61696D PUSH1 0x88 SHL PUSH1 0x44 DUP3 ADD MSTORE PUSH1 0x64 ADD PUSH2 0x4F4 JUMP JUMPDEST PUSH1 0x11 SLOAD PUSH2 0x100 SWAP1 DIV PUSH1 0xFF AND PUSH2 0xE45 JUMPI PUSH1 0x40 MLOAD PUSH3 0x461BCD PUSH1 0xE5 SHL DUP2 MSTORE PUSH1 0x4 ADD PUSH2 0x4F4 SWAP1 PUSH2 0x214D JUMP JUMPDEST CALLER PUSH1 0x0 DUP2 DUP2 MSTORE PUSH1 0xF PUSH1 0x20 MSTORE PUSH1 0x40 DUP1 DUP3 KECCAK256 PUSH1 0x1 ADD DUP1 SLOAD SWAP1 DUP4 SWAP1 SSTORE SWAP1 MLOAD SWAP1 SWAP3 SWAP2 DUP4 ISZERO PUSH2 0x8FC MUL SWAP2 DUP5 SWAP2 DUP2 DUP2 DUP2 DUP6 DUP9 DUP9 CALL SWAP4 POP POP POP POP ISZERO DUP1 ISZERO PUSH2 0xE89 JUMPI RETURNDATASIZE PUSH1 0x0 DUP1 RETURNDATACOPY RETURNDATASIZE PUSH1 0x0 REVERT JUMPDEST POP PUSH1 0x40 DUP1 MLOAD DUP3 DUP2 MSTORE TIMESTAMP PUSH1 0x20 DUP3 ADD MSTORE CALLER SWAP2 PUSH32 0xD3605746397FCBE273096353855DA8C40C332AA45D2D97A5E19130A238E9E3BC SWAP2 ADD PUSH1 0x40 MLOAD DUP1 SWAP2 SUB SWAP1 LOG2 POP JUMP JUMPDEST PUSH2 0xECF PUSH2 0x1E51 JUMP JUMPDEST PUSH2 0xED9 PUSH1 0x0 PUSH2 0x1E7E JUMP JUMPDEST JUMP JUMPDEST CALLER PUSH1 0x0 SWAP1 DUP2 MSTORE PUSH1 0xF PUSH1 0x20 MSTORE PUSH1 0x40 SWAP1 KECCAK256 PUSH1 0x2 ADD SLOAD PUSH2 0xF2C JUMPI PUSH1 0x40 MLOAD PUSH3 0x461BCD PUSH1 0xE5 SHL DUP2 MSTORE PUSH1 0x20 PUSH1 0x4 DUP3 ADD MSTORE PUSH1 0xF PUSH1 0x24 DUP3 ADD MSTORE PUSH15 0x4E6F2050534320746F20636C61696D PUSH1 0x88 SHL PUSH1 0x44 DUP3 ADD MSTORE PUSH1 0x64 ADD PUSH2 0x4F4 JUMP JUMPDEST PUSH1 0x11 SLOAD PUSH2 0x100 SWAP1 DIV PUSH1 0xFF AND PUSH2 0xF53 JUMPI PUSH1 0x40 MLOAD PUSH3 0x461BCD PUSH1 0xE5 SHL DUP2 MSTORE PUSH1 0x4 ADD PUSH2 0x4F4 SWAP1 PUSH2 0x214D JUMP JUMPDEST CALLER PUSH1 0x0 SWAP1 DUP2 MSTORE PUSH1 0xF PUSH1 0x20 MSTORE PUSH1 0x40 DUP2 KECCAK256 PUSH1 0x2 DUP2 ADD SLOAD PUSH1 0xA SLOAD PUSH1 0x3 SWAP1 SWAP3 ADD SLOAD SWAP1 SWAP2 PUSH2 0xF7B SWAP2 PUSH2 0x20B3 JUMP JUMPDEST PUSH2 0xF85 SWAP2 SWAP1 PUSH2 0x2115 JUMP JUMPDEST SWAP1 POP PUSH1 0x0 PUSH1 0xA SLOAD DUP3 PUSH1 0x4 SLOAD PUSH2 0xF9A SWAP2 SWAP1 PUSH2 0x20B3 JUMP JUMPDEST PUSH2 0xFA4 SWAP2 SWAP1 PUSH2 0x2115 JUMP JUMPDEST SWAP1 POP DUP1 PUSH1 0x3 SLOAD TIMESTAMP PUSH2 0xFB5 SWAP2 SWAP1 PUSH2 0x20EC JUMP JUMPDEST GT PUSH2 0xFFA JUMPI PUSH1 0x40 MLOAD PUSH3 0x461BCD PUSH1 0xE5 SHL DUP2 MSTORE PUSH1 0x20 PUSH1 0x4 DUP3 ADD MSTORE PUSH1 0x15 PUSH1 0x24 DUP3 ADD MSTORE PUSH21 0x21B634B333103832B934B7B2103737BA1037BB32B9 PUSH1 0x59 SHL PUSH1 0x44 DUP3 ADD MSTORE PUSH1 0x64 ADD PUSH2 0x4F4 JUMP JUMPDEST PUSH1 0x1 SLOAD PUSH1 0xD SLOAD CALLER PUSH1 0x0 SWAP1 DUP2 MSTORE PUSH1 0xF PUSH1 0x20 MSTORE PUSH1 0x40 DUP2 KECCAK256 PUSH1 0x3 ADD SLOAD PUSH1 0x5 SLOAD PUSH1 0x1 PUSH1 0x1 PUSH1 0xA0 SHL SUB SWAP1 SWAP5 AND SWAP4 SWAP2 SWAP3 SWAP2 PUSH2 0x102F SWAP2 SWAP1 PUSH2 0x20B3 JUMP JUMPDEST PUSH2 0x1039 SWAP2 SWAP1 PUSH2 0x2115 JUMP JUMPDEST CALLER PUSH1 0x0 SWAP1 DUP2 MSTORE PUSH1 0xF PUSH1 0x20 MSTORE PUSH1 0x40 SWAP1 KECCAK256 PUSH1 0x4 ADD SLOAD SWAP1 SWAP2 POP DUP2 GT PUSH2 0x109D JUMPI PUSH1 0x40 MLOAD PUSH3 0x461BCD PUSH1 0xE5 SHL DUP2 MSTORE PUSH1 0x20 PUSH1 0x4 DUP3 ADD MSTORE PUSH1 0x17 PUSH1 0x24 DUP3 ADD MSTORE PUSH32 0x416C726561647920636C61696D656420616C6C20505343000000000000000000 PUSH1 0x44 DUP3 ADD MSTORE PUSH1 0x64 ADD PUSH2 0x4F4 JUMP JUMPDEST PUSH1 0x0 DUP4 PUSH1 0x3 SLOAD PUSH2 0x10AD SWAP2 SWAP1 PUSH2 0x2197 JUMP JUMPDEST PUSH2 0x10B7 SWAP1 TIMESTAMP PUSH2 0x20EC JUMP JUMPDEST SWAP1 POP PUSH1 0x0 PUSH1 0xA SLOAD DUP7 PUSH1 0x4 SLOAD PUSH2 0x10CC SWAP2 SWAP1 PUSH2 0x20B3 JUMP JUMPDEST PUSH2 0x10D6 SWAP2 SWAP1 PUSH2 0x2115 JUMP JUMPDEST SWAP1 POP DUP1 DUP3 GT ISZERO PUSH2 0x10E4 JUMPI DUP1 SWAP2 POP JUMPDEST PUSH1 0x0 DUP2 PUSH2 0x10F1 DUP5 DUP7 PUSH2 0x20B3 JUMP JUMPDEST PUSH2 0x10FB SWAP2 SWAP1 PUSH2 0x2115 JUMP JUMPDEST CALLER PUSH1 0x0 SWAP1 DUP2 MSTORE PUSH1 0xF PUSH1 0x20 MSTORE PUSH1 0x40 DUP2 KECCAK256 PUSH1 0x4 ADD SLOAD SWAP2 SWAP3 POP PUSH2 0x111B DUP3 DUP5 PUSH2 0x20EC JUMP JUMPDEST CALLER PUSH1 0x0 DUP2 DUP2 MSTORE PUSH1 0xF PUSH1 0x20 MSTORE PUSH1 0x40 SWAP1 DUP2 SWAP1 KECCAK256 PUSH1 0x4 SWAP1 DUP2 ADD DUP8 SWAP1 SSTORE SWAP1 MLOAD PUSH4 0xA9059CBB PUSH1 0xE0 SHL DUP2 MSTORE SWAP1 DUP2 ADD SWAP2 SWAP1 SWAP2 MSTORE PUSH1 0x24 DUP2 ADD DUP3 SWAP1 MSTORE SWAP1 SWAP2 POP PUSH1 0x1 PUSH1 0x1 PUSH1 0xA0 SHL SUB DUP9 AND SWAP1 PUSH4 0xA9059CBB SWAP1 PUSH1 0x44 ADD PUSH1 0x20 PUSH1 0x40 MLOAD DUP1 DUP4 SUB DUP2 PUSH1 0x0 DUP8 GAS CALL ISZERO DUP1 ISZERO PUSH2 0x1184 JUMPI RETURNDATASIZE PUSH1 0x0 DUP1 RETURNDATACOPY RETURNDATASIZE PUSH1 0x0 REVERT JUMPDEST POP POP POP POP PUSH1 0x40 MLOAD RETURNDATASIZE PUSH1 0x1F NOT PUSH1 0x1F DUP3 ADD AND DUP3 ADD DUP1 PUSH1 0x40 MSTORE POP DUP2 ADD SWAP1 PUSH2 0x11A8 SWAP2 SWAP1 PUSH2 0x20CA JUMP JUMPDEST POP PUSH1 0x40 DUP1 MLOAD DUP3 DUP2 MSTORE TIMESTAMP PUSH1 0x20 DUP3 ADD MSTORE CALLER SWAP2 PUSH32 0x94F984EBD5C936A60642AF6E2DC9843A51CDD10A75E94743020B41AE5CEFEBED SWAP2 ADD PUSH1 0x40 MLOAD DUP1 SWAP2 SUB SWAP1 LOG2 POP POP POP POP POP POP POP POP POP JUMP JUMPDEST PUSH1 0x0 PUSH4 0x3B9ACA00 PUSH2 0x121A DUP5 PUSH2 0x120B DUP6 PUSH8 0xDE0B6B3A7640000 PUSH2 0x20B3 JUMP JUMPDEST PUSH2 0x1215 SWAP2 SWAP1 PUSH2 0x2115 JUMP JUMPDEST PUSH2 0x1ECE JUMP JUMPDEST PUSH2 0x1228 SWAP1 PUSH1 0x1 PUSH1 0x60 SHL PUSH2 0x20B3 JUMP JUMPDEST PUSH2 0x1232 SWAP2 SWAP1 PUSH2 0x2115 JUMP JUMPDEST SWAP4 SWAP3 POP POP POP JUMP JUMPDEST PUSH1 0x0 PUSH1 0x4 SLOAD PUSH1 0x3 SLOAD PUSH2 0x124B SWAP2 SWAP1 PUSH2 0x2197 JUMP JUMPDEST TIMESTAMP GT SWAP1 POP SWAP1 JUMP JUMPDEST PUSH1 0x2 SLOAD PUSH1 0x1 PUSH1 0x1 PUSH1 0xA0 SHL SUB AND CALLER EQ PUSH2 0x12AC JUMPI PUSH1 0x40 MLOAD PUSH3 0x461BCD PUSH1 0xE5 SHL DUP2 MSTORE PUSH1 0x20 PUSH1 0x4 DUP3 ADD MSTORE PUSH1 0x18 PUSH1 0x24 DUP3 ADD MSTORE PUSH32 0x4F6E6C79206465762063616E2061646420726566657265720000000000000000 PUSH1 0x44 DUP3 ADD MSTORE PUSH1 0x64 ADD PUSH2 0x4F4 JUMP JUMPDEST PUSH1 0x1 PUSH1 0x1 PUSH1 0xA0 SHL SUB DUP2 AND PUSH2 0x1302 JUMPI PUSH1 0x40 MLOAD PUSH3 0x461BCD PUSH1 0xE5 SHL DUP2 MSTORE PUSH1 0x20 PUSH1 0x4 DUP3 ADD MSTORE PUSH1 0x1B PUSH1 0x24 DUP3 ADD MSTORE PUSH32 0x526566657265722063616E6E6F74206265203020616464726573730000000000 PUSH1 0x44 DUP3 ADD MSTORE PUSH1 0x64 ADD PUSH2 0x4F4 JUMP JUMPDEST PUSH1 0x1 PUSH1 0x1 PUSH1 0xA0 SHL SUB DUP2 AND PUSH1 0x0 SWAP1 DUP2 MSTORE PUSH1 0xF PUSH1 0x20 MSTORE PUSH1 0x40 SWAP1 KECCAK256 SLOAD PUSH1 0xFF AND ISZERO PUSH2 0x1363 JUMPI PUSH1 0x40 MLOAD PUSH3 0x461BCD PUSH1 0xE5 SHL DUP2 MSTORE PUSH1 0x20 PUSH1 0x4 DUP3 ADD MSTORE PUSH1 0x15 PUSH1 0x24 DUP3 ADD MSTORE PUSH21 0x149959995C995C88185B1C9958591E481859191959 PUSH1 0x5A SHL PUSH1 0x44 DUP3 ADD MSTORE PUSH1 0x64 ADD PUSH2 0x4F4 JUMP JUMPDEST PUSH1 0x1 PUSH1 0x1 PUSH1 0xA0 SHL SUB DUP2 AND PUSH1 0x0 DUP2 DUP2 MSTORE PUSH1 0xF PUSH1 0x20 MSTORE PUSH1 0x40 DUP1 DUP3 KECCAK256 DUP1 SLOAD PUSH1 0xFF NOT AND PUSH1 0x1 OR SWAP1 SSTORE MLOAD CALLER SWAP3 SWAP2 PUSH32 0x3614112C726085BAE6239DD3B2A720C351C7E51BEAC5058535E2475AA78F8E7C SWAP2 LOG3 POP JUMP JUMPDEST PUSH2 0x13B9 PUSH2 0x1E51 JUMP JUMPDEST PUSH1 0x1 PUSH1 0x1 PUSH1 0xA0 SHL SUB DUP2 AND PUSH2 0x13E3 JUMPI PUSH1 0x40 MLOAD PUSH4 0x1E4FBDF7 PUSH1 0xE0 SHL DUP2 MSTORE PUSH1 0x0 PUSH1 0x4 DUP3 ADD MSTORE PUSH1 0x24 ADD PUSH2 0x4F4 JUMP JUMPDEST PUSH2 0x13EC DUP2 PUSH2 0x1E7E JUMP JUMPDEST POP JUMP JUMPDEST PUSH1 0x1 SLOAD PUSH1 0x0 SWAP1 PUSH2 0xBB8 SWAP1 PUSH1 0x1 PUSH1 0x1 PUSH1 0xA0 SHL SUB SWAP1 DUP2 AND SWAP1 PUSH32 0x0 SWAP1 DUP2 AND DUP3 GT ISZERO PUSH2 0x1461 JUMPI POP POP PUSH1 0x1 SLOAD PUSH32 0x0 SWAP1 PUSH1 0x1 PUSH1 0x1 PUSH1 0xA0 SHL SUB AND JUMPDEST PUSH1 0xA SLOAD PUSH1 0x9 SLOAD PUSH1 0xB SLOAD PUSH2 0x1474 SWAP1 DUP4 PUSH2 0x20EC JUMP JUMPDEST PUSH2 0x147E SWAP2 SWAP1 PUSH2 0x20EC JUMP JUMPDEST PUSH2 0x1488 SWAP1 SELFBALANCE PUSH2 0x20B3 JUMP JUMPDEST PUSH2 0x1492 SWAP2 SWAP1 PUSH2 0x2115 JUMP JUMPDEST PUSH1 0x8 DUP2 SWAP1 SSTORE PUSH1 0xD SLOAD PUSH1 0x5 SLOAD SWAP1 SWAP2 PUSH2 0x14A8 SWAP2 PUSH2 0x20B3 JUMP JUMPDEST PUSH2 0x14B2 SWAP2 SWAP1 PUSH2 0x2115 JUMP JUMPDEST PUSH1 0x7 DUP2 SWAP1 SSTORE PUSH1 0x1 SLOAD PUSH1 0x40 MLOAD PUSH4 0x40C10F19 PUSH1 0xE0 SHL DUP2 MSTORE ADDRESS PUSH1 0x4 DUP3 ADD MSTORE PUSH1 0x24 DUP2 ADD SWAP3 SWAP1 SWAP3 MSTORE PUSH1 0x1 PUSH1 0x1 PUSH1 0xA0 SHL SUB AND SWAP1 DUP2 SWAP1 PUSH4 0x40C10F19 SWAP1 PUSH1 0x44 ADD PUSH1 0x20 PUSH1 0x40 MLOAD DUP1 DUP4 SUB DUP2 PUSH1 0x0 DUP8 GAS CALL ISZERO DUP1 ISZERO PUSH2 0x1509 JUMPI RETURNDATASIZE PUSH1 0x0 DUP1 RETURNDATACOPY RETURNDATASIZE PUSH1 0x0 REVERT JUMPDEST POP POP POP POP PUSH1 0x40 MLOAD RETURNDATASIZE PUSH1 0x1F NOT PUSH1 0x1F DUP3 ADD AND DUP3 ADD DUP1 PUSH1 0x40 MSTORE POP DUP2 ADD SWAP1 PUSH2 0x152D SWAP2 SWAP1 PUSH2 0x1F94 JUMP JUMPDEST POP PUSH1 0x1 SLOAD PUSH1 0x0 SWAP1 PUSH1 0x1 PUSH1 0x1 PUSH1 0xA0 SHL SUB SWAP1 DUP2 AND PUSH32 0x0 SWAP1 SWAP2 AND LT ISZERO PUSH2 0x157E JUMPI PUSH2 0x1577 PUSH1 0x8 SLOAD PUSH1 0x7 SLOAD PUSH2 0x11EE JUMP JUMPDEST SWAP1 POP PUSH2 0x158F JUMP JUMPDEST PUSH2 0x158C PUSH1 0x7 SLOAD PUSH1 0x8 SLOAD PUSH2 0x11EE JUMP JUMPDEST SWAP1 POP JUMPDEST PUSH1 0x40 MLOAD PUSH4 0x9F56AB1 PUSH1 0xE1 SHL DUP2 MSTORE PUSH1 0x1 PUSH1 0x1 PUSH1 0xA0 SHL SUB DUP6 DUP2 AND PUSH1 0x4 DUP4 ADD MSTORE DUP5 DUP2 AND PUSH1 0x24 DUP4 ADD MSTORE PUSH3 0xFFFFFF DUP8 AND PUSH1 0x44 DUP4 ADD MSTORE DUP3 DUP2 AND PUSH1 0x64 DUP4 ADD MSTORE PUSH32 0x0 AND SWAP1 PUSH4 0x13EAD562 SWAP1 PUSH1 0x84 ADD PUSH1 0x20 PUSH1 0x40 MLOAD DUP1 DUP4 SUB DUP2 PUSH1 0x0 DUP8 GAS CALL ISZERO DUP1 ISZERO PUSH2 0x1612 JUMPI RETURNDATASIZE PUSH1 0x0 DUP1 RETURNDATACOPY RETURNDATASIZE PUSH1 0x0 REVERT JUMPDEST POP POP POP POP PUSH1 0x40 MLOAD RETURNDATASIZE PUSH1 0x1F NOT PUSH1 0x1F DUP3 ADD AND DUP3 ADD DUP1 PUSH1 0x40 MSTORE POP DUP2 ADD SWAP1 PUSH2 0x1636 SWAP2 SWAP1 PUSH2 0x217A JUMP JUMPDEST PUSH1 0x11 DUP1 SLOAD PUSH3 0x10000 PUSH1 0x1 PUSH1 0xB0 SHL SUB NOT AND PUSH3 0x10000 PUSH1 0x1 PUSH1 0x1 PUSH1 0xA0 SHL SUB SWAP4 DUP5 AND DUP2 MUL SWAP2 SWAP1 SWAP2 OR SWAP2 DUP3 SWAP1 SSTORE PUSH1 0x40 DUP1 MLOAD SWAP2 SWAP1 SWAP3 DIV SWAP1 SWAP3 AND DUP3 MSTORE TIMESTAMP PUSH1 0x20 DUP4 ADD MSTORE PUSH32 0x7D8A82854E233F0A9EEBCF831C1C7165D0A24090F0ABFEFE183E60AA8D23E6E7 SWAP2 ADD PUSH1 0x40 MLOAD DUP1 SWAP2 SUB SWAP1 LOG1 POP POP PUSH1 0x11 SLOAD PUSH3 0x10000 SWAP1 DIV PUSH1 0x1 PUSH1 0x1 PUSH1 0xA0 SHL SUB AND SWAP5 SWAP4 POP POP POP POP JUMP JUMPDEST PUSH1 0x1 SLOAD PUSH1 0x0 SWAP1 DUP2 SWAP1 DUP2 SWAP1 DUP2 SWAP1 PUSH1 0x1 PUSH1 0x1 PUSH1 0xA0 SHL SUB SWAP1 DUP2 AND SWAP1 PUSH32 0x0 SWAP1 DUP3 SWAP1 DUP3 SWAP1 DUP2 AND DUP3 GT ISZERO PUSH2 0x1731 JUMPI POP POP PUSH1 0x1 SLOAD PUSH32 0x0 SWAP1 PUSH1 0x1 PUSH1 0x1 PUSH1 0xA0 SHL SUB AND JUMPDEST PUSH1 0x0 PUSH2 0xBB8 SWAP1 POP PUSH1 0x0 PUSH1 0x7 SLOAD SWAP1 POP PUSH1 0x0 PUSH1 0x8 SLOAD SWAP1 POP DUP6 PUSH1 0x1 PUSH1 0x1 PUSH1 0xA0 SHL SUB AND PUSH4 0xD0E30DB0 DUP3 PUSH1 0x40 MLOAD DUP3 PUSH4 0xFFFFFFFF AND PUSH1 0xE0 SHL DUP2 MSTORE PUSH1 0x4 ADD PUSH1 0x0 PUSH1 0x40 MLOAD DUP1 DUP4 SUB DUP2 DUP6 DUP9 DUP1 EXTCODESIZE ISZERO DUP1 ISZERO PUSH2 0x1781 JUMPI PUSH1 0x0 DUP1 REVERT JUMPDEST POP GAS CALL ISZERO DUP1 ISZERO PUSH2 0x1795 JUMPI RETURNDATASIZE PUSH1 0x0 DUP1 RETURNDATACOPY RETURNDATASIZE PUSH1 0x0 REVERT JUMPDEST POP POP PUSH1 0x40 MLOAD PUSH4 0x95EA7B3 PUSH1 0xE0 SHL DUP2 MSTORE PUSH1 0x1 PUSH1 0x1 PUSH1 0xA0 SHL SUB PUSH32 0x0 DUP2 AND PUSH1 0x4 DUP4 ADD MSTORE PUSH1 0x24 DUP3 ADD DUP8 SWAP1 MSTORE DUP12 AND SWAP4 POP PUSH4 0x95EA7B3 SWAP3 POP PUSH1 0x44 ADD SWAP1 POP PUSH1 0x20 PUSH1 0x40 MLOAD DUP1 DUP4 SUB DUP2 PUSH1 0x0 DUP8 GAS CALL ISZERO DUP1 ISZERO PUSH2 0x180A JUMPI RETURNDATASIZE PUSH1 0x0 DUP1 RETURNDATACOPY RETURNDATASIZE PUSH1 0x0 REVERT JUMPDEST POP POP POP POP PUSH1 0x40 MLOAD RETURNDATASIZE PUSH1 0x1F NOT PUSH1 0x1F DUP3 ADD AND DUP3 ADD DUP1 PUSH1 0x40 MSTORE POP DUP2 ADD SWAP1 PUSH2 0x182E SWAP2 SWAP1 PUSH2 0x20CA JUMP JUMPDEST POP PUSH1 0x40 MLOAD PUSH4 0x95EA7B3 PUSH1 0xE0 SHL DUP2 MSTORE PUSH1 0x1 PUSH1 0x1 PUSH1 0xA0 SHL SUB PUSH32 0x0 DUP2 AND PUSH1 0x4 DUP4 ADD MSTORE PUSH1 0x24 DUP3 ADD DUP4 SWAP1 MSTORE DUP8 AND SWAP1 PUSH4 0x95EA7B3 SWAP1 PUSH1 0x44 ADD PUSH1 0x20 PUSH1 0x40 MLOAD DUP1 DUP4 SUB DUP2 PUSH1 0x0 DUP8 GAS CALL ISZERO DUP1 ISZERO PUSH2 0x189E JUMPI RETURNDATASIZE PUSH1 0x0 DUP1 RETURNDATACOPY RETURNDATASIZE PUSH1 0x0 REVERT JUMPDEST POP POP POP POP PUSH1 0x40 MLOAD RETURNDATASIZE PUSH1 0x1F NOT PUSH1 0x1F DUP3 ADD AND DUP3 ADD DUP1 PUSH1 0x40 MSTORE POP DUP2 ADD SWAP1 PUSH2 0x18C2 SWAP2 SWAP1 PUSH2 0x20CA JUMP JUMPDEST POP PUSH1 0x1 SLOAD PUSH1 0x1 PUSH1 0x1 PUSH1 0xA0 SHL SUB SWAP1 DUP2 AND PUSH32 0x0 SWAP1 SWAP2 AND LT ISZERO PUSH2 0x1902 JUMPI PUSH1 0x7 SLOAD SWAP1 SWAP2 POP JUMPDEST PUSH1 0x0 PUSH1 0x40 MLOAD DUP1 PUSH2 0x160 ADD PUSH1 0x40 MSTORE DUP1 DUP8 PUSH1 0x1 PUSH1 0x1 PUSH1 0xA0 SHL SUB AND DUP2 MSTORE PUSH1 0x20 ADD DUP7 PUSH1 0x1 PUSH1 0x1 PUSH1 0xA0 SHL SUB AND DUP2 MSTORE PUSH1 0x20 ADD DUP6 PUSH3 0xFFFFFF AND DUP2 MSTORE PUSH1 0x20 ADD PUSH1 0x32 DUP7 PUSH2 0x1946 SWAP2 SWAP1 PUSH2 0x21AA JUMP JUMPDEST PUSH2 0x1952 PUSH3 0xD89E8 PUSH2 0x21CC JUMP JUMPDEST PUSH2 0x195C SWAP2 SWAP1 PUSH2 0x21EE JUMP JUMPDEST PUSH2 0x1968 PUSH3 0xD89E8 PUSH2 0x21CC JUMP JUMPDEST PUSH2 0x1972 SWAP2 SWAP1 PUSH2 0x2210 JUMP JUMPDEST PUSH1 0x2 SIGNEXTEND DUP2 MSTORE PUSH1 0x20 ADD PUSH2 0x1985 PUSH1 0x32 DUP8 PUSH2 0x21AA JUMP JUMPDEST PUSH2 0x1992 SWAP1 PUSH3 0xD89E8 PUSH2 0x21EE JUMP JUMPDEST PUSH2 0x199F SWAP1 PUSH3 0xD89E8 PUSH2 0x2210 JUMP JUMPDEST PUSH1 0x2 SIGNEXTEND DUP2 MSTORE PUSH1 0x20 ADD DUP5 DUP2 MSTORE PUSH1 0x20 ADD DUP4 DUP2 MSTORE PUSH1 0x20 ADD PUSH1 0x0 DUP2 MSTORE PUSH1 0x20 ADD PUSH1 0x0 DUP2 MSTORE PUSH1 0x20 ADD ADDRESS PUSH1 0x1 PUSH1 0x1 PUSH1 0xA0 SHL SUB AND DUP2 MSTORE PUSH1 0x20 ADD TIMESTAMP DUP2 MSTORE POP SWAP1 POP PUSH32 0x0 PUSH1 0x1 PUSH1 0x1 PUSH1 0xA0 SHL SUB AND PUSH4 0x88316456 DUP3 PUSH1 0x40 MLOAD DUP3 PUSH4 0xFFFFFFFF AND PUSH1 0xE0 SHL DUP2 MSTORE PUSH1 0x4 ADD PUSH2 0x1A22 SWAP2 SWAP1 PUSH2 0x2235 JUMP JUMPDEST PUSH1 0x80 PUSH1 0x40 MLOAD DUP1 DUP4 SUB DUP2 PUSH1 0x0 DUP8 GAS CALL ISZERO DUP1 ISZERO PUSH2 0x1A41 JUMPI RETURNDATASIZE PUSH1 0x0 DUP1 RETURNDATACOPY RETURNDATASIZE PUSH1 0x0 REVERT JUMPDEST POP POP POP POP PUSH1 0x40 MLOAD RETURNDATASIZE PUSH1 0x1F NOT PUSH1 0x1F DUP3 ADD AND DUP3 ADD DUP1 PUSH1 0x40 MSTORE POP DUP2 ADD SWAP1 PUSH2 0x1A65 SWAP2 SWAP1 PUSH2 0x22F9 JUMP JUMPDEST SWAP3 SWAP15 POP SWAP1 SWAP13 POP SWAP11 POP SWAP9 POP PUSH1 0x1 PUSH1 0x1 PUSH1 0xA0 SHL SUB PUSH32 0x0 DUP2 AND SWAP1 DUP7 AND SUB PUSH2 0x1C4A JUMPI DUP2 DUP10 LT ISZERO PUSH2 0x1BA8 JUMPI PUSH1 0x40 MLOAD PUSH4 0x95EA7B3 PUSH1 0xE0 SHL DUP2 MSTORE PUSH1 0x1 PUSH1 0x1 PUSH1 0xA0 SHL SUB PUSH32 0x0 DUP2 AND PUSH1 0x4 DUP4 ADD MSTORE PUSH1 0x0 PUSH1 0x24 DUP4 ADD MSTORE DUP9 AND SWAP1 PUSH4 0x95EA7B3 SWAP1 PUSH1 0x44 ADD PUSH1 0x20 PUSH1 0x40 MLOAD DUP1 DUP4 SUB DUP2 PUSH1 0x0 DUP8 GAS CALL ISZERO DUP1 ISZERO PUSH2 0x1B19 JUMPI RETURNDATASIZE PUSH1 0x0 DUP1 RETURNDATACOPY RETURNDATASIZE PUSH1 0x0 REVERT JUMPDEST POP POP POP POP PUSH1 0x40 MLOAD RETURNDATASIZE PUSH1 0x1F NOT PUSH1 0x1F DUP3 ADD AND DUP3 ADD DUP1 PUSH1 0x40 MSTORE POP DUP2 ADD SWAP1 PUSH2 0x1B3D SWAP2 SWAP1 PUSH2 0x20CA JUMP JUMPDEST POP PUSH1 0x1 PUSH1 0x1 PUSH1 0xA0 SHL SUB DUP8 AND PUSH4 0x2E1A7D4D PUSH2 0x1B57 DUP12 DUP6 PUSH2 0x20EC JUMP JUMPDEST PUSH1 0x40 MLOAD DUP3 PUSH4 0xFFFFFFFF AND PUSH1 0xE0 SHL DUP2 MSTORE PUSH1 0x4 ADD PUSH2 0x1B75 SWAP2 DUP2 MSTORE PUSH1 0x20 ADD SWAP1 JUMP JUMPDEST PUSH1 0x0 PUSH1 0x40 MLOAD DUP1 DUP4 SUB DUP2 PUSH1 0x0 DUP8 DUP1 EXTCODESIZE ISZERO DUP1 ISZERO PUSH2 0x1B8F JUMPI PUSH1 0x0 DUP1 REVERT JUMPDEST POP GAS CALL ISZERO DUP1 ISZERO PUSH2 0x1BA3 JUMPI RETURNDATASIZE PUSH1 0x0 DUP1 RETURNDATACOPY RETURNDATASIZE PUSH1 0x0 REVERT JUMPDEST POP POP POP POP JUMPDEST DUP3 DUP11 LT ISZERO PUSH2 0x1C45 JUMPI PUSH1 0x40 MLOAD PUSH4 0x95EA7B3 PUSH1 0xE0 SHL DUP2 MSTORE PUSH1 0x1 PUSH1 0x1 PUSH1 0xA0 SHL SUB PUSH32 0x0 DUP2 AND PUSH1 0x4 DUP4 ADD MSTORE PUSH1 0x0 PUSH1 0x24 DUP4 ADD MSTORE DUP10 AND SWAP1 PUSH4 0x95EA7B3 SWAP1 PUSH1 0x44 ADD PUSH1 0x20 PUSH1 0x40 MLOAD DUP1 DUP4 SUB DUP2 PUSH1 0x0 DUP8 GAS CALL ISZERO DUP1 ISZERO PUSH2 0x1C1F JUMPI RETURNDATASIZE PUSH1 0x0 DUP1 RETURNDATACOPY RETURNDATASIZE PUSH1 0x0 REVERT JUMPDEST POP POP POP POP PUSH1 0x40 MLOAD RETURNDATASIZE PUSH1 0x1F NOT PUSH1 0x1F DUP3 ADD AND DUP3 ADD DUP1 PUSH1 0x40 MSTORE POP DUP2 ADD SWAP1 PUSH2 0x1C43 SWAP2 SWAP1 PUSH2 0x20CA JUMP JUMPDEST POP JUMPDEST PUSH2 0x1DED JUMP JUMPDEST DUP3 DUP11 LT ISZERO PUSH2 0x1D50 JUMPI PUSH1 0x40 MLOAD PUSH4 0x95EA7B3 PUSH1 0xE0 SHL DUP2 MSTORE PUSH1 0x1 PUSH1 0x1 PUSH1 0xA0 SHL SUB PUSH32 0x0 DUP2 AND PUSH1 0x4 DUP4 ADD MSTORE PUSH1 0x0 PUSH1 0x24 DUP4 ADD MSTORE DUP9 AND SWAP1 PUSH4 0x95EA7B3 SWAP1 PUSH1 0x44 ADD PUSH1 0x20 PUSH1 0x40 MLOAD DUP1 DUP4 SUB DUP2 PUSH1 0x0 DUP8 GAS CALL ISZERO DUP1 ISZERO PUSH2 0x1CC1 JUMPI RETURNDATASIZE PUSH1 0x0 DUP1 RETURNDATACOPY RETURNDATASIZE PUSH1 0x0 REVERT JUMPDEST POP POP POP POP PUSH1 0x40 MLOAD RETURNDATASIZE PUSH1 0x1F NOT PUSH1 0x1F DUP3 ADD AND DUP3 ADD DUP1 PUSH1 0x40 MSTORE POP DUP2 ADD SWAP1 PUSH2 0x1CE5 SWAP2 SWAP1 PUSH2 0x20CA JUMP JUMPDEST POP PUSH1 0x1 PUSH1 0x1 PUSH1 0xA0 SHL SUB DUP8 AND PUSH4 0x2E1A7D4D PUSH2 0x1CFF DUP13 DUP7 PUSH2 0x20EC JUMP JUMPDEST PUSH1 0x40 MLOAD DUP3 PUSH4 0xFFFFFFFF AND PUSH1 0xE0 SHL DUP2 MSTORE PUSH1 0x4 ADD PUSH2 0x1D1D SWAP2 DUP2 MSTORE PUSH1 0x20 ADD SWAP1 JUMP JUMPDEST PUSH1 0x0 PUSH1 0x40 MLOAD DUP1 DUP4 SUB DUP2 PUSH1 0x0 DUP8 DUP1 EXTCODESIZE ISZERO DUP1 ISZERO PUSH2 0x1D37 JUMPI PUSH1 0x0 DUP1 REVERT JUMPDEST POP GAS CALL ISZERO DUP1 ISZERO PUSH2 0x1D4B JUMPI RETURNDATASIZE PUSH1 0x0 DUP1 RETURNDATACOPY RETURNDATASIZE PUSH1 0x0 REVERT JUMPDEST POP POP POP POP JUMPDEST DUP2 DUP10 LT ISZERO PUSH2 0x1DED JUMPI PUSH1 0x40 MLOAD PUSH4 0x95EA7B3 PUSH1 0xE0 SHL DUP2 MSTORE PUSH1 0x1 PUSH1 0x1 PUSH1 0xA0 SHL SUB PUSH32 0x0 DUP2 AND PUSH1 0x4 DUP4 ADD MSTORE PUSH1 0x0 PUSH1 0x24 DUP4 ADD MSTORE DUP10 AND SWAP1 PUSH4 0x95EA7B3 SWAP1 PUSH1 0x44 ADD PUSH1 0x20 PUSH1 0x40 MLOAD DUP1 DUP4 SUB DUP2 PUSH1 0x0 DUP8 GAS CALL ISZERO DUP1 ISZERO PUSH2 0x1DC7 JUMPI RETURNDATASIZE PUSH1 0x0 DUP1 RETURNDATACOPY RETURNDATASIZE PUSH1 0x0 REVERT JUMPDEST POP POP POP POP PUSH1 0x40 MLOAD RETURNDATASIZE PUSH1 0x1F NOT PUSH1 0x1F DUP3 ADD AND DUP3 ADD DUP1 PUSH1 0x40 MSTORE POP DUP2 ADD SWAP1 PUSH2 0x1DEB SWAP2 SWAP1 PUSH2 0x20CA JUMP JUMPDEST POP JUMPDEST PUSH1 0x40 DUP1 MLOAD DUP14 DUP2 MSTORE PUSH1 0x1 PUSH1 0x1 PUSH1 0x80 SHL SUB DUP14 AND PUSH1 0x20 DUP3 ADD MSTORE SWAP1 DUP2 ADD DUP12 SWAP1 MSTORE PUSH1 0x60 DUP2 ADD DUP11 SWAP1 MSTORE TIMESTAMP PUSH1 0x80 DUP3 ADD MSTORE PUSH32 0x1937C4A40BA1176B66FD7FC569286057A049D1F0B5E423B0FA1AC7537751140C SWAP1 PUSH1 0xA0 ADD PUSH1 0x40 MLOAD DUP1 SWAP2 SUB SWAP1 LOG1 POP POP POP POP POP POP POP POP SWAP1 SWAP2 SWAP3 SWAP4 JUMP JUMPDEST PUSH1 0x0 SLOAD PUSH1 0x1 PUSH1 0x1 PUSH1 0xA0 SHL SUB AND CALLER EQ PUSH2 0xED9 JUMPI PUSH1 0x40 MLOAD PUSH4 0x118CDAA7 PUSH1 0xE0 SHL DUP2 MSTORE CALLER PUSH1 0x4 DUP3 ADD MSTORE PUSH1 0x24 ADD PUSH2 0x4F4 JUMP JUMPDEST PUSH1 0x0 DUP1 SLOAD PUSH1 0x1 PUSH1 0x1 PUSH1 0xA0 SHL SUB DUP4 DUP2 AND PUSH1 0x1 PUSH1 0x1 PUSH1 0xA0 SHL SUB NOT DUP4 AND DUP2 OR DUP5 SSTORE PUSH1 0x40 MLOAD SWAP2 SWAP1 SWAP3 AND SWAP3 DUP4 SWAP2 PUSH32 0x8BE0079C531659141344CD1FD0A4F28419497F9722A3DAAFE3B4186F6B6457E0 SWAP2 SWAP1 LOG3 POP POP JUMP JUMPDEST PUSH1 0x0 DUP1 PUSH1 0x2 PUSH2 0x1EDE DUP5 PUSH1 0x1 PUSH2 0x2197 JUMP JUMPDEST PUSH2 0x1EE8 SWAP2 SWAP1 PUSH2 0x2115 JUMP JUMPDEST SWAP1 POP DUP3 SWAP2 POP JUMPDEST DUP2 DUP2 LT ISZERO PUSH2 0x1F21 JUMPI SWAP1 POP DUP1 PUSH1 0x2 DUP2 PUSH2 0x1F06 DUP2 DUP7 PUSH2 0x2115 JUMP JUMPDEST PUSH2 0x1F10 SWAP2 SWAP1 PUSH2 0x2197 JUMP JUMPDEST PUSH2 0x1F1A SWAP2 SWAP1 PUSH2 0x2115 JUMP JUMPDEST SWAP1 POP PUSH2 0x1EEE JUMP JUMPDEST POP SWAP2 SWAP1 POP JUMP JUMPDEST PUSH1 0x1 PUSH1 0x1 PUSH1 0xA0 SHL SUB DUP2 AND DUP2 EQ PUSH2 0x13EC JUMPI PUSH1 0x0 DUP1 REVERT JUMPDEST PUSH1 0x0 PUSH1 0x20 DUP3 DUP5 SUB SLT ISZERO PUSH2 0x1F4E JUMPI PUSH1 0x0 DUP1 REVERT JUMPDEST DUP2 CALLDATALOAD PUSH2 0x1232 DUP2 PUSH2 0x1F27 JUMP JUMPDEST PUSH1 0x0 PUSH1 0x20 DUP3 DUP5 SUB SLT ISZERO PUSH2 0x1F6B JUMPI PUSH1 0x0 DUP1 REVERT JUMPDEST POP CALLDATALOAD SWAP2 SWAP1 POP JUMP JUMPDEST PUSH1 0x0 DUP1 PUSH1 0x40 DUP4 DUP6 SUB SLT ISZERO PUSH2 0x1F85 JUMPI PUSH1 0x0 DUP1 REVERT JUMPDEST POP POP DUP1 CALLDATALOAD SWAP3 PUSH1 0x20 SWAP1 SWAP2 ADD CALLDATALOAD SWAP2 POP JUMP JUMPDEST PUSH1 0x0 PUSH1 0x20 DUP3 DUP5 SUB SLT ISZERO PUSH2 0x1FA6 JUMPI PUSH1 0x0 DUP1 REVERT JUMPDEST POP MLOAD SWAP2 SWAP1 POP JUMP JUMPDEST PUSH4 0x4E487B71 PUSH1 0xE0 SHL PUSH1 0x0 MSTORE PUSH1 0x11 PUSH1 0x4 MSTORE PUSH1 0x24 PUSH1 0x0 REVERT JUMPDEST PUSH1 0x1 DUP2 DUP2 JUMPDEST DUP1 DUP6 GT ISZERO PUSH2 0x1FFE JUMPI DUP2 PUSH1 0x0 NOT DIV DUP3 GT ISZERO PUSH2 0x1FE4 JUMPI PUSH2 0x1FE4 PUSH2 0x1FAD JUMP JUMPDEST DUP1 DUP6 AND ISZERO PUSH2 0x1FF1 JUMPI SWAP2 DUP2 MUL SWAP2 JUMPDEST SWAP4 DUP5 SHR SWAP4 SWAP1 DUP1 MUL SWAP1 PUSH2 0x1FC8 JUMP JUMPDEST POP SWAP3 POP SWAP3 SWAP1 POP JUMP JUMPDEST PUSH1 0x0 DUP3 PUSH2 0x2015 JUMPI POP PUSH1 0x1 PUSH2 0x734 JUMP JUMPDEST DUP2 PUSH2 0x2022 JUMPI POP PUSH1 0x0 PUSH2 0x734 JUMP JUMPDEST DUP2 PUSH1 0x1 DUP2 EQ PUSH2 0x2038 JUMPI PUSH1 0x2 DUP2 EQ PUSH2 0x2042 JUMPI PUSH2 0x205E JUMP JUMPDEST PUSH1 0x1 SWAP2 POP POP PUSH2 0x734 JUMP JUMPDEST PUSH1 0xFF DUP5 GT ISZERO PUSH2 0x2053 JUMPI PUSH2 0x2053 PUSH2 0x1FAD JUMP JUMPDEST POP POP PUSH1 0x1 DUP3 SHL PUSH2 0x734 JUMP JUMPDEST POP PUSH1 0x20 DUP4 LT PUSH2 0x133 DUP4 LT AND PUSH1 0x4E DUP5 LT PUSH1 0xB DUP5 LT AND OR ISZERO PUSH2 0x2081 JUMPI POP DUP2 DUP2 EXP PUSH2 0x734 JUMP JUMPDEST PUSH2 0x208B DUP4 DUP4 PUSH2 0x1FC3 JUMP JUMPDEST DUP1 PUSH1 0x0 NOT DIV DUP3 GT ISZERO PUSH2 0x209F JUMPI PUSH2 0x209F PUSH2 0x1FAD JUMP JUMPDEST MUL SWAP4 SWAP3 POP POP POP JUMP JUMPDEST PUSH1 0x0 PUSH2 0x1232 DUP4 DUP4 PUSH2 0x2006 JUMP JUMPDEST DUP1 DUP3 MUL DUP2 ISZERO DUP3 DUP3 DIV DUP5 EQ OR PUSH2 0x734 JUMPI PUSH2 0x734 PUSH2 0x1FAD JUMP JUMPDEST PUSH1 0x0 PUSH1 0x20 DUP3 DUP5 SUB SLT ISZERO PUSH2 0x20DC JUMPI PUSH1 0x0 DUP1 REVERT JUMPDEST DUP2 MLOAD DUP1 ISZERO ISZERO DUP2 EQ PUSH2 0x1232 JUMPI PUSH1 0x0 DUP1 REVERT JUMPDEST DUP2 DUP2 SUB DUP2 DUP2 GT ISZERO PUSH2 0x734 JUMPI PUSH2 0x734 PUSH2 0x1FAD JUMP JUMPDEST PUSH4 0x4E487B71 PUSH1 0xE0 SHL PUSH1 0x0 MSTORE PUSH1 0x12 PUSH1 0x4 MSTORE PUSH1 0x24 PUSH1 0x0 REVERT JUMPDEST PUSH1 0x0 DUP3 PUSH2 0x2124 JUMPI PUSH2 0x2124 PUSH2 0x20FF JUMP JUMPDEST POP DIV SWAP1 JUMP JUMPDEST PUSH1 0x0 DUP1 PUSH1 0x40 DUP4 DUP6 SUB SLT ISZERO PUSH2 0x213C JUMPI PUSH1 0x0 DUP1 REVERT JUMPDEST POP POP DUP1 MLOAD PUSH1 0x20 SWAP1 SWAP2 ADD MLOAD SWAP1 SWAP3 SWAP1 SWAP2 POP JUMP JUMPDEST PUSH1 0x20 DUP1 DUP3 MSTORE PUSH1 0x13 SWAP1 DUP3 ADD MSTORE PUSH19 0x49434F206973207374696C6C20616374697665 PUSH1 0x68 SHL PUSH1 0x40 DUP3 ADD MSTORE PUSH1 0x60 ADD SWAP1 JUMP JUMPDEST PUSH1 0x0 PUSH1 0x20 DUP3 DUP5 SUB SLT ISZERO PUSH2 0x218C JUMPI PUSH1 0x0 DUP1 REVERT JUMPDEST DUP2 MLOAD PUSH2 0x1232 DUP2 PUSH2 0x1F27 JUMP JUMPDEST DUP1 DUP3 ADD DUP1 DUP3 GT ISZERO PUSH2 0x734 JUMPI PUSH2 0x734 PUSH2 0x1FAD JUMP JUMPDEST PUSH1 0x0 PUSH3 0xFFFFFF DUP1 DUP5 AND DUP1 PUSH2 0x21C0 JUMPI PUSH2 0x21C0 PUSH2 0x20FF JUMP JUMPDEST SWAP3 AND SWAP2 SWAP1 SWAP2 DIV SWAP3 SWAP2 POP POP JUMP JUMPDEST PUSH1 0x0 DUP2 PUSH1 0x2 SIGNEXTEND PUSH3 0x7FFFFF NOT DUP2 SUB PUSH2 0x21E5 JUMPI PUSH2 0x21E5 PUSH2 0x1FAD JUMP JUMPDEST PUSH1 0x0 SUB SWAP3 SWAP2 POP POP JUMP JUMPDEST PUSH1 0x0 DUP3 PUSH1 0x2 SIGNEXTEND DUP1 PUSH2 0x2201 JUMPI PUSH2 0x2201 PUSH2 0x20FF JUMP JUMPDEST DUP1 DUP4 PUSH1 0x2 SIGNEXTEND SMOD SWAP2 POP POP SWAP3 SWAP2 POP POP JUMP JUMPDEST PUSH1 0x2 DUP3 DUP2 SIGNEXTEND SWAP1 DUP3 SWAP1 SIGNEXTEND SUB PUSH3 0x7FFFFF NOT DUP2 SLT PUSH3 0x7FFFFF DUP3 SGT OR ISZERO PUSH2 0x734 JUMPI PUSH2 0x734 PUSH2 0x1FAD JUMP JUMPDEST DUP2 MLOAD PUSH1 0x1 PUSH1 0x1 PUSH1 0xA0 SHL SUB AND DUP2 MSTORE PUSH2 0x160 DUP2 ADD PUSH1 0x20 DUP4 ADD MLOAD PUSH2 0x2261 PUSH1 0x20 DUP5 ADD DUP3 PUSH1 0x1 PUSH1 0x1 PUSH1 0xA0 SHL SUB AND SWAP1 MSTORE JUMP JUMPDEST POP PUSH1 0x40 DUP4 ADD MLOAD PUSH2 0x2278 PUSH1 0x40 DUP5 ADD DUP3 PUSH3 0xFFFFFF AND SWAP1 MSTORE JUMP JUMPDEST POP PUSH1 0x60 DUP4 ADD MLOAD PUSH2 0x228D PUSH1 0x60 DUP5 ADD DUP3 PUSH1 0x2 SIGNEXTEND SWAP1 MSTORE JUMP JUMPDEST POP PUSH1 0x80 DUP4 ADD MLOAD PUSH2 0x22A2 PUSH1 0x80 DUP5 ADD DUP3 PUSH1 0x2 SIGNEXTEND SWAP1 MSTORE JUMP JUMPDEST POP PUSH1 0xA0 DUP4 ADD MLOAD PUSH1 0xA0 DUP4 ADD MSTORE PUSH1 0xC0 DUP4 ADD MLOAD PUSH1 0xC0 DUP4 ADD MSTORE PUSH1 0xE0 DUP4 ADD MLOAD PUSH1 0xE0 DUP4 ADD MSTORE PUSH2 0x100 DUP1 DUP5 ADD MLOAD DUP2 DUP5 ADD MSTORE POP PUSH2 0x120 DUP1 DUP5 ADD MLOAD PUSH2 0x22E8 DUP3 DUP6 ADD DUP3 PUSH1 0x1 PUSH1 0x1 PUSH1 0xA0 SHL SUB AND SWAP1 MSTORE JUMP JUMPDEST POP POP PUSH2 0x140 SWAP3 DUP4 ADD MLOAD SWAP2 SWAP1 SWAP3 ADD MSTORE SWAP1 JUMP JUMPDEST PUSH1 0x0 DUP1 PUSH1 0x0 DUP1 PUSH1 0x80 DUP6 DUP8 SUB SLT ISZERO PUSH2 0x230F JUMPI PUSH1 0x0 DUP1 REVERT JUMPDEST DUP5 MLOAD SWAP4 POP PUSH1 0x20 DUP6 ADD MLOAD PUSH1 0x1 PUSH1 0x1 PUSH1 0x80 SHL SUB DUP2 AND DUP2 EQ PUSH2 0x232D JUMPI PUSH1 0x0 DUP1 REVERT JUMPDEST PUSH1 0x40 DUP7 ADD MLOAD PUSH1 0x60 SWAP1 SWAP7 ADD MLOAD SWAP5 SWAP8 SWAP1 SWAP7 POP SWAP3 POP POP POP JUMP INVALID LOG2 PUSH5 0x6970667358 0x22 SLT KECCAK256 PUSH21 0xF3FFCACEF5E33B067445F5321190B1434B90967D13 0x1E 0xAE 0x22 0xE7 PUSH5 0x8A059676A PUSH5 0x736F6C6343 STOP ADDMOD XOR STOP CALLER "},"methodIdentifiers":{"addReferer(address)":"aacff1dd","buyPSC(address)":"5453f3fa","calculateSqrtPriceX96(uint256,uint256)":"a000bf4f","claimETH()":"67272999","claimPSC()":"9d4cc0ea","collectAllFees(uint256)":"46ce96dd","contributors(address)":"1f6d4942","deploymentTime()":"ecda10f5","endICO()":"4f248409","getMultiplier()":"40490a90","getPool()":"026b1d5f","goalAmount()":"2636b945","isEnded()":"a4fd6f56","launchICO()":"1720b593","liquidityETH()":"95097030","liquidityPSC()":"e677afcc","nonfungiblePositionManager()":"b44a2722","owner()":"8da5cb5b","poolETH()":"feb952a3","poolPSC()":"498914a6","renounceOwnership()":"715018a6","soldAmount()":"fa1a5f59","timeLimit()":"c08d1fe5","transferOwnership(address)":"f2fde38b","weightedETHRaised()":"738703ea"}},"storageLayout":{"storage":[{"astId":8,"contract":"contracts/VestedFunder.sol:PSCICO","label":"_owner","offset":0,"slot":"0","type":"t_address"},{"astId":8535,"contract":"contracts/VestedFunder.sol:PSCICO","label":"PSC","offset":0,"slot":"1","type":"t_address"},{"astId":8549,"contract":"contracts/VestedFunder.sol:PSCICO","label":"devWallet","offset":0,"slot":"2","type":"t_address"},{"astId":8551,"contract":"contracts/VestedFunder.sol:PSCICO","label":"deploymentTime","offset":0,"slot":"3","type":"t_uint256"},{"astId":8554,"contract":"contracts/VestedFunder.sol:PSCICO","label":"timeLimit","offset":0,"slot":"4","type":"t_uint256"},{"astId":8556,"contract":"contracts/VestedFunder.sol:PSCICO","label":"poolPSC","offset":0,"slot":"5","type":"t_uint256"},{"astId":8558,"contract":"contracts/VestedFunder.sol:PSCICO","label":"goalAmount","offset":0,"slot":"6","type":"t_uint256"},{"astId":8560,"contract":"contracts/VestedFunder.sol:PSCICO","label":"liquidityPSC","offset":0,"slot":"7","type":"t_uint256"},{"astId":8562,"contract":"contracts/VestedFunder.sol:PSCICO","label":"liquidityETH","offset":0,"slot":"8","type":"t_uint256"},{"astId":8565,"contract":"contracts/VestedFunder.sol:PSCICO","label":"referalCommision","offset":0,"slot":"9","type":"t_uint256"},{"astId":8568,"contract":"contracts/VestedFunder.sol:PSCICO","label":"ratioDivisor","offset":0,"slot":"10","type":"t_uint256"},{"astId":8571,"contract":"contracts/VestedFunder.sol:PSCICO","label":"devCut","offset":0,"slot":"11","type":"t_uint256"},{"astId":8573,"contract":"contracts/VestedFunder.sol:PSCICO","label":"poolETH","offset":0,"slot":"12","type":"t_uint256"},{"astId":8575,"contract":"contracts/VestedFunder.sol:PSCICO","label":"weightedETHRaised","offset":0,"slot":"13","type":"t_uint256"},{"astId":8578,"contract":"contracts/VestedFunder.sol:PSCICO","label":"isPool","offset":0,"slot":"14","type":"t_bool"},{"astId":8583,"contract":"contracts/VestedFunder.sol:PSCICO","label":"contributors","offset":0,"slot":"15","type":"t_mapping(t_address,t_struct(Contributor)8596_storage)"},{"astId":8585,"contract":"contracts/VestedFunder.sol:PSCICO","label":"soldAmount","offset":0,"slot":"16","type":"t_uint256"},{"astId":8640,"contract":"contracts/VestedFunder.sol:PSCICO","label":"isLaunched","offset":0,"slot":"17","type":"t_bool"},{"astId":8946,"contract":"contracts/VestedFunder.sol:PSCICO","label":"endICOCalled","offset":1,"slot":"17","type":"t_bool"},{"astId":9017,"contract":"contracts/VestedFunder.sol:PSCICO","label":"pool","offset":2,"slot":"17","type":"t_address"}],"types":{"t_address":{"encoding":"inplace","label":"address","numberOfBytes":"20"},"t_bool":{"encoding":"inplace","label":"bool","numberOfBytes":"1"},"t_mapping(t_address,t_struct(Contributor)8596_storage)":{"encoding":"mapping","key":"t_address","label":"mapping(address => struct PSCICO.Contributor)","numberOfBytes":"32","value":"t_struct(Contributor)8596_storage"},"t_struct(Contributor)8596_storage":{"encoding":"inplace","label":"struct PSCICO.Contributor","members":[{"astId":8587,"contract":"contracts/VestedFunder.sol:PSCICO","label":"isReferer","offset":0,"slot":"0","type":"t_bool"},{"astId":8589,"contract":"contracts/VestedFunder.sol:PSCICO","label":"ethReceived","offset":0,"slot":"1","type":"t_uint256"},{"astId":8591,"contract":"contracts/VestedFunder.sol:PSCICO","label":"contribution","offset":0,"slot":"2","type":"t_uint256"},{"astId":8593,"contract":"contracts/VestedFunder.sol:PSCICO","label":"weightedContribution","offset":0,"slot":"3","type":"t_uint256"},{"astId":8595,"contract":"contracts/VestedFunder.sol:PSCICO","label":"pscWithdrawn","offset":0,"slot":"4","type":"t_uint256"}],"numberOfBytes":"160"},"t_uint256":{"encoding":"inplace","label":"uint256","numberOfBytes":"32"}}}}}}