{
  "_format": "hh-sol-artifact-1",
  "contractName": "TestFactory",
  "sourceName": "contracts/TestFactory.sol",
  "abi": [
    {
      "inputs": [],
      "name": "ERC1167FailedCreateClone",
      "type": "error"
    },
    {
      "anonymous": false,
      "inputs": [
        {
          "indexed": true,
          "internalType": "address",
          "name": "clone",
          "type": "address"
        }
      ],
      "name": "CloneCreated",
      "type": "event"
    },
    {
      "inputs": [
        {
          "internalType": "address",
          "name": "target",
          "type": "address"
        }
      ],
      "name": "createClone",
      "outputs": [
        {
          "internalType": "address",
          "name": "clone",
          "type": "address"
        }
      ],
      "stateMutability": "nonpayable",
      "type": "function"
    }
  ],
  "bytecode": "0x608060405234801561001057600080fd5b50610188806100206000396000f3fe608060405234801561001057600080fd5b506004361061002b5760003560e01c806357894c1b14610030575b600080fd5b61004361003e366004610122565b61005f565b6040516001600160a01b03909116815260200160405180910390f35b600061006a826100b0565b6040519091506001600160a01b038216907fbe2f3d28fdeb5839123d65fd47ec2f5915c715d2b527b9e229123706fdecfc8590600090a26100aa826100b0565b92915050565b6000763d602d80600a3d3981f3363d3d373d3d3d363d730000008260601b60e81c176000526e5af43d82803e903d91602b57fd5bf38260781b17602052603760096000f090506001600160a01b03811661011d576040516330be1a3d60e21b815260040160405180910390fd5b919050565b60006020828403121561013457600080fd5b81356001600160a01b038116811461014b57600080fd5b939250505056fea26469706673582212204222e5985d4d7f63892d3fc99ccaf2a9019a9b65cd3be51aaf39fe11408e556264736f6c63430008180033",
  "linkReferences": {},
  "deployedLinkReferences": {}
}