{
  "_format": "hh-sol-artifact-1",
  "contractName": "PSCNonVestedICO",
  "sourceName": "contracts/TestFunder.sol",
  "abi": [
    {
      "inputs": [
        {
          "internalType": "address",
          "name": "_PSC",
          "type": "address"
        }
      ],
      "stateMutability": "nonpayable",
      "type": "constructor"
    },
    {
      "inputs": [
        {
          "internalType": "address",
          "name": "owner",
          "type": "address"
        }
      ],
      "name": "OwnableInvalidOwner",
      "type": "error"
    },
    {
      "inputs": [
        {
          "internalType": "address",
          "name": "account",
          "type": "address"
        }
      ],
      "name": "OwnableUnauthorizedAccount",
      "type": "error"
    },
    {
      "anonymous": false,
      "inputs": [
        {
          "indexed": false,
          "internalType": "address",
          "name": "contributor",
          "type": "address"
        },
        {
          "indexed": false,
          "internalType": "address",
          "name": "referer",
          "type": "address"
        },
        {
          "indexed": false,
          "internalType": "uint256",
          "name": "contribution",
          "type": "uint256"
        },
        {
          "indexed": false,
          "internalType": "uint256",
          "name": "amount",
          "type": "uint256"
        }
      ],
      "name": "Contributed",
      "type": "event"
    },
    {
      "anonymous": false,
      "inputs": [
        {
          "indexed": false,
          "internalType": "address",
          "name": "pool",
          "type": "address"
        },
        {
          "indexed": false,
          "internalType": "uint160",
          "name": "sqrtPriceX96",
          "type": "uint160"
        }
      ],
      "name": "CreatedLiquidityPool",
      "type": "event"
    },
    {
      "anonymous": false,
      "inputs": [
        {
          "indexed": false,
          "internalType": "address",
          "name": "contributor",
          "type": "address"
        },
        {
          "indexed": false,
          "internalType": "uint256",
          "name": "amount",
          "type": "uint256"
        }
      ],
      "name": "ETHClaimed",
      "type": "event"
    },
    {
      "anonymous": false,
      "inputs": [
        {
          "indexed": false,
          "internalType": "uint256",
          "name": "tokenId",
          "type": "uint256"
        },
        {
          "indexed": false,
          "internalType": "uint128",
          "name": "liquidity",
          "type": "uint128"
        },
        {
          "indexed": false,
          "internalType": "uint256",
          "name": "amount0",
          "type": "uint256"
        },
        {
          "indexed": false,
          "internalType": "uint256",
          "name": "amount1",
          "type": "uint256"
        }
      ],
      "name": "MintedLiquidityPosition",
      "type": "event"
    },
    {
      "anonymous": false,
      "inputs": [
        {
          "indexed": true,
          "internalType": "address",
          "name": "previousOwner",
          "type": "address"
        },
        {
          "indexed": true,
          "internalType": "address",
          "name": "newOwner",
          "type": "address"
        }
      ],
      "name": "OwnershipTransferred",
      "type": "event"
    },
    {
      "anonymous": false,
      "inputs": [
        {
          "indexed": false,
          "internalType": "address",
          "name": "contributor",
          "type": "address"
        },
        {
          "indexed": false,
          "internalType": "uint256",
          "name": "amount",
          "type": "uint256"
        }
      ],
      "name": "PSCClaimed",
      "type": "event"
    },
    {
      "inputs": [
        {
          "internalType": "address",
          "name": "referer",
          "type": "address"
        }
      ],
      "name": "addReferer",
      "outputs": [],
      "stateMutability": "nonpayable",
      "type": "function"
    },
    {
      "inputs": [
        {
          "internalType": "address",
          "name": "referer",
          "type": "address"
        }
      ],
      "name": "buyPSC",
      "outputs": [],
      "stateMutability": "payable",
      "type": "function"
    },
    {
      "inputs": [
        {
          "internalType": "uint256",
          "name": "amount0",
          "type": "uint256"
        },
        {
          "internalType": "uint256",
          "name": "amount1",
          "type": "uint256"
        }
      ],
      "name": "calculateSqrtPriceX96",
      "outputs": [
        {
          "internalType": "uint160",
          "name": "",
          "type": "uint160"
        }
      ],
      "stateMutability": "pure",
      "type": "function"
    },
    {
      "inputs": [],
      "name": "claimETH",
      "outputs": [],
      "stateMutability": "nonpayable",
      "type": "function"
    },
    {
      "inputs": [],
      "name": "claimPSC",
      "outputs": [],
      "stateMutability": "nonpayable",
      "type": "function"
    },
    {
      "inputs": [
        {
          "internalType": "uint256",
          "name": "tokenId",
          "type": "uint256"
        }
      ],
      "name": "collectAllFees",
      "outputs": [
        {
          "internalType": "uint256",
          "name": "amount0",
          "type": "uint256"
        },
        {
          "internalType": "uint256",
          "name": "amount1",
          "type": "uint256"
        }
      ],
      "stateMutability": "nonpayable",
      "type": "function"
    },
    {
      "inputs": [
        {
          "internalType": "address",
          "name": "",
          "type": "address"
        }
      ],
      "name": "contributors",
      "outputs": [
        {
          "internalType": "bool",
          "name": "isReferer",
          "type": "bool"
        },
        {
          "internalType": "uint256",
          "name": "amount",
          "type": "uint256"
        },
        {
          "internalType": "uint256",
          "name": "ethReceived",
          "type": "uint256"
        },
        {
          "internalType": "uint256",
          "name": "contribution",
          "type": "uint256"
        }
      ],
      "stateMutability": "view",
      "type": "function"
    },
    {
      "inputs": [],
      "name": "deploymentTime",
      "outputs": [
        {
          "internalType": "uint256",
          "name": "",
          "type": "uint256"
        }
      ],
      "stateMutability": "view",
      "type": "function"
    },
    {
      "inputs": [],
      "name": "endICO",
      "outputs": [],
      "stateMutability": "nonpayable",
      "type": "function"
    },
    {
      "inputs": [],
      "name": "getLiquidityPSC",
      "outputs": [
        {
          "internalType": "uint256",
          "name": "",
          "type": "uint256"
        }
      ],
      "stateMutability": "view",
      "type": "function"
    },
    {
      "inputs": [],
      "name": "getPool",
      "outputs": [
        {
          "internalType": "address",
          "name": "",
          "type": "address"
        }
      ],
      "stateMutability": "view",
      "type": "function"
    },
    {
      "inputs": [],
      "name": "goalAmount",
      "outputs": [
        {
          "internalType": "uint256",
          "name": "",
          "type": "uint256"
        }
      ],
      "stateMutability": "view",
      "type": "function"
    },
    {
      "inputs": [],
      "name": "initialETH",
      "outputs": [
        {
          "internalType": "uint256",
          "name": "",
          "type": "uint256"
        }
      ],
      "stateMutability": "view",
      "type": "function"
    },
    {
      "inputs": [],
      "name": "isEnded",
      "outputs": [
        {
          "internalType": "bool",
          "name": "",
          "type": "bool"
        }
      ],
      "stateMutability": "view",
      "type": "function"
    },
    {
      "inputs": [],
      "name": "isGoalReached",
      "outputs": [
        {
          "internalType": "bool",
          "name": "",
          "type": "bool"
        }
      ],
      "stateMutability": "view",
      "type": "function"
    },
    {
      "inputs": [],
      "name": "launchICO",
      "outputs": [],
      "stateMutability": "nonpayable",
      "type": "function"
    },
    {
      "inputs": [],
      "name": "liquidityETH",
      "outputs": [
        {
          "internalType": "uint256",
          "name": "",
          "type": "uint256"
        }
      ],
      "stateMutability": "view",
      "type": "function"
    },
    {
      "inputs": [],
      "name": "liquidityPSC",
      "outputs": [
        {
          "internalType": "uint256",
          "name": "",
          "type": "uint256"
        }
      ],
      "stateMutability": "view",
      "type": "function"
    },
    {
      "inputs": [],
      "name": "nonfungiblePositionManager",
      "outputs": [
        {
          "internalType": "contract INonfungiblePositionManager",
          "name": "",
          "type": "address"
        }
      ],
      "stateMutability": "view",
      "type": "function"
    },
    {
      "inputs": [],
      "name": "owner",
      "outputs": [
        {
          "internalType": "address",
          "name": "",
          "type": "address"
        }
      ],
      "stateMutability": "view",
      "type": "function"
    },
    {
      "inputs": [],
      "name": "poolETH",
      "outputs": [
        {
          "internalType": "uint256",
          "name": "",
          "type": "uint256"
        }
      ],
      "stateMutability": "view",
      "type": "function"
    },
    {
      "inputs": [],
      "name": "poolPSC",
      "outputs": [
        {
          "internalType": "uint256",
          "name": "",
          "type": "uint256"
        }
      ],
      "stateMutability": "view",
      "type": "function"
    },
    {
      "inputs": [],
      "name": "renounceOwnership",
      "outputs": [],
      "stateMutability": "nonpayable",
      "type": "function"
    },
    {
      "inputs": [],
      "name": "soldAmount",
      "outputs": [
        {
          "internalType": "uint256",
          "name": "",
          "type": "uint256"
        }
      ],
      "stateMutability": "view",
      "type": "function"
    },
    {
      "inputs": [],
      "name": "timeLimit",
      "outputs": [
        {
          "internalType": "uint256",
          "name": "",
          "type": "uint256"
        }
      ],
      "stateMutability": "view",
      "type": "function"
    },
    {
      "inputs": [
        {
          "internalType": "address",
          "name": "newOwner",
          "type": "address"
        }
      ],
      "name": "transferOwnership",
      "outputs": [],
      "stateMutability": "nonpayable",
      "type": "function"
    },
    {
      "stateMutability": "payable",
      "type": "receive"
    }
  ],
  "bytecode": "0x60e060405273c36442b4a4522e871399cd717abdd847ab11fe88608081905260a05273c02aaa39b223fe8d0a0e5c4f27ead9083c756cc260c05262278d0060045560326009556103e8600a55678ac7230489e80000600b55600c805460ff19169055600f805461ffff191690553480156200007957600080fd5b506040516200255a3803806200255a8339810160408190526200009c91620001a9565b3380620000c357604051631e4fbdf760e01b81526000600482015260240160405180910390fd5b620000ce8162000159565b50600180546001600160a01b03199081166001600160a01b03939093169290921781554260039081556002805433941684178155604080516080810182528481526000602080830182815283850183815260608501848152998452600d909252939091209151825460ff191690151517825591519481019490945551908301559151910155620001db565b600080546001600160a01b038381166001600160a01b0319831681178455604051919092169283917f8be0079c531659141344cd1fd0a4f28419497f9722a3daafe3b4186f6b6457e09190a35050565b600060208284031215620001bc57600080fd5b81516001600160a01b0381168114620001d457600080fd5b9392505050565b60805160a05160c0516122ed6200026d600039600081816113e2015281816114120152818161148f0152818161162101528181611655015281816118460152611a040152600081816103ea015281816108120152818161151701528181611736015281816117c80152611963015260008181611a5901528181611b5e01528181611bff0152611d0401526122ed6000f3fe6080604052600436106101855760003560e01c80639d4cc0ea116100d1578063d3eb6f611161008a578063f2fde38b11610064578063f2fde38b14610468578063f52152d614610488578063fa1a5f591461049d578063feb952a3146104b357600080fd5b8063d3eb6f6114610422578063e677afcc1461043c578063ecda10f51461045257600080fd5b80639d4cc0ea1461035e578063a000bf4f14610373578063a4fd6f5614610393578063aacff1dd146103b8578063b44a2722146103d8578063c08d1fe51461040c57600080fd5b80634e82a3d51161013e57806367272999116101185780636727299914610300578063715018a6146103155780638da5cb5b1461032a578063950970301461034857600080fd5b80634e82a3d5146102bc5780634f248409146102d85780635453f3fa146102ed57600080fd5b8063026b1d5f146101915780631720b593146101ce5780631f6d4942146101e55780632636b9451461024d57806346ce96dd14610271578063498914a6146102a657600080fd5b3661018c57005b600080fd5b34801561019d57600080fd5b50600f546201000090046001600160a01b03165b6040516001600160a01b0390911681526020015b60405180910390f35b3480156101da57600080fd5b506101e36104c9565b005b3480156101f157600080fd5b5061022b610200366004611ebd565b600d60205260009081526040902080546001820154600283015460039093015460ff90921692909184565b60408051941515855260208501939093529183015260608201526080016101c5565b34801561025957600080fd5b5061026360065481565b6040519081526020016101c5565b34801561027d57600080fd5b5061029161028c366004611ee1565b610739565b604080519283526020830191909152016101c5565b3480156102b257600080fd5b5061026360055481565b3480156102c857600080fd5b50610263678ac7230489e8000081565b3480156102e457600080fd5b506101e3610889565b6101e36102fb366004611ebd565b610c0e565b34801561030c57600080fd5b506101e3610f3f565b34801561032157600080fd5b506101e361105e565b34801561033657600080fd5b506000546001600160a01b03166101b1565b34801561035457600080fd5b5061026360085481565b34801561036a57600080fd5b506101e3611072565b34801561037f57600080fd5b506101b161038e366004611efa565b611184565b34801561039f57600080fd5b506103a86111d1565b60405190151581526020016101c5565b3480156103c457600080fd5b506101e36103d3366004611ebd565b6111ea565b3480156103e457600080fd5b506101b17f000000000000000000000000000000000000000000000000000000000000000081565b34801561041857600080fd5b5061026360045481565b34801561042e57600080fd5b50600654600e5410156103a8565b34801561044857600080fd5b5061026360075481565b34801561045e57600080fd5b5061026360035481565b34801561047457600080fd5b506101e3610483366004611ebd565b61131f565b34801561049457600080fd5b5061026361135d565b3480156104a957600080fd5b50610263600e5481565b3480156104bf57600080fd5b50610263600b5481565b6000546001600160a01b031633146105285760405162461bcd60e51b815260206004820152601960248201527f4f6e6c79206f776e65722063616e206c61756e63682049434f0000000000000060448201526064015b60405180910390fd5b600f5460ff16156105725760405162461bcd60e51b81526020600482015260146024820152731250d3c8185b1c9958591e481b185d5b98da195960621b604482015260640161051f565b600f805460ff19166001908117909155546040805163313ce56760e01b815290516001600160a01b0390921691600091839163313ce567916004808201926020929091908290030181865afa1580156105cf573d6000803e3d6000fd5b505050506040513d601f19601f820116820180604052508101906105f39190611f1c565b6105fe90600a61202f565b905061060e816301c9c38061203b565b60055561061f816301312d0061203b565b6006556005546040516323b872dd60e01b815233600482015230602482015260448101919091526001600160a01b038316906323b872dd906064016020604051808303816000875af1158015610679573d6000803e3d6000fd5b505050506040513d601f19601f8201168201806040525081019061069d9190612052565b6106e25760405162461bcd60e51b8152602060048201526016602482015275151c985b9cd9995c881d1bc81250d3c819985a5b195960521b604482015260640161051f565b816001600160a01b03166361edb7b06040518163ffffffff1660e01b8152600401600060405180830381600087803b15801561071d57600080fd5b505af1158015610731573d6000803e3d6000fd5b505050505050565b60008061074e6000546001600160a01b031690565b6001600160a01b0316336001600160a01b0316146107ae5760405162461bcd60e51b815260206004820152601b60248201527f4f6e6c79206f776e65722063616e20636f6c6c65637420666565730000000000604482015260640161051f565b6040805160808101825284815233602082019081526001600160801b0382840181815260608401828152945163fc6f786560e01b81528451600482015292516001600160a01b039081166024850152905182166044840152935116606482015290917f0000000000000000000000000000000000000000000000000000000000000000169063fc6f78659060840160408051808303816000875af115801561085a573d6000803e3d6000fd5b505050506040513d601f19601f8201168201806040525081019061087e9190612074565b909590945092505050565b600f5460ff166108ce5760405162461bcd60e51b815260206004820152601060248201526f1250d3c81b9bdd081b185d5b98da195960821b604482015260640161051f565b6108d66111d1565b6109185760405162461bcd60e51b815260206004820152601360248201527249434f206973207374696c6c2061637469766560681b604482015260640161051f565b600f54610100900460ff16156109645760405162461bcd60e51b81526020600482015260116024820152701250d3c8185b1c9958591e48195b991959607a1b604482015260640161051f565b600f805461ff0019166101001790556001546040805163061edb7b60e41b815290516001600160a01b039092169182916361edb7b091600480830192600092919082900301818387803b1580156109ba57600080fd5b505af11580156109ce573d6000803e3d6000fd5b505050506109da6113ca565b506109e3611607565b50505050806001600160a01b03166397d93935826001600160a01b0316638da5cb5b6040518163ffffffff1660e01b8152600401602060405180830381865afa158015610a34573d6000803e3d6000fd5b505050506040513d601f19601f82011682018060405250810190610a589190612098565b6040516001600160e01b031960e084901b1681526001600160a01b039091166004820152602401600060405180830381600087803b158015610a9957600080fd5b505af1158015610aad573d6000803e3d6000fd5b50505050806001600160a01b031663a9059cbb826001600160a01b0316638da5cb5b6040518163ffffffff1660e01b8152600401602060405180830381865afa158015610afe573d6000803e3d6000fd5b505050506040513d601f19601f82011682018060405250810190610b229190612098565b600754600554610b3291906120b5565b6040518363ffffffff1660e01b8152600401610b4f9291906120c8565b6020604051808303816000875af1158015610b6e573d6000803e3d6000fd5b505050506040513d601f19601f82011682018060405250810190610b929190612052565b50600254600a54600954600b546001600160a01b03909316926108fc929190610bc490678ac7230489e80000906120b5565b610bce919061203b565b610bd891906120f7565b610be290476120b5565b6040518115909202916000818181858888f19350505050158015610c0a573d6000803e3d6000fd5b5050565b600f5460ff16610c535760405162461bcd60e51b815260206004820152601060248201526f1250d3c81b9bdd081b185d5b98da195960821b604482015260640161051f565b60003411610ca35760405162461bcd60e51b815260206004820152601c60248201527f56616c7565206d7573742062652067726561746572207468616e203000000000604482015260640161051f565b610cab6111d1565b15610ce75760405162461bcd60e51b815260206004820152600c60248201526b1250d3c81a5cc8195b99195960a21b604482015260640161051f565b6001600160a01b03811615610d5c576001600160a01b0381166000908152600d602052604090205460ff161515600114610d575760405162461bcd60e51b8152602060048201526011602482015270149959995c995c881b9bdd08199bdd5b99607a1b604482015260640161051f565b610d6a565b506002546001600160a01b03165b600034600b54610d7a919061210b565b34600554610d88919061203b565b610d9291906120f7565b9050600a54600954600a54610da791906120b5565b610db1908361203b565b610dbb91906120f7565b336000908152600d602052604081206001018054909190610ddd90849061210b565b9091555050336000908152600d602052604081206003018054349290610e0490849061210b565b9091555050600a54600954610e19908361203b565b610e2391906120f7565b6001600160a01b0383166000908152600d602052604081206001018054909190610e4e90849061210b565b9091555050600a54600954610e63903461203b565b610e6d91906120f7565b6001600160a01b0383166000908152600d602052604081206002018054909190610e9890849061210b565b925050819055508060056000828254610eb191906120b5565b9250508190555034600b6000828254610eca919061210b565b9250508190555080600e6000828254610ee3919061210b565b9091555050604080513381526001600160a01b03841660208201523491810191909152606081018290527f44a1ddc51ace1542c482b6e70a4f0300716de6ac2f749e7f9d44e590806e3fd4906080015b60405180910390a15050565b336000908152600d6020526040902060020154610f905760405162461bcd60e51b815260206004820152600f60248201526e4e6f2045544820746f20636c61696d60881b604482015260640161051f565b600f54610100900460ff16610fdd5760405162461bcd60e51b815260206004820152601360248201527249434f206973207374696c6c2061637469766560681b604482015260640161051f565b336000818152600d6020526040808220600201805490839055905190929183156108fc02918491818181858888f19350505050158015611021573d6000803e3d6000fd5b507f33f3a07d17ea3581c3647a566de28834fda4b148c01e213b5f980b4f54cafb5c33826040516110539291906120c8565b60405180910390a150565b611066611dd2565b6110706000611dff565b565b336000908152600d60205260409020600101546110c35760405162461bcd60e51b815260206004820152600f60248201526e4e6f2050534320746f20636c61696d60881b604482015260640161051f565b60018054336000818152600d60205260408082209094018054919055925163a9059cbb60e01b81526001600160a01b039092169291839163a9059cbb9161110f919085906004016120c8565b6020604051808303816000875af115801561112e573d6000803e3d6000fd5b505050506040513d601f19601f820116820180604052508101906111529190612052565b507f97cc7bda6e85fad9d71c22ecd74d18cb290d07e9d6d2f9260071c9dccdafea543382604051610f339291906120c8565b6000633b9aca006111b0846111a185670de0b6b3a764000061203b565b6111ab91906120f7565b611e4f565b6111be90600160601b61203b565b6111c891906120f7565b90505b92915050565b60006004546003546111e3919061210b565b4211905090565b6002546001600160a01b031633146112445760405162461bcd60e51b815260206004820152601860248201527f4f6e6c79206465762063616e2061646420726566657265720000000000000000604482015260640161051f565b6001600160a01b03811661129a5760405162461bcd60e51b815260206004820152601b60248201527f526566657265722063616e6e6f74206265203020616464726573730000000000604482015260640161051f565b6001600160a01b0381166000908152600d602052604090205460ff16156112fb5760405162461bcd60e51b8152602060048201526015602482015274149959995c995c88185b1c9958591e481859191959605a1b604482015260640161051f565b6001600160a01b03166000908152600d60205260409020805460ff19166001179055565b611327611dd2565b6001600160a01b03811661135157604051631e4fbdf760e01b81526000600482015260240161051f565b61135a81611dff565b50565b600080600a5447600954611371919061203b565b61137b91906120f7565b90506002600b5482678ac7230489e80000611396919061210b565b6005546113a3919061203b565b6113ad91906120f7565b6005546113ba91906120b5565b6113c491906120f7565b91505090565b600154600090610bb8906001600160a01b03908116907f000000000000000000000000000000000000000000000000000000000000000090811682111561143c5750506001547f0000000000000000000000000000000000000000000000000000000000000000906001600160a01b03165b61144461135d565b600755600a546009546002919061145b90826120b5565b611465904761203b565b61146f91906120f7565b61147991906120f7565b6008556001546000906001600160a01b039081167f000000000000000000000000000000000000000000000000000000000000000090911610156114cc576114c5600854600754611184565b90506114dd565b6114da600754600854611184565b90505b6040516309f56ab160e11b81526001600160a01b038481166004830152838116602483015262ffffff8616604483015282811660648301527f000000000000000000000000000000000000000000000000000000000000000016906313ead562906084016020604051808303816000875af1158015611560573d6000803e3d6000fd5b505050506040513d601f19601f820116820180604052508101906115849190612098565b600f805462010000600160b01b031916620100006001600160a01b039384168102919091179182905560408051919092048316815291831660208301527f8a025ab0051d96e37198c583bed3b4413a2c0682a442c03fd4593d5cf5c65b59910160405180910390a15050600f546201000090046001600160a01b03169392505050565b6001546000908190819081906001600160a01b03908116907f00000000000000000000000000000000000000000000000000000000000000009082908290811682111561167f5750506001547f0000000000000000000000000000000000000000000000000000000000000000906001600160a01b03165b600754600a54600954610bb892916000916002919061169e90826120b5565b6116a8904761203b565b6116b291906120f7565b6116bc91906120f7565b9050856001600160a01b031663d0e30db0826040518263ffffffff1660e01b81526004016000604051808303818588803b1580156116f957600080fd5b505af115801561170d573d6000803e3d6000fd5b505060405163095ea7b360e01b81526001600160a01b038b16935063095ea7b3925061176091507f00000000000000000000000000000000000000000000000000000000000000009086906004016120c8565b6020604051808303816000875af115801561177f573d6000803e3d6000fd5b505050506040513d601f19601f820116820180604052508101906117a39190612052565b5060405163095ea7b360e01b81526001600160a01b0387169063095ea7b3906117f2907f00000000000000000000000000000000000000000000000000000000000000009085906004016120c8565b6020604051808303816000875af1158015611811573d6000803e3d6000fd5b505050506040513d601f19601f820116820180604052508101906118359190612052565b506001546001600160a01b039081167f0000000000000000000000000000000000000000000000000000000000000000909116101561188d576118796002826120f7565b9150600260075461188a91906120f7565b90505b6000604051806101600160405280876001600160a01b03168152602001866001600160a01b031681526020018562ffffff1681526020016032866118d1919061211e565b6118dd620d89e8612140565b6118e79190612162565b6118f3620d89e8612140565b6118fd9190612184565b60020b815260200161191060328761211e565b61191d90620d89e8612162565b61192a90620d89e8612184565b60020b81526020018481526020018381526020016000815260200160008152602001306001600160a01b031681526020014281525090507f00000000000000000000000000000000000000000000000000000000000000006001600160a01b03166388316456826040518263ffffffff1660e01b81526004016119ad91906121a9565b6080604051808303816000875af11580156119cc573d6000803e3d6000fd5b505050506040513d601f19601f820116820180604052508101906119f0919061226d565b929e50909c509a5098506001600160a01b037f0000000000000000000000000000000000000000000000000000000000000000811690861603611bd35781891015611b325760405163095ea7b360e01b81526001600160a01b0388169063095ea7b390611a84907f0000000000000000000000000000000000000000000000000000000000000000906000906004016120c8565b6020604051808303816000875af1158015611aa3573d6000803e3d6000fd5b505050506040513d601f19601f82011682018060405250810190611ac79190612052565b506001600160a01b038716632e1a7d4d611ae18b856120b5565b6040518263ffffffff1660e01b8152600401611aff91815260200190565b600060405180830381600087803b158015611b1957600080fd5b505af1158015611b2d573d6000803e3d6000fd5b505050505b828a1015611bce5760405163095ea7b360e01b81526001600160a01b0389169063095ea7b390611b89907f0000000000000000000000000000000000000000000000000000000000000000906000906004016120c8565b6020604051808303816000875af1158015611ba8573d6000803e3d6000fd5b505050506040513d601f19601f82011682018060405250810190611bcc9190612052565b505b611d74565b828a1015611cd85760405163095ea7b360e01b81526001600160a01b0388169063095ea7b390611c2a907f0000000000000000000000000000000000000000000000000000000000000000906000906004016120c8565b6020604051808303816000875af1158015611c49573d6000803e3d6000fd5b505050506040513d601f19601f82011682018060405250810190611c6d9190612052565b506001600160a01b038716632e1a7d4d611c878c866120b5565b6040518263ffffffff1660e01b8152600401611ca591815260200190565b600060405180830381600087803b158015611cbf57600080fd5b505af1158015611cd3573d6000803e3d6000fd5b505050505b81891015611d745760405163095ea7b360e01b81526001600160a01b0389169063095ea7b390611d2f907f0000000000000000000000000000000000000000000000000000000000000000906000906004016120c8565b6020604051808303816000875af1158015611d4e573d6000803e3d6000fd5b505050506040513d601f19601f82011682018060405250810190611d729190612052565b505b604080518d81526001600160801b038d1660208201529081018b9052606081018a90527face4f8aa8800b999acfe2c0d34d162818fcc4213291e4ca0d1aeb2828b2008b49060800160405180910390a1505050505050505090919293565b6000546001600160a01b031633146110705760405163118cdaa760e01b815233600482015260240161051f565b600080546001600160a01b038381166001600160a01b0319831681178455604051919092169283917f8be0079c531659141344cd1fd0a4f28419497f9722a3daafe3b4186f6b6457e09190a35050565b6000806002611e5f84600161210b565b611e6991906120f7565b90508291505b81811015611ea257905080600281611e8781866120f7565b611e91919061210b565b611e9b91906120f7565b9050611e6f565b50919050565b6001600160a01b038116811461135a57600080fd5b600060208284031215611ecf57600080fd5b8135611eda81611ea8565b9392505050565b600060208284031215611ef357600080fd5b5035919050565b60008060408385031215611f0d57600080fd5b50508035926020909101359150565b600060208284031215611f2e57600080fd5b5051919050565b634e487b7160e01b600052601160045260246000fd5b600181815b80851115611f86578160001904821115611f6c57611f6c611f35565b80851615611f7957918102915b93841c9390800290611f50565b509250929050565b600082611f9d575060016111cb565b81611faa575060006111cb565b8160018114611fc05760028114611fca57611fe6565b60019150506111cb565b60ff841115611fdb57611fdb611f35565b50506001821b6111cb565b5060208310610133831016604e8410600b8410161715612009575081810a6111cb565b6120138383611f4b565b806000190482111561202757612027611f35565b029392505050565b60006111c88383611f8e565b80820281158282048414176111cb576111cb611f35565b60006020828403121561206457600080fd5b81518015158114611eda57600080fd5b6000806040838503121561208757600080fd5b505080516020909101519092909150565b6000602082840312156120aa57600080fd5b8151611eda81611ea8565b818103818111156111cb576111cb611f35565b6001600160a01b03929092168252602082015260400190565b634e487b7160e01b600052601260045260246000fd5b600082612106576121066120e1565b500490565b808201808211156111cb576111cb611f35565b600062ffffff80841680612134576121346120e1565b92169190910492915050565b60008160020b627fffff19810361215957612159611f35565b60000392915050565b60008260020b80612175576121756120e1565b808360020b0791505092915050565b600282810b9082900b03627fffff198112627fffff821317156111cb576111cb611f35565b81516001600160a01b03168152610160810160208301516121d560208401826001600160a01b03169052565b5060408301516121ec604084018262ffffff169052565b506060830151612201606084018260020b9052565b506080830151612216608084018260020b9052565b5060a083015160a083015260c083015160c083015260e083015160e08301526101008084015181840152506101208084015161225c828501826001600160a01b03169052565b505061014092830151919092015290565b6000806000806080858703121561228357600080fd5b8451935060208501516001600160801b03811681146122a157600080fd5b604086015160609096015194979096509250505056fea26469706673582212200153b191abc11294503b2174c862031091d6924e1d78281043232b552cba2d9864736f6c63430008180033",
  "linkReferences": {},
  "deployedLinkReferences": {}
}