{
  "_format": "hh-sol-artifact-1",
  "contractName": "RewardsPool",
  "sourceName": "contracts/RewardsPool.sol",
  "abi": [
    {
      "inputs": [],
      "stateMutability": "nonpayable",
      "type": "constructor"
    },
    {
      "inputs": [
        {
          "internalType": "address",
          "name": "target",
          "type": "address"
        }
      ],
      "name": "AddressEmptyCode",
      "type": "error"
    },
    {
      "inputs": [
        {
          "internalType": "address",
          "name": "implementation",
          "type": "address"
        }
      ],
      "name": "ERC1967InvalidImplementation",
      "type": "error"
    },
    {
      "inputs": [],
      "name": "ERC1967NonPayable",
      "type": "error"
    },
    {
      "inputs": [],
      "name": "FailedInnerCall",
      "type": "error"
    },
    {
      "inputs": [],
      "name": "InvalidInitialization",
      "type": "error"
    },
    {
      "inputs": [],
      "name": "NotInitializing",
      "type": "error"
    },
    {
      "inputs": [
        {
          "internalType": "address",
          "name": "owner",
          "type": "address"
        }
      ],
      "name": "OwnableInvalidOwner",
      "type": "error"
    },
    {
      "inputs": [
        {
          "internalType": "address",
          "name": "account",
          "type": "address"
        }
      ],
      "name": "OwnableUnauthorizedAccount",
      "type": "error"
    },
    {
      "inputs": [],
      "name": "UUPSUnauthorizedCallContext",
      "type": "error"
    },
    {
      "inputs": [
        {
          "internalType": "bytes32",
          "name": "slot",
          "type": "bytes32"
        }
      ],
      "name": "UUPSUnsupportedProxiableUUID",
      "type": "error"
    },
    {
      "anonymous": false,
      "inputs": [
        {
          "indexed": true,
          "internalType": "address",
          "name": "user",
          "type": "address"
        },
        {
          "indexed": false,
          "internalType": "uint256",
          "name": "amount",
          "type": "uint256"
        }
      ],
      "name": "ClaimedRewards",
      "type": "event"
    },
    {
      "anonymous": false,
      "inputs": [
        {
          "indexed": true,
          "internalType": "address",
          "name": "caller",
          "type": "address"
        },
        {
          "indexed": false,
          "internalType": "uint256",
          "name": "amount",
          "type": "uint256"
        },
        {
          "indexed": false,
          "internalType": "uint256",
          "name": "newDividendPerStake",
          "type": "uint256"
        },
        {
          "indexed": false,
          "internalType": "uint256",
          "name": "timestamp",
          "type": "uint256"
        }
      ],
      "name": "DividendsUpdated",
      "type": "event"
    },
    {
      "anonymous": false,
      "inputs": [
        {
          "indexed": false,
          "internalType": "uint64",
          "name": "version",
          "type": "uint64"
        }
      ],
      "name": "Initialized",
      "type": "event"
    },
    {
      "anonymous": false,
      "inputs": [
        {
          "indexed": true,
          "internalType": "address",
          "name": "user",
          "type": "address"
        },
        {
          "indexed": false,
          "internalType": "uint256",
          "name": "amount",
          "type": "uint256"
        },
        {
          "indexed": false,
          "internalType": "uint256",
          "name": "stakeTime",
          "type": "uint256"
        },
        {
          "indexed": false,
          "internalType": "uint256",
          "name": "timestamp",
          "type": "uint256"
        }
      ],
      "name": "NewStake",
      "type": "event"
    },
    {
      "anonymous": false,
      "inputs": [
        {
          "indexed": true,
          "internalType": "address",
          "name": "previousOwner",
          "type": "address"
        },
        {
          "indexed": true,
          "internalType": "address",
          "name": "newOwner",
          "type": "address"
        }
      ],
      "name": "OwnershipTransferred",
      "type": "event"
    },
    {
      "anonymous": false,
      "inputs": [
        {
          "indexed": true,
          "internalType": "address",
          "name": "user",
          "type": "address"
        },
        {
          "indexed": false,
          "internalType": "uint256",
          "name": "amount",
          "type": "uint256"
        }
      ],
      "name": "StakeReset",
      "type": "event"
    },
    {
      "anonymous": false,
      "inputs": [
        {
          "indexed": true,
          "internalType": "address",
          "name": "user",
          "type": "address"
        },
        {
          "indexed": false,
          "internalType": "uint256",
          "name": "amount",
          "type": "uint256"
        }
      ],
      "name": "StakeWithdrawn",
      "type": "event"
    },
    {
      "anonymous": false,
      "inputs": [
        {
          "indexed": true,
          "internalType": "address",
          "name": "implementation",
          "type": "address"
        }
      ],
      "name": "Upgraded",
      "type": "event"
    },
    {
      "inputs": [],
      "name": "UPGRADE_INTERFACE_VERSION",
      "outputs": [
        {
          "internalType": "string",
          "name": "",
          "type": "string"
        }
      ],
      "stateMutability": "view",
      "type": "function"
    },
    {
      "inputs": [
        {
          "internalType": "uint256",
          "name": "stakeTime",
          "type": "uint256"
        }
      ],
      "name": "claimRewardsAndResetStake",
      "outputs": [],
      "stateMutability": "nonpayable",
      "type": "function"
    },
    {
      "inputs": [],
      "name": "claimRewardsAndWithdrawStake",
      "outputs": [],
      "stateMutability": "nonpayable",
      "type": "function"
    },
    {
      "inputs": [],
      "name": "dividendPerStake",
      "outputs": [
        {
          "internalType": "uint256",
          "name": "",
          "type": "uint256"
        }
      ],
      "stateMutability": "view",
      "type": "function"
    },
    {
      "inputs": [
        {
          "internalType": "uint256",
          "name": "_timeIncentive",
          "type": "uint256"
        },
        {
          "internalType": "address",
          "name": "_pscAddress",
          "type": "address"
        },
        {
          "internalType": "address",
          "name": "_paysecAddress",
          "type": "address"
        }
      ],
      "name": "initialise",
      "outputs": [],
      "stateMutability": "nonpayable",
      "type": "function"
    },
    {
      "inputs": [
        {
          "internalType": "uint256",
          "name": "amount",
          "type": "uint256"
        },
        {
          "internalType": "uint256",
          "name": "stakeTime",
          "type": "uint256"
        }
      ],
      "name": "newStake",
      "outputs": [],
      "stateMutability": "nonpayable",
      "type": "function"
    },
    {
      "inputs": [],
      "name": "owner",
      "outputs": [
        {
          "internalType": "address",
          "name": "",
          "type": "address"
        }
      ],
      "stateMutability": "view",
      "type": "function"
    },
    {
      "inputs": [],
      "name": "proxiableUUID",
      "outputs": [
        {
          "internalType": "bytes32",
          "name": "",
          "type": "bytes32"
        }
      ],
      "stateMutability": "view",
      "type": "function"
    },
    {
      "inputs": [],
      "name": "renounceOwnership",
      "outputs": [],
      "stateMutability": "nonpayable",
      "type": "function"
    },
    {
      "inputs": [
        {
          "internalType": "address",
          "name": "",
          "type": "address"
        },
        {
          "internalType": "uint256",
          "name": "",
          "type": "uint256"
        }
      ],
      "name": "stakes",
      "outputs": [
        {
          "internalType": "uint256",
          "name": "stakeTime",
          "type": "uint256"
        },
        {
          "internalType": "uint256",
          "name": "startTime",
          "type": "uint256"
        },
        {
          "internalType": "uint256",
          "name": "amount",
          "type": "uint256"
        },
        {
          "internalType": "uint256",
          "name": "dividendPerStakeWithdrawn",
          "type": "uint256"
        }
      ],
      "stateMutability": "view",
      "type": "function"
    },
    {
      "inputs": [],
      "name": "timeIncentive",
      "outputs": [
        {
          "internalType": "uint256",
          "name": "",
          "type": "uint256"
        }
      ],
      "stateMutability": "view",
      "type": "function"
    },
    {
      "inputs": [],
      "name": "totalStake",
      "outputs": [
        {
          "internalType": "uint256",
          "name": "",
          "type": "uint256"
        }
      ],
      "stateMutability": "view",
      "type": "function"
    },
    {
      "inputs": [
        {
          "internalType": "address",
          "name": "newOwner",
          "type": "address"
        }
      ],
      "name": "transferOwnership",
      "outputs": [],
      "stateMutability": "nonpayable",
      "type": "function"
    },
    {
      "inputs": [
        {
          "internalType": "uint256",
          "name": "amount",
          "type": "uint256"
        }
      ],
      "name": "updateDividends",
      "outputs": [],
      "stateMutability": "nonpayable",
      "type": "function"
    },
    {
      "inputs": [
        {
          "internalType": "address",
          "name": "newImplementation",
          "type": "address"
        },
        {
          "internalType": "bytes",
          "name": "data",
          "type": "bytes"
        }
      ],
      "name": "upgradeToAndCall",
      "outputs": [],
      "stateMutability": "payable",
      "type": "function"
    },
    {
      "stateMutability": "payable",
      "type": "receive"
    }
  ],
  "bytecode": "0x60a06040523060805234801561001457600080fd5b5060805161154561003e600039600081816109fb01528181610a240152610b6a01526115456000f3fe6080604052600436106100ec5760003560e01c806383d752691161008a578063a41c1a1811610059578063a41c1a1814610273578063ad3cb1cc14610293578063e734eff4146102d1578063f2fde38b146102e657600080fd5b806383d75269146101e05780638b0e9f3f146101f65780638da5cb5b1461020c5780639308bf651461025357600080fd5b806352d1902d116100c657806352d1902d14610156578063584b62a11461016b578063715018a6146101ab5780637dbf39e5146101c057600080fd5b80631db9e56b146100f857806349c64c0d146101215780634f1ef2861461014357600080fd5b366100f357005b600080fd5b34801561010457600080fd5b5061010e60015481565b6040519081526020015b60405180910390f35b34801561012d57600080fd5b5061014161013c3660046111d7565b610306565b005b61014161015136600461122b565b6104fc565b34801561016257600080fd5b5061010e61051b565b34801561017757600080fd5b5061018b6101863660046112ed565b610538565b604080519485526020850193909352918301526060820152608001610118565b3480156101b757600080fd5b5061014161057e565b3480156101cc57600080fd5b506101416101db366004611317565b610592565b3480156101ec57600080fd5b5061010e60045481565b34801561020257600080fd5b5061010e60005481565b34801561021857600080fd5b507f9016d09d72d40fdae2fd8ceac6b6234c7706214fd39c1cd1e609a0528c199300546040516001600160a01b039091168152602001610118565b34801561025f57600080fd5b5061014161026e366004611330565b610645565b34801561027f57600080fd5b5061014161028e366004611317565b610798565b34801561029f57600080fd5b506102c4604051806040016040528060058152602001640352e302e360dc1b81525081565b6040516101189190611390565b3480156102dd57600080fd5b506101416108f6565b3480156102f257600080fd5b506101416103013660046113c3565b6109b2565b6002546040516323b872dd60e01b8152336004820152306024820152604481018490526001600160a01b039091169081906323b872dd906064016020604051808303816000875af115801561035f573d6000803e3d6000fd5b505050506040513d601f19601f8201168201806040525081019061038391906113de565b6103fc576040805162461bcd60e51b81526020600482015260248101919091527f5472616e73666572206661696c65642c20656e73757265207472616e7366657260448201527f20617070726f76656420616e642073756666696369656e742062616c616e636560648201526084015b60405180910390fd5b60408051608081018252838152426020808301918252828401878152600480546060860190815233600090815260058552968720805460018181018355918952949097208651949092029091019283559251828601555160028201559051600390910155905460649062278d00908590610477908890611416565b6104819190611416565b61048b919061142d565b610495919061142d565b61049f908561144f565b6000808282546104af919061144f565b909155505060408051858152602081018590524281830152905133917f0909233d0a4edea205145d35624a35cc10d2e3afcec257536f63c7910a52fcd3919081900360600190a250505050565b6105046109f0565b61050d82610a95565b6105178282610a9d565b5050565b6000610525610b5f565b506000805160206114f083398151915290565b6005602052816000526040600020818154811061055457600080fd5b60009182526020909120600490910201805460018201546002830154600390930154919450925084565b610586610ba8565b6105906000610c03565b565b600061059c610c74565b604080516080810182528481524260208083019182528284018581526004805460608601908152336000818152600586528881208054600181810183559183529690912088519690940290930194855594519184019190915590516002830155516003909101559151929350917f8f2d0d3a4fa77eefb6691f8ec6c3040a03c047fd034fadb36eee7b4a6a349269906106389085815260200190565b60405180910390a2505050565b7ff0c57e16840df040f15088dc2f81fe391c3923bec73e23a9662efc9c229c6a008054600160401b810460ff16159067ffffffffffffffff1660008115801561068b5750825b905060008267ffffffffffffffff1660011480156106a85750303b155b9050811580156106b6575080155b156106d45760405163f92ee8a960e01b815260040160405180910390fd5b845467ffffffffffffffff1916600117855583156106fe57845460ff60401b1916600160401b1785555b61070733610f93565b61070f610fa4565b600080556001889055600280546001600160a01b03808a166001600160a01b0319928316179092556003805492891692909116919091179055831561078e57845460ff60401b19168555604051600181527fc7f505b2f371ae2175ee4913f4499e1f2633a7b5936321eed1cdaeb6115181d29060200160405180910390a15b5050505050505050565b60035460405163f3a434e360e01b81523360048201526001600160a01b039091169063f3a434e390602401602060405180830381865afa1580156107e0573d6000803e3d6000fd5b505050506040513d601f19601f8201168201806040525081019061080491906113de565b61086b5760405162461bcd60e51b815260206004820152603260248201527f4f6e6c7920696d706c656d656e746174696f6e20636f6e7472616374732063616044820152716e20757064617465206469766964656e647360701b60648201526084016103f3565b6000546000036108785750565b60005461088d82670de0b6b3a7640000611416565b610897919061142d565b600460008282546108a8919061144f565b9091555050600454604080518381526020810192909252429082015233907f16806fa5844a890891fece03eabdf38a0e63ab1d2397ac707aed78e1f155cae79060600160405180910390a250565b6000610900610c74565b60025460405163a9059cbb60e01b8152336004820152602481018390529192506001600160a01b031690819063a9059cbb906044016020604051808303816000875af1158015610954573d6000803e3d6000fd5b505050506040513d601f19601f8201168201806040525081019061097891906113de565b5060405182815233907f8108595eb6bad3acefa9da467d90cc2217686d5c5ac85460f8b7849c840645fc9060200160405180910390a25050565b6109ba610ba8565b6001600160a01b0381166109e457604051631e4fbdf760e01b8152600060048201526024016103f3565b6109ed81610c03565b50565b306001600160a01b037f0000000000000000000000000000000000000000000000000000000000000000161480610a7757507f00000000000000000000000000000000000000000000000000000000000000006001600160a01b0316610a6b6000805160206114f0833981519152546001600160a01b031690565b6001600160a01b031614155b156105905760405163703e46dd60e11b815260040160405180910390fd5b6109ed610ba8565b816001600160a01b03166352d1902d6040518163ffffffff1660e01b8152600401602060405180830381865afa925050508015610af7575060408051601f3d908101601f19168201909252610af491810190611462565b60015b610b1f57604051634c9c8ce360e01b81526001600160a01b03831660048201526024016103f3565b6000805160206114f08339815191528114610b5057604051632a87526960e21b8152600481018290526024016103f3565b610b5a8383610fac565b505050565b306001600160a01b037f000000000000000000000000000000000000000000000000000000000000000016146105905760405163703e46dd60e11b815260040160405180910390fd5b33610bda7f9016d09d72d40fdae2fd8ceac6b6234c7706214fd39c1cd1e609a0528c199300546001600160a01b031690565b6001600160a01b0316146105905760405163118cdaa760e01b81523360048201526024016103f3565b7f9016d09d72d40fdae2fd8ceac6b6234c7706214fd39c1cd1e609a0528c19930080546001600160a01b031981166001600160a01b03848116918217845560405192169182907f8be0079c531659141344cd1fd0a4f28419497f9722a3daafe3b4186f6b6457e090600090a3505050565b6000806000805b33600090815260056020526040902054811015610f1a57336000908152600560205260408120805483908110610cb357610cb361147b565b60009182526020808320604080516080810182526004909402909101805484526001810154928401839052600281015491840191909152600301546060830152909250610d009042611491565b8251909150811015610d205782610d16816114a4565b9350505050610c7b565b3360009081526005602052604090208054610d3d90600190611491565b81548110610d4d57610d4d61147b565b906000526020600020906004020160056000336001600160a01b03166001600160a01b031681526020019081526020016000208481548110610d9157610d9161147b565b60009182526020808320845460049093020191825560018085015490830155600280850154908301556003938401549390910192909255338152600590915260409020805480610de357610de36114bd565b60008281526020812060046000199093019283020181815560018181018390556002820183905560039091018290559190925583516040850151915460649262278d009291610e329190611416565b610e3c9190611416565b610e46919061142d565b610e50919061142d565b8360400151610e5f919061144f565b90506000670de0b6b3a7640000828560600151600454610e7f9190611491565b610e899190611416565b610e93919061142d565b9050606462278d0085600001518660400151600154610eb29190611416565b610ebc9190611416565b610ec6919061142d565b610ed0919061142d565b8460400151610edf919061144f565b600080828254610eef9190611491565b90915550506040840151610f03908861144f565b9650610f0f818761144f565b955050505050610c7b565b8115610f8b57604051339083156108fc029084906000818181858888f19350505050158015610f4d573d6000803e3d6000fd5b5060405182815233907f2d5429efdeca7741a8cd94067b18d988bc4e5f1d5b8272c37b7bfc31e9bfa32c9060200160405180910390a2509092915050565b509092915050565b610f9b611002565b6109ed8161104b565b610590611002565b610fb582611053565b6040516001600160a01b038316907fbc7cd75a20ee27fd9adebab32041f755214dbc6bffa90cc0225b39da2e5c2d3b90600090a2805115610ffa57610b5a82826110b8565b610517611130565b7ff0c57e16840df040f15088dc2f81fe391c3923bec73e23a9662efc9c229c6a0054600160401b900460ff1661059057604051631afcd79f60e31b815260040160405180910390fd5b6109ba611002565b806001600160a01b03163b60000361108957604051634c9c8ce360e01b81526001600160a01b03821660048201526024016103f3565b6000805160206114f083398151915280546001600160a01b0319166001600160a01b0392909216919091179055565b6060600080846001600160a01b0316846040516110d591906114d3565b600060405180830381855af49150503d8060008114611110576040519150601f19603f3d011682016040523d82523d6000602084013e611115565b606091505b509150915061112585838361114f565b925050505b92915050565b34156105905760405163b398979f60e01b815260040160405180910390fd5b6060826111645761115f826111ae565b6111a7565b815115801561117b57506001600160a01b0384163b155b156111a457604051639996b31560e01b81526001600160a01b03851660048201526024016103f3565b50805b9392505050565b8051156111be5780518082602001fd5b604051630a12f52160e11b815260040160405180910390fd5b600080604083850312156111ea57600080fd5b50508035926020909101359150565b80356001600160a01b038116811461121057600080fd5b919050565b634e487b7160e01b600052604160045260246000fd5b6000806040838503121561123e57600080fd5b611247836111f9565b9150602083013567ffffffffffffffff8082111561126457600080fd5b818501915085601f83011261127857600080fd5b81358181111561128a5761128a611215565b604051601f8201601f19908116603f011681019083821181831017156112b2576112b2611215565b816040528281528860208487010111156112cb57600080fd5b8260208601602083013760006020848301015280955050505050509250929050565b6000806040838503121561130057600080fd5b611309836111f9565b946020939093013593505050565b60006020828403121561132957600080fd5b5035919050565b60008060006060848603121561134557600080fd5b83359250611355602085016111f9565b9150611363604085016111f9565b90509250925092565b60005b8381101561138757818101518382015260200161136f565b50506000910152565b60208152600082518060208401526113af81604085016020870161136c565b601f01601f19169190910160400192915050565b6000602082840312156113d557600080fd5b6111a7826111f9565b6000602082840312156113f057600080fd5b815180151581146111a757600080fd5b634e487b7160e01b600052601160045260246000fd5b808202811582820484141761112a5761112a611400565b60008261144a57634e487b7160e01b600052601260045260246000fd5b500490565b8082018082111561112a5761112a611400565b60006020828403121561147457600080fd5b5051919050565b634e487b7160e01b600052603260045260246000fd5b8181038181111561112a5761112a611400565b6000600182016114b6576114b6611400565b5060010190565b634e487b7160e01b600052603160045260246000fd5b600082516114e581846020870161136c565b919091019291505056fe360894a13ba1a3210667c828492db98dca3e2076cc3735a920a3ca505d382bbca2646970667358221220acd5fc438a57169cd833268956b56ab0627ee1ac4357e0ee6543c1871051adfa64736f6c63430008180033",
  "linkReferences": {},
  "deployedLinkReferences": {}
}