{
  "_format": "hh-sol-artifact-1",
  "contractName": "NewPaysec",
  "sourceName": "contracts/NewPaysecFactory.sol",
  "abi": [
    {
      "inputs": [
        {
          "internalType": "address",
          "name": "target",
          "type": "address"
        }
      ],
      "name": "AddressEmptyCode",
      "type": "error"
    },
    {
      "inputs": [],
      "name": "ERC1167FailedCreateClone",
      "type": "error"
    },
    {
      "inputs": [
        {
          "internalType": "address",
          "name": "implementation",
          "type": "address"
        }
      ],
      "name": "ERC1967InvalidImplementation",
      "type": "error"
    },
    {
      "inputs": [],
      "name": "ERC1967NonPayable",
      "type": "error"
    },
    {
      "inputs": [],
      "name": "FailedInnerCall",
      "type": "error"
    },
    {
      "inputs": [],
      "name": "InvalidInitialization",
      "type": "error"
    },
    {
      "inputs": [],
      "name": "NotInitializing",
      "type": "error"
    },
    {
      "inputs": [
        {
          "internalType": "address",
          "name": "owner",
          "type": "address"
        }
      ],
      "name": "OwnableInvalidOwner",
      "type": "error"
    },
    {
      "inputs": [
        {
          "internalType": "address",
          "name": "account",
          "type": "address"
        }
      ],
      "name": "OwnableUnauthorizedAccount",
      "type": "error"
    },
    {
      "inputs": [],
      "name": "UUPSUnauthorizedCallContext",
      "type": "error"
    },
    {
      "inputs": [
        {
          "internalType": "bytes32",
          "name": "slot",
          "type": "bytes32"
        }
      ],
      "name": "UUPSUnsupportedProxiableUUID",
      "type": "error"
    },
    {
      "anonymous": false,
      "inputs": [
        {
          "indexed": true,
          "internalType": "address",
          "name": "buyer",
          "type": "address"
        },
        {
          "indexed": true,
          "internalType": "address",
          "name": "purchaseId",
          "type": "address"
        }
      ],
      "name": "AbortedPurchase",
      "type": "event"
    },
    {
      "anonymous": false,
      "inputs": [
        {
          "indexed": true,
          "internalType": "address",
          "name": "buyer",
          "type": "address"
        },
        {
          "indexed": true,
          "internalType": "address",
          "name": "purchaseId",
          "type": "address"
        },
        {
          "indexed": false,
          "internalType": "uint256",
          "name": "ethValue",
          "type": "uint256"
        }
      ],
      "name": "BuyerCompletedPurchase",
      "type": "event"
    },
    {
      "anonymous": false,
      "inputs": [
        {
          "indexed": true,
          "internalType": "address",
          "name": "buyer",
          "type": "address"
        },
        {
          "indexed": true,
          "internalType": "address",
          "name": "purchaseId",
          "type": "address"
        },
        {
          "indexed": false,
          "internalType": "uint256",
          "name": "ethValue",
          "type": "uint256"
        }
      ],
      "name": "BuyerUnresolvedPurchase",
      "type": "event"
    },
    {
      "anonymous": false,
      "inputs": [
        {
          "indexed": true,
          "internalType": "address",
          "name": "purchaseId",
          "type": "address"
        }
      ],
      "name": "CreatedContract",
      "type": "event"
    },
    {
      "anonymous": false,
      "inputs": [
        {
          "indexed": true,
          "internalType": "address",
          "name": "buyer",
          "type": "address"
        },
        {
          "indexed": true,
          "internalType": "address",
          "name": "seller",
          "type": "address"
        },
        {
          "indexed": false,
          "internalType": "uint256",
          "name": "price",
          "type": "uint256"
        },
        {
          "indexed": false,
          "internalType": "uint256",
          "name": "collateral",
          "type": "uint256"
        },
        {
          "indexed": false,
          "internalType": "address",
          "name": "tokenAddress",
          "type": "address"
        },
        {
          "indexed": true,
          "internalType": "address",
          "name": "purchaseId",
          "type": "address"
        }
      ],
      "name": "CreatedPurchase",
      "type": "event"
    },
    {
      "anonymous": false,
      "inputs": [
        {
          "indexed": false,
          "internalType": "uint64",
          "name": "version",
          "type": "uint64"
        }
      ],
      "name": "Initialized",
      "type": "event"
    },
    {
      "anonymous": false,
      "inputs": [
        {
          "indexed": true,
          "internalType": "address",
          "name": "previousOwner",
          "type": "address"
        },
        {
          "indexed": true,
          "internalType": "address",
          "name": "newOwner",
          "type": "address"
        }
      ],
      "name": "OwnershipTransferred",
      "type": "event"
    },
    {
      "anonymous": false,
      "inputs": [
        {
          "indexed": true,
          "internalType": "address",
          "name": "seller",
          "type": "address"
        },
        {
          "indexed": true,
          "internalType": "address",
          "name": "purchaseId",
          "type": "address"
        },
        {
          "indexed": false,
          "internalType": "uint256",
          "name": "ethValue",
          "type": "uint256"
        }
      ],
      "name": "SellerCompletedPurchase",
      "type": "event"
    },
    {
      "anonymous": false,
      "inputs": [
        {
          "indexed": true,
          "internalType": "address",
          "name": "seller",
          "type": "address"
        },
        {
          "indexed": true,
          "internalType": "address",
          "name": "purchaseId",
          "type": "address"
        },
        {
          "indexed": false,
          "internalType": "uint256",
          "name": "ethValue",
          "type": "uint256"
        }
      ],
      "name": "SellerUnresolvedPurchase",
      "type": "event"
    },
    {
      "anonymous": false,
      "inputs": [
        {
          "indexed": true,
          "internalType": "address",
          "name": "implementation",
          "type": "address"
        }
      ],
      "name": "Upgraded",
      "type": "event"
    },
    {
      "inputs": [],
      "name": "UPGRADE_INTERFACE_VERSION",
      "outputs": [
        {
          "internalType": "string",
          "name": "",
          "type": "string"
        }
      ],
      "stateMutability": "view",
      "type": "function"
    },
    {
      "inputs": [
        {
          "internalType": "address",
          "name": "_purchaseCloneImplementation",
          "type": "address"
        }
      ],
      "name": "changeCloneImplementation",
      "outputs": [],
      "stateMutability": "nonpayable",
      "type": "function"
    },
    {
      "inputs": [
        {
          "internalType": "address",
          "name": "_rewardsPoolAddress",
          "type": "address"
        }
      ],
      "name": "changeRewardsPoolAddress",
      "outputs": [],
      "stateMutability": "nonpayable",
      "type": "function"
    },
    {
      "inputs": [],
      "name": "createContract",
      "outputs": [],
      "stateMutability": "payable",
      "type": "function"
    },
    {
      "inputs": [
        {
          "internalType": "address",
          "name": "buyer",
          "type": "address"
        }
      ],
      "name": "emitAbortedPurchase",
      "outputs": [],
      "stateMutability": "nonpayable",
      "type": "function"
    },
    {
      "inputs": [
        {
          "internalType": "address",
          "name": "buyer",
          "type": "address"
        },
        {
          "internalType": "uint256",
          "name": "ethValue",
          "type": "uint256"
        }
      ],
      "name": "emitBuyerCompletedPurchase",
      "outputs": [],
      "stateMutability": "nonpayable",
      "type": "function"
    },
    {
      "inputs": [
        {
          "internalType": "address",
          "name": "buyer",
          "type": "address"
        },
        {
          "internalType": "uint256",
          "name": "ethValue",
          "type": "uint256"
        }
      ],
      "name": "emitBuyerUnresolvedPurchase",
      "outputs": [],
      "stateMutability": "nonpayable",
      "type": "function"
    },
    {
      "inputs": [
        {
          "internalType": "address",
          "name": "buyer",
          "type": "address"
        },
        {
          "internalType": "address",
          "name": "seller",
          "type": "address"
        },
        {
          "internalType": "uint256",
          "name": "price",
          "type": "uint256"
        },
        {
          "internalType": "uint256",
          "name": "collateral",
          "type": "uint256"
        },
        {
          "internalType": "address",
          "name": "tokenAddress",
          "type": "address"
        }
      ],
      "name": "emitCreatedPurchase",
      "outputs": [],
      "stateMutability": "nonpayable",
      "type": "function"
    },
    {
      "inputs": [
        {
          "internalType": "address",
          "name": "seller",
          "type": "address"
        },
        {
          "internalType": "uint256",
          "name": "ethValue",
          "type": "uint256"
        }
      ],
      "name": "emitSellerCompletedPurchase",
      "outputs": [],
      "stateMutability": "nonpayable",
      "type": "function"
    },
    {
      "inputs": [
        {
          "internalType": "address",
          "name": "seller",
          "type": "address"
        },
        {
          "internalType": "uint256",
          "name": "ethValue",
          "type": "uint256"
        }
      ],
      "name": "emitSellerUnresolvedPurchase",
      "outputs": [],
      "stateMutability": "nonpayable",
      "type": "function"
    },
    {
      "inputs": [
        {
          "internalType": "address",
          "name": "clone",
          "type": "address"
        }
      ],
      "name": "getPurchaseClone",
      "outputs": [
        {
          "internalType": "bool",
          "name": "",
          "type": "bool"
        }
      ],
      "stateMutability": "view",
      "type": "function"
    },
    {
      "inputs": [],
      "name": "getVolumeTransacted",
      "outputs": [
        {
          "internalType": "uint256",
          "name": "",
          "type": "uint256"
        }
      ],
      "stateMutability": "view",
      "type": "function"
    },
    {
      "inputs": [
        {
          "internalType": "address",
          "name": "_pscAddress",
          "type": "address"
        }
      ],
      "name": "initialise",
      "outputs": [],
      "stateMutability": "nonpayable",
      "type": "function"
    },
    {
      "inputs": [],
      "name": "newFunction",
      "outputs": [
        {
          "internalType": "string",
          "name": "",
          "type": "string"
        }
      ],
      "stateMutability": "pure",
      "type": "function"
    },
    {
      "inputs": [],
      "name": "owner",
      "outputs": [
        {
          "internalType": "address",
          "name": "",
          "type": "address"
        }
      ],
      "stateMutability": "view",
      "type": "function"
    },
    {
      "inputs": [],
      "name": "proxiableUUID",
      "outputs": [
        {
          "internalType": "bytes32",
          "name": "",
          "type": "bytes32"
        }
      ],
      "stateMutability": "view",
      "type": "function"
    },
    {
      "inputs": [],
      "name": "pscAddress",
      "outputs": [
        {
          "internalType": "address",
          "name": "",
          "type": "address"
        }
      ],
      "stateMutability": "view",
      "type": "function"
    },
    {
      "inputs": [],
      "name": "purchaseCloneImplementation",
      "outputs": [
        {
          "internalType": "address",
          "name": "",
          "type": "address"
        }
      ],
      "stateMutability": "view",
      "type": "function"
    },
    {
      "inputs": [],
      "name": "renounceOwnership",
      "outputs": [],
      "stateMutability": "nonpayable",
      "type": "function"
    },
    {
      "inputs": [],
      "name": "rewardsPoolAddress",
      "outputs": [
        {
          "internalType": "address",
          "name": "",
          "type": "address"
        }
      ],
      "stateMutability": "view",
      "type": "function"
    },
    {
      "inputs": [
        {
          "internalType": "address",
          "name": "newOwner",
          "type": "address"
        }
      ],
      "name": "transferOwnership",
      "outputs": [],
      "stateMutability": "nonpayable",
      "type": "function"
    },
    {
      "inputs": [
        {
          "internalType": "uint256",
          "name": "amount",
          "type": "uint256"
        }
      ],
      "name": "updateVolumeTransacted",
      "outputs": [],
      "stateMutability": "nonpayable",
      "type": "function"
    },
    {
      "inputs": [
        {
          "internalType": "address",
          "name": "newImplementation",
          "type": "address"
        },
        {
          "internalType": "bytes",
          "name": "data",
          "type": "bytes"
        }
      ],
      "name": "upgradeToAndCall",
      "outputs": [],
      "stateMutability": "payable",
      "type": "function"
    },
    {
      "inputs": [],
      "name": "volumeTransacted",
      "outputs": [
        {
          "internalType": "uint256",
          "name": "",
          "type": "uint256"
        }
      ],
      "stateMutability": "view",
      "type": "function"
    },
    {
      "stateMutability": "payable",
      "type": "receive"
    }
  ],
  "bytecode": "0x60a06040523060805234801561001457600080fd5b5060805161157c61003e60003960008181610e2101528181610e4a0152610f90015261157c6000f3fe60806040526004361061014f5760003560e01c80638da5cb5b116100b6578063cce850551161006f578063cce85055146103a7578063e447863c146103c7578063e6707698146103e7578063f2fde38b14610407578063f3a434e314610427578063fbc227941461047057600080fd5b80638da5cb5b146102ec5780639b1b31bd146103015780639d6a890f14610321578063a0e7164a14610341578063ad3cb1cc14610356578063c6fd671b1461038757600080fd5b8063412a5a6d11610108578063412a5a6d146102595780634f1ef2861461026157806352d1902d1461027457806367e4e2e014610297578063715018a6146102b75780637bbd7699146102cc57600080fd5b80630359bf951461015b57806307bd46b41461019857806314a567d6146101ba5780631750d39a146101da5780631902f7a0146101fa5780631b28d63e1461021a57600080fd5b3661015657005b600080fd5b34801561016757600080fd5b5060005461017b906001600160a01b031681565b6040516001600160a01b0390911681526020015b60405180910390f35b3480156101a457600080fd5b506101b86101b33660046112cc565b610486565b005b3480156101c657600080fd5b506101b86101d53660046112cc565b61054e565b3480156101e657600080fd5b506101b86101f53660046112f6565b610600565b34801561020657600080fd5b506101b86102153660046112f6565b6106a4565b34801561022657600080fd5b5060408051808201909152600d81526c48656c6c6f2c20576f726c642160981b60208201525b60405161018f9190611335565b6101b8610748565b6101b861026f36600461137e565b610842565b34801561028057600080fd5b50610289610861565b60405190815260200161018f565b3480156102a357600080fd5b506101b86102b2366004611440565b61087e565b3480156102c357600080fd5b506101b861094b565b3480156102d857600080fd5b506101b86102e73660046112f6565b61095f565b3480156102f857600080fd5b5061017b610a0b565b34801561030d57600080fd5b506101b861031c3660046112cc565b610a39565b34801561032d57600080fd5b506101b861033c3660046112f6565b610af3565b34801561034d57600080fd5b50600354610289565b34801561036257600080fd5b5061024c604051806040016040528060058152602001640352e302e360dc1b81525081565b34801561039357600080fd5b506101b86103a2366004611497565b610c33565b3480156103b357600080fd5b5060025461017b906001600160a01b031681565b3480156103d357600080fd5b506101b86103e23660046112cc565b610cac565b3480156103f357600080fd5b5060015461017b906001600160a01b031681565b34801561041357600080fd5b506101b86104223660046112f6565b610d66565b34801561043357600080fd5b506104606104423660046112f6565b6001600160a01b031660009081526004602052604090205460ff1690565b604051901515815260200161018f565b34801561047c57600080fd5b5061028960035481565b3360009081526004602052604090205460ff166105095760405162461bcd60e51b8152602060048201526042602482015260008051602061152783398151915260448201527f6d69742073656c6c6572556e7265736f6c7665645075726368617365206576656064820152611b9d60f21b608482015260a4015b60405180910390fd5b60405181815233906001600160a01b038416907f06afa9ef1ee3588e0e4f3e535992cd94652a1902d6bcfa0d8d0f3f4fff6d5dab906020015b60405180910390a35050565b3360009081526004602052604090205460ff166105c3576040805162461bcd60e51b815260206004820152602481019190915260008051602061152783398151915260448201527f6d6974206275796572436f6d706c657465645075726368617365206576656e746064820152608401610500565b60405181815233906001600160a01b038416907fc64075b9af8edf56d6483fe6054b52dc1ff7e9145f7d776b6ca183584383734e90602001610542565b610608610a0b565b6001600160a01b0316336001600160a01b0316146106825760405162461bcd60e51b815260206004820152603160248201527f4f6e6c79206f776e657220616c6c6f77656420746f206368616e676520636c6f60448201527037329034b6b83632b6b2b73a30ba34b7b760791b6064820152608401610500565b600180546001600160a01b0319166001600160a01b0392909216919091179055565b6106ac610a0b565b6001600160a01b0316336001600160a01b0316146107265760405162461bcd60e51b815260206004820152603160248201527f4f6e6c79206f776e657220616c6c6f77656420746f206368616e6765207265776044820152706172647320706f6f6c206164647265737360781b6064820152608401610500565b600280546001600160a01b0319166001600160a01b0392909216919091179055565b600154600090610760906001600160a01b0316610da4565b9050806001600160a01b031663a869e098610779610a0b565b60025460005460405160e085901b6001600160e01b03191681526001600160a01b039384166004820152918316602483015291909116604482015230606482015233608482015260a401600060405180830381600087803b1580156107dd57600080fd5b505af11580156107f1573d6000803e3d6000fd5b5050506001600160a01b038216600081815260046020526040808220805460ff19166001179055519192507fa506ad4e7f05eceba62a023c3219e5bd98a615f4fa87e2afb08a2da5cf62bf0c91a250565b61084a610e16565b61085382610ebb565b61085d8282610ec3565b5050565b600061086b610f85565b5060008051602061150783398151915290565b3360009081526004602052604090205460ff166108f15760405162461bcd60e51b8152602060048201526039602482015260008051602061152783398151915260448201527f6d697420637265617465645075726368617365206576656e74000000000000006064820152608401610500565b60408051848152602081018490526001600160a01b03838116828401529151339287811692908916917fa9d08333eae1608100d8bc82bde649e697e81c4b106d9df215cb3f848a74210b9181900360600190a45050505050565b610953610fce565b61095d6000611000565b565b3360009081526004602052604090205460ff166109d25760405162461bcd60e51b8152602060048201526039602482015260008051602061152783398151915260448201527f6d69742061626f727465645075726368617365206576656e74000000000000006064820152608401610500565b60405133906001600160a01b038316907f8e5c6861da5f82d1292134ae62f541bca044cf893c4af6e33b85163cf1b37ceb90600090a350565b7f9016d09d72d40fdae2fd8ceac6b6234c7706214fd39c1cd1e609a0528c199300546001600160a01b031690565b3360009081526004602052604090205460ff16610ab65760405162461bcd60e51b8152602060048201526041602482015260008051602061152783398151915260448201527f6d69742073656c6c6572436f6d706c657465645075726368617365206576656e6064820152601d60fa1b608482015260a401610500565b60405181815233906001600160a01b038416907f8ff05f4d8689979944d50d603cc1d470249d52e15aadaa3ed3551e04a98f29d590602001610542565b7ff0c57e16840df040f15088dc2f81fe391c3923bec73e23a9662efc9c229c6a008054600160401b810460ff16159067ffffffffffffffff16600081158015610b395750825b905060008267ffffffffffffffff166001148015610b565750303b155b905081158015610b64575080155b15610b825760405163f92ee8a960e01b815260040160405180910390fd5b845467ffffffffffffffff191660011785558315610bac57845460ff60401b1916600160401b1785555b610bb533611071565b610bbd611082565b600080546001600160a01b0319166001600160a01b03881617905568270801d946c94000006003558315610c2b57845460ff60401b19168555604051600181527fc7f505b2f371ae2175ee4913f4499e1f2633a7b5936321eed1cdaeb6115181d29060200160405180910390a15b505050505050565b3360009081526004602052604090205460ff16610c925760405162461bcd60e51b815260206004820152601a60248201527f4f6e6c792070617973656320636c6f6e6520636f6e74726163740000000000006044820152606401610500565b8060036000828254610ca491906114b0565b909155505050565b3360009081526004602052604090205460ff16610d295760405162461bcd60e51b8152602060048201526041602482015260008051602061152783398151915260448201527f6d6974206275796572556e7265736f6c7665645075726368617365206576656e6064820152601d60fa1b608482015260a401610500565b60405181815233906001600160a01b038416907faa8c436ffa5ba1756d1ffc8833b71964bd4a6baa3bdf49e79f6f76477a6d8a0e90602001610542565b610d6e610fce565b6001600160a01b038116610d9857604051631e4fbdf760e01b815260006004820152602401610500565b610da181611000565b50565b6000763d602d80600a3d3981f3363d3d373d3d3d363d730000008260601b60e81c176000526e5af43d82803e903d91602b57fd5bf38260781b17602052603760096000f090506001600160a01b038116610e11576040516330be1a3d60e21b815260040160405180910390fd5b919050565b306001600160a01b037f0000000000000000000000000000000000000000000000000000000000000000161480610e9d57507f00000000000000000000000000000000000000000000000000000000000000006001600160a01b0316610e91600080516020611507833981519152546001600160a01b031690565b6001600160a01b031614155b1561095d5760405163703e46dd60e11b815260040160405180910390fd5b610da1610fce565b816001600160a01b03166352d1902d6040518163ffffffff1660e01b8152600401602060405180830381865afa925050508015610f1d575060408051601f3d908101601f19168201909252610f1a918101906114d1565b60015b610f4557604051634c9c8ce360e01b81526001600160a01b0383166004820152602401610500565b6000805160206115078339815191528114610f7657604051632a87526960e21b815260048101829052602401610500565b610f80838361108a565b505050565b306001600160a01b037f0000000000000000000000000000000000000000000000000000000000000000161461095d5760405163703e46dd60e11b815260040160405180910390fd5b33610fd7610a0b565b6001600160a01b03161461095d5760405163118cdaa760e01b8152336004820152602401610500565b7f9016d09d72d40fdae2fd8ceac6b6234c7706214fd39c1cd1e609a0528c19930080546001600160a01b031981166001600160a01b03848116918217845560405192169182907f8be0079c531659141344cd1fd0a4f28419497f9722a3daafe3b4186f6b6457e090600090a3505050565b6110796110e0565b610da181611129565b61095d6110e0565b61109382611131565b6040516001600160a01b038316907fbc7cd75a20ee27fd9adebab32041f755214dbc6bffa90cc0225b39da2e5c2d3b90600090a28051156110d857610f808282611196565b61085d61120e565b7ff0c57e16840df040f15088dc2f81fe391c3923bec73e23a9662efc9c229c6a0054600160401b900460ff1661095d57604051631afcd79f60e31b815260040160405180910390fd5b610d6e6110e0565b806001600160a01b03163b60000361116757604051634c9c8ce360e01b81526001600160a01b0382166004820152602401610500565b60008051602061150783398151915280546001600160a01b0319166001600160a01b0392909216919091179055565b6060600080846001600160a01b0316846040516111b391906114ea565b600060405180830381855af49150503d80600081146111ee576040519150601f19603f3d011682016040523d82523d6000602084013e6111f3565b606091505b509150915061120385838361122d565b925050505b92915050565b341561095d5760405163b398979f60e01b815260040160405180910390fd5b6060826112425761123d8261128c565b611285565b815115801561125957506001600160a01b0384163b155b1561128257604051639996b31560e01b81526001600160a01b0385166004820152602401610500565b50805b9392505050565b80511561129c5780518082602001fd5b604051630a12f52160e11b815260040160405180910390fd5b80356001600160a01b0381168114610e1157600080fd5b600080604083850312156112df57600080fd5b6112e8836112b5565b946020939093013593505050565b60006020828403121561130857600080fd5b611285826112b5565b60005b8381101561132c578181015183820152602001611314565b50506000910152565b6020815260008251806020840152611354816040850160208701611311565b601f01601f19169190910160400192915050565b634e487b7160e01b600052604160045260246000fd5b6000806040838503121561139157600080fd5b61139a836112b5565b9150602083013567ffffffffffffffff808211156113b757600080fd5b818501915085601f8301126113cb57600080fd5b8135818111156113dd576113dd611368565b604051601f8201601f19908116603f0116810190838211818310171561140557611405611368565b8160405282815288602084870101111561141e57600080fd5b8260208601602083013760006020848301015280955050505050509250929050565b600080600080600060a0868803121561145857600080fd5b611461866112b5565b945061146f602087016112b5565b9350604086013592506060860135915061148b608087016112b5565b90509295509295909350565b6000602082840312156114a957600080fd5b5035919050565b8082018082111561120857634e487b7160e01b600052601160045260246000fd5b6000602082840312156114e357600080fd5b5051919050565b600082516114fc818460208701611311565b919091019291505056fe360894a13ba1a3210667c828492db98dca3e2076cc3735a920a3ca505d382bbc4f6e6c792070617973656320636c6f6e6520636f6e74726163742063616e2065a26469706673582212205be0878973c901392381447420182ee4ed40b61f2ce43d610f6042d39b75251964736f6c63430008180033",
  "linkReferences": {},
  "deployedLinkReferences": {}
}