{
  "_format": "hh-sol-artifact-1",
  "contractName": "Paysec",
  "sourceName": "contracts/PaysecFactory.sol",
  "abi": [
    {
      "inputs": [],
      "stateMutability": "nonpayable",
      "type": "constructor"
    },
    {
      "inputs": [
        {
          "internalType": "address",
          "name": "target",
          "type": "address"
        }
      ],
      "name": "AddressEmptyCode",
      "type": "error"
    },
    {
      "inputs": [],
      "name": "ERC1167FailedCreateClone",
      "type": "error"
    },
    {
      "inputs": [
        {
          "internalType": "address",
          "name": "implementation",
          "type": "address"
        }
      ],
      "name": "ERC1967InvalidImplementation",
      "type": "error"
    },
    {
      "inputs": [],
      "name": "ERC1967NonPayable",
      "type": "error"
    },
    {
      "inputs": [],
      "name": "FailedInnerCall",
      "type": "error"
    },
    {
      "inputs": [],
      "name": "InvalidInitialization",
      "type": "error"
    },
    {
      "inputs": [],
      "name": "NotInitializing",
      "type": "error"
    },
    {
      "inputs": [
        {
          "internalType": "address",
          "name": "owner",
          "type": "address"
        }
      ],
      "name": "OwnableInvalidOwner",
      "type": "error"
    },
    {
      "inputs": [
        {
          "internalType": "address",
          "name": "account",
          "type": "address"
        }
      ],
      "name": "OwnableUnauthorizedAccount",
      "type": "error"
    },
    {
      "inputs": [],
      "name": "UUPSUnauthorizedCallContext",
      "type": "error"
    },
    {
      "inputs": [
        {
          "internalType": "bytes32",
          "name": "slot",
          "type": "bytes32"
        }
      ],
      "name": "UUPSUnsupportedProxiableUUID",
      "type": "error"
    },
    {
      "anonymous": false,
      "inputs": [
        {
          "indexed": true,
          "internalType": "address",
          "name": "buyer",
          "type": "address"
        },
        {
          "indexed": true,
          "internalType": "address",
          "name": "purchaseId",
          "type": "address"
        }
      ],
      "name": "AbortedPurchase",
      "type": "event"
    },
    {
      "anonymous": false,
      "inputs": [
        {
          "indexed": true,
          "internalType": "address",
          "name": "buyer",
          "type": "address"
        },
        {
          "indexed": true,
          "internalType": "address",
          "name": "purchaseId",
          "type": "address"
        },
        {
          "indexed": false,
          "internalType": "uint256",
          "name": "ethValue",
          "type": "uint256"
        }
      ],
      "name": "BuyerCompletedPurchase",
      "type": "event"
    },
    {
      "anonymous": false,
      "inputs": [
        {
          "indexed": true,
          "internalType": "address",
          "name": "buyer",
          "type": "address"
        },
        {
          "indexed": true,
          "internalType": "address",
          "name": "purchaseId",
          "type": "address"
        },
        {
          "indexed": false,
          "internalType": "uint256",
          "name": "ethValue",
          "type": "uint256"
        }
      ],
      "name": "BuyerUnresolvedPurchase",
      "type": "event"
    },
    {
      "anonymous": false,
      "inputs": [
        {
          "indexed": true,
          "internalType": "address",
          "name": "purchaseId",
          "type": "address"
        }
      ],
      "name": "CreatedContract",
      "type": "event"
    },
    {
      "anonymous": false,
      "inputs": [
        {
          "indexed": true,
          "internalType": "address",
          "name": "buyer",
          "type": "address"
        },
        {
          "indexed": true,
          "internalType": "address",
          "name": "seller",
          "type": "address"
        },
        {
          "indexed": false,
          "internalType": "uint256",
          "name": "price",
          "type": "uint256"
        },
        {
          "indexed": false,
          "internalType": "uint256",
          "name": "collateral",
          "type": "uint256"
        },
        {
          "indexed": false,
          "internalType": "address",
          "name": "tokenAddress",
          "type": "address"
        },
        {
          "indexed": true,
          "internalType": "address",
          "name": "purchaseId",
          "type": "address"
        }
      ],
      "name": "CreatedPurchase",
      "type": "event"
    },
    {
      "anonymous": false,
      "inputs": [
        {
          "indexed": false,
          "internalType": "uint64",
          "name": "version",
          "type": "uint64"
        }
      ],
      "name": "Initialized",
      "type": "event"
    },
    {
      "anonymous": false,
      "inputs": [
        {
          "indexed": true,
          "internalType": "address",
          "name": "previousOwner",
          "type": "address"
        },
        {
          "indexed": true,
          "internalType": "address",
          "name": "newOwner",
          "type": "address"
        }
      ],
      "name": "OwnershipTransferred",
      "type": "event"
    },
    {
      "anonymous": false,
      "inputs": [
        {
          "indexed": true,
          "internalType": "address",
          "name": "seller",
          "type": "address"
        },
        {
          "indexed": true,
          "internalType": "address",
          "name": "purchaseId",
          "type": "address"
        },
        {
          "indexed": false,
          "internalType": "uint256",
          "name": "ethValue",
          "type": "uint256"
        }
      ],
      "name": "SellerCompletedPurchase",
      "type": "event"
    },
    {
      "anonymous": false,
      "inputs": [
        {
          "indexed": true,
          "internalType": "address",
          "name": "seller",
          "type": "address"
        },
        {
          "indexed": true,
          "internalType": "address",
          "name": "purchaseId",
          "type": "address"
        },
        {
          "indexed": false,
          "internalType": "uint256",
          "name": "ethValue",
          "type": "uint256"
        }
      ],
      "name": "SellerUnresolvedPurchase",
      "type": "event"
    },
    {
      "anonymous": false,
      "inputs": [
        {
          "indexed": true,
          "internalType": "address",
          "name": "implementation",
          "type": "address"
        }
      ],
      "name": "Upgraded",
      "type": "event"
    },
    {
      "inputs": [],
      "name": "UPGRADE_INTERFACE_VERSION",
      "outputs": [
        {
          "internalType": "string",
          "name": "",
          "type": "string"
        }
      ],
      "stateMutability": "view",
      "type": "function"
    },
    {
      "inputs": [
        {
          "internalType": "address",
          "name": "_purchaseCloneImplementation",
          "type": "address"
        }
      ],
      "name": "changeCloneImplementation",
      "outputs": [],
      "stateMutability": "nonpayable",
      "type": "function"
    },
    {
      "inputs": [
        {
          "internalType": "address",
          "name": "_rewardsPoolAddress",
          "type": "address"
        }
      ],
      "name": "changeRewardsPoolAddress",
      "outputs": [],
      "stateMutability": "nonpayable",
      "type": "function"
    },
    {
      "inputs": [],
      "name": "createContract",
      "outputs": [],
      "stateMutability": "payable",
      "type": "function"
    },
    {
      "inputs": [
        {
          "internalType": "address",
          "name": "buyer",
          "type": "address"
        }
      ],
      "name": "emitAbortedPurchase",
      "outputs": [],
      "stateMutability": "nonpayable",
      "type": "function"
    },
    {
      "inputs": [
        {
          "internalType": "address",
          "name": "buyer",
          "type": "address"
        },
        {
          "internalType": "uint256",
          "name": "ethValue",
          "type": "uint256"
        }
      ],
      "name": "emitBuyerCompletedPurchase",
      "outputs": [],
      "stateMutability": "nonpayable",
      "type": "function"
    },
    {
      "inputs": [
        {
          "internalType": "address",
          "name": "buyer",
          "type": "address"
        },
        {
          "internalType": "uint256",
          "name": "ethValue",
          "type": "uint256"
        }
      ],
      "name": "emitBuyerUnresolvedPurchase",
      "outputs": [],
      "stateMutability": "nonpayable",
      "type": "function"
    },
    {
      "inputs": [
        {
          "internalType": "address",
          "name": "buyer",
          "type": "address"
        },
        {
          "internalType": "address",
          "name": "seller",
          "type": "address"
        },
        {
          "internalType": "uint256",
          "name": "price",
          "type": "uint256"
        },
        {
          "internalType": "uint256",
          "name": "collateral",
          "type": "uint256"
        },
        {
          "internalType": "address",
          "name": "tokenAddress",
          "type": "address"
        }
      ],
      "name": "emitCreatedPurchase",
      "outputs": [],
      "stateMutability": "nonpayable",
      "type": "function"
    },
    {
      "inputs": [
        {
          "internalType": "address",
          "name": "seller",
          "type": "address"
        },
        {
          "internalType": "uint256",
          "name": "ethValue",
          "type": "uint256"
        }
      ],
      "name": "emitSellerCompletedPurchase",
      "outputs": [],
      "stateMutability": "nonpayable",
      "type": "function"
    },
    {
      "inputs": [
        {
          "internalType": "address",
          "name": "seller",
          "type": "address"
        },
        {
          "internalType": "uint256",
          "name": "ethValue",
          "type": "uint256"
        }
      ],
      "name": "emitSellerUnresolvedPurchase",
      "outputs": [],
      "stateMutability": "nonpayable",
      "type": "function"
    },
    {
      "inputs": [
        {
          "internalType": "address",
          "name": "clone",
          "type": "address"
        }
      ],
      "name": "getPurchaseClone",
      "outputs": [
        {
          "internalType": "bool",
          "name": "",
          "type": "bool"
        }
      ],
      "stateMutability": "view",
      "type": "function"
    },
    {
      "inputs": [],
      "name": "getVolumeTransacted",
      "outputs": [
        {
          "internalType": "uint256",
          "name": "",
          "type": "uint256"
        }
      ],
      "stateMutability": "view",
      "type": "function"
    },
    {
      "inputs": [
        {
          "internalType": "address",
          "name": "_pscAddress",
          "type": "address"
        }
      ],
      "name": "initialise",
      "outputs": [],
      "stateMutability": "nonpayable",
      "type": "function"
    },
    {
      "inputs": [],
      "name": "owner",
      "outputs": [
        {
          "internalType": "address",
          "name": "",
          "type": "address"
        }
      ],
      "stateMutability": "view",
      "type": "function"
    },
    {
      "inputs": [],
      "name": "proxiableUUID",
      "outputs": [
        {
          "internalType": "bytes32",
          "name": "",
          "type": "bytes32"
        }
      ],
      "stateMutability": "view",
      "type": "function"
    },
    {
      "inputs": [],
      "name": "pscAddress",
      "outputs": [
        {
          "internalType": "address",
          "name": "",
          "type": "address"
        }
      ],
      "stateMutability": "view",
      "type": "function"
    },
    {
      "inputs": [],
      "name": "purchaseCloneImplementation",
      "outputs": [
        {
          "internalType": "address",
          "name": "",
          "type": "address"
        }
      ],
      "stateMutability": "view",
      "type": "function"
    },
    {
      "inputs": [],
      "name": "renounceOwnership",
      "outputs": [],
      "stateMutability": "nonpayable",
      "type": "function"
    },
    {
      "inputs": [],
      "name": "rewardsPoolAddress",
      "outputs": [
        {
          "internalType": "address",
          "name": "",
          "type": "address"
        }
      ],
      "stateMutability": "view",
      "type": "function"
    },
    {
      "inputs": [
        {
          "internalType": "address",
          "name": "newOwner",
          "type": "address"
        }
      ],
      "name": "transferOwnership",
      "outputs": [],
      "stateMutability": "nonpayable",
      "type": "function"
    },
    {
      "inputs": [
        {
          "internalType": "uint256",
          "name": "amount",
          "type": "uint256"
        }
      ],
      "name": "updateVolumeTransacted",
      "outputs": [],
      "stateMutability": "nonpayable",
      "type": "function"
    },
    {
      "inputs": [
        {
          "internalType": "address",
          "name": "newImplementation",
          "type": "address"
        },
        {
          "internalType": "bytes",
          "name": "data",
          "type": "bytes"
        }
      ],
      "name": "upgradeToAndCall",
      "outputs": [],
      "stateMutability": "payable",
      "type": "function"
    },
    {
      "inputs": [],
      "name": "volumeTransacted",
      "outputs": [
        {
          "internalType": "uint256",
          "name": "",
          "type": "uint256"
        }
      ],
      "stateMutability": "view",
      "type": "function"
    },
    {
      "stateMutability": "payable",
      "type": "receive"
    }
  ],
  "bytecode": "0x60a06040523060805234801561001457600080fd5b5060805161153f61003e60003960008181610de401528181610e0d0152610f53015261153f6000f3fe6080604052600436106101445760003560e01c80638da5cb5b116100b6578063cce850551161006f578063cce850551461036a578063e447863c1461038a578063e6707698146103aa578063f2fde38b146103ca578063f3a434e3146103ea578063fbc227941461043357600080fd5b80638da5cb5b146102a25780639b1b31bd146102b75780639d6a890f146102d7578063a0e7164a146102f7578063ad3cb1cc1461030c578063c6fd671b1461034a57600080fd5b8063412a5a6d11610108578063412a5a6d1461020f5780634f1ef2861461021757806352d1902d1461022a57806367e4e2e01461024d578063715018a61461026d5780637bbd76991461028257600080fd5b80630359bf951461015057806307bd46b41461018d57806314a567d6146101af5780631750d39a146101cf5780631902f7a0146101ef57600080fd5b3661014b57005b600080fd5b34801561015c57600080fd5b50600054610170906001600160a01b031681565b6040516001600160a01b0390911681526020015b60405180910390f35b34801561019957600080fd5b506101ad6101a836600461128f565b610449565b005b3480156101bb57600080fd5b506101ad6101ca36600461128f565b610511565b3480156101db57600080fd5b506101ad6101ea3660046112b9565b6105c3565b3480156101fb57600080fd5b506101ad61020a3660046112b9565b610667565b6101ad61070b565b6101ad6102253660046112ea565b610805565b34801561023657600080fd5b5061023f610824565b604051908152602001610184565b34801561025957600080fd5b506101ad6102683660046113ac565b610841565b34801561027957600080fd5b506101ad61090e565b34801561028e57600080fd5b506101ad61029d3660046112b9565b610922565b3480156102ae57600080fd5b506101706109ce565b3480156102c357600080fd5b506101ad6102d236600461128f565b6109fc565b3480156102e357600080fd5b506101ad6102f23660046112b9565b610ab6565b34801561030357600080fd5b5060035461023f565b34801561031857600080fd5b5061033d604051806040016040528060058152602001640352e302e360dc1b81525081565b6040516101849190611427565b34801561035657600080fd5b506101ad61036536600461145a565b610bf6565b34801561037657600080fd5b50600254610170906001600160a01b031681565b34801561039657600080fd5b506101ad6103a536600461128f565b610c6f565b3480156103b657600080fd5b50600154610170906001600160a01b031681565b3480156103d657600080fd5b506101ad6103e53660046112b9565b610d29565b3480156103f657600080fd5b506104236104053660046112b9565b6001600160a01b031660009081526004602052604090205460ff1690565b6040519015158152602001610184565b34801561043f57600080fd5b5061023f60035481565b3360009081526004602052604090205460ff166104cc5760405162461bcd60e51b815260206004820152604260248201526000805160206114ea83398151915260448201527f6d69742073656c6c6572556e7265736f6c7665645075726368617365206576656064820152611b9d60f21b608482015260a4015b60405180910390fd5b60405181815233906001600160a01b038416907f06afa9ef1ee3588e0e4f3e535992cd94652a1902d6bcfa0d8d0f3f4fff6d5dab906020015b60405180910390a35050565b3360009081526004602052604090205460ff16610586576040805162461bcd60e51b81526020600482015260248101919091526000805160206114ea83398151915260448201527f6d6974206275796572436f6d706c657465645075726368617365206576656e7460648201526084016104c3565b60405181815233906001600160a01b038416907fc64075b9af8edf56d6483fe6054b52dc1ff7e9145f7d776b6ca183584383734e90602001610505565b6105cb6109ce565b6001600160a01b0316336001600160a01b0316146106455760405162461bcd60e51b815260206004820152603160248201527f4f6e6c79206f776e657220616c6c6f77656420746f206368616e676520636c6f60448201527037329034b6b83632b6b2b73a30ba34b7b760791b60648201526084016104c3565b600180546001600160a01b0319166001600160a01b0392909216919091179055565b61066f6109ce565b6001600160a01b0316336001600160a01b0316146106e95760405162461bcd60e51b815260206004820152603160248201527f4f6e6c79206f776e657220616c6c6f77656420746f206368616e6765207265776044820152706172647320706f6f6c206164647265737360781b60648201526084016104c3565b600280546001600160a01b0319166001600160a01b0392909216919091179055565b600154600090610723906001600160a01b0316610d67565b9050806001600160a01b031663a869e09861073c6109ce565b60025460005460405160e085901b6001600160e01b03191681526001600160a01b039384166004820152918316602483015291909116604482015230606482015233608482015260a401600060405180830381600087803b1580156107a057600080fd5b505af11580156107b4573d6000803e3d6000fd5b5050506001600160a01b038216600081815260046020526040808220805460ff19166001179055519192507fa506ad4e7f05eceba62a023c3219e5bd98a615f4fa87e2afb08a2da5cf62bf0c91a250565b61080d610dd9565b61081682610e7e565b6108208282610e86565b5050565b600061082e610f48565b506000805160206114ca83398151915290565b3360009081526004602052604090205460ff166108b45760405162461bcd60e51b815260206004820152603960248201526000805160206114ea83398151915260448201527f6d697420637265617465645075726368617365206576656e740000000000000060648201526084016104c3565b60408051848152602081018490526001600160a01b03838116828401529151339287811692908916917fa9d08333eae1608100d8bc82bde649e697e81c4b106d9df215cb3f848a74210b9181900360600190a45050505050565b610916610f91565b6109206000610fc3565b565b3360009081526004602052604090205460ff166109955760405162461bcd60e51b815260206004820152603960248201526000805160206114ea83398151915260448201527f6d69742061626f727465645075726368617365206576656e740000000000000060648201526084016104c3565b60405133906001600160a01b038316907f8e5c6861da5f82d1292134ae62f541bca044cf893c4af6e33b85163cf1b37ceb90600090a350565b7f9016d09d72d40fdae2fd8ceac6b6234c7706214fd39c1cd1e609a0528c199300546001600160a01b031690565b3360009081526004602052604090205460ff16610a795760405162461bcd60e51b815260206004820152604160248201526000805160206114ea83398151915260448201527f6d69742073656c6c6572436f6d706c657465645075726368617365206576656e6064820152601d60fa1b608482015260a4016104c3565b60405181815233906001600160a01b038416907f8ff05f4d8689979944d50d603cc1d470249d52e15aadaa3ed3551e04a98f29d590602001610505565b7ff0c57e16840df040f15088dc2f81fe391c3923bec73e23a9662efc9c229c6a008054600160401b810460ff16159067ffffffffffffffff16600081158015610afc5750825b905060008267ffffffffffffffff166001148015610b195750303b155b905081158015610b27575080155b15610b455760405163f92ee8a960e01b815260040160405180910390fd5b845467ffffffffffffffff191660011785558315610b6f57845460ff60401b1916600160401b1785555b610b7833611034565b610b80611045565b600080546001600160a01b0319166001600160a01b03881617905568270801d946c94000006003558315610bee57845460ff60401b19168555604051600181527fc7f505b2f371ae2175ee4913f4499e1f2633a7b5936321eed1cdaeb6115181d29060200160405180910390a15b505050505050565b3360009081526004602052604090205460ff16610c555760405162461bcd60e51b815260206004820152601a60248201527f4f6e6c792070617973656320636c6f6e6520636f6e747261637400000000000060448201526064016104c3565b8060036000828254610c679190611473565b909155505050565b3360009081526004602052604090205460ff16610cec5760405162461bcd60e51b815260206004820152604160248201526000805160206114ea83398151915260448201527f6d6974206275796572556e7265736f6c7665645075726368617365206576656e6064820152601d60fa1b608482015260a4016104c3565b60405181815233906001600160a01b038416907faa8c436ffa5ba1756d1ffc8833b71964bd4a6baa3bdf49e79f6f76477a6d8a0e90602001610505565b610d31610f91565b6001600160a01b038116610d5b57604051631e4fbdf760e01b8152600060048201526024016104c3565b610d6481610fc3565b50565b6000763d602d80600a3d3981f3363d3d373d3d3d363d730000008260601b60e81c176000526e5af43d82803e903d91602b57fd5bf38260781b17602052603760096000f090506001600160a01b038116610dd4576040516330be1a3d60e21b815260040160405180910390fd5b919050565b306001600160a01b037f0000000000000000000000000000000000000000000000000000000000000000161480610e6057507f00000000000000000000000000000000000000000000000000000000000000006001600160a01b0316610e546000805160206114ca833981519152546001600160a01b031690565b6001600160a01b031614155b156109205760405163703e46dd60e11b815260040160405180910390fd5b610d64610f91565b816001600160a01b03166352d1902d6040518163ffffffff1660e01b8152600401602060405180830381865afa925050508015610ee0575060408051601f3d908101601f19168201909252610edd91810190611494565b60015b610f0857604051634c9c8ce360e01b81526001600160a01b03831660048201526024016104c3565b6000805160206114ca8339815191528114610f3957604051632a87526960e21b8152600481018290526024016104c3565b610f43838361104d565b505050565b306001600160a01b037f000000000000000000000000000000000000000000000000000000000000000016146109205760405163703e46dd60e11b815260040160405180910390fd5b33610f9a6109ce565b6001600160a01b0316146109205760405163118cdaa760e01b81523360048201526024016104c3565b7f9016d09d72d40fdae2fd8ceac6b6234c7706214fd39c1cd1e609a0528c19930080546001600160a01b031981166001600160a01b03848116918217845560405192169182907f8be0079c531659141344cd1fd0a4f28419497f9722a3daafe3b4186f6b6457e090600090a3505050565b61103c6110a3565b610d64816110ec565b6109206110a3565b611056826110f4565b6040516001600160a01b038316907fbc7cd75a20ee27fd9adebab32041f755214dbc6bffa90cc0225b39da2e5c2d3b90600090a280511561109b57610f438282611159565b6108206111d1565b7ff0c57e16840df040f15088dc2f81fe391c3923bec73e23a9662efc9c229c6a0054600160401b900460ff1661092057604051631afcd79f60e31b815260040160405180910390fd5b610d316110a3565b806001600160a01b03163b60000361112a57604051634c9c8ce360e01b81526001600160a01b03821660048201526024016104c3565b6000805160206114ca83398151915280546001600160a01b0319166001600160a01b0392909216919091179055565b6060600080846001600160a01b03168460405161117691906114ad565b600060405180830381855af49150503d80600081146111b1576040519150601f19603f3d011682016040523d82523d6000602084013e6111b6565b606091505b50915091506111c68583836111f0565b925050505b92915050565b34156109205760405163b398979f60e01b815260040160405180910390fd5b606082611205576112008261124f565b611248565b815115801561121c57506001600160a01b0384163b155b1561124557604051639996b31560e01b81526001600160a01b03851660048201526024016104c3565b50805b9392505050565b80511561125f5780518082602001fd5b604051630a12f52160e11b815260040160405180910390fd5b80356001600160a01b0381168114610dd457600080fd5b600080604083850312156112a257600080fd5b6112ab83611278565b946020939093013593505050565b6000602082840312156112cb57600080fd5b61124882611278565b634e487b7160e01b600052604160045260246000fd5b600080604083850312156112fd57600080fd5b61130683611278565b9150602083013567ffffffffffffffff8082111561132357600080fd5b818501915085601f83011261133757600080fd5b813581811115611349576113496112d4565b604051601f8201601f19908116603f01168101908382118183101715611371576113716112d4565b8160405282815288602084870101111561138a57600080fd5b8260208601602083013760006020848301015280955050505050509250929050565b600080600080600060a086880312156113c457600080fd5b6113cd86611278565b94506113db60208701611278565b935060408601359250606086013591506113f760808701611278565b90509295509295909350565b60005b8381101561141e578181015183820152602001611406565b50506000910152565b6020815260008251806020840152611446816040850160208701611403565b601f01601f19169190910160400192915050565b60006020828403121561146c57600080fd5b5035919050565b808201808211156111cb57634e487b7160e01b600052601160045260246000fd5b6000602082840312156114a657600080fd5b5051919050565b600082516114bf818460208701611403565b919091019291505056fe360894a13ba1a3210667c828492db98dca3e2076cc3735a920a3ca505d382bbc4f6e6c792070617973656320636c6f6e6520636f6e74726163742063616e2065a2646970667358221220da2da9e043f8fe973f22474da41e15cf087444c1c816c5ddba0643969b146aae64736f6c63430008180033",
  "linkReferences": {},
  "deployedLinkReferences": {}
}